{"contracts/TravelnCrypto.sol":{"TravelnCrypto":{"abi":[{"inputs":[{"internalType":"uint256","name":"_taxPercent","type":"uint256"},{"internalType":"uint256","name":"_securityFee","type":"uint256"}],"stateMutability":"nonpayable","type":"constructor"},{"anonymous":false,"inputs":[{"indexed":true,"internalType":"address","name":"previousOwner","type":"address"},{"indexed":true,"internalType":"address","name":"newOwner","type":"address"}],"name":"OwnershipTransferred","type":"event"},{"inputs":[{"internalType":"uint256","name":"apartment_id","type":"uint256"},{"internalType":"string","name":"message","type":"string"}],"name":"addReview","outputs":[],"stateMutability":"nonpayable","type":"function"},{"inputs":[{"internalType":"uint256","name":"apartment_id","type":"uint256"},{"internalType":"uint256[]","name":"dates","type":"uint256[]"},{"internalType":"uint256[]","name":"resale_dates","type":"uint256[]"}],"name":"bookApartment","outputs":[],"stateMutability":"payable","type":"function"},{"inputs":[{"internalType":"uint256","name":"apartment_id","type":"uint256"},{"internalType":"uint256","name":"booking_id","type":"uint256"}],"name":"checkIn","outputs":[],"stateMutability":"nonpayable","type":"function"},{"inputs":[{"internalType":"uint256","name":"apartment_id","type":"uint256"},{"internalType":"uint256","name":"booking_id","type":"uint256"}],"name":"claimFunds","outputs":[],"stateMutability":"nonpayable","type":"function"},{"inputs":[{"internalType":"string","name":"name","type":"string"},{"internalType":"string","name":"description","type":"string"},{"internalType":"string","name":"location","type":"string"},{"internalType":"string","name":"images","type":"string"},{"internalType":"uint256","name":"rooms","type":"uint256"},{"internalType":"uint256","name":"price","type":"uint256"}],"name":"createApartment","outputs":[],"stateMutability":"nonpayable","type":"function"},{"inputs":[{"internalType":"uint256","name":"apartment_id","type":"uint256"},{"internalType":"uint256","name":"newPrice","type":"uint256"},{"internalType":"uint256","name":"booking_id","type":"uint256"}],"name":"createResale","outputs":[],"stateMutability":"nonpayable","type":"function"},{"inputs":[{"internalType":"uint256","name":"id","type":"uint256"}],"name":"deleteApartment","outputs":[],"stateMutability":"nonpayable","type":"function"},{"inputs":[],"name":"ethUsdPriceFeed","outputs":[{"internalType":"contract AggregatorV3Interface","name":"","type":"address"}],"stateMutability":"view","type":"function"},{"inputs":[],"name":"getAllApartments","outputs":[{"components":[{"internalType":"uint256","name":"id","type":"uint256"},{"internalType":"string","name":"name","type":"string"},{"internalType":"string","name":"description","type":"string"},{"internalType":"string","name":"location","type":"string"},{"internalType":"string","name":"images","type":"string"},{"internalType":"uint256","name":"rooms","type":"uint256"},{"internalType":"uint256","name":"price","type":"uint256"},{"internalType":"address","name":"owner","type":"address"},{"internalType":"bool","name":"booked","type":"bool"},{"internalType":"bool","name":"deleted","type":"bool"},{"internalType":"uint256","name":"timestamp","type":"uint256"}],"internalType":"struct TravelnCrypto.Apartment[]","name":"Apartments","type":"tuple[]"}],"stateMutability":"view","type":"function"},{"inputs":[{"internalType":"uint256","name":"apartment_id","type":"uint256"}],"name":"getAllBookings","outputs":[{"components":[{"internalType":"uint256","name":"id","type":"uint256"},{"internalType":"uint256","name":"apartment_id","type":"uint256"},{"internalType":"address","name":"tenant","type":"address"},{"internalType":"address","name":"resale_tenant","type":"address"},{"internalType":"uint256","name":"date","type":"uint256"},{"internalType":"uint256","name":"price","type":"uint256"},{"internalType":"bool","name":"checked","type":"bool"},{"internalType":"bool","name":"cancelled","type":"bool"},{"internalType":"bool","name":"resale","type":"bool"},{"internalType":"bool","name":"booked","type":"bool"},{"internalType":"bool","name":"dateRebooked","type":"bool"}],"internalType":"struct TravelnCrypto.Booking[]","name":"","type":"tuple[]"}],"stateMutability":"view","type":"function"},{"inputs":[],"name":"getAllResales","outputs":[{"components":[{"internalType":"uint256","name":"price","type":"uint256"},{"internalType":"uint256","name":"booking_id","type":"uint256"},{"internalType":"uint256","name":"date","type":"uint256"},{"internalType":"address","name":"reseller","type":"address"},{"internalType":"address","name":"new_tenant","type":"address"}],"internalType":"struct TravelnCrypto.Resale[]","name":"","type":"tuple[]"}],"stateMutability":"view","type":"function"},{"inputs":[{"internalType":"uint256","name":"id","type":"uint256"}],"name":"getApartment","outputs":[{"components":[{"internalType":"uint256","name":"id","type":"uint256"},{"internalType":"string","name":"name","type":"string"},{"internalType":"string","name":"description","type":"string"},{"internalType":"string","name":"location","type":"string"},{"internalType":"string","name":"images","type":"string"},{"internalType":"uint256","name":"rooms","type":"uint256"},{"internalType":"uint256","name":"price","type":"uint256"},{"internalType":"address","name":"owner","type":"address"},{"internalType":"bool","name":"booked","type":"bool"},{"internalType":"bool","name":"deleted","type":"bool"},{"internalType":"uint256","name":"timestamp","type":"uint256"}],"internalType":"struct TravelnCrypto.Apartment","name":"","type":"tuple"}],"stateMutability":"view","type":"function"},{"inputs":[{"internalType":"uint256","name":"apartment_id","type":"uint256"},{"internalType":"uint256","name":"booking_id","type":"uint256"}],"name":"getBooking","outputs":[{"components":[{"internalType":"uint256","name":"id","type":"uint256"},{"internalType":"uint256","name":"apartment_id","type":"uint256"},{"internalType":"address","name":"tenant","type":"address"},{"internalType":"address","name":"resale_tenant","type":"address"},{"internalType":"uint256","name":"date","type":"uint256"},{"internalType":"uint256","name":"price","type":"uint256"},{"internalType":"bool","name":"checked","type":"bool"},{"internalType":"bool","name":"cancelled","type":"bool"},{"internalType":"bool","name":"resale","type":"bool"},{"internalType":"bool","name":"booked","type":"bool"},{"internalType":"bool","name":"dateRebooked","type":"bool"}],"internalType":"struct TravelnCrypto.Booking","name":"","type":"tuple"}],"stateMutability":"view","type":"function"},{"inputs":[{"internalType":"uint256","name":"apartment_id","type":"uint256"},{"internalType":"uint256","name":"date","type":"uint256"}],"name":"getDisplayPrice","outputs":[{"internalType":"uint256","name":"","type":"uint256"}],"stateMutability":"view","type":"function"},{"inputs":[],"name":"getPrice","outputs":[{"internalType":"uint256","name":"","type":"uint256"}],"stateMutability":"view","type":"function"},{"inputs":[{"internalType":"uint256","name":"apartment_id","type":"uint256"}],"name":"getQualifiedReviewers","outputs":[{"internalType":"address[]","name":"Tenants","type":"address[]"}],"stateMutability":"view","type":"function"},{"inputs":[{"internalType":"uint256","name":"apartment_id","type":"uint256"}],"name":"getReviews","outputs":[{"components":[{"internalType":"uint256","name":"id","type":"uint256"},{"internalType":"uint256","name":"apartment_id","type":"uint256"},{"internalType":"string","name":"reviewText","type":"string"},{"internalType":"uint256","name":"timestamp","type":"uint256"},{"internalType":"address","name":"owner","type":"address"}],"internalType":"struct TravelnCrypto.Review[]","name":"","type":"tuple[]"}],"stateMutability":"view","type":"function"},{"inputs":[{"internalType":"uint256","name":"apartment_id","type":"uint256"}],"name":"getUnavailableDates","outputs":[{"internalType":"uint256[]","name":"","type":"uint256[]"}],"stateMutability":"view","type":"function"},{"inputs":[],"name":"owner","outputs":[{"internalType":"address","name":"","type":"address"}],"stateMutability":"view","type":"function"},{"inputs":[{"internalType":"uint256","name":"apartment_id","type":"uint256"},{"internalType":"uint256","name":"booking_id","type":"uint256"}],"name":"refundBooking","outputs":[],"stateMutability":"nonpayable","type":"function"},{"inputs":[],"name":"renounceOwnership","outputs":[],"stateMutability":"nonpayable","type":"function"},{"inputs":[{"internalType":"uint256","name":"","type":"uint256"}],"name":"resoldBookingIds","outputs":[{"internalType":"uint256","name":"","type":"uint256"}],"stateMutability":"view","type":"function"},{"inputs":[],"name":"securityFee","outputs":[{"internalType":"uint256","name":"","type":"uint256"}],"stateMutability":"view","type":"function"},{"inputs":[],"name":"taxPercent","outputs":[{"internalType":"uint256","name":"","type":"uint256"}],"stateMutability":"view","type":"function"},{"inputs":[{"internalType":"uint256","name":"apartment_id","type":"uint256"}],"name":"tenantBooked","outputs":[{"internalType":"bool","name":"","type":"bool"}],"stateMutability":"view","type":"function"},{"inputs":[{"internalType":"address","name":"newOwner","type":"address"}],"name":"transferOwnership","outputs":[],"stateMutability":"nonpayable","type":"function"},{"inputs":[{"internalType":"uint256","name":"id","type":"uint256"},{"internalType":"string","name":"name","type":"string"},{"internalType":"string","name":"description","type":"string"},{"internalType":"string","name":"location","type":"string"},{"internalType":"string","name":"images","type":"string"},{"internalType":"uint256","name":"rooms","type":"uint256"},{"internalType":"uint256","name":"price","type":"uint256"}],"name":"updateApartment","outputs":[],"stateMutability":"nonpayable","type":"function"},{"inputs":[{"internalType":"uint256","name":"id","type":"uint256"},{"internalType":"uint256","name":"usdprice","type":"uint256"}],"name":"updatePrice","outputs":[],"stateMutability":"nonpayable","type":"function"}],"evm":{"bytecode":{"linkReferences":{},"object":"6080604052600380546001600160a01b03191673694aa1769357215de4fac081bf1f309adc3253061790553480156200003757600080fd5b5060405162004b0838038062004b088339810160408190526200005a91620000c8565b620000653362000078565b60018055600591909155600455620000ed565b600080546001600160a01b038381166001600160a01b0319831681178455604051919092169283917f8be0079c531659141344cd1fd0a4f28419497f9722a3daafe3b4186f6b6457e09190a35050565b60008060408385031215620000dc57600080fd5b505080516020909101519092909150565b614a0b80620000fd6000396000f3fe6080604052600436106101b75760003560e01c80637fd8984e116100ec578063c2aaccfc1161008a578063d68e130211610064578063d68e13021461052e578063db2f80b714610544578063f2fde38b14610571578063f516f88e1461059157600080fd5b8063c2aaccfc146104c1578063c4452e06146104e1578063c788d6de1461050e57600080fd5b806398d5fdca116100c657806398d5fdca146104075780639d4a22551461041c5780639f31a2be14610449578063b5efcf041461049457600080fd5b80637fd8984e146103a757806382367b2d146103c95780638da5cb5b146103e957600080fd5b806342f6fb29116101595780635bb0c5d6116101335780635bb0c5d61461033c57806367626e5d1461035c578063715018a61461037c5780637541f41c1461039157600080fd5b806342f6fb29146102b7578063455b3070146102ef57806355c3fbfb1461031c57600080fd5b80630f8685c4116101955780630f8685c41461023657806317dd3e14146102645780631c32f0711461027757806327c71c731461029757600080fd5b8063010b58ee146101bc5780630397eee0146101de5780630bb9ce3314610209575b600080fd5b3480156101c857600080fd5b506101dc6101d7366004613ef8565b6105b1565b005b3480156101ea57600080fd5b506101f3610919565b604051610200919061402d565b60405180910390f35b34801561021557600080fd5b5061022961022436600461408f565b610cf4565b60405161020091906140a8565b34801561024257600080fd5b50610256610251366004613ef8565b610e9d565b604051908152602001610200565b6101dc6102723660046141bc565b610fe4565b34801561028357600080fd5b5061025661029236600461408f565b611831565b3480156102a357600080fd5b506101dc6102b2366004614299565b611852565b3480156102c357600080fd5b506003546102d7906001600160a01b031681565b6040516001600160a01b039091168152602001610200565b3480156102fb57600080fd5b5061030f61030a366004613ef8565b611ebf565b604051610200919061440b565b34801561032857600080fd5b506101dc61033736600461408f565b611fa4565b34801561034857600080fd5b506101dc61035736600461441a565b61206c565b34801561036857600080fd5b506101dc610377366004613ef8565b612294565b34801561038857600080fd5b506101dc61279b565b34801561039d57600080fd5b5061025660055481565b3480156103b357600080fd5b506103bc6127af565b6040516102009190614461565b3480156103d557600080fd5b506101dc6103e4366004613ef8565b6128cc565b3480156103f557600080fd5b506000546001600160a01b03166102d7565b34801561041357600080fd5b5061025661292d565b34801561042857600080fd5b5061043c61043736600461408f565b6129c4565b60405161020091906144de565b34801561045557600080fd5b5061048461046436600461408f565b336000908152600a60209081526040808320938352929052205460ff1690565b6040519015158152602001610200565b3480156104a057600080fd5b506104b46104af36600461408f565b612aff565b604051610200919061457c565b3480156104cd57600080fd5b506101dc6104dc3660046145bf565b612bfb565b3480156104ed57600080fd5b506105016104fc36600461408f565b612fe2565b60405161020091906145eb565b34801561051a57600080fd5b506101dc610529366004614605565b6132b6565b34801561053a57600080fd5b5061025660045481565b34801561055057600080fd5b5061056461055f36600461408f565b6135db565b60405161020091906146c4565b34801561057d57600080fd5b506101dc61058c3660046146fc565b613780565b34801561059d57600080fd5b506101dc6105ac366004613ef8565b6137f9565b60008281526007602052604081208054839081106105d1576105d1614725565b60009182526020808320604080516101608101825260079485029092018054835260018101548385015260028101546001600160a01b039081168484015260038201548116606085015260048201546080850152600582015460a085015260069182015460ff808216151560c08701526101008083048216151560e088015262010000830482161515908701526301000000820481161515610120870152600160201b909104161515610140850152898752935290932090910154919250163314806106a757506000546001600160a01b031633145b61073d5760405162461bcd60e51b815260206004820152605660248201527f4572726f723a20596f7520617265206e6f7420617574686f72697a656420746f60448201527f20636c61696d20616e792066756e64732e20496620746869732069732061206d6064820152751a5cdd185ad94818dbdb9d1858dd081cdd5c1c1bdc9d60521b608482015260a4015b60405180910390fd5b600083815260076020526040902080548390811061075d5761075d614725565b600091825260209091206006600790920201015460ff16156107f35760405162461bcd60e51b815260206004820152604360248201527f41706172746d656e7420697320616c726561647920636865636b656420496e2060448201527f6f6e20746869732064617465206e6f206e65656420746f20636c61696d2066756064820152626e647360e81b608482015260a401610734565b6107fb613be2565b81608001511061086a5760405162461bcd60e51b815260206004820152603460248201527f4e6f7420616c6c6f77656420746f20636c61696d2066756e6473206265666f72604482015273652074686520626f6f6b696e672064617465212160601b6064820152608401610734565b600083815260076020526040812080548490811061088a5761088a614725565b906000526020600020906007020160050154905060006064600554836108b09190614751565b6108ba9190614768565b6000868152600660205260409020600701549091506108eb906001600160a01b03166108e6838561478a565b613c01565b6109066109006000546001600160a01b031690565b82613c01565b61091233600454613c01565b5050505050565b6060600060015b600254811161096957600081815260066020526040902060070154600160a81b900460ff1661095757816109538161479d565b9250505b806109618161479d565b915050610920565b508067ffffffffffffffff811115610983576109836140f5565b6040519080825280602002602001820160405280156109bc57816020015b6109a9613df4565b8152602001906001900390816109a15790505b509150600060015b6002548111610cee57600081815260066020526040902060070154600160a81b900460ff16610cdc57600660008281526020019081526020016000206040518061016001604052908160008201548152602001600182018054610a26906147b6565b80601f0160208091040260200160405190810160405280929190818152602001828054610a52906147b6565b8015610a9f5780601f10610a7457610100808354040283529160200191610a9f565b820191906000526020600020905b815481529060010190602001808311610a8257829003601f168201915b50505050508152602001600282018054610ab8906147b6565b80601f0160208091040260200160405190810160405280929190818152602001828054610ae4906147b6565b8015610b315780601f10610b0657610100808354040283529160200191610b31565b820191906000526020600020905b815481529060010190602001808311610b1457829003601f168201915b50505050508152602001600382018054610b4a906147b6565b80601f0160208091040260200160405190810160405280929190818152602001828054610b76906147b6565b8015610bc35780601f10610b9857610100808354040283529160200191610bc3565b820191906000526020600020905b815481529060010190602001808311610ba657829003601f168201915b50505050508152602001600482018054610bdc906147b6565b80601f0160208091040260200160405190810160405280929190818152602001828054610c08906147b6565b8015610c555780601f10610c2a57610100808354040283529160200191610c55565b820191906000526020600020905b815481529060010190602001808311610c3857829003601f168201915b5050509183525050600582015460208201526006820154604082015260078201546001600160a01b038116606083015260ff600160a01b8204811615156080840152600160a81b90910416151560a082015260089091015460c0909101528483610cbe8161479d565b945081518110610cd057610cd0614725565b60200260200101819052505b80610ce68161479d565b9150506109c4565b50505090565b60606000805b600084815260076020526040902054811015610d6c576000848152600760205260409020805482908110610d3057610d30614725565b600091825260209091206006600790920201015460ff1615610d5a5781610d568161479d565b9250505b80610d648161479d565b915050610cfa565b508067ffffffffffffffff811115610d8657610d866140f5565b604051908082528060200260200182016040528015610daf578160200160208202803683370190505b5091506000805b600085815260076020526040902054811015610e95576000858152600760205260409020805482908110610dec57610dec614725565b600091825260209091206006600790920201015460ff1615610e83576000858152600760205260409020805482908110610e2857610e28614725565b60009182526020909120600260079092020101546001600160a01b03168483610e508161479d565b945081518110610e6257610e62614725565b60200260200101906001600160a01b031690816001600160a01b0316815250505b80610e8d8161479d565b915050610db6565b505050919050565b6000828152600b602052604081205460ff16610efb5760405162461bcd60e51b815260206004820181905260248201527f4572726f723a2041706172746d656e742063616e6e6f7420626520666f756e646044820152606401610734565b600083815260106020908152604080832080548251818502810185019093528083529192909190830182828015610f5157602002820191906000526020600020905b815481526020019060010190808311610f3d575b5050505050905060005b8151811015610fd75783828281518110610f7757610f77614725565b602002602001015103610fc557600085815260116020908152604080832087845290915281205490610fa98783611ebf565b516000908152600f60205260409020549450610fde9350505050565b80610fcf8161479d565b915050610f5b565b5060009150505b92915050565b6000838152600b602052604090205460ff166110425760405162461bcd60e51b815260206004820181905260248201527f4572726f723a2041706172746d656e742063616e6e6f7420626520666f756e646044820152606401610734565b600060646004548451600660008881526020019081526020016000206006015461106c9190614751565b6110769190614751565b6110809190614768565b83516000868152600660208190526040909120015461109f9190614751565b6110a991906147f0565b90506000805b835181101561112a576000868152601160205260408120855182908790859081106110dc576110dc614725565b60200260200101518152602001908152602001600020549050600f6000828152602001908152602001600020548361111491906147f0565b92505080806111229061479d565b9150506110af565b5060045460649061113b83856147f0565b6111459190614751565b61114f9190614768565b3410156111935760405162461bcd60e51b8152602060048201526012602482015271496e73756666696369656e742066756e642160701b6044820152606401610734565b61119d8585613c66565b6111f75760405162461bcd60e51b815260206004820152602560248201527f4572726f723a2054686973204461746520697320616c726561647920626f6f6b604482015264032b21090960dd1b6064820152608401610734565b60005b84518110156113f75761120b613e5b565b602080820188905260008881526007909152604090819020548252339082018190526060820152855186908390811061124657611246614725565b60209081029190910181015160808301526000888152600680835260408083209091015460a0850152898252600990925290812087516001929089908690811061129257611292614725565b60209081029190910181015182528181019290925260409081016000908120805494151560ff1995861617905561010085810182815260016101208801818152610140890185815289518652600c8852868620805490991683179098558e8552600780885286862080548085018255908752958890208a5196909102019485559588015190840155928601516002830180546001600160a01b039283166001600160a01b03199182161790915560608801516003850180549190931691161790556080860151600483015560a0860151600583015560c08601516006909201805460e0909701519351945195511515600160201b0264ff000000001996151563010000000263ff0000001996151562010000029690961663ffff00001995151590930261ff00199415159490941661ffff19909816979097179290921792909216919091179190911791909116919091179055806113ef8161479d565b9150506111fa565b5060005b83518110156118295760008681526011602052604081208551829087908590811061142857611428614725565b6020908102919091018101518252818101929092526040908101600090812054808252600c909352205490915060ff166114a45760405162461bcd60e51b815260206004820152601e60248201527f4572726f723a20426f6f6b696e672063616e6e6f7420626520666f756e6400006044820152606401610734565b60008781526007602052604081208054839081106114c4576114c4614725565b600091825260209182902060408051610160810182526007909302909101805483526001808201549484019490945260028101546001600160a01b03908116928401929092526003810154909116606083015260048101546080830152600581015460a08301526006015460ff808216151560c08401526101008083048216151560e0850152620100008304821615159084018190526301000000830482161515610120850152600160201b909204161515610140830152909250146115cc5760405162461bcd60e51b815260206004820152601960248201527f596f752063616e6e6f7420626f6f6b20746869732064617465000000000000006044820152606401610734565b3360608201526115da613eb7565b6000838152600f602090815260409091205482528101839052865187908590811061160757611607614725565b6020908102919091018101516040808401918252848101516001600160a01b039081166060860190815233608087019081526000898152600d875284812088518155888801516001808301919091559651600282015592516003840180549186166001600160a01b03199283161790559151600490930180549390941692909116919091179091558c815260079093529091208054859081106116ac576116ac614725565b906000526020600020906007020160060160046101000a81548160ff0219169083151502179055506001600760008b815260200190815260200160002084815481106116fa576116fa614725565b906000526020600020906007020160060160036101000a81548160ff02191690831515021790555033600760008b8152602001908152602001600020848154811061174757611747614725565b6000918252602080832060079283020160030180546001600160a01b0319166001600160a01b0395909516949094179093558b82529091526040812080548590811061179557611795614725565b906000526020600020906007020160060160026101000a81548160ff0219169083151502179055506001600960008b815260200190815260200160002060008987815181106117e6576117e6614725565b6020026020010151815260200190815260200160002060006101000a81548160ff02191690831515021790555050505080806118219061479d565b9150506113fb565b505050505050565b600e818154811061184157600080fd5b600091825260209091200154905081565b6000878152600b602052604090205460ff1615156001146118ac5760405162461bcd60e51b8152602060048201526014602482015273105c1c185c9d1b595b9d081b9bdd08199bdd5b9960621b6044820152606401610734565b6000878152600660205260409020600701546001600160a01b031633146119205760405162461bcd60e51b815260206004820152602260248201527f556e617574686f72697a656420706572736f6e6e656c2c206f776e6572206f6e6044820152616c7960f01b6064820152608401610734565b60008651116119685760405162461bcd60e51b81526020600482015260146024820152734e616d652063616e6e6f7420626520656d70747960601b6044820152606401610734565b60008551116119b95760405162461bcd60e51b815260206004820152601b60248201527f4465736372697074696f6e2063616e6e6f7420626520656d70747900000000006044820152606401610734565b6000845111611a055760405162461bcd60e51b81526020600482015260186024820152774c6f636174696f6e2063616e6e6f7420626520656d70747960401b6044820152606401610734565b6000835111611a4f5760405162461bcd60e51b8152602060048201526016602482015275496d616765732063616e6e6f7420626520656d70747960501b6044820152606401610734565b60008211611a965760405162461bcd60e51b8152602060048201526014602482015273526f6f6d732063616e6e6f74206265207a65726f60601b6044820152606401610734565b60008111611add5760405162461bcd60e51b815260206004820152601460248201527350726963652063616e6e6f74206265207a65726f60601b6044820152606401610734565b6000600660008981526020019081526020016000206040518061016001604052908160008201548152602001600182018054611b18906147b6565b80601f0160208091040260200160405190810160405280929190818152602001828054611b44906147b6565b8015611b915780601f10611b6657610100808354040283529160200191611b91565b820191906000526020600020905b815481529060010190602001808311611b7457829003601f168201915b50505050508152602001600282018054611baa906147b6565b80601f0160208091040260200160405190810160405280929190818152602001828054611bd6906147b6565b8015611c235780601f10611bf857610100808354040283529160200191611c23565b820191906000526020600020905b815481529060010190602001808311611c0657829003601f168201915b50505050508152602001600382018054611c3c906147b6565b80601f0160208091040260200160405190810160405280929190818152602001828054611c68906147b6565b8015611cb55780601f10611c8a57610100808354040283529160200191611cb5565b820191906000526020600020905b815481529060010190602001808311611c9857829003601f168201915b50505050508152602001600482018054611cce906147b6565b80601f0160208091040260200160405190810160405280929190818152602001828054611cfa906147b6565b8015611d475780601f10611d1c57610100808354040283529160200191611d47565b820191906000526020600020905b815481529060010190602001808311611d2a57829003601f168201915b5050509183525050600582015460208083019190915260068084015460408085019190915260078501546001600160a01b03811660608087019190915260ff600160a01b830481161515608080890191909152600160a81b90930416151560a08088019190915260089097015460c0968701528785018f81528884018f90529088018d90529087018b905294860189905292850187905260008d815291522082518155905191925082916001820190611e009082614849565b5060408201516002820190611e159082614849565b5060608201516003820190611e2a9082614849565b5060808201516004820190611e3f9082614849565b5060a0820151600582015560c0820151600682015560e08201516007820180546101008501516101208601511515600160a81b0260ff60a81b19911515600160a01b026001600160a81b03199093166001600160a01b03909516949094179190911716919091179055610140909101516008909101555050505050505050565b611ec7613e5b565b6000838152600760205260409020805483908110611ee757611ee7614725565b6000918252602091829020604080516101608101825260079093029091018054835260018101549383019390935260028301546001600160a01b0390811691830191909152600383015416606082015260048201546080820152600582015460a082015260069091015460ff808216151560c08401526101008083048216151560e085015262010000830482161515908401526301000000820481161515610120840152600160201b909104161515610140820152905092915050565b6000818152600b602052604090205460ff161515600114611fd75760405162461bcd60e51b815260040161073490614909565b6000818152600660205260409020600701546001600160a01b031633146120365760405162461bcd60e51b8152602060048201526013602482015272556e617574686f72697a656420656e7469747960681b6044820152606401610734565b6000908152600b60209081526040808320805460ff1916905560069091529020600701805460ff60a81b1916600160a81b179055565b6000828152600b602052604090205460ff166120ca5760405162461bcd60e51b815260206004820152601a60248201527f41706172746d656e74206973206e6f7420617661696c61626c650000000000006044820152606401610734565b336000908152600a6020908152604080832085845290915290205460ff166121465760405162461bcd60e51b815260206004820152602960248201527f4d75737420626f6f6b2061706172746d656e74206265666f726520796f752063604482015268616e2072657669657760b81b6064820152608401610734565b60008151116121a25760405162461bcd60e51b815260206004820152602260248201527f596f752063616e6e6f74206c6561766520616e20656d70747920726576696577604482015261212160f01b6064820152608401610734565b6121dd6040518060a001604052806000815260200160008152602001606081526020016000815260200160006001600160a01b031681525090565b6020808201849052600084815260089091526040908190205482528101829052612205613be2565b606082015233608082015260008381526008602090815260408083208054600181810183559185529383902085516005909502019384559184015191830191909155820151829190600282019061225c9082614849565b5060608201516003820155608090910151600490910180546001600160a01b0319166001600160a01b03909216919091179055505050565b61229c613cf1565b60008281526007602052604081208054839081106122bc576122bc614725565b6000918252602091829020604080516101608101825260079093029091018054835260018101549383019390935260028301546001600160a01b0390811691830191909152600383015416606082015260048201546080820152600582015460a082015260069091015460ff80821615801560c08501526101008084048316151560e086015262010000840483161515908501526301000000830482161515610120850152600160201b9092041615156101408301529091506123d15760405162461bcd60e51b815260206004820152602760248201527f43616e6e6f7420726566756e64206166746572206265696e6720636865636b656044820152666420494e21212160c81b6064820152608401610734565b60008381526009602090815260408083206080850151845290915290205460ff1661243e5760405162461bcd60e51b815260206004820181905260248201527f596f7520646964206e6f7420626f6f6b20666f722074686973206461746521216044820152606401610734565b6000546001600160a01b031633146125695780604001516001600160a01b0316336001600160a01b03161480612489575080606001516001600160a01b0316336001600160a01b0316145b6124e95760405162461bcd60e51b815260206004820152602b60248201527f4572726f723a20596f7520617265206e6f742061737369676e656420746f207460448201526a68697320626f6f6b696e6760a81b6064820152608401610734565b6124f1613be2565b8160800151116125695760405162461bcd60e51b815260206004820152603e60248201527f4572726f723a2054686520626f6f6b696e6720646174652068617320616c726560448201527f616479207061737365642c20796f752063616e6e6f7420726566756e642e00006064820152608401610734565b60008381526007602052604090208054600191908490811061258d5761258d614725565b60009182526020808320600792830201600601805461ff0019166101009515159590950294909417909355858252909152604081208054849081106125d4576125d4614725565b60009182526020808320600660079093020191909101805493151563010000000263ff000000199094169390931790925584815260098252604080822060808501518352909252908120805460ff1916905560045460a083015160649161263a91614751565b6126449190614768565b90506000612653600283614768565b61014084015190915015156000036126ad5760008581526006602052604090206007015461268a906001600160a01b031682613c01565b61269f6109006000546001600160a01b031690565b6126ad338460a00151613c01565b610140830151151560010361278b576000848152600d60209081526040808320815160a081018352815480825260018301549482019490945260028201549281019290925260038101546001600160a01b0390811660608401526004918201541660808301525490929160649161272391614751565b61272d9190614768565b9050600061273c600283614768565b600089815260066020526040902060070154909150612764906001600160a01b031685613c01565b6127796109006000546001600160a01b031690565b612787338460000151613c01565b5050505b50505061279760018055565b5050565b6127a3613d4a565b6127ad6000613da4565b565b600e5460609060008167ffffffffffffffff8111156127d0576127d06140f5565b60405190808252806020026020018201604052801561280957816020015b6127f6613eb7565b8152602001906001900390816127ee5790505b50905060005b828110156128c5576000600e828154811061282c5761282c614725565b6000918252602080832090910154808352600d8252604092839020835160a0810185528154815260018201549381019390935260028101549383019390935260038301546001600160a01b03908116606084015260049093015490921660808201528451919250908490849081106128a6576128a6614725565b60200260200101819052505080806128bd9061479d565b91505061280f565b5092915050565b6000828152600b602052604090205460ff1615156001146128ff5760405162461bcd60e51b815260040161073490614909565b8061290861292d565b6129129190614751565b60009283526006602081905260409093209092019190915550565b600080600360009054906101000a90046001600160a01b03166001600160a01b031663feaf968c6040518163ffffffff1660e01b815260040160a060405180830381865afa158015612983573d6000803e3d6000fd5b505050506040513d601f19601f820116820180604052508101906129a79190614955565b505050915050806402540be4006129be91906149a5565b91505090565b606060086000838152602001908152602001600020805480602002602001604051908101604052809291908181526020016000905b82821015612af457838290600052602060002090600502016040518060a00160405290816000820154815260200160018201548152602001600282018054612a40906147b6565b80601f0160208091040260200160405190810160405280929190818152602001828054612a6c906147b6565b8015612ab95780601f10612a8e57610100808354040283529160200191612ab9565b820191906000526020600020905b815481529060010190602001808311612a9c57829003601f168201915b505050918352505060038201546020808301919091526004909201546001600160a01b031660409091015290825260019290920191016129f9565b505050509050919050565b606060076000838152602001908152602001600020805480602002602001604051908101604052809291908181526020016000905b82821015612af4576000848152602090819020604080516101608101825260078602909201805483526001808201548486015260028201546001600160a01b03908116938501939093526003820154909216606084015260048101546080840152600581015460a08401526006015460ff808216151560c08501526101008083048216151560e086015262010000830482161515908501526301000000820481161515610120850152600160201b9091041615156101408301529083529092019101612b34565b6000838152600b602052604090205460ff161515600114612c2e5760405162461bcd60e51b815260040161073490614909565b6000612c3a8483611ebf565b905080610120015115156001151514612cae5760405162461bcd60e51b815260206004820152603060248201527f41706172746d656e742073686f756c6420626520626f6f6b656420696e206f7260448201526f19195c881d1bc81899481c995cdbdb1960821b6064820152608401610734565b80604001516001600160a01b0316336001600160a01b031614612d135760405162461bcd60e51b815260206004820152601c60248201527f4572726f723a20556e617574686f72697a65642074656e616e742121000000006044820152606401610734565b8060c0015115612db15760405162461bcd60e51b815260206004820152605d60248201527f4572726f723a20596f752063616e6e6f74207075742061706172746d656e742060448201527f757020666f7220726573656c6c207768656e20796f75206861766520616c726560648201527f61647920636865636b6564496e20666f72207468697320646174652121000000608482015260a401610734565b60008481526009602090815260408083206080850151845290915290205460ff16612e1e5760405162461bcd60e51b815260206004820181905260248201527f596f7520646964206e6f7420626f6f6b20666f722074686973206461746521216044820152606401610734565b6000612e2b846064614751565b60008681526006602081905260408220015491925090612e4c906064614751565b90506064612e5b826078614751565b612e659190614768565b821115612ecf5760405162461bcd60e51b815260206004820152603260248201527f4e65772070726963652063616e6e6f74206578636565642031323025206f6620604482015271746865206f726967696e616c20707269636560701b6064820152608401610734565b82516000908152600f60209081526040808320889055888352600790915290208351815460019291908110612f0657612f06614725565b60009182526020808320600792830201600601805462ff0000191662010000951515959095029490941790935588825290915260408120845181548110612f4f57612f4f614725565b60009182526020808320600660079093020191909101805493151563010000000263ff00000019909416939093179092558781526009825260408082206080870180518452908452818320805460ff191690558983526010845281832081518154600181018355918552858520909101559551988252601183528082209551825294909152929092209490945550505050565b612fea613df4565b600660008381526020019081526020016000206040518061016001604052908160008201548152602001600182018054613023906147b6565b80601f016020809104026020016040519081016040528092919081815260200182805461304f906147b6565b801561309c5780601f106130715761010080835404028352916020019161309c565b820191906000526020600020905b81548152906001019060200180831161307f57829003601f168201915b505050505081526020016002820180546130b5906147b6565b80601f01602080910402602001604051908101604052809291908181526020018280546130e1906147b6565b801561312e5780601f106131035761010080835404028352916020019161312e565b820191906000526020600020905b81548152906001019060200180831161311157829003601f168201915b50505050508152602001600382018054613147906147b6565b80601f0160208091040260200160405190810160405280929190818152602001828054613173906147b6565b80156131c05780601f10613195576101008083540402835291602001916131c0565b820191906000526020600020905b8154815290600101906020018083116131a357829003601f168201915b505050505081526020016004820180546131d9906147b6565b80601f0160208091040260200160405190810160405280929190818152602001828054613205906147b6565b80156132525780601f1061322757610100808354040283529160200191613252565b820191906000526020600020905b81548152906001019060200180831161323557829003601f168201915b5050509183525050600582015460208201526006820154604082015260078201546001600160a01b038116606083015260ff600160a01b8204811615156080840152600160a81b90910416151560a082015260089091015460c09091015292915050565b60008651116132fe5760405162461bcd60e51b81526020600482015260146024820152734e616d652063616e6e6f7420626520656d70747960601b6044820152606401610734565b600085511161334f5760405162461bcd60e51b815260206004820152601b60248201527f4465736372697074696f6e2063616e6e6f7420626520656d70747900000000006044820152606401610734565b600084511161339b5760405162461bcd60e51b81526020600482015260186024820152774c6f636174696f6e2063616e6e6f7420626520656d70747960401b6044820152606401610734565b60008351116133e55760405162461bcd60e51b8152602060048201526016602482015275496d616765732063616e6e6f7420626520656d70747960501b6044820152606401610734565b6000821161342c5760405162461bcd60e51b8152602060048201526014602482015273526f6f6d732063616e6e6f74206265207a65726f60601b6044820152606401610734565b600081116134735760405162461bcd60e51b815260206004820152601460248201527350726963652063616e6e6f74206265207a65726f60601b6044820152606401610734565b613481600280546001019055565b613489613df4565b60025481526020810187905260408101869052606081018590526080810184905260a0810183905260c081018290523360e08201526134c6613be2565b61014082015280516000908152600b60205260408120805460ff1916600117905581906006906134f560025490565b81526020808201929092526040016000208251815590820151600182019061351d9082614849565b50604082015160028201906135329082614849565b50606082015160038201906135479082614849565b506080820151600482019061355c9082614849565b5060a0820151600582015560c0820151600682015560e08201516007820180546101008501516101208601511515600160a81b0260ff60a81b19911515600160a01b026001600160a81b03199093166001600160a01b039095169490941791909117169190911790556101409091015160089091015550505050505050565b60606000805b60008481526007602052604090205481101561365e57600084815260076020526040902080548290811061361757613617614725565b60009182526020909120600790910201600601546301000000900460ff16151560010361364c57816136488161479d565b9250505b806136568161479d565b9150506135e1565b5060008167ffffffffffffffff81111561367a5761367a6140f5565b6040519080825280602002602001820160405280156136a3578160200160208202803683370190505b5090506000805b6000868152600760205260409020548110156137765760008681526007602052604090208054829081106136e0576136e0614725565b60009182526020909120600790910201600601546301000000900460ff16151560010361376457600086815260076020526040902080548290811061372757613727614725565b90600052602060002090600702016004015483838151811061374b5761374b614725565b6020908102919091010152816137608161479d565b9250505b8061376e8161479d565b9150506136aa565b5090949350505050565b613788613d4a565b6001600160a01b0381166137ed5760405162461bcd60e51b815260206004820152602660248201527f4f776e61626c653a206e6577206f776e657220697320746865207a65726f206160448201526564647265737360d01b6064820152608401610734565b6137f681613da4565b50565b600082815260076020526040812080548390811061381957613819614725565b6000918252602091829020604080516101608101825260079093029091018054835260018101549383019390935260028301546001600160a01b03908116918301829052600384015416606083015260048301546080830152600583015460a083015260069092015460ff808216151560c08401526101008083048216151560e085015262010000830482161515908401526301000000820481161515610120840152600160201b90910416151561014082015291503314806138f1575080606001516001600160a01b0316336001600160a01b0316145b61393d5760405162461bcd60e51b815260206004820152601c60248201527f4572726f723a20556e617574686f72697a65642074656e616e742121000000006044820152606401610734565b8060c00151156139c85760405162461bcd60e51b815260206004820152604a60248201527f41706172746d656e7420616c726561647920636865636b656420666f7220746860448201527f6973206461746520446f75626c6520636865636b696e67206973206e6f74207060648201526972656d6974746564212160b01b608482015260a401610734565b6000838152600760205260409020805460019190849081106139ec576139ec614725565b60009182526020822060079190910201600601805460ff19169215159290921790915560055460a0830151606491613a2391614751565b613a2d9190614768565b9050600060646004548460a00151613a459190614751565b613a4f9190614768565b336000818152600a602090815260408083208a845290915290819020805460ff191660011790558501519192506001600160a01b0391909116148015613a985750610140830151155b15613af25760008581526006602052604090206007015460a0840151613acd916001600160a01b0316906108e690859061478a565b613ae8613ae26000546001600160a01b031690565b83613c01565b613af23382613c01565b60608301516001600160a01b031633148015613b15575061014083015115156001145b15610912576000848152600d60209081526040808320815160a080820184528254825260018301548286015260028301548285015260038301546001600160a01b039081166060840152600490930154831660808301528a865260069094529190932060070154918601519092613b939216906108e690869061478a565b613bab84604001518483600001516108e6919061478a565b613bca613bc06000546001600160a01b031690565b6108e685806147f0565b613bd43383613c01565b611829846040015183613c01565b6000613bf0426103e8614751565b613bfc906103e86147f0565b905090565b6000826001600160a01b03168260405160006040518083038185875af1925050503d8060008114613c4e576040519150601f19603f3d011682016040523d82523d6000602084013e613c53565b606091505b5050905080613c6157600080fd5b505050565b6000600181613c74856135db565b905060005b84518110156137765760005b8251811015613cde57828181518110613ca057613ca0614725565b6020026020010151868381518110613cba57613cba614725565b602002602001015103613ccc57600093505b80613cd68161479d565b915050613c85565b5080613ce98161479d565b915050613c79565b600260015403613d435760405162461bcd60e51b815260206004820152601f60248201527f5265656e7472616e637947756172643a207265656e7472616e742063616c6c006044820152606401610734565b6002600155565b6000546001600160a01b031633146127ad5760405162461bcd60e51b815260206004820181905260248201527f4f776e61626c653a2063616c6c6572206973206e6f7420746865206f776e65726044820152606401610734565b600080546001600160a01b038381166001600160a01b0319831681178455604051919092169283917f8be0079c531659141344cd1fd0a4f28419497f9722a3daafe3b4186f6b6457e09190a35050565b6040518061016001604052806000815260200160608152602001606081526020016060815260200160608152602001600081526020016000815260200160006001600160a01b03168152602001600015158152602001600015158152602001600081525090565b6040805161016081018252600080825260208201819052918101829052606081018290526080810182905260a0810182905260c0810182905260e081018290526101008101829052610120810182905261014081019190915290565b6040518060a0016040528060008152602001600081526020016000815260200160006001600160a01b0316815260200160006001600160a01b031681525090565b60008060408385031215613f0b57600080fd5b50508035926020909101359150565b6000815180845260005b81811015613f4057602081850181015186830182015201613f24565b506000602082860101526020601f19601f83011685010191505092915050565b6000610160825184526020830151816020860152613f8082860182613f1a565b91505060408301518482036040860152613f9a8282613f1a565b91505060608301518482036060860152613fb48282613f1a565b91505060808301518482036080860152613fce8282613f1a565b91505060a083015160a085015260c083015160c085015260e0830151613fff60e08601826001600160a01b03169052565b5061010083810151151590850152610120808401511515908501526101409283015192909301919091525090565b6000602080830181845280855180835260408601915060408160051b870101925083870160005b8281101561408257603f19888603018452614070858351613f60565b94509285019290850190600101614054565b5092979650505050505050565b6000602082840312156140a157600080fd5b5035919050565b6020808252825182820181905260009190848201906040850190845b818110156140e95783516001600160a01b0316835292840192918401916001016140c4565b50909695505050505050565b634e487b7160e01b600052604160045260246000fd5b604051601f8201601f1916810167ffffffffffffffff81118282101715614134576141346140f5565b604052919050565b600082601f83011261414d57600080fd5b8135602067ffffffffffffffff821115614169576141696140f5565b8160051b61417882820161410b565b928352848101820192828101908785111561419257600080fd5b83870192505b848310156141b157823582529183019190830190614198565b979650505050505050565b6000806000606084860312156141d157600080fd5b83359250602084013567ffffffffffffffff808211156141f057600080fd5b6141fc8783880161413c565b9350604086013591508082111561421257600080fd5b5061421f8682870161413c565b9150509250925092565b600082601f83011261423a57600080fd5b813567ffffffffffffffff811115614254576142546140f5565b614267601f8201601f191660200161410b565b81815284602083860101111561427c57600080fd5b816020850160208301376000918101602001919091529392505050565b600080600080600080600060e0888a0312156142b457600080fd5b87359650602088013567ffffffffffffffff808211156142d357600080fd5b6142df8b838c01614229565b975060408a01359150808211156142f557600080fd5b6143018b838c01614229565b965060608a013591508082111561431757600080fd5b6143238b838c01614229565b955060808a013591508082111561433957600080fd5b506143468a828b01614229565b93505060a0880135915060c0880135905092959891949750929550565b8051825260208101516020830152604081015161438b60408401826001600160a01b03169052565b5060608101516143a660608401826001600160a01b03169052565b506080810151608083015260a081015160a083015260c08101516143ce60c084018215159052565b5060e08101516143e260e084018215159052565b506101008181015115159083015261012080820151151590830152610140908101511515910152565b6101608101610fde8284614363565b6000806040838503121561442d57600080fd5b82359150602083013567ffffffffffffffff81111561444b57600080fd5b61445785828601614229565b9150509250929050565b602080825282518282018190526000919060409081850190868401855b828110156144d157815180518552868101518786015285810151868601526060808201516001600160a01b0390811691870191909152608091820151169085015260a0909301929085019060010161447e565b5091979650505050505050565b60006020808301818452808551808352604092508286019150828160051b87010184880160005b8381101561456e57603f19898403018552815160a081518552888201518986015287820151818987015261453b82870182613f1a565b606084810151908801526080938401516001600160a01b0316939096019290925250509386019390860190600101614505565b509098975050505050505050565b6020808252825182820181905260009190848201906040850190845b818110156140e9576145ab838551614363565b928401926101609290920191600101614598565b6000806000606084860312156145d457600080fd5b505081359360208301359350604090920135919050565b6020815260006145fe6020830184613f60565b9392505050565b60008060008060008060c0878903121561461e57600080fd5b863567ffffffffffffffff8082111561463657600080fd5b6146428a838b01614229565b9750602089013591508082111561465857600080fd5b6146648a838b01614229565b9650604089013591508082111561467a57600080fd5b6146868a838b01614229565b9550606089013591508082111561469c57600080fd5b506146a989828a01614229565b9350506080870135915060a087013590509295509295509295565b6020808252825182820181905260009190848201906040850190845b818110156140e9578351835292840192918401916001016146e0565b60006020828403121561470e57600080fd5b81356001600160a01b03811681146145fe57600080fd5b634e487b7160e01b600052603260045260246000fd5b634e487b7160e01b600052601160045260246000fd5b8082028115828204841417610fde57610fde61473b565b60008261478557634e487b7160e01b600052601260045260246000fd5b500490565b81810381811115610fde57610fde61473b565b6000600182016147af576147af61473b565b5060010190565b600181811c908216806147ca57607f821691505b6020821081036147ea57634e487b7160e01b600052602260045260246000fd5b50919050565b80820180821115610fde57610fde61473b565b601f821115613c6157600081815260208120601f850160051c8101602086101561482a5750805b601f850160051c820191505b8181101561182957828155600101614836565b815167ffffffffffffffff811115614863576148636140f5565b6148778161487184546147b6565b84614803565b602080601f8311600181146148ac57600084156148945750858301515b600019600386901b1c1916600185901b178555611829565b600085815260208120601f198616915b828110156148db578886015182559484019460019091019084016148bc565b50858210156148f95787850151600019600388901b60f8161c191681555b5050505050600190811b01905550565b602080825260139082015272105c185c9d1b595b9d081b9bdd08199bdd5b99606a1b604082015260600190565b805169ffffffffffffffffffff8116811461495057600080fd5b919050565b600080600080600060a0868803121561496d57600080fd5b61497686614936565b945060208601519350604086015192506060860151915061499960808701614936565b90509295509295909350565b80820260008212600160ff1b841416156149c1576149c161473b565b8181058314821517610fde57610fde61473b56fea2646970667358221220b8b763e59122c7a767e34ffdbb0a9792e978646ca50cafb9b95f4aa49278da5464736f6c63430008130033","opcodes":"PUSH1 0x80 PUSH1 0x40 MSTORE PUSH1 0x3 DUP1 SLOAD PUSH1 0x1 PUSH1 0x1 PUSH1 0xA0 SHL SUB NOT AND PUSH20 0x694AA1769357215DE4FAC081BF1F309ADC325306 OR SWAP1 SSTORE CALLVALUE DUP1 ISZERO PUSH3 0x37 JUMPI PUSH1 0x0 DUP1 REVERT JUMPDEST POP PUSH1 0x40 MLOAD PUSH3 0x4B08 CODESIZE SUB DUP1 PUSH3 0x4B08 DUP4 CODECOPY DUP2 ADD PUSH1 0x40 DUP2 SWAP1 MSTORE PUSH3 0x5A SWAP2 PUSH3 0xC8 JUMP JUMPDEST PUSH3 0x65 CALLER PUSH3 0x78 JUMP JUMPDEST PUSH1 0x1 DUP1 SSTORE PUSH1 0x5 SWAP2 SWAP1 SWAP2 SSTORE PUSH1 0x4 SSTORE PUSH3 0xED JUMP JUMPDEST PUSH1 0x0 DUP1 SLOAD PUSH1 0x1 PUSH1 0x1 PUSH1 0xA0 SHL SUB DUP4 DUP2 AND PUSH1 0x1 PUSH1 0x1 PUSH1 0xA0 SHL SUB NOT DUP4 AND DUP2 OR DUP5 SSTORE PUSH1 0x40 MLOAD SWAP2 SWAP1 SWAP3 AND SWAP3 DUP4 SWAP2 PUSH32 0x8BE0079C531659141344CD1FD0A4F28419497F9722A3DAAFE3B4186F6B6457E0 SWAP2 SWAP1 LOG3 POP POP JUMP JUMPDEST PUSH1 0x0 DUP1 PUSH1 0x40 DUP4 DUP6 SUB SLT ISZERO PUSH3 0xDC JUMPI PUSH1 0x0 DUP1 REVERT JUMPDEST POP POP DUP1 MLOAD PUSH1 0x20 SWAP1 SWAP2 ADD MLOAD SWAP1 SWAP3 SWAP1 SWAP2 POP JUMP JUMPDEST PUSH2 0x4A0B DUP1 PUSH3 0xFD PUSH1 0x0 CODECOPY PUSH1 0x0 RETURN INVALID PUSH1 0x80 PUSH1 0x40 MSTORE PUSH1 0x4 CALLDATASIZE LT PUSH2 0x1B7 JUMPI PUSH1 0x0 CALLDATALOAD PUSH1 0xE0 SHR DUP1 PUSH4 0x7FD8984E GT PUSH2 0xEC JUMPI DUP1 PUSH4 0xC2AACCFC GT PUSH2 0x8A JUMPI DUP1 PUSH4 0xD68E1302 GT PUSH2 0x64 JUMPI DUP1 PUSH4 0xD68E1302 EQ PUSH2 0x52E JUMPI DUP1 PUSH4 0xDB2F80B7 EQ PUSH2 0x544 JUMPI DUP1 PUSH4 0xF2FDE38B EQ PUSH2 0x571 JUMPI DUP1 PUSH4 0xF516F88E EQ PUSH2 0x591 JUMPI PUSH1 0x0 DUP1 REVERT JUMPDEST DUP1 PUSH4 0xC2AACCFC EQ PUSH2 0x4C1 JUMPI DUP1 PUSH4 0xC4452E06 EQ PUSH2 0x4E1 JUMPI DUP1 PUSH4 0xC788D6DE EQ PUSH2 0x50E JUMPI PUSH1 0x0 DUP1 REVERT JUMPDEST DUP1 PUSH4 0x98D5FDCA GT PUSH2 0xC6 JUMPI DUP1 PUSH4 0x98D5FDCA EQ PUSH2 0x407 JUMPI DUP1 PUSH4 0x9D4A2255 EQ PUSH2 0x41C JUMPI DUP1 PUSH4 0x9F31A2BE EQ PUSH2 0x449 JUMPI DUP1 PUSH4 0xB5EFCF04 EQ PUSH2 0x494 JUMPI PUSH1 0x0 DUP1 REVERT JUMPDEST DUP1 PUSH4 0x7FD8984E EQ PUSH2 0x3A7 JUMPI DUP1 PUSH4 0x82367B2D EQ PUSH2 0x3C9 JUMPI DUP1 PUSH4 0x8DA5CB5B EQ PUSH2 0x3E9 JUMPI PUSH1 0x0 DUP1 REVERT JUMPDEST DUP1 PUSH4 0x42F6FB29 GT PUSH2 0x159 JUMPI DUP1 PUSH4 0x5BB0C5D6 GT PUSH2 0x133 JUMPI DUP1 PUSH4 0x5BB0C5D6 EQ PUSH2 0x33C JUMPI DUP1 PUSH4 0x67626E5D EQ PUSH2 0x35C JUMPI DUP1 PUSH4 0x715018A6 EQ PUSH2 0x37C JUMPI DUP1 PUSH4 0x7541F41C EQ PUSH2 0x391 JUMPI PUSH1 0x0 DUP1 REVERT JUMPDEST DUP1 PUSH4 0x42F6FB29 EQ PUSH2 0x2B7 JUMPI DUP1 PUSH4 0x455B3070 EQ PUSH2 0x2EF JUMPI DUP1 PUSH4 0x55C3FBFB EQ PUSH2 0x31C JUMPI PUSH1 0x0 DUP1 REVERT JUMPDEST DUP1 PUSH4 0xF8685C4 GT PUSH2 0x195 JUMPI DUP1 PUSH4 0xF8685C4 EQ PUSH2 0x236 JUMPI DUP1 PUSH4 0x17DD3E14 EQ PUSH2 0x264 JUMPI DUP1 PUSH4 0x1C32F071 EQ PUSH2 0x277 JUMPI DUP1 PUSH4 0x27C71C73 EQ PUSH2 0x297 JUMPI PUSH1 0x0 DUP1 REVERT JUMPDEST DUP1 PUSH4 0x10B58EE EQ PUSH2 0x1BC JUMPI DUP1 PUSH4 0x397EEE0 EQ PUSH2 0x1DE JUMPI DUP1 PUSH4 0xBB9CE33 EQ PUSH2 0x209 JUMPI JUMPDEST PUSH1 0x0 DUP1 REVERT JUMPDEST CALLVALUE DUP1 ISZERO PUSH2 0x1C8 JUMPI PUSH1 0x0 DUP1 REVERT JUMPDEST POP PUSH2 0x1DC PUSH2 0x1D7 CALLDATASIZE PUSH1 0x4 PUSH2 0x3EF8 JUMP JUMPDEST PUSH2 0x5B1 JUMP JUMPDEST STOP JUMPDEST CALLVALUE DUP1 ISZERO PUSH2 0x1EA JUMPI PUSH1 0x0 DUP1 REVERT JUMPDEST POP PUSH2 0x1F3 PUSH2 0x919 JUMP JUMPDEST PUSH1 0x40 MLOAD PUSH2 0x200 SWAP2 SWAP1 PUSH2 0x402D JUMP JUMPDEST PUSH1 0x40 MLOAD DUP1 SWAP2 SUB SWAP1 RETURN JUMPDEST CALLVALUE DUP1 ISZERO PUSH2 0x215 JUMPI PUSH1 0x0 DUP1 REVERT JUMPDEST POP PUSH2 0x229 PUSH2 0x224 CALLDATASIZE PUSH1 0x4 PUSH2 0x408F JUMP JUMPDEST PUSH2 0xCF4 JUMP JUMPDEST PUSH1 0x40 MLOAD PUSH2 0x200 SWAP2 SWAP1 PUSH2 0x40A8 JUMP JUMPDEST CALLVALUE DUP1 ISZERO PUSH2 0x242 JUMPI PUSH1 0x0 DUP1 REVERT JUMPDEST POP PUSH2 0x256 PUSH2 0x251 CALLDATASIZE PUSH1 0x4 PUSH2 0x3EF8 JUMP JUMPDEST PUSH2 0xE9D JUMP JUMPDEST PUSH1 0x40 MLOAD SWAP1 DUP2 MSTORE PUSH1 0x20 ADD PUSH2 0x200 JUMP JUMPDEST PUSH2 0x1DC PUSH2 0x272 CALLDATASIZE PUSH1 0x4 PUSH2 0x41BC JUMP JUMPDEST PUSH2 0xFE4 JUMP JUMPDEST CALLVALUE DUP1 ISZERO PUSH2 0x283 JUMPI PUSH1 0x0 DUP1 REVERT JUMPDEST POP PUSH2 0x256 PUSH2 0x292 CALLDATASIZE PUSH1 0x4 PUSH2 0x408F JUMP JUMPDEST PUSH2 0x1831 JUMP JUMPDEST CALLVALUE DUP1 ISZERO PUSH2 0x2A3 JUMPI PUSH1 0x0 DUP1 REVERT JUMPDEST POP PUSH2 0x1DC PUSH2 0x2B2 CALLDATASIZE PUSH1 0x4 PUSH2 0x4299 JUMP JUMPDEST PUSH2 0x1852 JUMP JUMPDEST CALLVALUE DUP1 ISZERO PUSH2 0x2C3 JUMPI PUSH1 0x0 DUP1 REVERT JUMPDEST POP PUSH1 0x3 SLOAD PUSH2 0x2D7 SWAP1 PUSH1 0x1 PUSH1 0x1 PUSH1 0xA0 SHL SUB AND DUP2 JUMP JUMPDEST PUSH1 0x40 MLOAD PUSH1 0x1 PUSH1 0x1 PUSH1 0xA0 SHL SUB SWAP1 SWAP2 AND DUP2 MSTORE PUSH1 0x20 ADD PUSH2 0x200 JUMP JUMPDEST CALLVALUE DUP1 ISZERO PUSH2 0x2FB JUMPI PUSH1 0x0 DUP1 REVERT JUMPDEST POP PUSH2 0x30F PUSH2 0x30A CALLDATASIZE PUSH1 0x4 PUSH2 0x3EF8 JUMP JUMPDEST PUSH2 0x1EBF JUMP JUMPDEST PUSH1 0x40 MLOAD PUSH2 0x200 SWAP2 SWAP1 PUSH2 0x440B JUMP JUMPDEST CALLVALUE DUP1 ISZERO PUSH2 0x328 JUMPI PUSH1 0x0 DUP1 REVERT JUMPDEST POP PUSH2 0x1DC PUSH2 0x337 CALLDATASIZE PUSH1 0x4 PUSH2 0x408F JUMP JUMPDEST PUSH2 0x1FA4 JUMP JUMPDEST CALLVALUE DUP1 ISZERO PUSH2 0x348 JUMPI PUSH1 0x0 DUP1 REVERT JUMPDEST POP PUSH2 0x1DC PUSH2 0x357 CALLDATASIZE PUSH1 0x4 PUSH2 0x441A JUMP JUMPDEST PUSH2 0x206C JUMP JUMPDEST CALLVALUE DUP1 ISZERO PUSH2 0x368 JUMPI PUSH1 0x0 DUP1 REVERT JUMPDEST POP PUSH2 0x1DC PUSH2 0x377 CALLDATASIZE PUSH1 0x4 PUSH2 0x3EF8 JUMP JUMPDEST PUSH2 0x2294 JUMP JUMPDEST CALLVALUE DUP1 ISZERO PUSH2 0x388 JUMPI PUSH1 0x0 DUP1 REVERT JUMPDEST POP PUSH2 0x1DC PUSH2 0x279B JUMP JUMPDEST CALLVALUE DUP1 ISZERO PUSH2 0x39D JUMPI PUSH1 0x0 DUP1 REVERT JUMPDEST POP PUSH2 0x256 PUSH1 0x5 SLOAD DUP2 JUMP JUMPDEST CALLVALUE DUP1 ISZERO PUSH2 0x3B3 JUMPI PUSH1 0x0 DUP1 REVERT JUMPDEST POP PUSH2 0x3BC PUSH2 0x27AF JUMP JUMPDEST PUSH1 0x40 MLOAD PUSH2 0x200 SWAP2 SWAP1 PUSH2 0x4461 JUMP JUMPDEST CALLVALUE DUP1 ISZERO PUSH2 0x3D5 JUMPI PUSH1 0x0 DUP1 REVERT JUMPDEST POP PUSH2 0x1DC PUSH2 0x3E4 CALLDATASIZE PUSH1 0x4 PUSH2 0x3EF8 JUMP JUMPDEST PUSH2 0x28CC JUMP JUMPDEST CALLVALUE DUP1 ISZERO PUSH2 0x3F5 JUMPI PUSH1 0x0 DUP1 REVERT JUMPDEST POP PUSH1 0x0 SLOAD PUSH1 0x1 PUSH1 0x1 PUSH1 0xA0 SHL SUB AND PUSH2 0x2D7 JUMP JUMPDEST CALLVALUE DUP1 ISZERO PUSH2 0x413 JUMPI PUSH1 0x0 DUP1 REVERT JUMPDEST POP PUSH2 0x256 PUSH2 0x292D JUMP JUMPDEST CALLVALUE DUP1 ISZERO PUSH2 0x428 JUMPI PUSH1 0x0 DUP1 REVERT JUMPDEST POP PUSH2 0x43C PUSH2 0x437 CALLDATASIZE PUSH1 0x4 PUSH2 0x408F JUMP JUMPDEST PUSH2 0x29C4 JUMP JUMPDEST PUSH1 0x40 MLOAD PUSH2 0x200 SWAP2 SWAP1 PUSH2 0x44DE JUMP JUMPDEST CALLVALUE DUP1 ISZERO PUSH2 0x455 JUMPI PUSH1 0x0 DUP1 REVERT JUMPDEST POP PUSH2 0x484 PUSH2 0x464 CALLDATASIZE PUSH1 0x4 PUSH2 0x408F JUMP JUMPDEST CALLER PUSH1 0x0 SWAP1 DUP2 MSTORE PUSH1 0xA PUSH1 0x20 SWAP1 DUP2 MSTORE PUSH1 0x40 DUP1 DUP4 KECCAK256 SWAP4 DUP4 MSTORE SWAP3 SWAP1 MSTORE KECCAK256 SLOAD PUSH1 0xFF AND SWAP1 JUMP JUMPDEST PUSH1 0x40 MLOAD SWAP1 ISZERO ISZERO DUP2 MSTORE PUSH1 0x20 ADD PUSH2 0x200 JUMP JUMPDEST CALLVALUE DUP1 ISZERO PUSH2 0x4A0 JUMPI PUSH1 0x0 DUP1 REVERT JUMPDEST POP PUSH2 0x4B4 PUSH2 0x4AF CALLDATASIZE PUSH1 0x4 PUSH2 0x408F JUMP JUMPDEST PUSH2 0x2AFF JUMP JUMPDEST PUSH1 0x40 MLOAD PUSH2 0x200 SWAP2 SWAP1 PUSH2 0x457C JUMP JUMPDEST CALLVALUE DUP1 ISZERO PUSH2 0x4CD JUMPI PUSH1 0x0 DUP1 REVERT JUMPDEST POP PUSH2 0x1DC PUSH2 0x4DC CALLDATASIZE PUSH1 0x4 PUSH2 0x45BF JUMP JUMPDEST PUSH2 0x2BFB JUMP JUMPDEST CALLVALUE DUP1 ISZERO PUSH2 0x4ED JUMPI PUSH1 0x0 DUP1 REVERT JUMPDEST POP PUSH2 0x501 PUSH2 0x4FC CALLDATASIZE PUSH1 0x4 PUSH2 0x408F JUMP JUMPDEST PUSH2 0x2FE2 JUMP JUMPDEST PUSH1 0x40 MLOAD PUSH2 0x200 SWAP2 SWAP1 PUSH2 0x45EB JUMP JUMPDEST CALLVALUE DUP1 ISZERO PUSH2 0x51A JUMPI PUSH1 0x0 DUP1 REVERT JUMPDEST POP PUSH2 0x1DC PUSH2 0x529 CALLDATASIZE PUSH1 0x4 PUSH2 0x4605 JUMP JUMPDEST PUSH2 0x32B6 JUMP JUMPDEST CALLVALUE DUP1 ISZERO PUSH2 0x53A JUMPI PUSH1 0x0 DUP1 REVERT JUMPDEST POP PUSH2 0x256 PUSH1 0x4 SLOAD DUP2 JUMP JUMPDEST CALLVALUE DUP1 ISZERO PUSH2 0x550 JUMPI PUSH1 0x0 DUP1 REVERT JUMPDEST POP PUSH2 0x564 PUSH2 0x55F CALLDATASIZE PUSH1 0x4 PUSH2 0x408F JUMP JUMPDEST PUSH2 0x35DB JUMP JUMPDEST PUSH1 0x40 MLOAD PUSH2 0x200 SWAP2 SWAP1 PUSH2 0x46C4 JUMP JUMPDEST CALLVALUE DUP1 ISZERO PUSH2 0x57D JUMPI PUSH1 0x0 DUP1 REVERT JUMPDEST POP PUSH2 0x1DC PUSH2 0x58C CALLDATASIZE PUSH1 0x4 PUSH2 0x46FC JUMP JUMPDEST PUSH2 0x3780 JUMP JUMPDEST CALLVALUE DUP1 ISZERO PUSH2 0x59D JUMPI PUSH1 0x0 DUP1 REVERT JUMPDEST POP PUSH2 0x1DC PUSH2 0x5AC CALLDATASIZE PUSH1 0x4 PUSH2 0x3EF8 JUMP JUMPDEST PUSH2 0x37F9 JUMP JUMPDEST PUSH1 0x0 DUP3 DUP2 MSTORE PUSH1 0x7 PUSH1 0x20 MSTORE PUSH1 0x40 DUP2 KECCAK256 DUP1 SLOAD DUP4 SWAP1 DUP2 LT PUSH2 0x5D1 JUMPI PUSH2 0x5D1 PUSH2 0x4725 JUMP JUMPDEST PUSH1 0x0 SWAP2 DUP3 MSTORE PUSH1 0x20 DUP1 DUP4 KECCAK256 PUSH1 0x40 DUP1 MLOAD PUSH2 0x160 DUP2 ADD DUP3 MSTORE PUSH1 0x7 SWAP5 DUP6 MUL SWAP1 SWAP3 ADD DUP1 SLOAD DUP4 MSTORE PUSH1 0x1 DUP2 ADD SLOAD DUP4 DUP6 ADD MSTORE PUSH1 0x2 DUP2 ADD SLOAD PUSH1 0x1 PUSH1 0x1 PUSH1 0xA0 SHL SUB SWAP1 DUP2 AND DUP5 DUP5 ADD MSTORE PUSH1 0x3 DUP3 ADD SLOAD DUP2 AND PUSH1 0x60 DUP6 ADD MSTORE PUSH1 0x4 DUP3 ADD SLOAD PUSH1 0x80 DUP6 ADD MSTORE PUSH1 0x5 DUP3 ADD SLOAD PUSH1 0xA0 DUP6 ADD MSTORE PUSH1 0x6 SWAP2 DUP3 ADD SLOAD PUSH1 0xFF DUP1 DUP3 AND ISZERO ISZERO PUSH1 0xC0 DUP8 ADD MSTORE PUSH2 0x100 DUP1 DUP4 DIV DUP3 AND ISZERO ISZERO PUSH1 0xE0 DUP9 ADD MSTORE PUSH3 0x10000 DUP4 DIV DUP3 AND ISZERO ISZERO SWAP1 DUP8 ADD MSTORE PUSH4 0x1000000 DUP3 DIV DUP2 AND ISZERO ISZERO PUSH2 0x120 DUP8 ADD MSTORE PUSH1 0x1 PUSH1 0x20 SHL SWAP1 SWAP2 DIV AND ISZERO ISZERO PUSH2 0x140 DUP6 ADD MSTORE DUP10 DUP8 MSTORE SWAP4 MSTORE SWAP1 SWAP4 KECCAK256 SWAP1 SWAP2 ADD SLOAD SWAP2 SWAP3 POP AND CALLER EQ DUP1 PUSH2 0x6A7 JUMPI POP PUSH1 0x0 SLOAD PUSH1 0x1 PUSH1 0x1 PUSH1 0xA0 SHL SUB AND CALLER EQ JUMPDEST PUSH2 0x73D JUMPI PUSH1 0x40 MLOAD PUSH3 0x461BCD PUSH1 0xE5 SHL DUP2 MSTORE PUSH1 0x20 PUSH1 0x4 DUP3 ADD MSTORE PUSH1 0x56 PUSH1 0x24 DUP3 ADD MSTORE PUSH32 0x4572726F723A20596F7520617265206E6F7420617574686F72697A656420746F PUSH1 0x44 DUP3 ADD MSTORE PUSH32 0x20636C61696D20616E792066756E64732E20496620746869732069732061206D PUSH1 0x64 DUP3 ADD MSTORE PUSH22 0x1A5CDD185AD94818DBDB9D1858DD081CDD5C1C1BDC9D PUSH1 0x52 SHL PUSH1 0x84 DUP3 ADD MSTORE PUSH1 0xA4 ADD JUMPDEST PUSH1 0x40 MLOAD DUP1 SWAP2 SUB SWAP1 REVERT JUMPDEST PUSH1 0x0 DUP4 DUP2 MSTORE PUSH1 0x7 PUSH1 0x20 MSTORE PUSH1 0x40 SWAP1 KECCAK256 DUP1 SLOAD DUP4 SWAP1 DUP2 LT PUSH2 0x75D JUMPI PUSH2 0x75D PUSH2 0x4725 JUMP JUMPDEST PUSH1 0x0 SWAP2 DUP3 MSTORE PUSH1 0x20 SWAP1 SWAP2 KECCAK256 PUSH1 0x6 PUSH1 0x7 SWAP1 SWAP3 MUL ADD ADD SLOAD PUSH1 0xFF AND ISZERO PUSH2 0x7F3 JUMPI PUSH1 0x40 MLOAD PUSH3 0x461BCD PUSH1 0xE5 SHL DUP2 MSTORE PUSH1 0x20 PUSH1 0x4 DUP3 ADD MSTORE PUSH1 0x43 PUSH1 0x24 DUP3 ADD MSTORE PUSH32 0x41706172746D656E7420697320616C726561647920636865636B656420496E20 PUSH1 0x44 DUP3 ADD MSTORE PUSH32 0x6F6E20746869732064617465206E6F206E65656420746F20636C61696D206675 PUSH1 0x64 DUP3 ADD MSTORE PUSH3 0x6E6473 PUSH1 0xE8 SHL PUSH1 0x84 DUP3 ADD MSTORE PUSH1 0xA4 ADD PUSH2 0x734 JUMP JUMPDEST PUSH2 0x7FB PUSH2 0x3BE2 JUMP JUMPDEST DUP2 PUSH1 0x80 ADD MLOAD LT PUSH2 0x86A JUMPI PUSH1 0x40 MLOAD PUSH3 0x461BCD PUSH1 0xE5 SHL DUP2 MSTORE PUSH1 0x20 PUSH1 0x4 DUP3 ADD MSTORE PUSH1 0x34 PUSH1 0x24 DUP3 ADD MSTORE PUSH32 0x4E6F7420616C6C6F77656420746F20636C61696D2066756E6473206265666F72 PUSH1 0x44 DUP3 ADD MSTORE PUSH20 0x652074686520626F6F6B696E6720646174652121 PUSH1 0x60 SHL PUSH1 0x64 DUP3 ADD MSTORE PUSH1 0x84 ADD PUSH2 0x734 JUMP JUMPDEST PUSH1 0x0 DUP4 DUP2 MSTORE PUSH1 0x7 PUSH1 0x20 MSTORE PUSH1 0x40 DUP2 KECCAK256 DUP1 SLOAD DUP5 SWAP1 DUP2 LT PUSH2 0x88A JUMPI PUSH2 0x88A PUSH2 0x4725 JUMP JUMPDEST SWAP1 PUSH1 0x0 MSTORE PUSH1 0x20 PUSH1 0x0 KECCAK256 SWAP1 PUSH1 0x7 MUL ADD PUSH1 0x5 ADD SLOAD SWAP1 POP PUSH1 0x0 PUSH1 0x64 PUSH1 0x5 SLOAD DUP4 PUSH2 0x8B0 SWAP2 SWAP1 PUSH2 0x4751 JUMP JUMPDEST PUSH2 0x8BA SWAP2 SWAP1 PUSH2 0x4768 JUMP JUMPDEST PUSH1 0x0 DUP7 DUP2 MSTORE PUSH1 0x6 PUSH1 0x20 MSTORE PUSH1 0x40 SWAP1 KECCAK256 PUSH1 0x7 ADD SLOAD SWAP1 SWAP2 POP PUSH2 0x8EB SWAP1 PUSH1 0x1 PUSH1 0x1 PUSH1 0xA0 SHL SUB AND PUSH2 0x8E6 DUP4 DUP6 PUSH2 0x478A JUMP JUMPDEST PUSH2 0x3C01 JUMP JUMPDEST PUSH2 0x906 PUSH2 0x900 PUSH1 0x0 SLOAD PUSH1 0x1 PUSH1 0x1 PUSH1 0xA0 SHL SUB AND SWAP1 JUMP JUMPDEST DUP3 PUSH2 0x3C01 JUMP JUMPDEST PUSH2 0x912 CALLER PUSH1 0x4 SLOAD PUSH2 0x3C01 JUMP JUMPDEST POP POP POP POP POP JUMP JUMPDEST PUSH1 0x60 PUSH1 0x0 PUSH1 0x1 JUMPDEST PUSH1 0x2 SLOAD DUP2 GT PUSH2 0x969 JUMPI PUSH1 0x0 DUP2 DUP2 MSTORE PUSH1 0x6 PUSH1 0x20 MSTORE PUSH1 0x40 SWAP1 KECCAK256 PUSH1 0x7 ADD SLOAD PUSH1 0x1 PUSH1 0xA8 SHL SWAP1 DIV PUSH1 0xFF AND PUSH2 0x957 JUMPI DUP2 PUSH2 0x953 DUP2 PUSH2 0x479D JUMP JUMPDEST SWAP3 POP POP JUMPDEST DUP1 PUSH2 0x961 DUP2 PUSH2 0x479D JUMP JUMPDEST SWAP2 POP POP PUSH2 0x920 JUMP JUMPDEST POP DUP1 PUSH8 0xFFFFFFFFFFFFFFFF DUP2 GT ISZERO PUSH2 0x983 JUMPI PUSH2 0x983 PUSH2 0x40F5 JUMP JUMPDEST PUSH1 0x40 MLOAD SWAP1 DUP1 DUP3 MSTORE DUP1 PUSH1 0x20 MUL PUSH1 0x20 ADD DUP3 ADD PUSH1 0x40 MSTORE DUP1 ISZERO PUSH2 0x9BC JUMPI DUP2 PUSH1 0x20 ADD JUMPDEST PUSH2 0x9A9 PUSH2 0x3DF4 JUMP JUMPDEST DUP2 MSTORE PUSH1 0x20 ADD SWAP1 PUSH1 0x1 SWAP1 SUB SWAP1 DUP2 PUSH2 0x9A1 JUMPI SWAP1 POP JUMPDEST POP SWAP2 POP PUSH1 0x0 PUSH1 0x1 JUMPDEST PUSH1 0x2 SLOAD DUP2 GT PUSH2 0xCEE JUMPI PUSH1 0x0 DUP2 DUP2 MSTORE PUSH1 0x6 PUSH1 0x20 MSTORE PUSH1 0x40 SWAP1 KECCAK256 PUSH1 0x7 ADD SLOAD PUSH1 0x1 PUSH1 0xA8 SHL SWAP1 DIV PUSH1 0xFF AND PUSH2 0xCDC JUMPI PUSH1 0x6 PUSH1 0x0 DUP3 DUP2 MSTORE PUSH1 0x20 ADD SWAP1 DUP2 MSTORE PUSH1 0x20 ADD PUSH1 0x0 KECCAK256 PUSH1 0x40 MLOAD DUP1 PUSH2 0x160 ADD PUSH1 0x40 MSTORE SWAP1 DUP2 PUSH1 0x0 DUP3 ADD SLOAD DUP2 MSTORE PUSH1 0x20 ADD PUSH1 0x1 DUP3 ADD DUP1 SLOAD PUSH2 0xA26 SWAP1 PUSH2 0x47B6 JUMP JUMPDEST DUP1 PUSH1 0x1F ADD PUSH1 0x20 DUP1 SWAP2 DIV MUL PUSH1 0x20 ADD PUSH1 0x40 MLOAD SWAP1 DUP2 ADD PUSH1 0x40 MSTORE DUP1 SWAP3 SWAP2 SWAP1 DUP2 DUP2 MSTORE PUSH1 0x20 ADD DUP3 DUP1 SLOAD PUSH2 0xA52 SWAP1 PUSH2 0x47B6 JUMP JUMPDEST DUP1 ISZERO PUSH2 0xA9F JUMPI DUP1 PUSH1 0x1F LT PUSH2 0xA74 JUMPI PUSH2 0x100 DUP1 DUP4 SLOAD DIV MUL DUP4 MSTORE SWAP2 PUSH1 0x20 ADD SWAP2 PUSH2 0xA9F JUMP JUMPDEST DUP3 ADD SWAP2 SWAP1 PUSH1 0x0 MSTORE PUSH1 0x20 PUSH1 0x0 KECCAK256 SWAP1 JUMPDEST DUP2 SLOAD DUP2 MSTORE SWAP1 PUSH1 0x1 ADD SWAP1 PUSH1 0x20 ADD DUP1 DUP4 GT PUSH2 0xA82 JUMPI DUP3 SWAP1 SUB PUSH1 0x1F AND DUP3 ADD SWAP2 JUMPDEST POP POP POP POP POP DUP2 MSTORE PUSH1 0x20 ADD PUSH1 0x2 DUP3 ADD DUP1 SLOAD PUSH2 0xAB8 SWAP1 PUSH2 0x47B6 JUMP JUMPDEST DUP1 PUSH1 0x1F ADD PUSH1 0x20 DUP1 SWAP2 DIV MUL PUSH1 0x20 ADD PUSH1 0x40 MLOAD SWAP1 DUP2 ADD PUSH1 0x40 MSTORE DUP1 SWAP3 SWAP2 SWAP1 DUP2 DUP2 MSTORE PUSH1 0x20 ADD DUP3 DUP1 SLOAD PUSH2 0xAE4 SWAP1 PUSH2 0x47B6 JUMP JUMPDEST DUP1 ISZERO PUSH2 0xB31 JUMPI DUP1 PUSH1 0x1F LT PUSH2 0xB06 JUMPI PUSH2 0x100 DUP1 DUP4 SLOAD DIV MUL DUP4 MSTORE SWAP2 PUSH1 0x20 ADD SWAP2 PUSH2 0xB31 JUMP JUMPDEST DUP3 ADD SWAP2 SWAP1 PUSH1 0x0 MSTORE PUSH1 0x20 PUSH1 0x0 KECCAK256 SWAP1 JUMPDEST DUP2 SLOAD DUP2 MSTORE SWAP1 PUSH1 0x1 ADD SWAP1 PUSH1 0x20 ADD DUP1 DUP4 GT PUSH2 0xB14 JUMPI DUP3 SWAP1 SUB PUSH1 0x1F AND DUP3 ADD SWAP2 JUMPDEST POP POP POP POP POP DUP2 MSTORE PUSH1 0x20 ADD PUSH1 0x3 DUP3 ADD DUP1 SLOAD PUSH2 0xB4A SWAP1 PUSH2 0x47B6 JUMP JUMPDEST DUP1 PUSH1 0x1F ADD PUSH1 0x20 DUP1 SWAP2 DIV MUL PUSH1 0x20 ADD PUSH1 0x40 MLOAD SWAP1 DUP2 ADD PUSH1 0x40 MSTORE DUP1 SWAP3 SWAP2 SWAP1 DUP2 DUP2 MSTORE PUSH1 0x20 ADD DUP3 DUP1 SLOAD PUSH2 0xB76 SWAP1 PUSH2 0x47B6 JUMP JUMPDEST DUP1 ISZERO PUSH2 0xBC3 JUMPI DUP1 PUSH1 0x1F LT PUSH2 0xB98 JUMPI PUSH2 0x100 DUP1 DUP4 SLOAD DIV MUL DUP4 MSTORE SWAP2 PUSH1 0x20 ADD SWAP2 PUSH2 0xBC3 JUMP JUMPDEST DUP3 ADD SWAP2 SWAP1 PUSH1 0x0 MSTORE PUSH1 0x20 PUSH1 0x0 KECCAK256 SWAP1 JUMPDEST DUP2 SLOAD DUP2 MSTORE SWAP1 PUSH1 0x1 ADD SWAP1 PUSH1 0x20 ADD DUP1 DUP4 GT PUSH2 0xBA6 JUMPI DUP3 SWAP1 SUB PUSH1 0x1F AND DUP3 ADD SWAP2 JUMPDEST POP POP POP POP POP DUP2 MSTORE PUSH1 0x20 ADD PUSH1 0x4 DUP3 ADD DUP1 SLOAD PUSH2 0xBDC SWAP1 PUSH2 0x47B6 JUMP JUMPDEST DUP1 PUSH1 0x1F ADD PUSH1 0x20 DUP1 SWAP2 DIV MUL PUSH1 0x20 ADD PUSH1 0x40 MLOAD SWAP1 DUP2 ADD PUSH1 0x40 MSTORE DUP1 SWAP3 SWAP2 SWAP1 DUP2 DUP2 MSTORE PUSH1 0x20 ADD DUP3 DUP1 SLOAD PUSH2 0xC08 SWAP1 PUSH2 0x47B6 JUMP JUMPDEST DUP1 ISZERO PUSH2 0xC55 JUMPI DUP1 PUSH1 0x1F LT PUSH2 0xC2A JUMPI PUSH2 0x100 DUP1 DUP4 SLOAD DIV MUL DUP4 MSTORE SWAP2 PUSH1 0x20 ADD SWAP2 PUSH2 0xC55 JUMP JUMPDEST DUP3 ADD SWAP2 SWAP1 PUSH1 0x0 MSTORE PUSH1 0x20 PUSH1 0x0 KECCAK256 SWAP1 JUMPDEST DUP2 SLOAD DUP2 MSTORE SWAP1 PUSH1 0x1 ADD SWAP1 PUSH1 0x20 ADD DUP1 DUP4 GT PUSH2 0xC38 JUMPI DUP3 SWAP1 SUB PUSH1 0x1F AND DUP3 ADD SWAP2 JUMPDEST POP POP POP SWAP2 DUP4 MSTORE POP POP PUSH1 0x5 DUP3 ADD SLOAD PUSH1 0x20 DUP3 ADD MSTORE PUSH1 0x6 DUP3 ADD SLOAD PUSH1 0x40 DUP3 ADD MSTORE PUSH1 0x7 DUP3 ADD SLOAD PUSH1 0x1 PUSH1 0x1 PUSH1 0xA0 SHL SUB DUP2 AND PUSH1 0x60 DUP4 ADD MSTORE PUSH1 0xFF PUSH1 0x1 PUSH1 0xA0 SHL DUP3 DIV DUP2 AND ISZERO ISZERO PUSH1 0x80 DUP5 ADD MSTORE PUSH1 0x1 PUSH1 0xA8 SHL SWAP1 SWAP2 DIV AND ISZERO ISZERO PUSH1 0xA0 DUP3 ADD MSTORE PUSH1 0x8 SWAP1 SWAP2 ADD SLOAD PUSH1 0xC0 SWAP1 SWAP2 ADD MSTORE DUP5 DUP4 PUSH2 0xCBE DUP2 PUSH2 0x479D JUMP JUMPDEST SWAP5 POP DUP2 MLOAD DUP2 LT PUSH2 0xCD0 JUMPI PUSH2 0xCD0 PUSH2 0x4725 JUMP JUMPDEST PUSH1 0x20 MUL PUSH1 0x20 ADD ADD DUP2 SWAP1 MSTORE POP JUMPDEST DUP1 PUSH2 0xCE6 DUP2 PUSH2 0x479D JUMP JUMPDEST SWAP2 POP POP PUSH2 0x9C4 JUMP JUMPDEST POP POP POP SWAP1 JUMP JUMPDEST PUSH1 0x60 PUSH1 0x0 DUP1 JUMPDEST PUSH1 0x0 DUP5 DUP2 MSTORE PUSH1 0x7 PUSH1 0x20 MSTORE PUSH1 0x40 SWAP1 KECCAK256 SLOAD DUP2 LT ISZERO PUSH2 0xD6C JUMPI PUSH1 0x0 DUP5 DUP2 MSTORE PUSH1 0x7 PUSH1 0x20 MSTORE PUSH1 0x40 SWAP1 KECCAK256 DUP1 SLOAD DUP3 SWAP1 DUP2 LT PUSH2 0xD30 JUMPI PUSH2 0xD30 PUSH2 0x4725 JUMP JUMPDEST PUSH1 0x0 SWAP2 DUP3 MSTORE PUSH1 0x20 SWAP1 SWAP2 KECCAK256 PUSH1 0x6 PUSH1 0x7 SWAP1 SWAP3 MUL ADD ADD SLOAD PUSH1 0xFF AND ISZERO PUSH2 0xD5A JUMPI DUP2 PUSH2 0xD56 DUP2 PUSH2 0x479D JUMP JUMPDEST SWAP3 POP POP JUMPDEST DUP1 PUSH2 0xD64 DUP2 PUSH2 0x479D JUMP JUMPDEST SWAP2 POP POP PUSH2 0xCFA JUMP JUMPDEST POP DUP1 PUSH8 0xFFFFFFFFFFFFFFFF DUP2 GT ISZERO PUSH2 0xD86 JUMPI PUSH2 0xD86 PUSH2 0x40F5 JUMP JUMPDEST PUSH1 0x40 MLOAD SWAP1 DUP1 DUP3 MSTORE DUP1 PUSH1 0x20 MUL PUSH1 0x20 ADD DUP3 ADD PUSH1 0x40 MSTORE DUP1 ISZERO PUSH2 0xDAF JUMPI DUP2 PUSH1 0x20 ADD PUSH1 0x20 DUP3 MUL DUP1 CALLDATASIZE DUP4 CALLDATACOPY ADD SWAP1 POP JUMPDEST POP SWAP2 POP PUSH1 0x0 DUP1 JUMPDEST PUSH1 0x0 DUP6 DUP2 MSTORE PUSH1 0x7 PUSH1 0x20 MSTORE PUSH1 0x40 SWAP1 KECCAK256 SLOAD DUP2 LT ISZERO PUSH2 0xE95 JUMPI PUSH1 0x0 DUP6 DUP2 MSTORE PUSH1 0x7 PUSH1 0x20 MSTORE PUSH1 0x40 SWAP1 KECCAK256 DUP1 SLOAD DUP3 SWAP1 DUP2 LT PUSH2 0xDEC JUMPI PUSH2 0xDEC PUSH2 0x4725 JUMP JUMPDEST PUSH1 0x0 SWAP2 DUP3 MSTORE PUSH1 0x20 SWAP1 SWAP2 KECCAK256 PUSH1 0x6 PUSH1 0x7 SWAP1 SWAP3 MUL ADD ADD SLOAD PUSH1 0xFF AND ISZERO PUSH2 0xE83 JUMPI PUSH1 0x0 DUP6 DUP2 MSTORE PUSH1 0x7 PUSH1 0x20 MSTORE PUSH1 0x40 SWAP1 KECCAK256 DUP1 SLOAD DUP3 SWAP1 DUP2 LT PUSH2 0xE28 JUMPI PUSH2 0xE28 PUSH2 0x4725 JUMP JUMPDEST PUSH1 0x0 SWAP2 DUP3 MSTORE PUSH1 0x20 SWAP1 SWAP2 KECCAK256 PUSH1 0x2 PUSH1 0x7 SWAP1 SWAP3 MUL ADD ADD SLOAD PUSH1 0x1 PUSH1 0x1 PUSH1 0xA0 SHL SUB AND DUP5 DUP4 PUSH2 0xE50 DUP2 PUSH2 0x479D JUMP JUMPDEST SWAP5 POP DUP2 MLOAD DUP2 LT PUSH2 0xE62 JUMPI PUSH2 0xE62 PUSH2 0x4725 JUMP JUMPDEST PUSH1 0x20 MUL PUSH1 0x20 ADD ADD SWAP1 PUSH1 0x1 PUSH1 0x1 PUSH1 0xA0 SHL SUB AND SWAP1 DUP2 PUSH1 0x1 PUSH1 0x1 PUSH1 0xA0 SHL SUB AND DUP2 MSTORE POP POP JUMPDEST DUP1 PUSH2 0xE8D DUP2 PUSH2 0x479D JUMP JUMPDEST SWAP2 POP POP PUSH2 0xDB6 JUMP JUMPDEST POP POP POP SWAP2 SWAP1 POP JUMP JUMPDEST PUSH1 0x0 DUP3 DUP2 MSTORE PUSH1 0xB PUSH1 0x20 MSTORE PUSH1 0x40 DUP2 KECCAK256 SLOAD PUSH1 0xFF AND PUSH2 0xEFB JUMPI PUSH1 0x40 MLOAD PUSH3 0x461BCD PUSH1 0xE5 SHL DUP2 MSTORE PUSH1 0x20 PUSH1 0x4 DUP3 ADD DUP2 SWAP1 MSTORE PUSH1 0x24 DUP3 ADD MSTORE PUSH32 0x4572726F723A2041706172746D656E742063616E6E6F7420626520666F756E64 PUSH1 0x44 DUP3 ADD MSTORE PUSH1 0x64 ADD PUSH2 0x734 JUMP JUMPDEST PUSH1 0x0 DUP4 DUP2 MSTORE PUSH1 0x10 PUSH1 0x20 SWAP1 DUP2 MSTORE PUSH1 0x40 DUP1 DUP4 KECCAK256 DUP1 SLOAD DUP3 MLOAD DUP2 DUP6 MUL DUP2 ADD DUP6 ADD SWAP1 SWAP4 MSTORE DUP1 DUP4 MSTORE SWAP2 SWAP3 SWAP1 SWAP2 SWAP1 DUP4 ADD DUP3 DUP3 DUP1 ISZERO PUSH2 0xF51 JUMPI PUSH1 0x20 MUL DUP3 ADD SWAP2 SWAP1 PUSH1 0x0 MSTORE PUSH1 0x20 PUSH1 0x0 KECCAK256 SWAP1 JUMPDEST DUP2 SLOAD DUP2 MSTORE PUSH1 0x20 ADD SWAP1 PUSH1 0x1 ADD SWAP1 DUP1 DUP4 GT PUSH2 0xF3D JUMPI JUMPDEST POP POP POP POP POP SWAP1 POP PUSH1 0x0 JUMPDEST DUP2 MLOAD DUP2 LT ISZERO PUSH2 0xFD7 JUMPI DUP4 DUP3 DUP3 DUP2 MLOAD DUP2 LT PUSH2 0xF77 JUMPI PUSH2 0xF77 PUSH2 0x4725 JUMP JUMPDEST PUSH1 0x20 MUL PUSH1 0x20 ADD ADD MLOAD SUB PUSH2 0xFC5 JUMPI PUSH1 0x0 DUP6 DUP2 MSTORE PUSH1 0x11 PUSH1 0x20 SWAP1 DUP2 MSTORE PUSH1 0x40 DUP1 DUP4 KECCAK256 DUP8 DUP5 MSTORE SWAP1 SWAP2 MSTORE DUP2 KECCAK256 SLOAD SWAP1 PUSH2 0xFA9 DUP8 DUP4 PUSH2 0x1EBF JUMP JUMPDEST MLOAD PUSH1 0x0 SWAP1 DUP2 MSTORE PUSH1 0xF PUSH1 0x20 MSTORE PUSH1 0x40 SWAP1 KECCAK256 SLOAD SWAP5 POP PUSH2 0xFDE SWAP4 POP POP POP POP JUMP JUMPDEST DUP1 PUSH2 0xFCF DUP2 PUSH2 0x479D JUMP JUMPDEST SWAP2 POP POP PUSH2 0xF5B JUMP JUMPDEST POP PUSH1 0x0 SWAP2 POP POP JUMPDEST SWAP3 SWAP2 POP POP JUMP JUMPDEST PUSH1 0x0 DUP4 DUP2 MSTORE PUSH1 0xB PUSH1 0x20 MSTORE PUSH1 0x40 SWAP1 KECCAK256 SLOAD PUSH1 0xFF AND PUSH2 0x1042 JUMPI PUSH1 0x40 MLOAD PUSH3 0x461BCD PUSH1 0xE5 SHL DUP2 MSTORE PUSH1 0x20 PUSH1 0x4 DUP3 ADD DUP2 SWAP1 MSTORE PUSH1 0x24 DUP3 ADD MSTORE PUSH32 0x4572726F723A2041706172746D656E742063616E6E6F7420626520666F756E64 PUSH1 0x44 DUP3 ADD MSTORE PUSH1 0x64 ADD PUSH2 0x734 JUMP JUMPDEST PUSH1 0x0 PUSH1 0x64 PUSH1 0x4 SLOAD DUP5 MLOAD PUSH1 0x6 PUSH1 0x0 DUP9 DUP2 MSTORE PUSH1 0x20 ADD SWAP1 DUP2 MSTORE PUSH1 0x20 ADD PUSH1 0x0 KECCAK256 PUSH1 0x6 ADD SLOAD PUSH2 0x106C SWAP2 SWAP1 PUSH2 0x4751 JUMP JUMPDEST PUSH2 0x1076 SWAP2 SWAP1 PUSH2 0x4751 JUMP JUMPDEST PUSH2 0x1080 SWAP2 SWAP1 PUSH2 0x4768 JUMP JUMPDEST DUP4 MLOAD PUSH1 0x0 DUP7 DUP2 MSTORE PUSH1 0x6 PUSH1 0x20 DUP2 SWAP1 MSTORE PUSH1 0x40 SWAP1 SWAP2 KECCAK256 ADD SLOAD PUSH2 0x109F SWAP2 SWAP1 PUSH2 0x4751 JUMP JUMPDEST PUSH2 0x10A9 SWAP2 SWAP1 PUSH2 0x47F0 JUMP JUMPDEST SWAP1 POP PUSH1 0x0 DUP1 JUMPDEST DUP4 MLOAD DUP2 LT ISZERO PUSH2 0x112A JUMPI PUSH1 0x0 DUP7 DUP2 MSTORE PUSH1 0x11 PUSH1 0x20 MSTORE PUSH1 0x40 DUP2 KECCAK256 DUP6 MLOAD DUP3 SWAP1 DUP8 SWAP1 DUP6 SWAP1 DUP2 LT PUSH2 0x10DC JUMPI PUSH2 0x10DC PUSH2 0x4725 JUMP JUMPDEST PUSH1 0x20 MUL PUSH1 0x20 ADD ADD MLOAD DUP2 MSTORE PUSH1 0x20 ADD SWAP1 DUP2 MSTORE PUSH1 0x20 ADD PUSH1 0x0 KECCAK256 SLOAD SWAP1 POP PUSH1 0xF PUSH1 0x0 DUP3 DUP2 MSTORE PUSH1 0x20 ADD SWAP1 DUP2 MSTORE PUSH1 0x20 ADD PUSH1 0x0 KECCAK256 SLOAD DUP4 PUSH2 0x1114 SWAP2 SWAP1 PUSH2 0x47F0 JUMP JUMPDEST SWAP3 POP POP DUP1 DUP1 PUSH2 0x1122 SWAP1 PUSH2 0x479D JUMP JUMPDEST SWAP2 POP POP PUSH2 0x10AF JUMP JUMPDEST POP PUSH1 0x4 SLOAD PUSH1 0x64 SWAP1 PUSH2 0x113B DUP4 DUP6 PUSH2 0x47F0 JUMP JUMPDEST PUSH2 0x1145 SWAP2 SWAP1 PUSH2 0x4751 JUMP JUMPDEST PUSH2 0x114F SWAP2 SWAP1 PUSH2 0x4768 JUMP JUMPDEST CALLVALUE LT ISZERO PUSH2 0x1193 JUMPI PUSH1 0x40 MLOAD PUSH3 0x461BCD PUSH1 0xE5 SHL DUP2 MSTORE PUSH1 0x20 PUSH1 0x4 DUP3 ADD MSTORE PUSH1 0x12 PUSH1 0x24 DUP3 ADD MSTORE PUSH18 0x496E73756666696369656E742066756E6421 PUSH1 0x70 SHL PUSH1 0x44 DUP3 ADD MSTORE PUSH1 0x64 ADD PUSH2 0x734 JUMP JUMPDEST PUSH2 0x119D DUP6 DUP6 PUSH2 0x3C66 JUMP JUMPDEST PUSH2 0x11F7 JUMPI PUSH1 0x40 MLOAD PUSH3 0x461BCD PUSH1 0xE5 SHL DUP2 MSTORE PUSH1 0x20 PUSH1 0x4 DUP3 ADD MSTORE PUSH1 0x25 PUSH1 0x24 DUP3 ADD MSTORE PUSH32 0x4572726F723A2054686973204461746520697320616C726561647920626F6F6B PUSH1 0x44 DUP3 ADD MSTORE PUSH5 0x32B210909 PUSH1 0xDD SHL PUSH1 0x64 DUP3 ADD MSTORE PUSH1 0x84 ADD PUSH2 0x734 JUMP JUMPDEST PUSH1 0x0 JUMPDEST DUP5 MLOAD DUP2 LT ISZERO PUSH2 0x13F7 JUMPI PUSH2 0x120B PUSH2 0x3E5B JUMP JUMPDEST PUSH1 0x20 DUP1 DUP3 ADD DUP9 SWAP1 MSTORE PUSH1 0x0 DUP9 DUP2 MSTORE PUSH1 0x7 SWAP1 SWAP2 MSTORE PUSH1 0x40 SWAP1 DUP2 SWAP1 KECCAK256 SLOAD DUP3 MSTORE CALLER SWAP1 DUP3 ADD DUP2 SWAP1 MSTORE PUSH1 0x60 DUP3 ADD MSTORE DUP6 MLOAD DUP7 SWAP1 DUP4 SWAP1 DUP2 LT PUSH2 0x1246 JUMPI PUSH2 0x1246 PUSH2 0x4725 JUMP JUMPDEST PUSH1 0x20 SWAP1 DUP2 MUL SWAP2 SWAP1 SWAP2 ADD DUP2 ADD MLOAD PUSH1 0x80 DUP4 ADD MSTORE PUSH1 0x0 DUP9 DUP2 MSTORE PUSH1 0x6 DUP1 DUP4 MSTORE PUSH1 0x40 DUP1 DUP4 KECCAK256 SWAP1 SWAP2 ADD SLOAD PUSH1 0xA0 DUP6 ADD MSTORE DUP10 DUP3 MSTORE PUSH1 0x9 SWAP1 SWAP3 MSTORE SWAP1 DUP2 KECCAK256 DUP8 MLOAD PUSH1 0x1 SWAP3 SWAP1 DUP10 SWAP1 DUP7 SWAP1 DUP2 LT PUSH2 0x1292 JUMPI PUSH2 0x1292 PUSH2 0x4725 JUMP JUMPDEST PUSH1 0x20 SWAP1 DUP2 MUL SWAP2 SWAP1 SWAP2 ADD DUP2 ADD MLOAD DUP3 MSTORE DUP2 DUP2 ADD SWAP3 SWAP1 SWAP3 MSTORE PUSH1 0x40 SWAP1 DUP2 ADD PUSH1 0x0 SWAP1 DUP2 KECCAK256 DUP1 SLOAD SWAP5 ISZERO ISZERO PUSH1 0xFF NOT SWAP6 DUP7 AND OR SWAP1 SSTORE PUSH2 0x100 DUP6 DUP2 ADD DUP3 DUP2 MSTORE PUSH1 0x1 PUSH2 0x120 DUP9 ADD DUP2 DUP2 MSTORE PUSH2 0x140 DUP10 ADD DUP6 DUP2 MSTORE DUP10 MLOAD DUP7 MSTORE PUSH1 0xC DUP9 MSTORE DUP7 DUP7 KECCAK256 DUP1 SLOAD SWAP1 SWAP10 AND DUP4 OR SWAP1 SWAP9 SSTORE DUP15 DUP6 MSTORE PUSH1 0x7 DUP1 DUP9 MSTORE DUP7 DUP7 KECCAK256 DUP1 SLOAD DUP1 DUP6 ADD DUP3 SSTORE SWAP1 DUP8 MSTORE SWAP6 DUP9 SWAP1 KECCAK256 DUP11 MLOAD SWAP7 SWAP1 SWAP2 MUL ADD SWAP5 DUP6 SSTORE SWAP6 DUP9 ADD MLOAD SWAP1 DUP5 ADD SSTORE SWAP3 DUP7 ADD MLOAD PUSH1 0x2 DUP4 ADD DUP1 SLOAD PUSH1 0x1 PUSH1 0x1 PUSH1 0xA0 SHL SUB SWAP3 DUP4 AND PUSH1 0x1 PUSH1 0x1 PUSH1 0xA0 SHL SUB NOT SWAP2 DUP3 AND OR SWAP1 SWAP2 SSTORE PUSH1 0x60 DUP9 ADD MLOAD PUSH1 0x3 DUP6 ADD DUP1 SLOAD SWAP2 SWAP1 SWAP4 AND SWAP2 AND OR SWAP1 SSTORE PUSH1 0x80 DUP7 ADD MLOAD PUSH1 0x4 DUP4 ADD SSTORE PUSH1 0xA0 DUP7 ADD MLOAD PUSH1 0x5 DUP4 ADD SSTORE PUSH1 0xC0 DUP7 ADD MLOAD PUSH1 0x6 SWAP1 SWAP3 ADD DUP1 SLOAD PUSH1 0xE0 SWAP1 SWAP8 ADD MLOAD SWAP4 MLOAD SWAP5 MLOAD SWAP6 MLOAD ISZERO ISZERO PUSH1 0x1 PUSH1 0x20 SHL MUL PUSH5 0xFF00000000 NOT SWAP7 ISZERO ISZERO PUSH4 0x1000000 MUL PUSH4 0xFF000000 NOT SWAP7 ISZERO ISZERO PUSH3 0x10000 MUL SWAP7 SWAP1 SWAP7 AND PUSH4 0xFFFF0000 NOT SWAP6 ISZERO ISZERO SWAP1 SWAP4 MUL PUSH2 0xFF00 NOT SWAP5 ISZERO ISZERO SWAP5 SWAP1 SWAP5 AND PUSH2 0xFFFF NOT SWAP1 SWAP9 AND SWAP8 SWAP1 SWAP8 OR SWAP3 SWAP1 SWAP3 OR SWAP3 SWAP1 SWAP3 AND SWAP2 SWAP1 SWAP2 OR SWAP2 SWAP1 SWAP2 OR SWAP2 SWAP1 SWAP2 AND SWAP2 SWAP1 SWAP2 OR SWAP1 SSTORE DUP1 PUSH2 0x13EF DUP2 PUSH2 0x479D JUMP JUMPDEST SWAP2 POP POP PUSH2 0x11FA JUMP JUMPDEST POP PUSH1 0x0 JUMPDEST DUP4 MLOAD DUP2 LT ISZERO PUSH2 0x1829 JUMPI PUSH1 0x0 DUP7 DUP2 MSTORE PUSH1 0x11 PUSH1 0x20 MSTORE PUSH1 0x40 DUP2 KECCAK256 DUP6 MLOAD DUP3 SWAP1 DUP8 SWAP1 DUP6 SWAP1 DUP2 LT PUSH2 0x1428 JUMPI PUSH2 0x1428 PUSH2 0x4725 JUMP JUMPDEST PUSH1 0x20 SWAP1 DUP2 MUL SWAP2 SWAP1 SWAP2 ADD DUP2 ADD MLOAD DUP3 MSTORE DUP2 DUP2 ADD SWAP3 SWAP1 SWAP3 MSTORE PUSH1 0x40 SWAP1 DUP2 ADD PUSH1 0x0 SWAP1 DUP2 KECCAK256 SLOAD DUP1 DUP3 MSTORE PUSH1 0xC SWAP1 SWAP4 MSTORE KECCAK256 SLOAD SWAP1 SWAP2 POP PUSH1 0xFF AND PUSH2 0x14A4 JUMPI PUSH1 0x40 MLOAD PUSH3 0x461BCD PUSH1 0xE5 SHL DUP2 MSTORE PUSH1 0x20 PUSH1 0x4 DUP3 ADD MSTORE PUSH1 0x1E PUSH1 0x24 DUP3 ADD MSTORE PUSH32 0x4572726F723A20426F6F6B696E672063616E6E6F7420626520666F756E640000 PUSH1 0x44 DUP3 ADD MSTORE PUSH1 0x64 ADD PUSH2 0x734 JUMP JUMPDEST PUSH1 0x0 DUP8 DUP2 MSTORE PUSH1 0x7 PUSH1 0x20 MSTORE PUSH1 0x40 DUP2 KECCAK256 DUP1 SLOAD DUP4 SWAP1 DUP2 LT PUSH2 0x14C4 JUMPI PUSH2 0x14C4 PUSH2 0x4725 JUMP JUMPDEST PUSH1 0x0 SWAP2 DUP3 MSTORE PUSH1 0x20 SWAP2 DUP3 SWAP1 KECCAK256 PUSH1 0x40 DUP1 MLOAD PUSH2 0x160 DUP2 ADD DUP3 MSTORE PUSH1 0x7 SWAP1 SWAP4 MUL SWAP1 SWAP2 ADD DUP1 SLOAD DUP4 MSTORE PUSH1 0x1 DUP1 DUP3 ADD SLOAD SWAP5 DUP5 ADD SWAP5 SWAP1 SWAP5 MSTORE PUSH1 0x2 DUP2 ADD SLOAD PUSH1 0x1 PUSH1 0x1 PUSH1 0xA0 SHL SUB SWAP1 DUP2 AND SWAP3 DUP5 ADD SWAP3 SWAP1 SWAP3 MSTORE PUSH1 0x3 DUP2 ADD SLOAD SWAP1 SWAP2 AND PUSH1 0x60 DUP4 ADD MSTORE PUSH1 0x4 DUP2 ADD SLOAD PUSH1 0x80 DUP4 ADD MSTORE PUSH1 0x5 DUP2 ADD SLOAD PUSH1 0xA0 DUP4 ADD MSTORE PUSH1 0x6 ADD SLOAD PUSH1 0xFF DUP1 DUP3 AND ISZERO ISZERO PUSH1 0xC0 DUP5 ADD MSTORE PUSH2 0x100 DUP1 DUP4 DIV DUP3 AND ISZERO ISZERO PUSH1 0xE0 DUP6 ADD MSTORE PUSH3 0x10000 DUP4 DIV DUP3 AND ISZERO ISZERO SWAP1 DUP5 ADD DUP2 SWAP1 MSTORE PUSH4 0x1000000 DUP4 DIV DUP3 AND ISZERO ISZERO PUSH2 0x120 DUP6 ADD MSTORE PUSH1 0x1 PUSH1 0x20 SHL SWAP1 SWAP3 DIV AND ISZERO ISZERO PUSH2 0x140 DUP4 ADD MSTORE SWAP1 SWAP3 POP EQ PUSH2 0x15CC JUMPI PUSH1 0x40 MLOAD PUSH3 0x461BCD PUSH1 0xE5 SHL DUP2 MSTORE PUSH1 0x20 PUSH1 0x4 DUP3 ADD MSTORE PUSH1 0x19 PUSH1 0x24 DUP3 ADD MSTORE PUSH32 0x596F752063616E6E6F7420626F6F6B2074686973206461746500000000000000 PUSH1 0x44 DUP3 ADD MSTORE PUSH1 0x64 ADD PUSH2 0x734 JUMP JUMPDEST CALLER PUSH1 0x60 DUP3 ADD MSTORE PUSH2 0x15DA PUSH2 0x3EB7 JUMP JUMPDEST PUSH1 0x0 DUP4 DUP2 MSTORE PUSH1 0xF PUSH1 0x20 SWAP1 DUP2 MSTORE PUSH1 0x40 SWAP1 SWAP2 KECCAK256 SLOAD DUP3 MSTORE DUP2 ADD DUP4 SWAP1 MSTORE DUP7 MLOAD DUP8 SWAP1 DUP6 SWAP1 DUP2 LT PUSH2 0x1607 JUMPI PUSH2 0x1607 PUSH2 0x4725 JUMP JUMPDEST PUSH1 0x20 SWAP1 DUP2 MUL SWAP2 SWAP1 SWAP2 ADD DUP2 ADD MLOAD PUSH1 0x40 DUP1 DUP5 ADD SWAP2 DUP3 MSTORE DUP5 DUP2 ADD MLOAD PUSH1 0x1 PUSH1 0x1 PUSH1 0xA0 SHL SUB SWAP1 DUP2 AND PUSH1 0x60 DUP7 ADD SWAP1 DUP2 MSTORE CALLER PUSH1 0x80 DUP8 ADD SWAP1 DUP2 MSTORE PUSH1 0x0 DUP10 DUP2 MSTORE PUSH1 0xD DUP8 MSTORE DUP5 DUP2 KECCAK256 DUP9 MLOAD DUP2 SSTORE DUP9 DUP9 ADD MLOAD PUSH1 0x1 DUP1 DUP4 ADD SWAP2 SWAP1 SWAP2 SSTORE SWAP7 MLOAD PUSH1 0x2 DUP3 ADD SSTORE SWAP3 MLOAD PUSH1 0x3 DUP5 ADD DUP1 SLOAD SWAP2 DUP7 AND PUSH1 0x1 PUSH1 0x1 PUSH1 0xA0 SHL SUB NOT SWAP3 DUP4 AND OR SWAP1 SSTORE SWAP2 MLOAD PUSH1 0x4 SWAP1 SWAP4 ADD DUP1 SLOAD SWAP4 SWAP1 SWAP5 AND SWAP3 SWAP1 SWAP2 AND SWAP2 SWAP1 SWAP2 OR SWAP1 SWAP2 SSTORE DUP13 DUP2 MSTORE PUSH1 0x7 SWAP1 SWAP4 MSTORE SWAP1 SWAP2 KECCAK256 DUP1 SLOAD DUP6 SWAP1 DUP2 LT PUSH2 0x16AC JUMPI PUSH2 0x16AC PUSH2 0x4725 JUMP JUMPDEST SWAP1 PUSH1 0x0 MSTORE PUSH1 0x20 PUSH1 0x0 KECCAK256 SWAP1 PUSH1 0x7 MUL ADD PUSH1 0x6 ADD PUSH1 0x4 PUSH2 0x100 EXP DUP2 SLOAD DUP2 PUSH1 0xFF MUL NOT AND SWAP1 DUP4 ISZERO ISZERO MUL OR SWAP1 SSTORE POP PUSH1 0x1 PUSH1 0x7 PUSH1 0x0 DUP12 DUP2 MSTORE PUSH1 0x20 ADD SWAP1 DUP2 MSTORE PUSH1 0x20 ADD PUSH1 0x0 KECCAK256 DUP5 DUP2 SLOAD DUP2 LT PUSH2 0x16FA JUMPI PUSH2 0x16FA PUSH2 0x4725 JUMP JUMPDEST SWAP1 PUSH1 0x0 MSTORE PUSH1 0x20 PUSH1 0x0 KECCAK256 SWAP1 PUSH1 0x7 MUL ADD PUSH1 0x6 ADD PUSH1 0x3 PUSH2 0x100 EXP DUP2 SLOAD DUP2 PUSH1 0xFF MUL NOT AND SWAP1 DUP4 ISZERO ISZERO MUL OR SWAP1 SSTORE POP CALLER PUSH1 0x7 PUSH1 0x0 DUP12 DUP2 MSTORE PUSH1 0x20 ADD SWAP1 DUP2 MSTORE PUSH1 0x20 ADD PUSH1 0x0 KECCAK256 DUP5 DUP2 SLOAD DUP2 LT PUSH2 0x1747 JUMPI PUSH2 0x1747 PUSH2 0x4725 JUMP JUMPDEST PUSH1 0x0 SWAP2 DUP3 MSTORE PUSH1 0x20 DUP1 DUP4 KECCAK256 PUSH1 0x7 SWAP3 DUP4 MUL ADD PUSH1 0x3 ADD DUP1 SLOAD PUSH1 0x1 PUSH1 0x1 PUSH1 0xA0 SHL SUB NOT AND PUSH1 0x1 PUSH1 0x1 PUSH1 0xA0 SHL SUB SWAP6 SWAP1 SWAP6 AND SWAP5 SWAP1 SWAP5 OR SWAP1 SWAP4 SSTORE DUP12 DUP3 MSTORE SWAP1 SWAP2 MSTORE PUSH1 0x40 DUP2 KECCAK256 DUP1 SLOAD DUP6 SWAP1 DUP2 LT PUSH2 0x1795 JUMPI PUSH2 0x1795 PUSH2 0x4725 JUMP JUMPDEST SWAP1 PUSH1 0x0 MSTORE PUSH1 0x20 PUSH1 0x0 KECCAK256 SWAP1 PUSH1 0x7 MUL ADD PUSH1 0x6 ADD PUSH1 0x2 PUSH2 0x100 EXP DUP2 SLOAD DUP2 PUSH1 0xFF MUL NOT AND SWAP1 DUP4 ISZERO ISZERO MUL OR SWAP1 SSTORE POP PUSH1 0x1 PUSH1 0x9 PUSH1 0x0 DUP12 DUP2 MSTORE PUSH1 0x20 ADD SWAP1 DUP2 MSTORE PUSH1 0x20 ADD PUSH1 0x0 KECCAK256 PUSH1 0x0 DUP10 DUP8 DUP2 MLOAD DUP2 LT PUSH2 0x17E6 JUMPI PUSH2 0x17E6 PUSH2 0x4725 JUMP JUMPDEST PUSH1 0x20 MUL PUSH1 0x20 ADD ADD MLOAD DUP2 MSTORE PUSH1 0x20 ADD SWAP1 DUP2 MSTORE PUSH1 0x20 ADD PUSH1 0x0 KECCAK256 PUSH1 0x0 PUSH2 0x100 EXP DUP2 SLOAD DUP2 PUSH1 0xFF MUL NOT AND SWAP1 DUP4 ISZERO ISZERO MUL OR SWAP1 SSTORE POP POP POP POP DUP1 DUP1 PUSH2 0x1821 SWAP1 PUSH2 0x479D JUMP JUMPDEST SWAP2 POP POP PUSH2 0x13FB JUMP JUMPDEST POP POP POP POP POP POP JUMP JUMPDEST PUSH1 0xE DUP2 DUP2 SLOAD DUP2 LT PUSH2 0x1841 JUMPI PUSH1 0x0 DUP1 REVERT JUMPDEST PUSH1 0x0 SWAP2 DUP3 MSTORE PUSH1 0x20 SWAP1 SWAP2 KECCAK256 ADD SLOAD SWAP1 POP DUP2 JUMP JUMPDEST PUSH1 0x0 DUP8 DUP2 MSTORE PUSH1 0xB PUSH1 0x20 MSTORE PUSH1 0x40 SWAP1 KECCAK256 SLOAD PUSH1 0xFF AND ISZERO ISZERO PUSH1 0x1 EQ PUSH2 0x18AC JUMPI PUSH1 0x40 MLOAD PUSH3 0x461BCD PUSH1 0xE5 SHL DUP2 MSTORE PUSH1 0x20 PUSH1 0x4 DUP3 ADD MSTORE PUSH1 0x14 PUSH1 0x24 DUP3 ADD MSTORE PUSH20 0x105C1C185C9D1B595B9D081B9BDD08199BDD5B99 PUSH1 0x62 SHL PUSH1 0x44 DUP3 ADD MSTORE PUSH1 0x64 ADD PUSH2 0x734 JUMP JUMPDEST PUSH1 0x0 DUP8 DUP2 MSTORE PUSH1 0x6 PUSH1 0x20 MSTORE PUSH1 0x40 SWAP1 KECCAK256 PUSH1 0x7 ADD SLOAD PUSH1 0x1 PUSH1 0x1 PUSH1 0xA0 SHL SUB AND CALLER EQ PUSH2 0x1920 JUMPI PUSH1 0x40 MLOAD PUSH3 0x461BCD PUSH1 0xE5 SHL DUP2 MSTORE PUSH1 0x20 PUSH1 0x4 DUP3 ADD MSTORE PUSH1 0x22 PUSH1 0x24 DUP3 ADD MSTORE PUSH32 0x556E617574686F72697A656420706572736F6E6E656C2C206F776E6572206F6E PUSH1 0x44 DUP3 ADD MSTORE PUSH2 0x6C79 PUSH1 0xF0 SHL PUSH1 0x64 DUP3 ADD MSTORE PUSH1 0x84 ADD PUSH2 0x734 JUMP JUMPDEST PUSH1 0x0 DUP7 MLOAD GT PUSH2 0x1968 JUMPI PUSH1 0x40 MLOAD PUSH3 0x461BCD PUSH1 0xE5 SHL DUP2 MSTORE PUSH1 0x20 PUSH1 0x4 DUP3 ADD MSTORE PUSH1 0x14 PUSH1 0x24 DUP3 ADD MSTORE PUSH20 0x4E616D652063616E6E6F7420626520656D707479 PUSH1 0x60 SHL PUSH1 0x44 DUP3 ADD MSTORE PUSH1 0x64 ADD PUSH2 0x734 JUMP JUMPDEST PUSH1 0x0 DUP6 MLOAD GT PUSH2 0x19B9 JUMPI PUSH1 0x40 MLOAD PUSH3 0x461BCD PUSH1 0xE5 SHL DUP2 MSTORE PUSH1 0x20 PUSH1 0x4 DUP3 ADD MSTORE PUSH1 0x1B PUSH1 0x24 DUP3 ADD MSTORE PUSH32 0x4465736372697074696F6E2063616E6E6F7420626520656D7074790000000000 PUSH1 0x44 DUP3 ADD MSTORE PUSH1 0x64 ADD PUSH2 0x734 JUMP JUMPDEST PUSH1 0x0 DUP5 MLOAD GT PUSH2 0x1A05 JUMPI PUSH1 0x40 MLOAD PUSH3 0x461BCD PUSH1 0xE5 SHL DUP2 MSTORE PUSH1 0x20 PUSH1 0x4 DUP3 ADD MSTORE PUSH1 0x18 PUSH1 0x24 DUP3 ADD MSTORE PUSH24 0x4C6F636174696F6E2063616E6E6F7420626520656D707479 PUSH1 0x40 SHL PUSH1 0x44 DUP3 ADD MSTORE PUSH1 0x64 ADD PUSH2 0x734 JUMP JUMPDEST PUSH1 0x0 DUP4 MLOAD GT PUSH2 0x1A4F JUMPI PUSH1 0x40 MLOAD PUSH3 0x461BCD PUSH1 0xE5 SHL DUP2 MSTORE PUSH1 0x20 PUSH1 0x4 DUP3 ADD MSTORE PUSH1 0x16 PUSH1 0x24 DUP3 ADD MSTORE PUSH22 0x496D616765732063616E6E6F7420626520656D707479 PUSH1 0x50 SHL PUSH1 0x44 DUP3 ADD MSTORE PUSH1 0x64 ADD PUSH2 0x734 JUMP JUMPDEST PUSH1 0x0 DUP3 GT PUSH2 0x1A96 JUMPI PUSH1 0x40 MLOAD PUSH3 0x461BCD PUSH1 0xE5 SHL DUP2 MSTORE PUSH1 0x20 PUSH1 0x4 DUP3 ADD MSTORE PUSH1 0x14 PUSH1 0x24 DUP3 ADD MSTORE PUSH20 0x526F6F6D732063616E6E6F74206265207A65726F PUSH1 0x60 SHL PUSH1 0x44 DUP3 ADD MSTORE PUSH1 0x64 ADD PUSH2 0x734 JUMP JUMPDEST PUSH1 0x0 DUP2 GT PUSH2 0x1ADD JUMPI PUSH1 0x40 MLOAD PUSH3 0x461BCD PUSH1 0xE5 SHL DUP2 MSTORE PUSH1 0x20 PUSH1 0x4 DUP3 ADD MSTORE PUSH1 0x14 PUSH1 0x24 DUP3 ADD MSTORE PUSH20 0x50726963652063616E6E6F74206265207A65726F PUSH1 0x60 SHL PUSH1 0x44 DUP3 ADD MSTORE PUSH1 0x64 ADD PUSH2 0x734 JUMP JUMPDEST PUSH1 0x0 PUSH1 0x6 PUSH1 0x0 DUP10 DUP2 MSTORE PUSH1 0x20 ADD SWAP1 DUP2 MSTORE PUSH1 0x20 ADD PUSH1 0x0 KECCAK256 PUSH1 0x40 MLOAD DUP1 PUSH2 0x160 ADD PUSH1 0x40 MSTORE SWAP1 DUP2 PUSH1 0x0 DUP3 ADD SLOAD DUP2 MSTORE PUSH1 0x20 ADD PUSH1 0x1 DUP3 ADD DUP1 SLOAD PUSH2 0x1B18 SWAP1 PUSH2 0x47B6 JUMP JUMPDEST DUP1 PUSH1 0x1F ADD PUSH1 0x20 DUP1 SWAP2 DIV MUL PUSH1 0x20 ADD PUSH1 0x40 MLOAD SWAP1 DUP2 ADD PUSH1 0x40 MSTORE DUP1 SWAP3 SWAP2 SWAP1 DUP2 DUP2 MSTORE PUSH1 0x20 ADD DUP3 DUP1 SLOAD PUSH2 0x1B44 SWAP1 PUSH2 0x47B6 JUMP JUMPDEST DUP1 ISZERO PUSH2 0x1B91 JUMPI DUP1 PUSH1 0x1F LT PUSH2 0x1B66 JUMPI PUSH2 0x100 DUP1 DUP4 SLOAD DIV MUL DUP4 MSTORE SWAP2 PUSH1 0x20 ADD SWAP2 PUSH2 0x1B91 JUMP JUMPDEST DUP3 ADD SWAP2 SWAP1 PUSH1 0x0 MSTORE PUSH1 0x20 PUSH1 0x0 KECCAK256 SWAP1 JUMPDEST DUP2 SLOAD DUP2 MSTORE SWAP1 PUSH1 0x1 ADD SWAP1 PUSH1 0x20 ADD DUP1 DUP4 GT PUSH2 0x1B74 JUMPI DUP3 SWAP1 SUB PUSH1 0x1F AND DUP3 ADD SWAP2 JUMPDEST POP POP POP POP POP DUP2 MSTORE PUSH1 0x20 ADD PUSH1 0x2 DUP3 ADD DUP1 SLOAD PUSH2 0x1BAA SWAP1 PUSH2 0x47B6 JUMP JUMPDEST DUP1 PUSH1 0x1F ADD PUSH1 0x20 DUP1 SWAP2 DIV MUL PUSH1 0x20 ADD PUSH1 0x40 MLOAD SWAP1 DUP2 ADD PUSH1 0x40 MSTORE DUP1 SWAP3 SWAP2 SWAP1 DUP2 DUP2 MSTORE PUSH1 0x20 ADD DUP3 DUP1 SLOAD PUSH2 0x1BD6 SWAP1 PUSH2 0x47B6 JUMP JUMPDEST DUP1 ISZERO PUSH2 0x1C23 JUMPI DUP1 PUSH1 0x1F LT PUSH2 0x1BF8 JUMPI PUSH2 0x100 DUP1 DUP4 SLOAD DIV MUL DUP4 MSTORE SWAP2 PUSH1 0x20 ADD SWAP2 PUSH2 0x1C23 JUMP JUMPDEST DUP3 ADD SWAP2 SWAP1 PUSH1 0x0 MSTORE PUSH1 0x20 PUSH1 0x0 KECCAK256 SWAP1 JUMPDEST DUP2 SLOAD DUP2 MSTORE SWAP1 PUSH1 0x1 ADD SWAP1 PUSH1 0x20 ADD DUP1 DUP4 GT PUSH2 0x1C06 JUMPI DUP3 SWAP1 SUB PUSH1 0x1F AND DUP3 ADD SWAP2 JUMPDEST POP POP POP POP POP DUP2 MSTORE PUSH1 0x20 ADD PUSH1 0x3 DUP3 ADD DUP1 SLOAD PUSH2 0x1C3C SWAP1 PUSH2 0x47B6 JUMP JUMPDEST DUP1 PUSH1 0x1F ADD PUSH1 0x20 DUP1 SWAP2 DIV MUL PUSH1 0x20 ADD PUSH1 0x40 MLOAD SWAP1 DUP2 ADD PUSH1 0x40 MSTORE DUP1 SWAP3 SWAP2 SWAP1 DUP2 DUP2 MSTORE PUSH1 0x20 ADD DUP3 DUP1 SLOAD PUSH2 0x1C68 SWAP1 PUSH2 0x47B6 JUMP JUMPDEST DUP1 ISZERO PUSH2 0x1CB5 JUMPI DUP1 PUSH1 0x1F LT PUSH2 0x1C8A JUMPI PUSH2 0x100 DUP1 DUP4 SLOAD DIV MUL DUP4 MSTORE SWAP2 PUSH1 0x20 ADD SWAP2 PUSH2 0x1CB5 JUMP JUMPDEST DUP3 ADD SWAP2 SWAP1 PUSH1 0x0 MSTORE PUSH1 0x20 PUSH1 0x0 KECCAK256 SWAP1 JUMPDEST DUP2 SLOAD DUP2 MSTORE SWAP1 PUSH1 0x1 ADD SWAP1 PUSH1 0x20 ADD DUP1 DUP4 GT PUSH2 0x1C98 JUMPI DUP3 SWAP1 SUB PUSH1 0x1F AND DUP3 ADD SWAP2 JUMPDEST POP POP POP POP POP DUP2 MSTORE PUSH1 0x20 ADD PUSH1 0x4 DUP3 ADD DUP1 SLOAD PUSH2 0x1CCE SWAP1 PUSH2 0x47B6 JUMP JUMPDEST DUP1 PUSH1 0x1F ADD PUSH1 0x20 DUP1 SWAP2 DIV MUL PUSH1 0x20 ADD PUSH1 0x40 MLOAD SWAP1 DUP2 ADD PUSH1 0x40 MSTORE DUP1 SWAP3 SWAP2 SWAP1 DUP2 DUP2 MSTORE PUSH1 0x20 ADD DUP3 DUP1 SLOAD PUSH2 0x1CFA SWAP1 PUSH2 0x47B6 JUMP JUMPDEST DUP1 ISZERO PUSH2 0x1D47 JUMPI DUP1 PUSH1 0x1F LT PUSH2 0x1D1C JUMPI PUSH2 0x100 DUP1 DUP4 SLOAD DIV MUL DUP4 MSTORE SWAP2 PUSH1 0x20 ADD SWAP2 PUSH2 0x1D47 JUMP JUMPDEST DUP3 ADD SWAP2 SWAP1 PUSH1 0x0 MSTORE PUSH1 0x20 PUSH1 0x0 KECCAK256 SWAP1 JUMPDEST DUP2 SLOAD DUP2 MSTORE SWAP1 PUSH1 0x1 ADD SWAP1 PUSH1 0x20 ADD DUP1 DUP4 GT PUSH2 0x1D2A JUMPI DUP3 SWAP1 SUB PUSH1 0x1F AND DUP3 ADD SWAP2 JUMPDEST POP POP POP SWAP2 DUP4 MSTORE POP POP PUSH1 0x5 DUP3 ADD SLOAD PUSH1 0x20 DUP1 DUP4 ADD SWAP2 SWAP1 SWAP2 MSTORE PUSH1 0x6 DUP1 DUP5 ADD SLOAD PUSH1 0x40 DUP1 DUP6 ADD SWAP2 SWAP1 SWAP2 MSTORE PUSH1 0x7 DUP6 ADD SLOAD PUSH1 0x1 PUSH1 0x1 PUSH1 0xA0 SHL SUB DUP2 AND PUSH1 0x60 DUP1 DUP8 ADD SWAP2 SWAP1 SWAP2 MSTORE PUSH1 0xFF PUSH1 0x1 PUSH1 0xA0 SHL DUP4 DIV DUP2 AND ISZERO ISZERO PUSH1 0x80 DUP1 DUP10 ADD SWAP2 SWAP1 SWAP2 MSTORE PUSH1 0x1 PUSH1 0xA8 SHL SWAP1 SWAP4 DIV AND ISZERO ISZERO PUSH1 0xA0 DUP1 DUP9 ADD SWAP2 SWAP1 SWAP2 MSTORE PUSH1 0x8 SWAP1 SWAP8 ADD SLOAD PUSH1 0xC0 SWAP7 DUP8 ADD MSTORE DUP8 DUP6 ADD DUP16 DUP2 MSTORE DUP9 DUP5 ADD DUP16 SWAP1 MSTORE SWAP1 DUP9 ADD DUP14 SWAP1 MSTORE SWAP1 DUP8 ADD DUP12 SWAP1 MSTORE SWAP5 DUP7 ADD DUP10 SWAP1 MSTORE SWAP3 DUP6 ADD DUP8 SWAP1 MSTORE PUSH1 0x0 DUP14 DUP2 MSTORE SWAP2 MSTORE KECCAK256 DUP3 MLOAD DUP2 SSTORE SWAP1 MLOAD SWAP2 SWAP3 POP DUP3 SWAP2 PUSH1 0x1 DUP3 ADD SWAP1 PUSH2 0x1E00 SWAP1 DUP3 PUSH2 0x4849 JUMP JUMPDEST POP PUSH1 0x40 DUP3 ADD MLOAD PUSH1 0x2 DUP3 ADD SWAP1 PUSH2 0x1E15 SWAP1 DUP3 PUSH2 0x4849 JUMP JUMPDEST POP PUSH1 0x60 DUP3 ADD MLOAD PUSH1 0x3 DUP3 ADD SWAP1 PUSH2 0x1E2A SWAP1 DUP3 PUSH2 0x4849 JUMP JUMPDEST POP PUSH1 0x80 DUP3 ADD MLOAD PUSH1 0x4 DUP3 ADD SWAP1 PUSH2 0x1E3F SWAP1 DUP3 PUSH2 0x4849 JUMP JUMPDEST POP PUSH1 0xA0 DUP3 ADD MLOAD PUSH1 0x5 DUP3 ADD SSTORE PUSH1 0xC0 DUP3 ADD MLOAD PUSH1 0x6 DUP3 ADD SSTORE PUSH1 0xE0 DUP3 ADD MLOAD PUSH1 0x7 DUP3 ADD DUP1 SLOAD PUSH2 0x100 DUP6 ADD MLOAD PUSH2 0x120 DUP7 ADD MLOAD ISZERO ISZERO PUSH1 0x1 PUSH1 0xA8 SHL MUL PUSH1 0xFF PUSH1 0xA8 SHL NOT SWAP2 ISZERO ISZERO PUSH1 0x1 PUSH1 0xA0 SHL MUL PUSH1 0x1 PUSH1 0x1 PUSH1 0xA8 SHL SUB NOT SWAP1 SWAP4 AND PUSH1 0x1 PUSH1 0x1 PUSH1 0xA0 SHL SUB SWAP1 SWAP6 AND SWAP5 SWAP1 SWAP5 OR SWAP2 SWAP1 SWAP2 OR AND SWAP2 SWAP1 SWAP2 OR SWAP1 SSTORE PUSH2 0x140 SWAP1 SWAP2 ADD MLOAD PUSH1 0x8 SWAP1 SWAP2 ADD SSTORE POP POP POP POP POP POP POP POP JUMP JUMPDEST PUSH2 0x1EC7 PUSH2 0x3E5B JUMP JUMPDEST PUSH1 0x0 DUP4 DUP2 MSTORE PUSH1 0x7 PUSH1 0x20 MSTORE PUSH1 0x40 SWAP1 KECCAK256 DUP1 SLOAD DUP4 SWAP1 DUP2 LT PUSH2 0x1EE7 JUMPI PUSH2 0x1EE7 PUSH2 0x4725 JUMP JUMPDEST PUSH1 0x0 SWAP2 DUP3 MSTORE PUSH1 0x20 SWAP2 DUP3 SWAP1 KECCAK256 PUSH1 0x40 DUP1 MLOAD PUSH2 0x160 DUP2 ADD DUP3 MSTORE PUSH1 0x7 SWAP1 SWAP4 MUL SWAP1 SWAP2 ADD DUP1 SLOAD DUP4 MSTORE PUSH1 0x1 DUP2 ADD SLOAD SWAP4 DUP4 ADD SWAP4 SWAP1 SWAP4 MSTORE PUSH1 0x2 DUP4 ADD SLOAD PUSH1 0x1 PUSH1 0x1 PUSH1 0xA0 SHL SUB SWAP1 DUP2 AND SWAP2 DUP4 ADD SWAP2 SWAP1 SWAP2 MSTORE PUSH1 0x3 DUP4 ADD SLOAD AND PUSH1 0x60 DUP3 ADD MSTORE PUSH1 0x4 DUP3 ADD SLOAD PUSH1 0x80 DUP3 ADD MSTORE PUSH1 0x5 DUP3 ADD SLOAD PUSH1 0xA0 DUP3 ADD MSTORE PUSH1 0x6 SWAP1 SWAP2 ADD SLOAD PUSH1 0xFF DUP1 DUP3 AND ISZERO ISZERO PUSH1 0xC0 DUP5 ADD MSTORE PUSH2 0x100 DUP1 DUP4 DIV DUP3 AND ISZERO ISZERO PUSH1 0xE0 DUP6 ADD MSTORE PUSH3 0x10000 DUP4 DIV DUP3 AND ISZERO ISZERO SWAP1 DUP5 ADD MSTORE PUSH4 0x1000000 DUP3 DIV DUP2 AND ISZERO ISZERO PUSH2 0x120 DUP5 ADD MSTORE PUSH1 0x1 PUSH1 0x20 SHL SWAP1 SWAP2 DIV AND ISZERO ISZERO PUSH2 0x140 DUP3 ADD MSTORE SWAP1 POP SWAP3 SWAP2 POP POP JUMP JUMPDEST PUSH1 0x0 DUP2 DUP2 MSTORE PUSH1 0xB PUSH1 0x20 MSTORE PUSH1 0x40 SWAP1 KECCAK256 SLOAD PUSH1 0xFF AND ISZERO ISZERO PUSH1 0x1 EQ PUSH2 0x1FD7 JUMPI PUSH1 0x40 MLOAD PUSH3 0x461BCD PUSH1 0xE5 SHL DUP2 MSTORE PUSH1 0x4 ADD PUSH2 0x734 SWAP1 PUSH2 0x4909 JUMP JUMPDEST PUSH1 0x0 DUP2 DUP2 MSTORE PUSH1 0x6 PUSH1 0x20 MSTORE PUSH1 0x40 SWAP1 KECCAK256 PUSH1 0x7 ADD SLOAD PUSH1 0x1 PUSH1 0x1 PUSH1 0xA0 SHL SUB AND CALLER EQ PUSH2 0x2036 JUMPI PUSH1 0x40 MLOAD PUSH3 0x461BCD PUSH1 0xE5 SHL DUP2 MSTORE PUSH1 0x20 PUSH1 0x4 DUP3 ADD MSTORE PUSH1 0x13 PUSH1 0x24 DUP3 ADD MSTORE PUSH19 0x556E617574686F72697A656420656E74697479 PUSH1 0x68 SHL PUSH1 0x44 DUP3 ADD MSTORE PUSH1 0x64 ADD PUSH2 0x734 JUMP JUMPDEST PUSH1 0x0 SWAP1 DUP2 MSTORE PUSH1 0xB PUSH1 0x20 SWAP1 DUP2 MSTORE PUSH1 0x40 DUP1 DUP4 KECCAK256 DUP1 SLOAD PUSH1 0xFF NOT AND SWAP1 SSTORE PUSH1 0x6 SWAP1 SWAP2 MSTORE SWAP1 KECCAK256 PUSH1 0x7 ADD DUP1 SLOAD PUSH1 0xFF PUSH1 0xA8 SHL NOT AND PUSH1 0x1 PUSH1 0xA8 SHL OR SWAP1 SSTORE JUMP JUMPDEST PUSH1 0x0 DUP3 DUP2 MSTORE PUSH1 0xB PUSH1 0x20 MSTORE PUSH1 0x40 SWAP1 KECCAK256 SLOAD PUSH1 0xFF AND PUSH2 0x20CA JUMPI PUSH1 0x40 MLOAD PUSH3 0x461BCD PUSH1 0xE5 SHL DUP2 MSTORE PUSH1 0x20 PUSH1 0x4 DUP3 ADD MSTORE PUSH1 0x1A PUSH1 0x24 DUP3 ADD MSTORE PUSH32 0x41706172746D656E74206973206E6F7420617661696C61626C65000000000000 PUSH1 0x44 DUP3 ADD MSTORE PUSH1 0x64 ADD PUSH2 0x734 JUMP JUMPDEST CALLER PUSH1 0x0 SWAP1 DUP2 MSTORE PUSH1 0xA PUSH1 0x20 SWAP1 DUP2 MSTORE PUSH1 0x40 DUP1 DUP4 KECCAK256 DUP6 DUP5 MSTORE SWAP1 SWAP2 MSTORE SWAP1 KECCAK256 SLOAD PUSH1 0xFF AND PUSH2 0x2146 JUMPI PUSH1 0x40 MLOAD PUSH3 0x461BCD PUSH1 0xE5 SHL DUP2 MSTORE PUSH1 0x20 PUSH1 0x4 DUP3 ADD MSTORE PUSH1 0x29 PUSH1 0x24 DUP3 ADD MSTORE PUSH32 0x4D75737420626F6F6B2061706172746D656E74206265666F726520796F752063 PUSH1 0x44 DUP3 ADD MSTORE PUSH9 0x616E20726576696577 PUSH1 0xB8 SHL PUSH1 0x64 DUP3 ADD MSTORE PUSH1 0x84 ADD PUSH2 0x734 JUMP JUMPDEST PUSH1 0x0 DUP2 MLOAD GT PUSH2 0x21A2 JUMPI PUSH1 0x40 MLOAD PUSH3 0x461BCD PUSH1 0xE5 SHL DUP2 MSTORE PUSH1 0x20 PUSH1 0x4 DUP3 ADD MSTORE PUSH1 0x22 PUSH1 0x24 DUP3 ADD MSTORE PUSH32 0x596F752063616E6E6F74206C6561766520616E20656D70747920726576696577 PUSH1 0x44 DUP3 ADD MSTORE PUSH2 0x2121 PUSH1 0xF0 SHL PUSH1 0x64 DUP3 ADD MSTORE PUSH1 0x84 ADD PUSH2 0x734 JUMP JUMPDEST PUSH2 0x21DD PUSH1 0x40 MLOAD DUP1 PUSH1 0xA0 ADD PUSH1 0x40 MSTORE DUP1 PUSH1 0x0 DUP2 MSTORE PUSH1 0x20 ADD PUSH1 0x0 DUP2 MSTORE PUSH1 0x20 ADD PUSH1 0x60 DUP2 MSTORE PUSH1 0x20 ADD PUSH1 0x0 DUP2 MSTORE PUSH1 0x20 ADD PUSH1 0x0 PUSH1 0x1 PUSH1 0x1 PUSH1 0xA0 SHL SUB AND DUP2 MSTORE POP SWAP1 JUMP JUMPDEST PUSH1 0x20 DUP1 DUP3 ADD DUP5 SWAP1 MSTORE PUSH1 0x0 DUP5 DUP2 MSTORE PUSH1 0x8 SWAP1 SWAP2 MSTORE PUSH1 0x40 SWAP1 DUP2 SWAP1 KECCAK256 SLOAD DUP3 MSTORE DUP2 ADD DUP3 SWAP1 MSTORE PUSH2 0x2205 PUSH2 0x3BE2 JUMP JUMPDEST PUSH1 0x60 DUP3 ADD MSTORE CALLER PUSH1 0x80 DUP3 ADD MSTORE PUSH1 0x0 DUP4 DUP2 MSTORE PUSH1 0x8 PUSH1 0x20 SWAP1 DUP2 MSTORE PUSH1 0x40 DUP1 DUP4 KECCAK256 DUP1 SLOAD PUSH1 0x1 DUP2 DUP2 ADD DUP4 SSTORE SWAP2 DUP6 MSTORE SWAP4 DUP4 SWAP1 KECCAK256 DUP6 MLOAD PUSH1 0x5 SWAP1 SWAP6 MUL ADD SWAP4 DUP5 SSTORE SWAP2 DUP5 ADD MLOAD SWAP2 DUP4 ADD SWAP2 SWAP1 SWAP2 SSTORE DUP3 ADD MLOAD DUP3 SWAP2 SWAP1 PUSH1 0x2 DUP3 ADD SWAP1 PUSH2 0x225C SWAP1 DUP3 PUSH2 0x4849 JUMP JUMPDEST POP PUSH1 0x60 DUP3 ADD MLOAD PUSH1 0x3 DUP3 ADD SSTORE PUSH1 0x80 SWAP1 SWAP2 ADD MLOAD PUSH1 0x4 SWAP1 SWAP2 ADD DUP1 SLOAD PUSH1 0x1 PUSH1 0x1 PUSH1 0xA0 SHL SUB NOT AND PUSH1 0x1 PUSH1 0x1 PUSH1 0xA0 SHL SUB SWAP1 SWAP3 AND SWAP2 SWAP1 SWAP2 OR SWAP1 SSTORE POP POP POP JUMP JUMPDEST PUSH2 0x229C PUSH2 0x3CF1 JUMP JUMPDEST PUSH1 0x0 DUP3 DUP2 MSTORE PUSH1 0x7 PUSH1 0x20 MSTORE PUSH1 0x40 DUP2 KECCAK256 DUP1 SLOAD DUP4 SWAP1 DUP2 LT PUSH2 0x22BC JUMPI PUSH2 0x22BC PUSH2 0x4725 JUMP JUMPDEST PUSH1 0x0 SWAP2 DUP3 MSTORE PUSH1 0x20 SWAP2 DUP3 SWAP1 KECCAK256 PUSH1 0x40 DUP1 MLOAD PUSH2 0x160 DUP2 ADD DUP3 MSTORE PUSH1 0x7 SWAP1 SWAP4 MUL SWAP1 SWAP2 ADD DUP1 SLOAD DUP4 MSTORE PUSH1 0x1 DUP2 ADD SLOAD SWAP4 DUP4 ADD SWAP4 SWAP1 SWAP4 MSTORE PUSH1 0x2 DUP4 ADD SLOAD PUSH1 0x1 PUSH1 0x1 PUSH1 0xA0 SHL SUB SWAP1 DUP2 AND SWAP2 DUP4 ADD SWAP2 SWAP1 SWAP2 MSTORE PUSH1 0x3 DUP4 ADD SLOAD AND PUSH1 0x60 DUP3 ADD MSTORE PUSH1 0x4 DUP3 ADD SLOAD PUSH1 0x80 DUP3 ADD MSTORE PUSH1 0x5 DUP3 ADD SLOAD PUSH1 0xA0 DUP3 ADD MSTORE PUSH1 0x6 SWAP1 SWAP2 ADD SLOAD PUSH1 0xFF DUP1 DUP3 AND ISZERO DUP1 ISZERO PUSH1 0xC0 DUP6 ADD MSTORE PUSH2 0x100 DUP1 DUP5 DIV DUP4 AND ISZERO ISZERO PUSH1 0xE0 DUP7 ADD MSTORE PUSH3 0x10000 DUP5 DIV DUP4 AND ISZERO ISZERO SWAP1 DUP6 ADD MSTORE PUSH4 0x1000000 DUP4 DIV DUP3 AND ISZERO ISZERO PUSH2 0x120 DUP6 ADD MSTORE PUSH1 0x1 PUSH1 0x20 SHL SWAP1 SWAP3 DIV AND ISZERO ISZERO PUSH2 0x140 DUP4 ADD MSTORE SWAP1 SWAP2 POP PUSH2 0x23D1 JUMPI PUSH1 0x40 MLOAD PUSH3 0x461BCD PUSH1 0xE5 SHL DUP2 MSTORE PUSH1 0x20 PUSH1 0x4 DUP3 ADD MSTORE PUSH1 0x27 PUSH1 0x24 DUP3 ADD MSTORE PUSH32 0x43616E6E6F7420726566756E64206166746572206265696E6720636865636B65 PUSH1 0x44 DUP3 ADD MSTORE PUSH7 0x6420494E212121 PUSH1 0xC8 SHL PUSH1 0x64 DUP3 ADD MSTORE PUSH1 0x84 ADD PUSH2 0x734 JUMP JUMPDEST PUSH1 0x0 DUP4 DUP2 MSTORE PUSH1 0x9 PUSH1 0x20 SWAP1 DUP2 MSTORE PUSH1 0x40 DUP1 DUP4 KECCAK256 PUSH1 0x80 DUP6 ADD MLOAD DUP5 MSTORE SWAP1 SWAP2 MSTORE SWAP1 KECCAK256 SLOAD PUSH1 0xFF AND PUSH2 0x243E JUMPI PUSH1 0x40 MLOAD PUSH3 0x461BCD PUSH1 0xE5 SHL DUP2 MSTORE PUSH1 0x20 PUSH1 0x4 DUP3 ADD DUP2 SWAP1 MSTORE PUSH1 0x24 DUP3 ADD MSTORE PUSH32 0x596F7520646964206E6F7420626F6F6B20666F72207468697320646174652121 PUSH1 0x44 DUP3 ADD MSTORE PUSH1 0x64 ADD PUSH2 0x734 JUMP JUMPDEST PUSH1 0x0 SLOAD PUSH1 0x1 PUSH1 0x1 PUSH1 0xA0 SHL SUB AND CALLER EQ PUSH2 0x2569 JUMPI DUP1 PUSH1 0x40 ADD MLOAD PUSH1 0x1 PUSH1 0x1 PUSH1 0xA0 SHL SUB AND CALLER PUSH1 0x1 PUSH1 0x1 PUSH1 0xA0 SHL SUB AND EQ DUP1 PUSH2 0x2489 JUMPI POP DUP1 PUSH1 0x60 ADD MLOAD PUSH1 0x1 PUSH1 0x1 PUSH1 0xA0 SHL SUB AND CALLER PUSH1 0x1 PUSH1 0x1 PUSH1 0xA0 SHL SUB AND EQ JUMPDEST PUSH2 0x24E9 JUMPI PUSH1 0x40 MLOAD PUSH3 0x461BCD PUSH1 0xE5 SHL DUP2 MSTORE PUSH1 0x20 PUSH1 0x4 DUP3 ADD MSTORE PUSH1 0x2B PUSH1 0x24 DUP3 ADD MSTORE PUSH32 0x4572726F723A20596F7520617265206E6F742061737369676E656420746F2074 PUSH1 0x44 DUP3 ADD MSTORE PUSH11 0x68697320626F6F6B696E67 PUSH1 0xA8 SHL PUSH1 0x64 DUP3 ADD MSTORE PUSH1 0x84 ADD PUSH2 0x734 JUMP JUMPDEST PUSH2 0x24F1 PUSH2 0x3BE2 JUMP JUMPDEST DUP2 PUSH1 0x80 ADD MLOAD GT PUSH2 0x2569 JUMPI PUSH1 0x40 MLOAD PUSH3 0x461BCD PUSH1 0xE5 SHL DUP2 MSTORE PUSH1 0x20 PUSH1 0x4 DUP3 ADD MSTORE PUSH1 0x3E PUSH1 0x24 DUP3 ADD MSTORE PUSH32 0x4572726F723A2054686520626F6F6B696E6720646174652068617320616C7265 PUSH1 0x44 DUP3 ADD MSTORE PUSH32 0x616479207061737365642C20796F752063616E6E6F7420726566756E642E0000 PUSH1 0x64 DUP3 ADD MSTORE PUSH1 0x84 ADD PUSH2 0x734 JUMP JUMPDEST PUSH1 0x0 DUP4 DUP2 MSTORE PUSH1 0x7 PUSH1 0x20 MSTORE PUSH1 0x40 SWAP1 KECCAK256 DUP1 SLOAD PUSH1 0x1 SWAP2 SWAP1 DUP5 SWAP1 DUP2 LT PUSH2 0x258D JUMPI PUSH2 0x258D PUSH2 0x4725 JUMP JUMPDEST PUSH1 0x0 SWAP2 DUP3 MSTORE PUSH1 0x20 DUP1 DUP4 KECCAK256 PUSH1 0x7 SWAP3 DUP4 MUL ADD PUSH1 0x6 ADD DUP1 SLOAD PUSH2 0xFF00 NOT AND PUSH2 0x100 SWAP6 ISZERO ISZERO SWAP6 SWAP1 SWAP6 MUL SWAP5 SWAP1 SWAP5 OR SWAP1 SWAP4 SSTORE DUP6 DUP3 MSTORE SWAP1 SWAP2 MSTORE PUSH1 0x40 DUP2 KECCAK256 DUP1 SLOAD DUP5 SWAP1 DUP2 LT PUSH2 0x25D4 JUMPI PUSH2 0x25D4 PUSH2 0x4725 JUMP JUMPDEST PUSH1 0x0 SWAP2 DUP3 MSTORE PUSH1 0x20 DUP1 DUP4 KECCAK256 PUSH1 0x6 PUSH1 0x7 SWAP1 SWAP4 MUL ADD SWAP2 SWAP1 SWAP2 ADD DUP1 SLOAD SWAP4 ISZERO ISZERO PUSH4 0x1000000 MUL PUSH4 0xFF000000 NOT SWAP1 SWAP5 AND SWAP4 SWAP1 SWAP4 OR SWAP1 SWAP3 SSTORE DUP5 DUP2 MSTORE PUSH1 0x9 DUP3 MSTORE PUSH1 0x40 DUP1 DUP3 KECCAK256 PUSH1 0x80 DUP6 ADD MLOAD DUP4 MSTORE SWAP1 SWAP3 MSTORE SWAP1 DUP2 KECCAK256 DUP1 SLOAD PUSH1 0xFF NOT AND SWAP1 SSTORE PUSH1 0x4 SLOAD PUSH1 0xA0 DUP4 ADD MLOAD PUSH1 0x64 SWAP2 PUSH2 0x263A SWAP2 PUSH2 0x4751 JUMP JUMPDEST PUSH2 0x2644 SWAP2 SWAP1 PUSH2 0x4768 JUMP JUMPDEST SWAP1 POP PUSH1 0x0 PUSH2 0x2653 PUSH1 0x2 DUP4 PUSH2 0x4768 JUMP JUMPDEST PUSH2 0x140 DUP5 ADD MLOAD SWAP1 SWAP2 POP ISZERO ISZERO PUSH1 0x0 SUB PUSH2 0x26AD JUMPI PUSH1 0x0 DUP6 DUP2 MSTORE PUSH1 0x6 PUSH1 0x20 MSTORE PUSH1 0x40 SWAP1 KECCAK256 PUSH1 0x7 ADD SLOAD PUSH2 0x268A SWAP1 PUSH1 0x1 PUSH1 0x1 PUSH1 0xA0 SHL SUB AND DUP3 PUSH2 0x3C01 JUMP JUMPDEST PUSH2 0x269F PUSH2 0x900 PUSH1 0x0 SLOAD PUSH1 0x1 PUSH1 0x1 PUSH1 0xA0 SHL SUB AND SWAP1 JUMP JUMPDEST PUSH2 0x26AD CALLER DUP5 PUSH1 0xA0 ADD MLOAD PUSH2 0x3C01 JUMP JUMPDEST PUSH2 0x140 DUP4 ADD MLOAD ISZERO ISZERO PUSH1 0x1 SUB PUSH2 0x278B JUMPI PUSH1 0x0 DUP5 DUP2 MSTORE PUSH1 0xD PUSH1 0x20 SWAP1 DUP2 MSTORE PUSH1 0x40 DUP1 DUP4 KECCAK256 DUP2 MLOAD PUSH1 0xA0 DUP2 ADD DUP4 MSTORE DUP2 SLOAD DUP1 DUP3 MSTORE PUSH1 0x1 DUP4 ADD SLOAD SWAP5 DUP3 ADD SWAP5 SWAP1 SWAP5 MSTORE PUSH1 0x2 DUP3 ADD SLOAD SWAP3 DUP2 ADD SWAP3 SWAP1 SWAP3 MSTORE PUSH1 0x3 DUP2 ADD SLOAD PUSH1 0x1 PUSH1 0x1 PUSH1 0xA0 SHL SUB SWAP1 DUP2 AND PUSH1 0x60 DUP5 ADD MSTORE PUSH1 0x4 SWAP2 DUP3 ADD SLOAD AND PUSH1 0x80 DUP4 ADD MSTORE SLOAD SWAP1 SWAP3 SWAP2 PUSH1 0x64 SWAP2 PUSH2 0x2723 SWAP2 PUSH2 0x4751 JUMP JUMPDEST PUSH2 0x272D SWAP2 SWAP1 PUSH2 0x4768 JUMP JUMPDEST SWAP1 POP PUSH1 0x0 PUSH2 0x273C PUSH1 0x2 DUP4 PUSH2 0x4768 JUMP JUMPDEST PUSH1 0x0 DUP10 DUP2 MSTORE PUSH1 0x6 PUSH1 0x20 MSTORE PUSH1 0x40 SWAP1 KECCAK256 PUSH1 0x7 ADD SLOAD SWAP1 SWAP2 POP PUSH2 0x2764 SWAP1 PUSH1 0x1 PUSH1 0x1 PUSH1 0xA0 SHL SUB AND DUP6 PUSH2 0x3C01 JUMP JUMPDEST PUSH2 0x2779 PUSH2 0x900 PUSH1 0x0 SLOAD PUSH1 0x1 PUSH1 0x1 PUSH1 0xA0 SHL SUB AND SWAP1 JUMP JUMPDEST PUSH2 0x2787 CALLER DUP5 PUSH1 0x0 ADD MLOAD PUSH2 0x3C01 JUMP JUMPDEST POP POP POP JUMPDEST POP POP POP PUSH2 0x2797 PUSH1 0x1 DUP1 SSTORE JUMP JUMPDEST POP POP JUMP JUMPDEST PUSH2 0x27A3 PUSH2 0x3D4A JUMP JUMPDEST PUSH2 0x27AD PUSH1 0x0 PUSH2 0x3DA4 JUMP JUMPDEST JUMP JUMPDEST PUSH1 0xE SLOAD PUSH1 0x60 SWAP1 PUSH1 0x0 DUP2 PUSH8 0xFFFFFFFFFFFFFFFF DUP2 GT ISZERO PUSH2 0x27D0 JUMPI PUSH2 0x27D0 PUSH2 0x40F5 JUMP JUMPDEST PUSH1 0x40 MLOAD SWAP1 DUP1 DUP3 MSTORE DUP1 PUSH1 0x20 MUL PUSH1 0x20 ADD DUP3 ADD PUSH1 0x40 MSTORE DUP1 ISZERO PUSH2 0x2809 JUMPI DUP2 PUSH1 0x20 ADD JUMPDEST PUSH2 0x27F6 PUSH2 0x3EB7 JUMP JUMPDEST DUP2 MSTORE PUSH1 0x20 ADD SWAP1 PUSH1 0x1 SWAP1 SUB SWAP1 DUP2 PUSH2 0x27EE JUMPI SWAP1 POP JUMPDEST POP SWAP1 POP PUSH1 0x0 JUMPDEST DUP3 DUP2 LT ISZERO PUSH2 0x28C5 JUMPI PUSH1 0x0 PUSH1 0xE DUP3 DUP2 SLOAD DUP2 LT PUSH2 0x282C JUMPI PUSH2 0x282C PUSH2 0x4725 JUMP JUMPDEST PUSH1 0x0 SWAP2 DUP3 MSTORE PUSH1 0x20 DUP1 DUP4 KECCAK256 SWAP1 SWAP2 ADD SLOAD DUP1 DUP4 MSTORE PUSH1 0xD DUP3 MSTORE PUSH1 0x40 SWAP3 DUP4 SWAP1 KECCAK256 DUP4 MLOAD PUSH1 0xA0 DUP2 ADD DUP6 MSTORE DUP2 SLOAD DUP2 MSTORE PUSH1 0x1 DUP3 ADD SLOAD SWAP4 DUP2 ADD SWAP4 SWAP1 SWAP4 MSTORE PUSH1 0x2 DUP2 ADD SLOAD SWAP4 DUP4 ADD SWAP4 SWAP1 SWAP4 MSTORE PUSH1 0x3 DUP4 ADD SLOAD PUSH1 0x1 PUSH1 0x1 PUSH1 0xA0 SHL SUB SWAP1 DUP2 AND PUSH1 0x60 DUP5 ADD MSTORE PUSH1 0x4 SWAP1 SWAP4 ADD SLOAD SWAP1 SWAP3 AND PUSH1 0x80 DUP3 ADD MSTORE DUP5 MLOAD SWAP2 SWAP3 POP SWAP1 DUP5 SWAP1 DUP5 SWAP1 DUP2 LT PUSH2 0x28A6 JUMPI PUSH2 0x28A6 PUSH2 0x4725 JUMP JUMPDEST PUSH1 0x20 MUL PUSH1 0x20 ADD ADD DUP2 SWAP1 MSTORE POP POP DUP1 DUP1 PUSH2 0x28BD SWAP1 PUSH2 0x479D JUMP JUMPDEST SWAP2 POP POP PUSH2 0x280F JUMP JUMPDEST POP SWAP3 SWAP2 POP POP JUMP JUMPDEST PUSH1 0x0 DUP3 DUP2 MSTORE PUSH1 0xB PUSH1 0x20 MSTORE PUSH1 0x40 SWAP1 KECCAK256 SLOAD PUSH1 0xFF AND ISZERO ISZERO PUSH1 0x1 EQ PUSH2 0x28FF JUMPI PUSH1 0x40 MLOAD PUSH3 0x461BCD PUSH1 0xE5 SHL DUP2 MSTORE PUSH1 0x4 ADD PUSH2 0x734 SWAP1 PUSH2 0x4909 JUMP JUMPDEST DUP1 PUSH2 0x2908 PUSH2 0x292D JUMP JUMPDEST PUSH2 0x2912 SWAP2 SWAP1 PUSH2 0x4751 JUMP JUMPDEST PUSH1 0x0 SWAP3 DUP4 MSTORE PUSH1 0x6 PUSH1 0x20 DUP2 SWAP1 MSTORE PUSH1 0x40 SWAP1 SWAP4 KECCAK256 SWAP1 SWAP3 ADD SWAP2 SWAP1 SWAP2 SSTORE POP JUMP JUMPDEST PUSH1 0x0 DUP1 PUSH1 0x3 PUSH1 0x0 SWAP1 SLOAD SWAP1 PUSH2 0x100 EXP SWAP1 DIV PUSH1 0x1 PUSH1 0x1 PUSH1 0xA0 SHL SUB AND PUSH1 0x1 PUSH1 0x1 PUSH1 0xA0 SHL SUB AND PUSH4 0xFEAF968C PUSH1 0x40 MLOAD DUP2 PUSH4 0xFFFFFFFF AND PUSH1 0xE0 SHL DUP2 MSTORE PUSH1 0x4 ADD PUSH1 0xA0 PUSH1 0x40 MLOAD DUP1 DUP4 SUB DUP2 DUP7 GAS STATICCALL ISZERO DUP1 ISZERO PUSH2 0x2983 JUMPI RETURNDATASIZE PUSH1 0x0 DUP1 RETURNDATACOPY RETURNDATASIZE PUSH1 0x0 REVERT JUMPDEST POP POP POP POP PUSH1 0x40 MLOAD RETURNDATASIZE PUSH1 0x1F NOT PUSH1 0x1F DUP3 ADD AND DUP3 ADD DUP1 PUSH1 0x40 MSTORE POP DUP2 ADD SWAP1 PUSH2 0x29A7 SWAP2 SWAP1 PUSH2 0x4955 JUMP JUMPDEST POP POP POP SWAP2 POP POP DUP1 PUSH5 0x2540BE400 PUSH2 0x29BE SWAP2 SWAP1 PUSH2 0x49A5 JUMP JUMPDEST SWAP2 POP POP SWAP1 JUMP JUMPDEST PUSH1 0x60 PUSH1 0x8 PUSH1 0x0 DUP4 DUP2 MSTORE PUSH1 0x20 ADD SWAP1 DUP2 MSTORE PUSH1 0x20 ADD PUSH1 0x0 KECCAK256 DUP1 SLOAD DUP1 PUSH1 0x20 MUL PUSH1 0x20 ADD PUSH1 0x40 MLOAD SWAP1 DUP2 ADD PUSH1 0x40 MSTORE DUP1 SWAP3 SWAP2 SWAP1 DUP2 DUP2 MSTORE PUSH1 0x20 ADD PUSH1 0x0 SWAP1 JUMPDEST DUP3 DUP3 LT ISZERO PUSH2 0x2AF4 JUMPI DUP4 DUP3 SWAP1 PUSH1 0x0 MSTORE PUSH1 0x20 PUSH1 0x0 KECCAK256 SWAP1 PUSH1 0x5 MUL ADD PUSH1 0x40 MLOAD DUP1 PUSH1 0xA0 ADD PUSH1 0x40 MSTORE SWAP1 DUP2 PUSH1 0x0 DUP3 ADD SLOAD DUP2 MSTORE PUSH1 0x20 ADD PUSH1 0x1 DUP3 ADD SLOAD DUP2 MSTORE PUSH1 0x20 ADD PUSH1 0x2 DUP3 ADD DUP1 SLOAD PUSH2 0x2A40 SWAP1 PUSH2 0x47B6 JUMP JUMPDEST DUP1 PUSH1 0x1F ADD PUSH1 0x20 DUP1 SWAP2 DIV MUL PUSH1 0x20 ADD PUSH1 0x40 MLOAD SWAP1 DUP2 ADD PUSH1 0x40 MSTORE DUP1 SWAP3 SWAP2 SWAP1 DUP2 DUP2 MSTORE PUSH1 0x20 ADD DUP3 DUP1 SLOAD PUSH2 0x2A6C SWAP1 PUSH2 0x47B6 JUMP JUMPDEST DUP1 ISZERO PUSH2 0x2AB9 JUMPI DUP1 PUSH1 0x1F LT PUSH2 0x2A8E JUMPI PUSH2 0x100 DUP1 DUP4 SLOAD DIV MUL DUP4 MSTORE SWAP2 PUSH1 0x20 ADD SWAP2 PUSH2 0x2AB9 JUMP JUMPDEST DUP3 ADD SWAP2 SWAP1 PUSH1 0x0 MSTORE PUSH1 0x20 PUSH1 0x0 KECCAK256 SWAP1 JUMPDEST DUP2 SLOAD DUP2 MSTORE SWAP1 PUSH1 0x1 ADD SWAP1 PUSH1 0x20 ADD DUP1 DUP4 GT PUSH2 0x2A9C JUMPI DUP3 SWAP1 SUB PUSH1 0x1F AND DUP3 ADD SWAP2 JUMPDEST POP POP POP SWAP2 DUP4 MSTORE POP POP PUSH1 0x3 DUP3 ADD SLOAD PUSH1 0x20 DUP1 DUP4 ADD SWAP2 SWAP1 SWAP2 MSTORE PUSH1 0x4 SWAP1 SWAP3 ADD SLOAD PUSH1 0x1 PUSH1 0x1 PUSH1 0xA0 SHL SUB AND PUSH1 0x40 SWAP1 SWAP2 ADD MSTORE SWAP1 DUP3 MSTORE PUSH1 0x1 SWAP3 SWAP1 SWAP3 ADD SWAP2 ADD PUSH2 0x29F9 JUMP JUMPDEST POP POP POP POP SWAP1 POP SWAP2 SWAP1 POP JUMP JUMPDEST PUSH1 0x60 PUSH1 0x7 PUSH1 0x0 DUP4 DUP2 MSTORE PUSH1 0x20 ADD SWAP1 DUP2 MSTORE PUSH1 0x20 ADD PUSH1 0x0 KECCAK256 DUP1 SLOAD DUP1 PUSH1 0x20 MUL PUSH1 0x20 ADD PUSH1 0x40 MLOAD SWAP1 DUP2 ADD PUSH1 0x40 MSTORE DUP1 SWAP3 SWAP2 SWAP1 DUP2 DUP2 MSTORE PUSH1 0x20 ADD PUSH1 0x0 SWAP1 JUMPDEST DUP3 DUP3 LT ISZERO PUSH2 0x2AF4 JUMPI PUSH1 0x0 DUP5 DUP2 MSTORE PUSH1 0x20 SWAP1 DUP2 SWAP1 KECCAK256 PUSH1 0x40 DUP1 MLOAD PUSH2 0x160 DUP2 ADD DUP3 MSTORE PUSH1 0x7 DUP7 MUL SWAP1 SWAP3 ADD DUP1 SLOAD DUP4 MSTORE PUSH1 0x1 DUP1 DUP3 ADD SLOAD DUP5 DUP7 ADD MSTORE PUSH1 0x2 DUP3 ADD SLOAD PUSH1 0x1 PUSH1 0x1 PUSH1 0xA0 SHL SUB SWAP1 DUP2 AND SWAP4 DUP6 ADD SWAP4 SWAP1 SWAP4 MSTORE PUSH1 0x3 DUP3 ADD SLOAD SWAP1 SWAP3 AND PUSH1 0x60 DUP5 ADD MSTORE PUSH1 0x4 DUP2 ADD SLOAD PUSH1 0x80 DUP5 ADD MSTORE PUSH1 0x5 DUP2 ADD SLOAD PUSH1 0xA0 DUP5 ADD MSTORE PUSH1 0x6 ADD SLOAD PUSH1 0xFF DUP1 DUP3 AND ISZERO ISZERO PUSH1 0xC0 DUP6 ADD MSTORE PUSH2 0x100 DUP1 DUP4 DIV DUP3 AND ISZERO ISZERO PUSH1 0xE0 DUP7 ADD MSTORE PUSH3 0x10000 DUP4 DIV DUP3 AND ISZERO ISZERO SWAP1 DUP6 ADD MSTORE PUSH4 0x1000000 DUP3 DIV DUP2 AND ISZERO ISZERO PUSH2 0x120 DUP6 ADD MSTORE PUSH1 0x1 PUSH1 0x20 SHL SWAP1 SWAP2 DIV AND ISZERO ISZERO PUSH2 0x140 DUP4 ADD MSTORE SWAP1 DUP4 MSTORE SWAP1 SWAP3 ADD SWAP2 ADD PUSH2 0x2B34 JUMP JUMPDEST PUSH1 0x0 DUP4 DUP2 MSTORE PUSH1 0xB PUSH1 0x20 MSTORE PUSH1 0x40 SWAP1 KECCAK256 SLOAD PUSH1 0xFF AND ISZERO ISZERO PUSH1 0x1 EQ PUSH2 0x2C2E JUMPI PUSH1 0x40 MLOAD PUSH3 0x461BCD PUSH1 0xE5 SHL DUP2 MSTORE PUSH1 0x4 ADD PUSH2 0x734 SWAP1 PUSH2 0x4909 JUMP JUMPDEST PUSH1 0x0 PUSH2 0x2C3A DUP5 DUP4 PUSH2 0x1EBF JUMP JUMPDEST SWAP1 POP DUP1 PUSH2 0x120 ADD MLOAD ISZERO ISZERO PUSH1 0x1 ISZERO ISZERO EQ PUSH2 0x2CAE JUMPI PUSH1 0x40 MLOAD PUSH3 0x461BCD PUSH1 0xE5 SHL DUP2 MSTORE PUSH1 0x20 PUSH1 0x4 DUP3 ADD MSTORE PUSH1 0x30 PUSH1 0x24 DUP3 ADD MSTORE PUSH32 0x41706172746D656E742073686F756C6420626520626F6F6B656420696E206F72 PUSH1 0x44 DUP3 ADD MSTORE PUSH16 0x19195C881D1BC81899481C995CDBDB19 PUSH1 0x82 SHL PUSH1 0x64 DUP3 ADD MSTORE PUSH1 0x84 ADD PUSH2 0x734 JUMP JUMPDEST DUP1 PUSH1 0x40 ADD MLOAD PUSH1 0x1 PUSH1 0x1 PUSH1 0xA0 SHL SUB AND CALLER PUSH1 0x1 PUSH1 0x1 PUSH1 0xA0 SHL SUB AND EQ PUSH2 0x2D13 JUMPI PUSH1 0x40 MLOAD PUSH3 0x461BCD PUSH1 0xE5 SHL DUP2 MSTORE PUSH1 0x20 PUSH1 0x4 DUP3 ADD MSTORE PUSH1 0x1C PUSH1 0x24 DUP3 ADD MSTORE PUSH32 0x4572726F723A20556E617574686F72697A65642074656E616E74212100000000 PUSH1 0x44 DUP3 ADD MSTORE PUSH1 0x64 ADD PUSH2 0x734 JUMP JUMPDEST DUP1 PUSH1 0xC0 ADD MLOAD ISZERO PUSH2 0x2DB1 JUMPI PUSH1 0x40 MLOAD PUSH3 0x461BCD PUSH1 0xE5 SHL DUP2 MSTORE PUSH1 0x20 PUSH1 0x4 DUP3 ADD MSTORE PUSH1 0x5D PUSH1 0x24 DUP3 ADD MSTORE PUSH32 0x4572726F723A20596F752063616E6E6F74207075742061706172746D656E7420 PUSH1 0x44 DUP3 ADD MSTORE PUSH32 0x757020666F7220726573656C6C207768656E20796F75206861766520616C7265 PUSH1 0x64 DUP3 ADD MSTORE PUSH32 0x61647920636865636B6564496E20666F72207468697320646174652121000000 PUSH1 0x84 DUP3 ADD MSTORE PUSH1 0xA4 ADD PUSH2 0x734 JUMP JUMPDEST PUSH1 0x0 DUP5 DUP2 MSTORE PUSH1 0x9 PUSH1 0x20 SWAP1 DUP2 MSTORE PUSH1 0x40 DUP1 DUP4 KECCAK256 PUSH1 0x80 DUP6 ADD MLOAD DUP5 MSTORE SWAP1 SWAP2 MSTORE SWAP1 KECCAK256 SLOAD PUSH1 0xFF AND PUSH2 0x2E1E JUMPI PUSH1 0x40 MLOAD PUSH3 0x461BCD PUSH1 0xE5 SHL DUP2 MSTORE PUSH1 0x20 PUSH1 0x4 DUP3 ADD DUP2 SWAP1 MSTORE PUSH1 0x24 DUP3 ADD MSTORE PUSH32 0x596F7520646964206E6F7420626F6F6B20666F72207468697320646174652121 PUSH1 0x44 DUP3 ADD MSTORE PUSH1 0x64 ADD PUSH2 0x734 JUMP JUMPDEST PUSH1 0x0 PUSH2 0x2E2B DUP5 PUSH1 0x64 PUSH2 0x4751 JUMP JUMPDEST PUSH1 0x0 DUP7 DUP2 MSTORE PUSH1 0x6 PUSH1 0x20 DUP2 SWAP1 MSTORE PUSH1 0x40 DUP3 KECCAK256 ADD SLOAD SWAP2 SWAP3 POP SWAP1 PUSH2 0x2E4C SWAP1 PUSH1 0x64 PUSH2 0x4751 JUMP JUMPDEST SWAP1 POP PUSH1 0x64 PUSH2 0x2E5B DUP3 PUSH1 0x78 PUSH2 0x4751 JUMP JUMPDEST PUSH2 0x2E65 SWAP2 SWAP1 PUSH2 0x4768 JUMP JUMPDEST DUP3 GT ISZERO PUSH2 0x2ECF JUMPI PUSH1 0x40 MLOAD PUSH3 0x461BCD PUSH1 0xE5 SHL DUP2 MSTORE PUSH1 0x20 PUSH1 0x4 DUP3 ADD MSTORE PUSH1 0x32 PUSH1 0x24 DUP3 ADD MSTORE PUSH32 0x4E65772070726963652063616E6E6F74206578636565642031323025206F6620 PUSH1 0x44 DUP3 ADD MSTORE PUSH18 0x746865206F726967696E616C207072696365 PUSH1 0x70 SHL PUSH1 0x64 DUP3 ADD MSTORE PUSH1 0x84 ADD PUSH2 0x734 JUMP JUMPDEST DUP3 MLOAD PUSH1 0x0 SWAP1 DUP2 MSTORE PUSH1 0xF PUSH1 0x20 SWAP1 DUP2 MSTORE PUSH1 0x40 DUP1 DUP4 KECCAK256 DUP9 SWAP1 SSTORE DUP9 DUP4 MSTORE PUSH1 0x7 SWAP1 SWAP2 MSTORE SWAP1 KECCAK256 DUP4 MLOAD DUP2 SLOAD PUSH1 0x1 SWAP3 SWAP2 SWAP1 DUP2 LT PUSH2 0x2F06 JUMPI PUSH2 0x2F06 PUSH2 0x4725 JUMP JUMPDEST PUSH1 0x0 SWAP2 DUP3 MSTORE PUSH1 0x20 DUP1 DUP4 KECCAK256 PUSH1 0x7 SWAP3 DUP4 MUL ADD PUSH1 0x6 ADD DUP1 SLOAD PUSH3 0xFF0000 NOT AND PUSH3 0x10000 SWAP6 ISZERO ISZERO SWAP6 SWAP1 SWAP6 MUL SWAP5 SWAP1 SWAP5 OR SWAP1 SWAP4 SSTORE DUP9 DUP3 MSTORE SWAP1 SWAP2 MSTORE PUSH1 0x40 DUP2 KECCAK256 DUP5 MLOAD DUP2 SLOAD DUP2 LT PUSH2 0x2F4F JUMPI PUSH2 0x2F4F PUSH2 0x4725 JUMP JUMPDEST PUSH1 0x0 SWAP2 DUP3 MSTORE PUSH1 0x20 DUP1 DUP4 KECCAK256 PUSH1 0x6 PUSH1 0x7 SWAP1 SWAP4 MUL ADD SWAP2 SWAP1 SWAP2 ADD DUP1 SLOAD SWAP4 ISZERO ISZERO PUSH4 0x1000000 MUL PUSH4 0xFF000000 NOT SWAP1 SWAP5 AND SWAP4 SWAP1 SWAP4 OR SWAP1 SWAP3 SSTORE DUP8 DUP2 MSTORE PUSH1 0x9 DUP3 MSTORE PUSH1 0x40 DUP1 DUP3 KECCAK256 PUSH1 0x80 DUP8 ADD DUP1 MLOAD DUP5 MSTORE SWAP1 DUP5 MSTORE DUP2 DUP4 KECCAK256 DUP1 SLOAD PUSH1 0xFF NOT AND SWAP1 SSTORE DUP10 DUP4 MSTORE PUSH1 0x10 DUP5 MSTORE DUP2 DUP4 KECCAK256 DUP2 MLOAD DUP2 SLOAD PUSH1 0x1 DUP2 ADD DUP4 SSTORE SWAP2 DUP6 MSTORE DUP6 DUP6 KECCAK256 SWAP1 SWAP2 ADD SSTORE SWAP6 MLOAD SWAP9 DUP3 MSTORE PUSH1 0x11 DUP4 MSTORE DUP1 DUP3 KECCAK256 SWAP6 MLOAD DUP3 MSTORE SWAP5 SWAP1 SWAP2 MSTORE SWAP3 SWAP1 SWAP3 KECCAK256 SWAP5 SWAP1 SWAP5 SSTORE POP POP POP POP JUMP JUMPDEST PUSH2 0x2FEA PUSH2 0x3DF4 JUMP JUMPDEST PUSH1 0x6 PUSH1 0x0 DUP4 DUP2 MSTORE PUSH1 0x20 ADD SWAP1 DUP2 MSTORE PUSH1 0x20 ADD PUSH1 0x0 KECCAK256 PUSH1 0x40 MLOAD DUP1 PUSH2 0x160 ADD PUSH1 0x40 MSTORE SWAP1 DUP2 PUSH1 0x0 DUP3 ADD SLOAD DUP2 MSTORE PUSH1 0x20 ADD PUSH1 0x1 DUP3 ADD DUP1 SLOAD PUSH2 0x3023 SWAP1 PUSH2 0x47B6 JUMP JUMPDEST DUP1 PUSH1 0x1F ADD PUSH1 0x20 DUP1 SWAP2 DIV MUL PUSH1 0x20 ADD PUSH1 0x40 MLOAD SWAP1 DUP2 ADD PUSH1 0x40 MSTORE DUP1 SWAP3 SWAP2 SWAP1 DUP2 DUP2 MSTORE PUSH1 0x20 ADD DUP3 DUP1 SLOAD PUSH2 0x304F SWAP1 PUSH2 0x47B6 JUMP JUMPDEST DUP1 ISZERO PUSH2 0x309C JUMPI DUP1 PUSH1 0x1F LT PUSH2 0x3071 JUMPI PUSH2 0x100 DUP1 DUP4 SLOAD DIV MUL DUP4 MSTORE SWAP2 PUSH1 0x20 ADD SWAP2 PUSH2 0x309C JUMP JUMPDEST DUP3 ADD SWAP2 SWAP1 PUSH1 0x0 MSTORE PUSH1 0x20 PUSH1 0x0 KECCAK256 SWAP1 JUMPDEST DUP2 SLOAD DUP2 MSTORE SWAP1 PUSH1 0x1 ADD SWAP1 PUSH1 0x20 ADD DUP1 DUP4 GT PUSH2 0x307F JUMPI DUP3 SWAP1 SUB PUSH1 0x1F AND DUP3 ADD SWAP2 JUMPDEST POP POP POP POP POP DUP2 MSTORE PUSH1 0x20 ADD PUSH1 0x2 DUP3 ADD DUP1 SLOAD PUSH2 0x30B5 SWAP1 PUSH2 0x47B6 JUMP JUMPDEST DUP1 PUSH1 0x1F ADD PUSH1 0x20 DUP1 SWAP2 DIV MUL PUSH1 0x20 ADD PUSH1 0x40 MLOAD SWAP1 DUP2 ADD PUSH1 0x40 MSTORE DUP1 SWAP3 SWAP2 SWAP1 DUP2 DUP2 MSTORE PUSH1 0x20 ADD DUP3 DUP1 SLOAD PUSH2 0x30E1 SWAP1 PUSH2 0x47B6 JUMP JUMPDEST DUP1 ISZERO PUSH2 0x312E JUMPI DUP1 PUSH1 0x1F LT PUSH2 0x3103 JUMPI PUSH2 0x100 DUP1 DUP4 SLOAD DIV MUL DUP4 MSTORE SWAP2 PUSH1 0x20 ADD SWAP2 PUSH2 0x312E JUMP JUMPDEST DUP3 ADD SWAP2 SWAP1 PUSH1 0x0 MSTORE PUSH1 0x20 PUSH1 0x0 KECCAK256 SWAP1 JUMPDEST DUP2 SLOAD DUP2 MSTORE SWAP1 PUSH1 0x1 ADD SWAP1 PUSH1 0x20 ADD DUP1 DUP4 GT PUSH2 0x3111 JUMPI DUP3 SWAP1 SUB PUSH1 0x1F AND DUP3 ADD SWAP2 JUMPDEST POP POP POP POP POP DUP2 MSTORE PUSH1 0x20 ADD PUSH1 0x3 DUP3 ADD DUP1 SLOAD PUSH2 0x3147 SWAP1 PUSH2 0x47B6 JUMP JUMPDEST DUP1 PUSH1 0x1F ADD PUSH1 0x20 DUP1 SWAP2 DIV MUL PUSH1 0x20 ADD PUSH1 0x40 MLOAD SWAP1 DUP2 ADD PUSH1 0x40 MSTORE DUP1 SWAP3 SWAP2 SWAP1 DUP2 DUP2 MSTORE PUSH1 0x20 ADD DUP3 DUP1 SLOAD PUSH2 0x3173 SWAP1 PUSH2 0x47B6 JUMP JUMPDEST DUP1 ISZERO PUSH2 0x31C0 JUMPI DUP1 PUSH1 0x1F LT PUSH2 0x3195 JUMPI PUSH2 0x100 DUP1 DUP4 SLOAD DIV MUL DUP4 MSTORE SWAP2 PUSH1 0x20 ADD SWAP2 PUSH2 0x31C0 JUMP JUMPDEST DUP3 ADD SWAP2 SWAP1 PUSH1 0x0 MSTORE PUSH1 0x20 PUSH1 0x0 KECCAK256 SWAP1 JUMPDEST DUP2 SLOAD DUP2 MSTORE SWAP1 PUSH1 0x1 ADD SWAP1 PUSH1 0x20 ADD DUP1 DUP4 GT PUSH2 0x31A3 JUMPI DUP3 SWAP1 SUB PUSH1 0x1F AND DUP3 ADD SWAP2 JUMPDEST POP POP POP POP POP DUP2 MSTORE PUSH1 0x20 ADD PUSH1 0x4 DUP3 ADD DUP1 SLOAD PUSH2 0x31D9 SWAP1 PUSH2 0x47B6 JUMP JUMPDEST DUP1 PUSH1 0x1F ADD PUSH1 0x20 DUP1 SWAP2 DIV MUL PUSH1 0x20 ADD PUSH1 0x40 MLOAD SWAP1 DUP2 ADD PUSH1 0x40 MSTORE DUP1 SWAP3 SWAP2 SWAP1 DUP2 DUP2 MSTORE PUSH1 0x20 ADD DUP3 DUP1 SLOAD PUSH2 0x3205 SWAP1 PUSH2 0x47B6 JUMP JUMPDEST DUP1 ISZERO PUSH2 0x3252 JUMPI DUP1 PUSH1 0x1F LT PUSH2 0x3227 JUMPI PUSH2 0x100 DUP1 DUP4 SLOAD DIV MUL DUP4 MSTORE SWAP2 PUSH1 0x20 ADD SWAP2 PUSH2 0x3252 JUMP JUMPDEST DUP3 ADD SWAP2 SWAP1 PUSH1 0x0 MSTORE PUSH1 0x20 PUSH1 0x0 KECCAK256 SWAP1 JUMPDEST DUP2 SLOAD DUP2 MSTORE SWAP1 PUSH1 0x1 ADD SWAP1 PUSH1 0x20 ADD DUP1 DUP4 GT PUSH2 0x3235 JUMPI DUP3 SWAP1 SUB PUSH1 0x1F AND DUP3 ADD SWAP2 JUMPDEST POP POP POP SWAP2 DUP4 MSTORE POP POP PUSH1 0x5 DUP3 ADD SLOAD PUSH1 0x20 DUP3 ADD MSTORE PUSH1 0x6 DUP3 ADD SLOAD PUSH1 0x40 DUP3 ADD MSTORE PUSH1 0x7 DUP3 ADD SLOAD PUSH1 0x1 PUSH1 0x1 PUSH1 0xA0 SHL SUB DUP2 AND PUSH1 0x60 DUP4 ADD MSTORE PUSH1 0xFF PUSH1 0x1 PUSH1 0xA0 SHL DUP3 DIV DUP2 AND ISZERO ISZERO PUSH1 0x80 DUP5 ADD MSTORE PUSH1 0x1 PUSH1 0xA8 SHL SWAP1 SWAP2 DIV AND ISZERO ISZERO PUSH1 0xA0 DUP3 ADD MSTORE PUSH1 0x8 SWAP1 SWAP2 ADD SLOAD PUSH1 0xC0 SWAP1 SWAP2 ADD MSTORE SWAP3 SWAP2 POP POP JUMP JUMPDEST PUSH1 0x0 DUP7 MLOAD GT PUSH2 0x32FE JUMPI PUSH1 0x40 MLOAD PUSH3 0x461BCD PUSH1 0xE5 SHL DUP2 MSTORE PUSH1 0x20 PUSH1 0x4 DUP3 ADD MSTORE PUSH1 0x14 PUSH1 0x24 DUP3 ADD MSTORE PUSH20 0x4E616D652063616E6E6F7420626520656D707479 PUSH1 0x60 SHL PUSH1 0x44 DUP3 ADD MSTORE PUSH1 0x64 ADD PUSH2 0x734 JUMP JUMPDEST PUSH1 0x0 DUP6 MLOAD GT PUSH2 0x334F JUMPI PUSH1 0x40 MLOAD PUSH3 0x461BCD PUSH1 0xE5 SHL DUP2 MSTORE PUSH1 0x20 PUSH1 0x4 DUP3 ADD MSTORE PUSH1 0x1B PUSH1 0x24 DUP3 ADD MSTORE PUSH32 0x4465736372697074696F6E2063616E6E6F7420626520656D7074790000000000 PUSH1 0x44 DUP3 ADD MSTORE PUSH1 0x64 ADD PUSH2 0x734 JUMP JUMPDEST PUSH1 0x0 DUP5 MLOAD GT PUSH2 0x339B JUMPI PUSH1 0x40 MLOAD PUSH3 0x461BCD PUSH1 0xE5 SHL DUP2 MSTORE PUSH1 0x20 PUSH1 0x4 DUP3 ADD MSTORE PUSH1 0x18 PUSH1 0x24 DUP3 ADD MSTORE PUSH24 0x4C6F636174696F6E2063616E6E6F7420626520656D707479 PUSH1 0x40 SHL PUSH1 0x44 DUP3 ADD MSTORE PUSH1 0x64 ADD PUSH2 0x734 JUMP JUMPDEST PUSH1 0x0 DUP4 MLOAD GT PUSH2 0x33E5 JUMPI PUSH1 0x40 MLOAD PUSH3 0x461BCD PUSH1 0xE5 SHL DUP2 MSTORE PUSH1 0x20 PUSH1 0x4 DUP3 ADD MSTORE PUSH1 0x16 PUSH1 0x24 DUP3 ADD MSTORE PUSH22 0x496D616765732063616E6E6F7420626520656D707479 PUSH1 0x50 SHL PUSH1 0x44 DUP3 ADD MSTORE PUSH1 0x64 ADD PUSH2 0x734 JUMP JUMPDEST PUSH1 0x0 DUP3 GT PUSH2 0x342C JUMPI PUSH1 0x40 MLOAD PUSH3 0x461BCD PUSH1 0xE5 SHL DUP2 MSTORE PUSH1 0x20 PUSH1 0x4 DUP3 ADD MSTORE PUSH1 0x14 PUSH1 0x24 DUP3 ADD MSTORE PUSH20 0x526F6F6D732063616E6E6F74206265207A65726F PUSH1 0x60 SHL PUSH1 0x44 DUP3 ADD MSTORE PUSH1 0x64 ADD PUSH2 0x734 JUMP JUMPDEST PUSH1 0x0 DUP2 GT PUSH2 0x3473 JUMPI PUSH1 0x40 MLOAD PUSH3 0x461BCD PUSH1 0xE5 SHL DUP2 MSTORE PUSH1 0x20 PUSH1 0x4 DUP3 ADD MSTORE PUSH1 0x14 PUSH1 0x24 DUP3 ADD MSTORE PUSH20 0x50726963652063616E6E6F74206265207A65726F PUSH1 0x60 SHL PUSH1 0x44 DUP3 ADD MSTORE PUSH1 0x64 ADD PUSH2 0x734 JUMP JUMPDEST PUSH2 0x3481 PUSH1 0x2 DUP1 SLOAD PUSH1 0x1 ADD SWAP1 SSTORE JUMP JUMPDEST PUSH2 0x3489 PUSH2 0x3DF4 JUMP JUMPDEST PUSH1 0x2 SLOAD DUP2 MSTORE PUSH1 0x20 DUP2 ADD DUP8 SWAP1 MSTORE PUSH1 0x40 DUP2 ADD DUP7 SWAP1 MSTORE PUSH1 0x60 DUP2 ADD DUP6 SWAP1 MSTORE PUSH1 0x80 DUP2 ADD DUP5 SWAP1 MSTORE PUSH1 0xA0 DUP2 ADD DUP4 SWAP1 MSTORE PUSH1 0xC0 DUP2 ADD DUP3 SWAP1 MSTORE CALLER PUSH1 0xE0 DUP3 ADD MSTORE PUSH2 0x34C6 PUSH2 0x3BE2 JUMP JUMPDEST PUSH2 0x140 DUP3 ADD MSTORE DUP1 MLOAD PUSH1 0x0 SWAP1 DUP2 MSTORE PUSH1 0xB PUSH1 0x20 MSTORE PUSH1 0x40 DUP2 KECCAK256 DUP1 SLOAD PUSH1 0xFF NOT AND PUSH1 0x1 OR SWAP1 SSTORE DUP2 SWAP1 PUSH1 0x6 SWAP1 PUSH2 0x34F5 PUSH1 0x2 SLOAD SWAP1 JUMP JUMPDEST DUP2 MSTORE PUSH1 0x20 DUP1 DUP3 ADD SWAP3 SWAP1 SWAP3 MSTORE PUSH1 0x40 ADD PUSH1 0x0 KECCAK256 DUP3 MLOAD DUP2 SSTORE SWAP1 DUP3 ADD MLOAD PUSH1 0x1 DUP3 ADD SWAP1 PUSH2 0x351D SWAP1 DUP3 PUSH2 0x4849 JUMP JUMPDEST POP PUSH1 0x40 DUP3 ADD MLOAD PUSH1 0x2 DUP3 ADD SWAP1 PUSH2 0x3532 SWAP1 DUP3 PUSH2 0x4849 JUMP JUMPDEST POP PUSH1 0x60 DUP3 ADD MLOAD PUSH1 0x3 DUP3 ADD SWAP1 PUSH2 0x3547 SWAP1 DUP3 PUSH2 0x4849 JUMP JUMPDEST POP PUSH1 0x80 DUP3 ADD MLOAD PUSH1 0x4 DUP3 ADD SWAP1 PUSH2 0x355C SWAP1 DUP3 PUSH2 0x4849 JUMP JUMPDEST POP PUSH1 0xA0 DUP3 ADD MLOAD PUSH1 0x5 DUP3 ADD SSTORE PUSH1 0xC0 DUP3 ADD MLOAD PUSH1 0x6 DUP3 ADD SSTORE PUSH1 0xE0 DUP3 ADD MLOAD PUSH1 0x7 DUP3 ADD DUP1 SLOAD PUSH2 0x100 DUP6 ADD MLOAD PUSH2 0x120 DUP7 ADD MLOAD ISZERO ISZERO PUSH1 0x1 PUSH1 0xA8 SHL MUL PUSH1 0xFF PUSH1 0xA8 SHL NOT SWAP2 ISZERO ISZERO PUSH1 0x1 PUSH1 0xA0 SHL MUL PUSH1 0x1 PUSH1 0x1 PUSH1 0xA8 SHL SUB NOT SWAP1 SWAP4 AND PUSH1 0x1 PUSH1 0x1 PUSH1 0xA0 SHL SUB SWAP1 SWAP6 AND SWAP5 SWAP1 SWAP5 OR SWAP2 SWAP1 SWAP2 OR AND SWAP2 SWAP1 SWAP2 OR SWAP1 SSTORE PUSH2 0x140 SWAP1 SWAP2 ADD MLOAD PUSH1 0x8 SWAP1 SWAP2 ADD SSTORE POP POP POP POP POP POP POP JUMP JUMPDEST PUSH1 0x60 PUSH1 0x0 DUP1 JUMPDEST PUSH1 0x0 DUP5 DUP2 MSTORE PUSH1 0x7 PUSH1 0x20 MSTORE PUSH1 0x40 SWAP1 KECCAK256 SLOAD DUP2 LT ISZERO PUSH2 0x365E JUMPI PUSH1 0x0 DUP5 DUP2 MSTORE PUSH1 0x7 PUSH1 0x20 MSTORE PUSH1 0x40 SWAP1 KECCAK256 DUP1 SLOAD DUP3 SWAP1 DUP2 LT PUSH2 0x3617 JUMPI PUSH2 0x3617 PUSH2 0x4725 JUMP JUMPDEST PUSH1 0x0 SWAP2 DUP3 MSTORE PUSH1 0x20 SWAP1 SWAP2 KECCAK256 PUSH1 0x7 SWAP1 SWAP2 MUL ADD PUSH1 0x6 ADD SLOAD PUSH4 0x1000000 SWAP1 DIV PUSH1 0xFF AND ISZERO ISZERO PUSH1 0x1 SUB PUSH2 0x364C JUMPI DUP2 PUSH2 0x3648 DUP2 PUSH2 0x479D JUMP JUMPDEST SWAP3 POP POP JUMPDEST DUP1 PUSH2 0x3656 DUP2 PUSH2 0x479D JUMP JUMPDEST SWAP2 POP POP PUSH2 0x35E1 JUMP JUMPDEST POP PUSH1 0x0 DUP2 PUSH8 0xFFFFFFFFFFFFFFFF DUP2 GT ISZERO PUSH2 0x367A JUMPI PUSH2 0x367A PUSH2 0x40F5 JUMP JUMPDEST PUSH1 0x40 MLOAD SWAP1 DUP1 DUP3 MSTORE DUP1 PUSH1 0x20 MUL PUSH1 0x20 ADD DUP3 ADD PUSH1 0x40 MSTORE DUP1 ISZERO PUSH2 0x36A3 JUMPI DUP2 PUSH1 0x20 ADD PUSH1 0x20 DUP3 MUL DUP1 CALLDATASIZE DUP4 CALLDATACOPY ADD SWAP1 POP JUMPDEST POP SWAP1 POP PUSH1 0x0 DUP1 JUMPDEST PUSH1 0x0 DUP7 DUP2 MSTORE PUSH1 0x7 PUSH1 0x20 MSTORE PUSH1 0x40 SWAP1 KECCAK256 SLOAD DUP2 LT ISZERO PUSH2 0x3776 JUMPI PUSH1 0x0 DUP7 DUP2 MSTORE PUSH1 0x7 PUSH1 0x20 MSTORE PUSH1 0x40 SWAP1 KECCAK256 DUP1 SLOAD DUP3 SWAP1 DUP2 LT PUSH2 0x36E0 JUMPI PUSH2 0x36E0 PUSH2 0x4725 JUMP JUMPDEST PUSH1 0x0 SWAP2 DUP3 MSTORE PUSH1 0x20 SWAP1 SWAP2 KECCAK256 PUSH1 0x7 SWAP1 SWAP2 MUL ADD PUSH1 0x6 ADD SLOAD PUSH4 0x1000000 SWAP1 DIV PUSH1 0xFF AND ISZERO ISZERO PUSH1 0x1 SUB PUSH2 0x3764 JUMPI PUSH1 0x0 DUP7 DUP2 MSTORE PUSH1 0x7 PUSH1 0x20 MSTORE PUSH1 0x40 SWAP1 KECCAK256 DUP1 SLOAD DUP3 SWAP1 DUP2 LT PUSH2 0x3727 JUMPI PUSH2 0x3727 PUSH2 0x4725 JUMP JUMPDEST SWAP1 PUSH1 0x0 MSTORE PUSH1 0x20 PUSH1 0x0 KECCAK256 SWAP1 PUSH1 0x7 MUL ADD PUSH1 0x4 ADD SLOAD DUP4 DUP4 DUP2 MLOAD DUP2 LT PUSH2 0x374B JUMPI PUSH2 0x374B PUSH2 0x4725 JUMP JUMPDEST PUSH1 0x20 SWAP1 DUP2 MUL SWAP2 SWAP1 SWAP2 ADD ADD MSTORE DUP2 PUSH2 0x3760 DUP2 PUSH2 0x479D JUMP JUMPDEST SWAP3 POP POP JUMPDEST DUP1 PUSH2 0x376E DUP2 PUSH2 0x479D JUMP JUMPDEST SWAP2 POP POP PUSH2 0x36AA JUMP JUMPDEST POP SWAP1 SWAP5 SWAP4 POP POP POP POP JUMP JUMPDEST PUSH2 0x3788 PUSH2 0x3D4A JUMP JUMPDEST PUSH1 0x1 PUSH1 0x1 PUSH1 0xA0 SHL SUB DUP2 AND PUSH2 0x37ED JUMPI PUSH1 0x40 MLOAD PUSH3 0x461BCD PUSH1 0xE5 SHL DUP2 MSTORE PUSH1 0x20 PUSH1 0x4 DUP3 ADD MSTORE PUSH1 0x26 PUSH1 0x24 DUP3 ADD MSTORE PUSH32 0x4F776E61626C653A206E6577206F776E657220697320746865207A65726F2061 PUSH1 0x44 DUP3 ADD MSTORE PUSH6 0x646472657373 PUSH1 0xD0 SHL PUSH1 0x64 DUP3 ADD MSTORE PUSH1 0x84 ADD PUSH2 0x734 JUMP JUMPDEST PUSH2 0x37F6 DUP2 PUSH2 0x3DA4 JUMP JUMPDEST POP JUMP JUMPDEST PUSH1 0x0 DUP3 DUP2 MSTORE PUSH1 0x7 PUSH1 0x20 MSTORE PUSH1 0x40 DUP2 KECCAK256 DUP1 SLOAD DUP4 SWAP1 DUP2 LT PUSH2 0x3819 JUMPI PUSH2 0x3819 PUSH2 0x4725 JUMP JUMPDEST PUSH1 0x0 SWAP2 DUP3 MSTORE PUSH1 0x20 SWAP2 DUP3 SWAP1 KECCAK256 PUSH1 0x40 DUP1 MLOAD PUSH2 0x160 DUP2 ADD DUP3 MSTORE PUSH1 0x7 SWAP1 SWAP4 MUL SWAP1 SWAP2 ADD DUP1 SLOAD DUP4 MSTORE PUSH1 0x1 DUP2 ADD SLOAD SWAP4 DUP4 ADD SWAP4 SWAP1 SWAP4 MSTORE PUSH1 0x2 DUP4 ADD SLOAD PUSH1 0x1 PUSH1 0x1 PUSH1 0xA0 SHL SUB SWAP1 DUP2 AND SWAP2 DUP4 ADD DUP3 SWAP1 MSTORE PUSH1 0x3 DUP5 ADD SLOAD AND PUSH1 0x60 DUP4 ADD MSTORE PUSH1 0x4 DUP4 ADD SLOAD PUSH1 0x80 DUP4 ADD MSTORE PUSH1 0x5 DUP4 ADD SLOAD PUSH1 0xA0 DUP4 ADD MSTORE PUSH1 0x6 SWAP1 SWAP3 ADD SLOAD PUSH1 0xFF DUP1 DUP3 AND ISZERO ISZERO PUSH1 0xC0 DUP5 ADD MSTORE PUSH2 0x100 DUP1 DUP4 DIV DUP3 AND ISZERO ISZERO PUSH1 0xE0 DUP6 ADD MSTORE PUSH3 0x10000 DUP4 DIV DUP3 AND ISZERO ISZERO SWAP1 DUP5 ADD MSTORE PUSH4 0x1000000 DUP3 DIV DUP2 AND ISZERO ISZERO PUSH2 0x120 DUP5 ADD MSTORE PUSH1 0x1 PUSH1 0x20 SHL SWAP1 SWAP2 DIV AND ISZERO ISZERO PUSH2 0x140 DUP3 ADD MSTORE SWAP2 POP CALLER EQ DUP1 PUSH2 0x38F1 JUMPI POP DUP1 PUSH1 0x60 ADD MLOAD PUSH1 0x1 PUSH1 0x1 PUSH1 0xA0 SHL SUB AND CALLER PUSH1 0x1 PUSH1 0x1 PUSH1 0xA0 SHL SUB AND EQ JUMPDEST PUSH2 0x393D JUMPI PUSH1 0x40 MLOAD PUSH3 0x461BCD PUSH1 0xE5 SHL DUP2 MSTORE PUSH1 0x20 PUSH1 0x4 DUP3 ADD MSTORE PUSH1 0x1C PUSH1 0x24 DUP3 ADD MSTORE PUSH32 0x4572726F723A20556E617574686F72697A65642074656E616E74212100000000 PUSH1 0x44 DUP3 ADD MSTORE PUSH1 0x64 ADD PUSH2 0x734 JUMP JUMPDEST DUP1 PUSH1 0xC0 ADD MLOAD ISZERO PUSH2 0x39C8 JUMPI PUSH1 0x40 MLOAD PUSH3 0x461BCD PUSH1 0xE5 SHL DUP2 MSTORE PUSH1 0x20 PUSH1 0x4 DUP3 ADD MSTORE PUSH1 0x4A PUSH1 0x24 DUP3 ADD MSTORE PUSH32 0x41706172746D656E7420616C726561647920636865636B656420666F72207468 PUSH1 0x44 DUP3 ADD MSTORE PUSH32 0x6973206461746520446F75626C6520636865636B696E67206973206E6F742070 PUSH1 0x64 DUP3 ADD MSTORE PUSH10 0x72656D69747465642121 PUSH1 0xB0 SHL PUSH1 0x84 DUP3 ADD MSTORE PUSH1 0xA4 ADD PUSH2 0x734 JUMP JUMPDEST PUSH1 0x0 DUP4 DUP2 MSTORE PUSH1 0x7 PUSH1 0x20 MSTORE PUSH1 0x40 SWAP1 KECCAK256 DUP1 SLOAD PUSH1 0x1 SWAP2 SWAP1 DUP5 SWAP1 DUP2 LT PUSH2 0x39EC JUMPI PUSH2 0x39EC PUSH2 0x4725 JUMP JUMPDEST PUSH1 0x0 SWAP2 DUP3 MSTORE PUSH1 0x20 DUP3 KECCAK256 PUSH1 0x7 SWAP2 SWAP1 SWAP2 MUL ADD PUSH1 0x6 ADD DUP1 SLOAD PUSH1 0xFF NOT AND SWAP3 ISZERO ISZERO SWAP3 SWAP1 SWAP3 OR SWAP1 SWAP2 SSTORE PUSH1 0x5 SLOAD PUSH1 0xA0 DUP4 ADD MLOAD PUSH1 0x64 SWAP2 PUSH2 0x3A23 SWAP2 PUSH2 0x4751 JUMP JUMPDEST PUSH2 0x3A2D SWAP2 SWAP1 PUSH2 0x4768 JUMP JUMPDEST SWAP1 POP PUSH1 0x0 PUSH1 0x64 PUSH1 0x4 SLOAD DUP5 PUSH1 0xA0 ADD MLOAD PUSH2 0x3A45 SWAP2 SWAP1 PUSH2 0x4751 JUMP JUMPDEST PUSH2 0x3A4F SWAP2 SWAP1 PUSH2 0x4768 JUMP JUMPDEST CALLER PUSH1 0x0 DUP2 DUP2 MSTORE PUSH1 0xA PUSH1 0x20 SWAP1 DUP2 MSTORE PUSH1 0x40 DUP1 DUP4 KECCAK256 DUP11 DUP5 MSTORE SWAP1 SWAP2 MSTORE SWAP1 DUP2 SWAP1 KECCAK256 DUP1 SLOAD PUSH1 0xFF NOT AND PUSH1 0x1 OR SWAP1 SSTORE DUP6 ADD MLOAD SWAP2 SWAP3 POP PUSH1 0x1 PUSH1 0x1 PUSH1 0xA0 SHL SUB SWAP2 SWAP1 SWAP2 AND EQ DUP1 ISZERO PUSH2 0x3A98 JUMPI POP PUSH2 0x140 DUP4 ADD MLOAD ISZERO JUMPDEST ISZERO PUSH2 0x3AF2 JUMPI PUSH1 0x0 DUP6 DUP2 MSTORE PUSH1 0x6 PUSH1 0x20 MSTORE PUSH1 0x40 SWAP1 KECCAK256 PUSH1 0x7 ADD SLOAD PUSH1 0xA0 DUP5 ADD MLOAD PUSH2 0x3ACD SWAP2 PUSH1 0x1 PUSH1 0x1 PUSH1 0xA0 SHL SUB AND SWAP1 PUSH2 0x8E6 SWAP1 DUP6 SWAP1 PUSH2 0x478A JUMP JUMPDEST PUSH2 0x3AE8 PUSH2 0x3AE2 PUSH1 0x0 SLOAD PUSH1 0x1 PUSH1 0x1 PUSH1 0xA0 SHL SUB AND SWAP1 JUMP JUMPDEST DUP4 PUSH2 0x3C01 JUMP JUMPDEST PUSH2 0x3AF2 CALLER DUP3 PUSH2 0x3C01 JUMP JUMPDEST PUSH1 0x60 DUP4 ADD MLOAD PUSH1 0x1 PUSH1 0x1 PUSH1 0xA0 SHL SUB AND CALLER EQ DUP1 ISZERO PUSH2 0x3B15 JUMPI POP PUSH2 0x140 DUP4 ADD MLOAD ISZERO ISZERO PUSH1 0x1 EQ JUMPDEST ISZERO PUSH2 0x912 JUMPI PUSH1 0x0 DUP5 DUP2 MSTORE PUSH1 0xD PUSH1 0x20 SWAP1 DUP2 MSTORE PUSH1 0x40 DUP1 DUP4 KECCAK256 DUP2 MLOAD PUSH1 0xA0 DUP1 DUP3 ADD DUP5 MSTORE DUP3 SLOAD DUP3 MSTORE PUSH1 0x1 DUP4 ADD SLOAD DUP3 DUP7 ADD MSTORE PUSH1 0x2 DUP4 ADD SLOAD DUP3 DUP6 ADD MSTORE PUSH1 0x3 DUP4 ADD SLOAD PUSH1 0x1 PUSH1 0x1 PUSH1 0xA0 SHL SUB SWAP1 DUP2 AND PUSH1 0x60 DUP5 ADD MSTORE PUSH1 0x4 SWAP1 SWAP4 ADD SLOAD DUP4 AND PUSH1 0x80 DUP4 ADD MSTORE DUP11 DUP7 MSTORE PUSH1 0x6 SWAP1 SWAP5 MSTORE SWAP2 SWAP1 SWAP4 KECCAK256 PUSH1 0x7 ADD SLOAD SWAP2 DUP7 ADD MLOAD SWAP1 SWAP3 PUSH2 0x3B93 SWAP3 AND SWAP1 PUSH2 0x8E6 SWAP1 DUP7 SWAP1 PUSH2 0x478A JUMP JUMPDEST PUSH2 0x3BAB DUP5 PUSH1 0x40 ADD MLOAD DUP5 DUP4 PUSH1 0x0 ADD MLOAD PUSH2 0x8E6 SWAP2 SWAP1 PUSH2 0x478A JUMP JUMPDEST PUSH2 0x3BCA PUSH2 0x3BC0 PUSH1 0x0 SLOAD PUSH1 0x1 PUSH1 0x1 PUSH1 0xA0 SHL SUB AND SWAP1 JUMP JUMPDEST PUSH2 0x8E6 DUP6 DUP1 PUSH2 0x47F0 JUMP JUMPDEST PUSH2 0x3BD4 CALLER DUP4 PUSH2 0x3C01 JUMP JUMPDEST PUSH2 0x1829 DUP5 PUSH1 0x40 ADD MLOAD DUP4 PUSH2 0x3C01 JUMP JUMPDEST PUSH1 0x0 PUSH2 0x3BF0 TIMESTAMP PUSH2 0x3E8 PUSH2 0x4751 JUMP JUMPDEST PUSH2 0x3BFC SWAP1 PUSH2 0x3E8 PUSH2 0x47F0 JUMP JUMPDEST SWAP1 POP SWAP1 JUMP JUMPDEST PUSH1 0x0 DUP3 PUSH1 0x1 PUSH1 0x1 PUSH1 0xA0 SHL SUB AND DUP3 PUSH1 0x40 MLOAD PUSH1 0x0 PUSH1 0x40 MLOAD DUP1 DUP4 SUB DUP2 DUP6 DUP8 GAS CALL SWAP3 POP POP POP RETURNDATASIZE DUP1 PUSH1 0x0 DUP2 EQ PUSH2 0x3C4E JUMPI PUSH1 0x40 MLOAD SWAP2 POP PUSH1 0x1F NOT PUSH1 0x3F RETURNDATASIZE ADD AND DUP3 ADD PUSH1 0x40 MSTORE RETURNDATASIZE DUP3 MSTORE RETURNDATASIZE PUSH1 0x0 PUSH1 0x20 DUP5 ADD RETURNDATACOPY PUSH2 0x3C53 JUMP JUMPDEST PUSH1 0x60 SWAP2 POP JUMPDEST POP POP SWAP1 POP DUP1 PUSH2 0x3C61 JUMPI PUSH1 0x0 DUP1 REVERT JUMPDEST POP POP POP JUMP JUMPDEST PUSH1 0x0 PUSH1 0x1 DUP2 PUSH2 0x3C74 DUP6 PUSH2 0x35DB JUMP JUMPDEST SWAP1 POP PUSH1 0x0 JUMPDEST DUP5 MLOAD DUP2 LT ISZERO PUSH2 0x3776 JUMPI PUSH1 0x0 JUMPDEST DUP3 MLOAD DUP2 LT ISZERO PUSH2 0x3CDE JUMPI DUP3 DUP2 DUP2 MLOAD DUP2 LT PUSH2 0x3CA0 JUMPI PUSH2 0x3CA0 PUSH2 0x4725 JUMP JUMPDEST PUSH1 0x20 MUL PUSH1 0x20 ADD ADD MLOAD DUP7 DUP4 DUP2 MLOAD DUP2 LT PUSH2 0x3CBA JUMPI PUSH2 0x3CBA PUSH2 0x4725 JUMP JUMPDEST PUSH1 0x20 MUL PUSH1 0x20 ADD ADD MLOAD SUB PUSH2 0x3CCC JUMPI PUSH1 0x0 SWAP4 POP JUMPDEST DUP1 PUSH2 0x3CD6 DUP2 PUSH2 0x479D JUMP JUMPDEST SWAP2 POP POP PUSH2 0x3C85 JUMP JUMPDEST POP DUP1 PUSH2 0x3CE9 DUP2 PUSH2 0x479D JUMP JUMPDEST SWAP2 POP POP PUSH2 0x3C79 JUMP JUMPDEST PUSH1 0x2 PUSH1 0x1 SLOAD SUB PUSH2 0x3D43 JUMPI PUSH1 0x40 MLOAD PUSH3 0x461BCD PUSH1 0xE5 SHL DUP2 MSTORE PUSH1 0x20 PUSH1 0x4 DUP3 ADD MSTORE PUSH1 0x1F PUSH1 0x24 DUP3 ADD MSTORE PUSH32 0x5265656E7472616E637947756172643A207265656E7472616E742063616C6C00 PUSH1 0x44 DUP3 ADD MSTORE PUSH1 0x64 ADD PUSH2 0x734 JUMP JUMPDEST PUSH1 0x2 PUSH1 0x1 SSTORE JUMP JUMPDEST PUSH1 0x0 SLOAD PUSH1 0x1 PUSH1 0x1 PUSH1 0xA0 SHL SUB AND CALLER EQ PUSH2 0x27AD JUMPI PUSH1 0x40 MLOAD PUSH3 0x461BCD PUSH1 0xE5 SHL DUP2 MSTORE PUSH1 0x20 PUSH1 0x4 DUP3 ADD DUP2 SWAP1 MSTORE PUSH1 0x24 DUP3 ADD MSTORE PUSH32 0x4F776E61626C653A2063616C6C6572206973206E6F7420746865206F776E6572 PUSH1 0x44 DUP3 ADD MSTORE PUSH1 0x64 ADD PUSH2 0x734 JUMP JUMPDEST PUSH1 0x0 DUP1 SLOAD PUSH1 0x1 PUSH1 0x1 PUSH1 0xA0 SHL SUB DUP4 DUP2 AND PUSH1 0x1 PUSH1 0x1 PUSH1 0xA0 SHL SUB NOT DUP4 AND DUP2 OR DUP5 SSTORE PUSH1 0x40 MLOAD SWAP2 SWAP1 SWAP3 AND SWAP3 DUP4 SWAP2 PUSH32 0x8BE0079C531659141344CD1FD0A4F28419497F9722A3DAAFE3B4186F6B6457E0 SWAP2 SWAP1 LOG3 POP POP JUMP JUMPDEST PUSH1 0x40 MLOAD DUP1 PUSH2 0x160 ADD PUSH1 0x40 MSTORE DUP1 PUSH1 0x0 DUP2 MSTORE PUSH1 0x20 ADD PUSH1 0x60 DUP2 MSTORE PUSH1 0x20 ADD PUSH1 0x60 DUP2 MSTORE PUSH1 0x20 ADD PUSH1 0x60 DUP2 MSTORE PUSH1 0x20 ADD PUSH1 0x60 DUP2 MSTORE PUSH1 0x20 ADD PUSH1 0x0 DUP2 MSTORE PUSH1 0x20 ADD PUSH1 0x0 DUP2 MSTORE PUSH1 0x20 ADD PUSH1 0x0 PUSH1 0x1 PUSH1 0x1 PUSH1 0xA0 SHL SUB AND DUP2 MSTORE PUSH1 0x20 ADD PUSH1 0x0 ISZERO ISZERO DUP2 MSTORE PUSH1 0x20 ADD PUSH1 0x0 ISZERO ISZERO DUP2 MSTORE PUSH1 0x20 ADD PUSH1 0x0 DUP2 MSTORE POP SWAP1 JUMP JUMPDEST PUSH1 0x40 DUP1 MLOAD PUSH2 0x160 DUP2 ADD DUP3 MSTORE PUSH1 0x0 DUP1 DUP3 MSTORE PUSH1 0x20 DUP3 ADD DUP2 SWAP1 MSTORE SWAP2 DUP2 ADD DUP3 SWAP1 MSTORE PUSH1 0x60 DUP2 ADD DUP3 SWAP1 MSTORE PUSH1 0x80 DUP2 ADD DUP3 SWAP1 MSTORE PUSH1 0xA0 DUP2 ADD DUP3 SWAP1 MSTORE PUSH1 0xC0 DUP2 ADD DUP3 SWAP1 MSTORE PUSH1 0xE0 DUP2 ADD DUP3 SWAP1 MSTORE PUSH2 0x100 DUP2 ADD DUP3 SWAP1 MSTORE PUSH2 0x120 DUP2 ADD DUP3 SWAP1 MSTORE PUSH2 0x140 DUP2 ADD SWAP2 SWAP1 SWAP2 MSTORE SWAP1 JUMP JUMPDEST PUSH1 0x40 MLOAD DUP1 PUSH1 0xA0 ADD PUSH1 0x40 MSTORE DUP1 PUSH1 0x0 DUP2 MSTORE PUSH1 0x20 ADD PUSH1 0x0 DUP2 MSTORE PUSH1 0x20 ADD PUSH1 0x0 DUP2 MSTORE PUSH1 0x20 ADD PUSH1 0x0 PUSH1 0x1 PUSH1 0x1 PUSH1 0xA0 SHL SUB AND DUP2 MSTORE PUSH1 0x20 ADD PUSH1 0x0 PUSH1 0x1 PUSH1 0x1 PUSH1 0xA0 SHL SUB AND DUP2 MSTORE POP SWAP1 JUMP JUMPDEST PUSH1 0x0 DUP1 PUSH1 0x40 DUP4 DUP6 SUB SLT ISZERO PUSH2 0x3F0B JUMPI PUSH1 0x0 DUP1 REVERT JUMPDEST POP POP DUP1 CALLDATALOAD SWAP3 PUSH1 0x20 SWAP1 SWAP2 ADD CALLDATALOAD SWAP2 POP JUMP JUMPDEST PUSH1 0x0 DUP2 MLOAD DUP1 DUP5 MSTORE PUSH1 0x0 JUMPDEST DUP2 DUP2 LT ISZERO PUSH2 0x3F40 JUMPI PUSH1 0x20 DUP2 DUP6 ADD DUP2 ADD MLOAD DUP7 DUP4 ADD DUP3 ADD MSTORE ADD PUSH2 0x3F24 JUMP JUMPDEST POP PUSH1 0x0 PUSH1 0x20 DUP3 DUP7 ADD ADD MSTORE PUSH1 0x20 PUSH1 0x1F NOT PUSH1 0x1F DUP4 ADD AND DUP6 ADD ADD SWAP2 POP POP SWAP3 SWAP2 POP POP JUMP JUMPDEST PUSH1 0x0 PUSH2 0x160 DUP3 MLOAD DUP5 MSTORE PUSH1 0x20 DUP4 ADD MLOAD DUP2 PUSH1 0x20 DUP7 ADD MSTORE PUSH2 0x3F80 DUP3 DUP7 ADD DUP3 PUSH2 0x3F1A JUMP JUMPDEST SWAP2 POP POP PUSH1 0x40 DUP4 ADD MLOAD DUP5 DUP3 SUB PUSH1 0x40 DUP7 ADD MSTORE PUSH2 0x3F9A DUP3 DUP3 PUSH2 0x3F1A JUMP JUMPDEST SWAP2 POP POP PUSH1 0x60 DUP4 ADD MLOAD DUP5 DUP3 SUB PUSH1 0x60 DUP7 ADD MSTORE PUSH2 0x3FB4 DUP3 DUP3 PUSH2 0x3F1A JUMP JUMPDEST SWAP2 POP POP PUSH1 0x80 DUP4 ADD MLOAD DUP5 DUP3 SUB PUSH1 0x80 DUP7 ADD MSTORE PUSH2 0x3FCE DUP3 DUP3 PUSH2 0x3F1A JUMP JUMPDEST SWAP2 POP POP PUSH1 0xA0 DUP4 ADD MLOAD PUSH1 0xA0 DUP6 ADD MSTORE PUSH1 0xC0 DUP4 ADD MLOAD PUSH1 0xC0 DUP6 ADD MSTORE PUSH1 0xE0 DUP4 ADD MLOAD PUSH2 0x3FFF PUSH1 0xE0 DUP7 ADD DUP3 PUSH1 0x1 PUSH1 0x1 PUSH1 0xA0 SHL SUB AND SWAP1 MSTORE JUMP JUMPDEST POP PUSH2 0x100 DUP4 DUP2 ADD MLOAD ISZERO ISZERO SWAP1 DUP6 ADD MSTORE PUSH2 0x120 DUP1 DUP5 ADD MLOAD ISZERO ISZERO SWAP1 DUP6 ADD MSTORE PUSH2 0x140 SWAP3 DUP4 ADD MLOAD SWAP3 SWAP1 SWAP4 ADD SWAP2 SWAP1 SWAP2 MSTORE POP SWAP1 JUMP JUMPDEST PUSH1 0x0 PUSH1 0x20 DUP1 DUP4 ADD DUP2 DUP5 MSTORE DUP1 DUP6 MLOAD DUP1 DUP4 MSTORE PUSH1 0x40 DUP7 ADD SWAP2 POP PUSH1 0x40 DUP2 PUSH1 0x5 SHL DUP8 ADD ADD SWAP3 POP DUP4 DUP8 ADD PUSH1 0x0 JUMPDEST DUP3 DUP2 LT ISZERO PUSH2 0x4082 JUMPI PUSH1 0x3F NOT DUP9 DUP7 SUB ADD DUP5 MSTORE PUSH2 0x4070 DUP6 DUP4 MLOAD PUSH2 0x3F60 JUMP JUMPDEST SWAP5 POP SWAP3 DUP6 ADD SWAP3 SWAP1 DUP6 ADD SWAP1 PUSH1 0x1 ADD PUSH2 0x4054 JUMP JUMPDEST POP SWAP3 SWAP8 SWAP7 POP POP POP POP POP POP POP JUMP JUMPDEST PUSH1 0x0 PUSH1 0x20 DUP3 DUP5 SUB SLT ISZERO PUSH2 0x40A1 JUMPI PUSH1 0x0 DUP1 REVERT JUMPDEST POP CALLDATALOAD SWAP2 SWAP1 POP JUMP JUMPDEST PUSH1 0x20 DUP1 DUP3 MSTORE DUP3 MLOAD DUP3 DUP3 ADD DUP2 SWAP1 MSTORE PUSH1 0x0 SWAP2 SWAP1 DUP5 DUP3 ADD SWAP1 PUSH1 0x40 DUP6 ADD SWAP1 DUP5 JUMPDEST DUP2 DUP2 LT ISZERO PUSH2 0x40E9 JUMPI DUP4 MLOAD PUSH1 0x1 PUSH1 0x1 PUSH1 0xA0 SHL SUB AND DUP4 MSTORE SWAP3 DUP5 ADD SWAP3 SWAP2 DUP5 ADD SWAP2 PUSH1 0x1 ADD PUSH2 0x40C4 JUMP JUMPDEST POP SWAP1 SWAP7 SWAP6 POP POP POP POP POP POP JUMP JUMPDEST PUSH4 0x4E487B71 PUSH1 0xE0 SHL PUSH1 0x0 MSTORE PUSH1 0x41 PUSH1 0x4 MSTORE PUSH1 0x24 PUSH1 0x0 REVERT JUMPDEST PUSH1 0x40 MLOAD PUSH1 0x1F DUP3 ADD PUSH1 0x1F NOT AND DUP2 ADD PUSH8 0xFFFFFFFFFFFFFFFF DUP2 GT DUP3 DUP3 LT OR ISZERO PUSH2 0x4134 JUMPI PUSH2 0x4134 PUSH2 0x40F5 JUMP JUMPDEST PUSH1 0x40 MSTORE SWAP2 SWAP1 POP JUMP JUMPDEST PUSH1 0x0 DUP3 PUSH1 0x1F DUP4 ADD SLT PUSH2 0x414D JUMPI PUSH1 0x0 DUP1 REVERT JUMPDEST DUP2 CALLDATALOAD PUSH1 0x20 PUSH8 0xFFFFFFFFFFFFFFFF DUP3 GT ISZERO PUSH2 0x4169 JUMPI PUSH2 0x4169 PUSH2 0x40F5 JUMP JUMPDEST DUP2 PUSH1 0x5 SHL PUSH2 0x4178 DUP3 DUP3 ADD PUSH2 0x410B JUMP JUMPDEST SWAP3 DUP4 MSTORE DUP5 DUP2 ADD DUP3 ADD SWAP3 DUP3 DUP2 ADD SWAP1 DUP8 DUP6 GT ISZERO PUSH2 0x4192 JUMPI PUSH1 0x0 DUP1 REVERT JUMPDEST DUP4 DUP8 ADD SWAP3 POP JUMPDEST DUP5 DUP4 LT ISZERO PUSH2 0x41B1 JUMPI DUP3 CALLDATALOAD DUP3 MSTORE SWAP2 DUP4 ADD SWAP2 SWAP1 DUP4 ADD SWAP1 PUSH2 0x4198 JUMP JUMPDEST SWAP8 SWAP7 POP POP POP POP POP POP POP JUMP JUMPDEST PUSH1 0x0 DUP1 PUSH1 0x0 PUSH1 0x60 DUP5 DUP7 SUB SLT ISZERO PUSH2 0x41D1 JUMPI PUSH1 0x0 DUP1 REVERT JUMPDEST DUP4 CALLDATALOAD SWAP3 POP PUSH1 0x20 DUP5 ADD CALLDATALOAD PUSH8 0xFFFFFFFFFFFFFFFF DUP1 DUP3 GT ISZERO PUSH2 0x41F0 JUMPI PUSH1 0x0 DUP1 REVERT JUMPDEST PUSH2 0x41FC DUP8 DUP4 DUP9 ADD PUSH2 0x413C JUMP JUMPDEST SWAP4 POP PUSH1 0x40 DUP7 ADD CALLDATALOAD SWAP2 POP DUP1 DUP3 GT ISZERO PUSH2 0x4212 JUMPI PUSH1 0x0 DUP1 REVERT JUMPDEST POP PUSH2 0x421F DUP7 DUP3 DUP8 ADD PUSH2 0x413C JUMP JUMPDEST SWAP2 POP POP SWAP3 POP SWAP3 POP SWAP3 JUMP JUMPDEST PUSH1 0x0 DUP3 PUSH1 0x1F DUP4 ADD SLT PUSH2 0x423A JUMPI PUSH1 0x0 DUP1 REVERT JUMPDEST DUP2 CALLDATALOAD PUSH8 0xFFFFFFFFFFFFFFFF DUP2 GT ISZERO PUSH2 0x4254 JUMPI PUSH2 0x4254 PUSH2 0x40F5 JUMP JUMPDEST PUSH2 0x4267 PUSH1 0x1F DUP3 ADD PUSH1 0x1F NOT AND PUSH1 0x20 ADD PUSH2 0x410B JUMP JUMPDEST DUP2 DUP2 MSTORE DUP5 PUSH1 0x20 DUP4 DUP7 ADD ADD GT ISZERO PUSH2 0x427C JUMPI PUSH1 0x0 DUP1 REVERT JUMPDEST DUP2 PUSH1 0x20 DUP6 ADD PUSH1 0x20 DUP4 ADD CALLDATACOPY PUSH1 0x0 SWAP2 DUP2 ADD PUSH1 0x20 ADD SWAP2 SWAP1 SWAP2 MSTORE SWAP4 SWAP3 POP POP POP JUMP JUMPDEST PUSH1 0x0 DUP1 PUSH1 0x0 DUP1 PUSH1 0x0 DUP1 PUSH1 0x0 PUSH1 0xE0 DUP9 DUP11 SUB SLT ISZERO PUSH2 0x42B4 JUMPI PUSH1 0x0 DUP1 REVERT JUMPDEST DUP8 CALLDATALOAD SWAP7 POP PUSH1 0x20 DUP9 ADD CALLDATALOAD PUSH8 0xFFFFFFFFFFFFFFFF DUP1 DUP3 GT ISZERO PUSH2 0x42D3 JUMPI PUSH1 0x0 DUP1 REVERT JUMPDEST PUSH2 0x42DF DUP12 DUP4 DUP13 ADD PUSH2 0x4229 JUMP JUMPDEST SWAP8 POP PUSH1 0x40 DUP11 ADD CALLDATALOAD SWAP2 POP DUP1 DUP3 GT ISZERO PUSH2 0x42F5 JUMPI PUSH1 0x0 DUP1 REVERT JUMPDEST PUSH2 0x4301 DUP12 DUP4 DUP13 ADD PUSH2 0x4229 JUMP JUMPDEST SWAP7 POP PUSH1 0x60 DUP11 ADD CALLDATALOAD SWAP2 POP DUP1 DUP3 GT ISZERO PUSH2 0x4317 JUMPI PUSH1 0x0 DUP1 REVERT JUMPDEST PUSH2 0x4323 DUP12 DUP4 DUP13 ADD PUSH2 0x4229 JUMP JUMPDEST SWAP6 POP PUSH1 0x80 DUP11 ADD CALLDATALOAD SWAP2 POP DUP1 DUP3 GT ISZERO PUSH2 0x4339 JUMPI PUSH1 0x0 DUP1 REVERT JUMPDEST POP PUSH2 0x4346 DUP11 DUP3 DUP12 ADD PUSH2 0x4229 JUMP JUMPDEST SWAP4 POP POP PUSH1 0xA0 DUP9 ADD CALLDATALOAD SWAP2 POP PUSH1 0xC0 DUP9 ADD CALLDATALOAD SWAP1 POP SWAP3 SWAP6 SWAP9 SWAP2 SWAP5 SWAP8 POP SWAP3 SWAP6 POP JUMP JUMPDEST DUP1 MLOAD DUP3 MSTORE PUSH1 0x20 DUP2 ADD MLOAD PUSH1 0x20 DUP4 ADD MSTORE PUSH1 0x40 DUP2 ADD MLOAD PUSH2 0x438B PUSH1 0x40 DUP5 ADD DUP3 PUSH1 0x1 PUSH1 0x1 PUSH1 0xA0 SHL SUB AND SWAP1 MSTORE JUMP JUMPDEST POP PUSH1 0x60 DUP2 ADD MLOAD PUSH2 0x43A6 PUSH1 0x60 DUP5 ADD DUP3 PUSH1 0x1 PUSH1 0x1 PUSH1 0xA0 SHL SUB AND SWAP1 MSTORE JUMP JUMPDEST POP PUSH1 0x80 DUP2 ADD MLOAD PUSH1 0x80 DUP4 ADD MSTORE PUSH1 0xA0 DUP2 ADD MLOAD PUSH1 0xA0 DUP4 ADD MSTORE PUSH1 0xC0 DUP2 ADD MLOAD PUSH2 0x43CE PUSH1 0xC0 DUP5 ADD DUP3 ISZERO ISZERO SWAP1 MSTORE JUMP JUMPDEST POP PUSH1 0xE0 DUP2 ADD MLOAD PUSH2 0x43E2 PUSH1 0xE0 DUP5 ADD DUP3 ISZERO ISZERO SWAP1 MSTORE JUMP JUMPDEST POP PUSH2 0x100 DUP2 DUP2 ADD MLOAD ISZERO ISZERO SWAP1 DUP4 ADD MSTORE PUSH2 0x120 DUP1 DUP3 ADD MLOAD ISZERO ISZERO SWAP1 DUP4 ADD MSTORE PUSH2 0x140 SWAP1 DUP2 ADD MLOAD ISZERO ISZERO SWAP2 ADD MSTORE JUMP JUMPDEST PUSH2 0x160 DUP2 ADD PUSH2 0xFDE DUP3 DUP5 PUSH2 0x4363 JUMP JUMPDEST PUSH1 0x0 DUP1 PUSH1 0x40 DUP4 DUP6 SUB SLT ISZERO PUSH2 0x442D JUMPI PUSH1 0x0 DUP1 REVERT JUMPDEST DUP3 CALLDATALOAD SWAP2 POP PUSH1 0x20 DUP4 ADD CALLDATALOAD PUSH8 0xFFFFFFFFFFFFFFFF DUP2 GT ISZERO PUSH2 0x444B JUMPI PUSH1 0x0 DUP1 REVERT JUMPDEST PUSH2 0x4457 DUP6 DUP3 DUP7 ADD PUSH2 0x4229 JUMP JUMPDEST SWAP2 POP POP SWAP3 POP SWAP3 SWAP1 POP JUMP JUMPDEST PUSH1 0x20 DUP1 DUP3 MSTORE DUP3 MLOAD DUP3 DUP3 ADD DUP2 SWAP1 MSTORE PUSH1 0x0 SWAP2 SWAP1 PUSH1 0x40 SWAP1 DUP2 DUP6 ADD SWAP1 DUP7 DUP5 ADD DUP6 JUMPDEST DUP3 DUP2 LT ISZERO PUSH2 0x44D1 JUMPI DUP2 MLOAD DUP1 MLOAD DUP6 MSTORE DUP7 DUP2 ADD MLOAD DUP8 DUP7 ADD MSTORE DUP6 DUP2 ADD MLOAD DUP7 DUP7 ADD MSTORE PUSH1 0x60 DUP1 DUP3 ADD MLOAD PUSH1 0x1 PUSH1 0x1 PUSH1 0xA0 SHL SUB SWAP1 DUP2 AND SWAP2 DUP8 ADD SWAP2 SWAP1 SWAP2 MSTORE PUSH1 0x80 SWAP2 DUP3 ADD MLOAD AND SWAP1 DUP6 ADD MSTORE PUSH1 0xA0 SWAP1 SWAP4 ADD SWAP3 SWAP1 DUP6 ADD SWAP1 PUSH1 0x1 ADD PUSH2 0x447E JUMP JUMPDEST POP SWAP2 SWAP8 SWAP7 POP POP POP POP POP POP POP JUMP JUMPDEST PUSH1 0x0 PUSH1 0x20 DUP1 DUP4 ADD DUP2 DUP5 MSTORE DUP1 DUP6 MLOAD DUP1 DUP4 MSTORE PUSH1 0x40 SWAP3 POP DUP3 DUP7 ADD SWAP2 POP DUP3 DUP2 PUSH1 0x5 SHL DUP8 ADD ADD DUP5 DUP9 ADD PUSH1 0x0 JUMPDEST DUP4 DUP2 LT ISZERO PUSH2 0x456E JUMPI PUSH1 0x3F NOT DUP10 DUP5 SUB ADD DUP6 MSTORE DUP2 MLOAD PUSH1 0xA0 DUP2 MLOAD DUP6 MSTORE DUP9 DUP3 ADD MLOAD DUP10 DUP7 ADD MSTORE DUP8 DUP3 ADD MLOAD DUP2 DUP10 DUP8 ADD MSTORE PUSH2 0x453B DUP3 DUP8 ADD DUP3 PUSH2 0x3F1A JUMP JUMPDEST PUSH1 0x60 DUP5 DUP2 ADD MLOAD SWAP1 DUP9 ADD MSTORE PUSH1 0x80 SWAP4 DUP5 ADD MLOAD PUSH1 0x1 PUSH1 0x1 PUSH1 0xA0 SHL SUB AND SWAP4 SWAP1 SWAP7 ADD SWAP3 SWAP1 SWAP3 MSTORE POP POP SWAP4 DUP7 ADD SWAP4 SWAP1 DUP7 ADD SWAP1 PUSH1 0x1 ADD PUSH2 0x4505 JUMP JUMPDEST POP SWAP1 SWAP9 SWAP8 POP POP POP POP POP POP POP POP JUMP JUMPDEST PUSH1 0x20 DUP1 DUP3 MSTORE DUP3 MLOAD DUP3 DUP3 ADD DUP2 SWAP1 MSTORE PUSH1 0x0 SWAP2 SWAP1 DUP5 DUP3 ADD SWAP1 PUSH1 0x40 DUP6 ADD SWAP1 DUP5 JUMPDEST DUP2 DUP2 LT ISZERO PUSH2 0x40E9 JUMPI PUSH2 0x45AB DUP4 DUP6 MLOAD PUSH2 0x4363 JUMP JUMPDEST SWAP3 DUP5 ADD SWAP3 PUSH2 0x160 SWAP3 SWAP1 SWAP3 ADD SWAP2 PUSH1 0x1 ADD PUSH2 0x4598 JUMP JUMPDEST PUSH1 0x0 DUP1 PUSH1 0x0 PUSH1 0x60 DUP5 DUP7 SUB SLT ISZERO PUSH2 0x45D4 JUMPI PUSH1 0x0 DUP1 REVERT JUMPDEST POP POP DUP2 CALLDATALOAD SWAP4 PUSH1 0x20 DUP4 ADD CALLDATALOAD SWAP4 POP PUSH1 0x40 SWAP1 SWAP3 ADD CALLDATALOAD SWAP2 SWAP1 POP JUMP JUMPDEST PUSH1 0x20 DUP2 MSTORE PUSH1 0x0 PUSH2 0x45FE PUSH1 0x20 DUP4 ADD DUP5 PUSH2 0x3F60 JUMP JUMPDEST SWAP4 SWAP3 POP POP POP JUMP JUMPDEST PUSH1 0x0 DUP1 PUSH1 0x0 DUP1 PUSH1 0x0 DUP1 PUSH1 0xC0 DUP8 DUP10 SUB SLT ISZERO PUSH2 0x461E JUMPI PUSH1 0x0 DUP1 REVERT JUMPDEST DUP7 CALLDATALOAD PUSH8 0xFFFFFFFFFFFFFFFF DUP1 DUP3 GT ISZERO PUSH2 0x4636 JUMPI PUSH1 0x0 DUP1 REVERT JUMPDEST PUSH2 0x4642 DUP11 DUP4 DUP12 ADD PUSH2 0x4229 JUMP JUMPDEST SWAP8 POP PUSH1 0x20 DUP10 ADD CALLDATALOAD SWAP2 POP DUP1 DUP3 GT ISZERO PUSH2 0x4658 JUMPI PUSH1 0x0 DUP1 REVERT JUMPDEST PUSH2 0x4664 DUP11 DUP4 DUP12 ADD PUSH2 0x4229 JUMP JUMPDEST SWAP7 POP PUSH1 0x40 DUP10 ADD CALLDATALOAD SWAP2 POP DUP1 DUP3 GT ISZERO PUSH2 0x467A JUMPI PUSH1 0x0 DUP1 REVERT JUMPDEST PUSH2 0x4686 DUP11 DUP4 DUP12 ADD PUSH2 0x4229 JUMP JUMPDEST SWAP6 POP PUSH1 0x60 DUP10 ADD CALLDATALOAD SWAP2 POP DUP1 DUP3 GT ISZERO PUSH2 0x469C JUMPI PUSH1 0x0 DUP1 REVERT JUMPDEST POP PUSH2 0x46A9 DUP10 DUP3 DUP11 ADD PUSH2 0x4229 JUMP JUMPDEST SWAP4 POP POP PUSH1 0x80 DUP8 ADD CALLDATALOAD SWAP2 POP PUSH1 0xA0 DUP8 ADD CALLDATALOAD SWAP1 POP SWAP3 SWAP6 POP SWAP3 SWAP6 POP SWAP3 SWAP6 JUMP JUMPDEST PUSH1 0x20 DUP1 DUP3 MSTORE DUP3 MLOAD DUP3 DUP3 ADD DUP2 SWAP1 MSTORE PUSH1 0x0 SWAP2 SWAP1 DUP5 DUP3 ADD SWAP1 PUSH1 0x40 DUP6 ADD SWAP1 DUP5 JUMPDEST DUP2 DUP2 LT ISZERO PUSH2 0x40E9 JUMPI DUP4 MLOAD DUP4 MSTORE SWAP3 DUP5 ADD SWAP3 SWAP2 DUP5 ADD SWAP2 PUSH1 0x1 ADD PUSH2 0x46E0 JUMP JUMPDEST PUSH1 0x0 PUSH1 0x20 DUP3 DUP5 SUB SLT ISZERO PUSH2 0x470E JUMPI PUSH1 0x0 DUP1 REVERT JUMPDEST DUP2 CALLDATALOAD PUSH1 0x1 PUSH1 0x1 PUSH1 0xA0 SHL SUB DUP2 AND DUP2 EQ PUSH2 0x45FE JUMPI PUSH1 0x0 DUP1 REVERT JUMPDEST PUSH4 0x4E487B71 PUSH1 0xE0 SHL PUSH1 0x0 MSTORE PUSH1 0x32 PUSH1 0x4 MSTORE PUSH1 0x24 PUSH1 0x0 REVERT JUMPDEST PUSH4 0x4E487B71 PUSH1 0xE0 SHL PUSH1 0x0 MSTORE PUSH1 0x11 PUSH1 0x4 MSTORE PUSH1 0x24 PUSH1 0x0 REVERT JUMPDEST DUP1 DUP3 MUL DUP2 ISZERO DUP3 DUP3 DIV DUP5 EQ OR PUSH2 0xFDE JUMPI PUSH2 0xFDE PUSH2 0x473B JUMP JUMPDEST PUSH1 0x0 DUP3 PUSH2 0x4785 JUMPI PUSH4 0x4E487B71 PUSH1 0xE0 SHL PUSH1 0x0 MSTORE PUSH1 0x12 PUSH1 0x4 MSTORE PUSH1 0x24 PUSH1 0x0 REVERT JUMPDEST POP DIV SWAP1 JUMP JUMPDEST DUP2 DUP2 SUB DUP2 DUP2 GT ISZERO PUSH2 0xFDE JUMPI PUSH2 0xFDE PUSH2 0x473B JUMP JUMPDEST PUSH1 0x0 PUSH1 0x1 DUP3 ADD PUSH2 0x47AF JUMPI PUSH2 0x47AF PUSH2 0x473B JUMP JUMPDEST POP PUSH1 0x1 ADD SWAP1 JUMP JUMPDEST PUSH1 0x1 DUP2 DUP2 SHR SWAP1 DUP3 AND DUP1 PUSH2 0x47CA JUMPI PUSH1 0x7F DUP3 AND SWAP2 POP JUMPDEST PUSH1 0x20 DUP3 LT DUP2 SUB PUSH2 0x47EA JUMPI PUSH4 0x4E487B71 PUSH1 0xE0 SHL PUSH1 0x0 MSTORE PUSH1 0x22 PUSH1 0x4 MSTORE PUSH1 0x24 PUSH1 0x0 REVERT JUMPDEST POP SWAP2 SWAP1 POP JUMP JUMPDEST DUP1 DUP3 ADD DUP1 DUP3 GT ISZERO PUSH2 0xFDE JUMPI PUSH2 0xFDE PUSH2 0x473B JUMP JUMPDEST PUSH1 0x1F DUP3 GT ISZERO PUSH2 0x3C61 JUMPI PUSH1 0x0 DUP2 DUP2 MSTORE PUSH1 0x20 DUP2 KECCAK256 PUSH1 0x1F DUP6 ADD PUSH1 0x5 SHR DUP2 ADD PUSH1 0x20 DUP7 LT ISZERO PUSH2 0x482A JUMPI POP DUP1 JUMPDEST PUSH1 0x1F DUP6 ADD PUSH1 0x5 SHR DUP3 ADD SWAP2 POP JUMPDEST DUP2 DUP2 LT ISZERO PUSH2 0x1829 JUMPI DUP3 DUP2 SSTORE PUSH1 0x1 ADD PUSH2 0x4836 JUMP JUMPDEST DUP2 MLOAD PUSH8 0xFFFFFFFFFFFFFFFF DUP2 GT ISZERO PUSH2 0x4863 JUMPI PUSH2 0x4863 PUSH2 0x40F5 JUMP JUMPDEST PUSH2 0x4877 DUP2 PUSH2 0x4871 DUP5 SLOAD PUSH2 0x47B6 JUMP JUMPDEST DUP5 PUSH2 0x4803 JUMP JUMPDEST PUSH1 0x20 DUP1 PUSH1 0x1F DUP4 GT PUSH1 0x1 DUP2 EQ PUSH2 0x48AC JUMPI PUSH1 0x0 DUP5 ISZERO PUSH2 0x4894 JUMPI POP DUP6 DUP4 ADD MLOAD JUMPDEST PUSH1 0x0 NOT PUSH1 0x3 DUP7 SWAP1 SHL SHR NOT AND PUSH1 0x1 DUP6 SWAP1 SHL OR DUP6 SSTORE PUSH2 0x1829 JUMP JUMPDEST PUSH1 0x0 DUP6 DUP2 MSTORE PUSH1 0x20 DUP2 KECCAK256 PUSH1 0x1F NOT DUP7 AND SWAP2 JUMPDEST DUP3 DUP2 LT ISZERO PUSH2 0x48DB JUMPI DUP9 DUP7 ADD MLOAD DUP3 SSTORE SWAP5 DUP5 ADD SWAP5 PUSH1 0x1 SWAP1 SWAP2 ADD SWAP1 DUP5 ADD PUSH2 0x48BC JUMP JUMPDEST POP DUP6 DUP3 LT ISZERO PUSH2 0x48F9 JUMPI DUP8 DUP6 ADD MLOAD PUSH1 0x0 NOT PUSH1 0x3 DUP9 SWAP1 SHL PUSH1 0xF8 AND SHR NOT AND DUP2 SSTORE JUMPDEST POP POP POP POP POP PUSH1 0x1 SWAP1 DUP2 SHL ADD SWAP1 SSTORE POP JUMP JUMPDEST PUSH1 0x20 DUP1 DUP3 MSTORE PUSH1 0x13 SWAP1 DUP3 ADD MSTORE PUSH19 0x105C185C9D1B595B9D081B9BDD08199BDD5B99 PUSH1 0x6A SHL PUSH1 0x40 DUP3 ADD MSTORE PUSH1 0x60 ADD SWAP1 JUMP JUMPDEST DUP1 MLOAD PUSH10 0xFFFFFFFFFFFFFFFFFFFF DUP2 AND DUP2 EQ PUSH2 0x4950 JUMPI PUSH1 0x0 DUP1 REVERT JUMPDEST SWAP2 SWAP1 POP JUMP JUMPDEST PUSH1 0x0 DUP1 PUSH1 0x0 DUP1 PUSH1 0x0 PUSH1 0xA0 DUP7 DUP9 SUB SLT ISZERO PUSH2 0x496D JUMPI PUSH1 0x0 DUP1 REVERT JUMPDEST PUSH2 0x4976 DUP7 PUSH2 0x4936 JUMP JUMPDEST SWAP5 POP PUSH1 0x20 DUP7 ADD MLOAD SWAP4 POP PUSH1 0x40 DUP7 ADD MLOAD SWAP3 POP PUSH1 0x60 DUP7 ADD MLOAD SWAP2 POP PUSH2 0x4999 PUSH1 0x80 DUP8 ADD PUSH2 0x4936 JUMP JUMPDEST SWAP1 POP SWAP3 SWAP6 POP SWAP3 SWAP6 SWAP1 SWAP4 POP JUMP JUMPDEST DUP1 DUP3 MUL PUSH1 0x0 DUP3 SLT PUSH1 0x1 PUSH1 0xFF SHL DUP5 EQ AND ISZERO PUSH2 0x49C1 JUMPI PUSH2 0x49C1 PUSH2 0x473B JUMP JUMPDEST DUP2 DUP2 SDIV DUP4 EQ DUP3 ISZERO OR PUSH2 0xFDE JUMPI PUSH2 0xFDE PUSH2 0x473B JUMP INVALID LOG2 PUSH5 0x6970667358 0x22 SLT KECCAK256 0xB8 0xB7 PUSH4 0xE59122C7 0xA7 PUSH8 0xE34FFDBB0A9792E9 PUSH25 0x646CA50CAFB9B95F4AA49278DA5464736F6C63430008130033 "},"methodIdentifiers":{"addReview(uint256,string)":"5bb0c5d6","bookApartment(uint256,uint256[],uint256[])":"17dd3e14","checkIn(uint256,uint256)":"f516f88e","claimFunds(uint256,uint256)":"010b58ee","createApartment(string,string,string,string,uint256,uint256)":"c788d6de","createResale(uint256,uint256,uint256)":"c2aaccfc","deleteApartment(uint256)":"55c3fbfb","ethUsdPriceFeed()":"42f6fb29","getAllApartments()":"0397eee0","getAllBookings(uint256)":"b5efcf04","getAllResales()":"7fd8984e","getApartment(uint256)":"c4452e06","getBooking(uint256,uint256)":"455b3070","getDisplayPrice(uint256,uint256)":"0f8685c4","getPrice()":"98d5fdca","getQualifiedReviewers(uint256)":"0bb9ce33","getReviews(uint256)":"9d4a2255","getUnavailableDates(uint256)":"db2f80b7","owner()":"8da5cb5b","refundBooking(uint256,uint256)":"67626e5d","renounceOwnership()":"715018a6","resoldBookingIds(uint256)":"1c32f071","securityFee()":"d68e1302","taxPercent()":"7541f41c","tenantBooked(uint256)":"9f31a2be","transferOwnership(address)":"f2fde38b","updateApartment(uint256,string,string,string,string,uint256,uint256)":"27c71c73","updatePrice(uint256,uint256)":"82367b2d"}}}}}