{
  "_format": "hh-sol-artifact-1",
  "contractName": "TravelnCrypto",
  "sourceName": "contracts/TravelnCrypto.sol",
  "abi": [
    {
      "inputs": [
        {
          "internalType": "uint256",
          "name": "_taxPercent",
          "type": "uint256"
        },
        {
          "internalType": "uint256",
          "name": "_securityFee",
          "type": "uint256"
        }
      ],
      "stateMutability": "nonpayable",
      "type": "constructor"
    },
    {
      "anonymous": false,
      "inputs": [
        {
          "indexed": true,
          "internalType": "address",
          "name": "previousOwner",
          "type": "address"
        },
        {
          "indexed": true,
          "internalType": "address",
          "name": "newOwner",
          "type": "address"
        }
      ],
      "name": "OwnershipTransferred",
      "type": "event"
    },
    {
      "inputs": [
        {
          "internalType": "uint256",
          "name": "apartment_id",
          "type": "uint256"
        },
        {
          "internalType": "string",
          "name": "message",
          "type": "string"
        }
      ],
      "name": "addReview",
      "outputs": [],
      "stateMutability": "nonpayable",
      "type": "function"
    },
    {
      "inputs": [
        {
          "internalType": "uint256",
          "name": "apartment_id",
          "type": "uint256"
        },
        {
          "internalType": "uint256[]",
          "name": "dates",
          "type": "uint256[]"
        }
      ],
      "name": "bookApartment",
      "outputs": [],
      "stateMutability": "payable",
      "type": "function"
    },
    {
      "inputs": [
        {
          "internalType": "uint256",
          "name": "apartment_id",
          "type": "uint256"
        },
        {
          "internalType": "uint256[]",
          "name": "dates",
          "type": "uint256[]"
        },
        {
          "internalType": "uint256[]",
          "name": "booking_ids",
          "type": "uint256[]"
        }
      ],
      "name": "bookResale",
      "outputs": [],
      "stateMutability": "payable",
      "type": "function"
    },
    {
      "inputs": [
        {
          "internalType": "uint256",
          "name": "apartment_id",
          "type": "uint256"
        },
        {
          "internalType": "uint256",
          "name": "booking_id",
          "type": "uint256"
        }
      ],
      "name": "checkIn",
      "outputs": [],
      "stateMutability": "nonpayable",
      "type": "function"
    },
    {
      "inputs": [
        {
          "internalType": "uint256",
          "name": "apartment_id",
          "type": "uint256"
        },
        {
          "internalType": "uint256",
          "name": "booking_id",
          "type": "uint256"
        }
      ],
      "name": "claimFunds",
      "outputs": [],
      "stateMutability": "nonpayable",
      "type": "function"
    },
    {
      "inputs": [
        {
          "internalType": "string",
          "name": "name",
          "type": "string"
        },
        {
          "internalType": "string",
          "name": "description",
          "type": "string"
        },
        {
          "internalType": "string",
          "name": "location",
          "type": "string"
        },
        {
          "internalType": "string",
          "name": "images",
          "type": "string"
        },
        {
          "internalType": "uint256",
          "name": "rooms",
          "type": "uint256"
        },
        {
          "internalType": "uint256",
          "name": "price",
          "type": "uint256"
        }
      ],
      "name": "createApartment",
      "outputs": [],
      "stateMutability": "nonpayable",
      "type": "function"
    },
    {
      "inputs": [
        {
          "internalType": "uint256",
          "name": "apartment_id",
          "type": "uint256"
        },
        {
          "internalType": "uint256",
          "name": "newPrice",
          "type": "uint256"
        },
        {
          "internalType": "uint256",
          "name": "booking_id",
          "type": "uint256"
        }
      ],
      "name": "createResale",
      "outputs": [],
      "stateMutability": "nonpayable",
      "type": "function"
    },
    {
      "inputs": [
        {
          "internalType": "uint256",
          "name": "id",
          "type": "uint256"
        }
      ],
      "name": "deleteApartment",
      "outputs": [],
      "stateMutability": "nonpayable",
      "type": "function"
    },
    {
      "inputs": [],
      "name": "ethUsdPriceFeed",
      "outputs": [
        {
          "internalType": "contract AggregatorV3Interface",
          "name": "",
          "type": "address"
        }
      ],
      "stateMutability": "view",
      "type": "function"
    },
    {
      "inputs": [],
      "name": "getAllApartments",
      "outputs": [
        {
          "components": [
            {
              "internalType": "uint256",
              "name": "id",
              "type": "uint256"
            },
            {
              "internalType": "string",
              "name": "name",
              "type": "string"
            },
            {
              "internalType": "string",
              "name": "description",
              "type": "string"
            },
            {
              "internalType": "string",
              "name": "location",
              "type": "string"
            },
            {
              "internalType": "string",
              "name": "images",
              "type": "string"
            },
            {
              "internalType": "uint256",
              "name": "rooms",
              "type": "uint256"
            },
            {
              "internalType": "uint256",
              "name": "price",
              "type": "uint256"
            },
            {
              "internalType": "address",
              "name": "owner",
              "type": "address"
            },
            {
              "internalType": "bool",
              "name": "booked",
              "type": "bool"
            },
            {
              "internalType": "bool",
              "name": "deleted",
              "type": "bool"
            },
            {
              "internalType": "uint256",
              "name": "timestamp",
              "type": "uint256"
            }
          ],
          "internalType": "struct TravelnCrypto.Apartment[]",
          "name": "Apartments",
          "type": "tuple[]"
        }
      ],
      "stateMutability": "view",
      "type": "function"
    },
    {
      "inputs": [
        {
          "internalType": "uint256",
          "name": "apartment_id",
          "type": "uint256"
        }
      ],
      "name": "getAllBookings",
      "outputs": [
        {
          "components": [
            {
              "internalType": "uint256",
              "name": "id",
              "type": "uint256"
            },
            {
              "internalType": "uint256",
              "name": "apartment_id",
              "type": "uint256"
            },
            {
              "internalType": "address",
              "name": "tenant",
              "type": "address"
            },
            {
              "internalType": "address",
              "name": "resale_tenant",
              "type": "address"
            },
            {
              "internalType": "uint256",
              "name": "date",
              "type": "uint256"
            },
            {
              "internalType": "uint256",
              "name": "price",
              "type": "uint256"
            },
            {
              "internalType": "bool",
              "name": "checked",
              "type": "bool"
            },
            {
              "internalType": "bool",
              "name": "cancelled",
              "type": "bool"
            },
            {
              "internalType": "bool",
              "name": "resale",
              "type": "bool"
            }
          ],
          "internalType": "struct TravelnCrypto.Booking[]",
          "name": "",
          "type": "tuple[]"
        }
      ],
      "stateMutability": "view",
      "type": "function"
    },
    {
      "inputs": [],
      "name": "getAllResales",
      "outputs": [
        {
          "components": [
            {
              "internalType": "uint256",
              "name": "price",
              "type": "uint256"
            },
            {
              "internalType": "uint256",
              "name": "booking_id",
              "type": "uint256"
            },
            {
              "internalType": "uint256",
              "name": "date",
              "type": "uint256"
            },
            {
              "internalType": "address",
              "name": "reseller",
              "type": "address"
            },
            {
              "internalType": "address",
              "name": "new_tenant",
              "type": "address"
            }
          ],
          "internalType": "struct TravelnCrypto.Resale[]",
          "name": "",
          "type": "tuple[]"
        }
      ],
      "stateMutability": "view",
      "type": "function"
    },
    {
      "inputs": [
        {
          "internalType": "uint256",
          "name": "id",
          "type": "uint256"
        }
      ],
      "name": "getApartment",
      "outputs": [
        {
          "components": [
            {
              "internalType": "uint256",
              "name": "id",
              "type": "uint256"
            },
            {
              "internalType": "string",
              "name": "name",
              "type": "string"
            },
            {
              "internalType": "string",
              "name": "description",
              "type": "string"
            },
            {
              "internalType": "string",
              "name": "location",
              "type": "string"
            },
            {
              "internalType": "string",
              "name": "images",
              "type": "string"
            },
            {
              "internalType": "uint256",
              "name": "rooms",
              "type": "uint256"
            },
            {
              "internalType": "uint256",
              "name": "price",
              "type": "uint256"
            },
            {
              "internalType": "address",
              "name": "owner",
              "type": "address"
            },
            {
              "internalType": "bool",
              "name": "booked",
              "type": "bool"
            },
            {
              "internalType": "bool",
              "name": "deleted",
              "type": "bool"
            },
            {
              "internalType": "uint256",
              "name": "timestamp",
              "type": "uint256"
            }
          ],
          "internalType": "struct TravelnCrypto.Apartment",
          "name": "",
          "type": "tuple"
        }
      ],
      "stateMutability": "view",
      "type": "function"
    },
    {
      "inputs": [
        {
          "internalType": "uint256",
          "name": "apartment_id",
          "type": "uint256"
        },
        {
          "internalType": "uint256",
          "name": "booking_id",
          "type": "uint256"
        }
      ],
      "name": "getBooking",
      "outputs": [
        {
          "components": [
            {
              "internalType": "uint256",
              "name": "id",
              "type": "uint256"
            },
            {
              "internalType": "uint256",
              "name": "apartment_id",
              "type": "uint256"
            },
            {
              "internalType": "address",
              "name": "tenant",
              "type": "address"
            },
            {
              "internalType": "address",
              "name": "resale_tenant",
              "type": "address"
            },
            {
              "internalType": "uint256",
              "name": "date",
              "type": "uint256"
            },
            {
              "internalType": "uint256",
              "name": "price",
              "type": "uint256"
            },
            {
              "internalType": "bool",
              "name": "checked",
              "type": "bool"
            },
            {
              "internalType": "bool",
              "name": "cancelled",
              "type": "bool"
            },
            {
              "internalType": "bool",
              "name": "resale",
              "type": "bool"
            }
          ],
          "internalType": "struct TravelnCrypto.Booking",
          "name": "",
          "type": "tuple"
        }
      ],
      "stateMutability": "view",
      "type": "function"
    },
    {
      "inputs": [],
      "name": "getPrice",
      "outputs": [
        {
          "internalType": "uint256",
          "name": "",
          "type": "uint256"
        }
      ],
      "stateMutability": "view",
      "type": "function"
    },
    {
      "inputs": [
        {
          "internalType": "uint256",
          "name": "apartment_id",
          "type": "uint256"
        }
      ],
      "name": "getQualifiedReviewers",
      "outputs": [
        {
          "internalType": "address[]",
          "name": "Tenants",
          "type": "address[]"
        }
      ],
      "stateMutability": "view",
      "type": "function"
    },
    {
      "inputs": [
        {
          "internalType": "uint256",
          "name": "apartment_id",
          "type": "uint256"
        }
      ],
      "name": "getReviews",
      "outputs": [
        {
          "components": [
            {
              "internalType": "uint256",
              "name": "id",
              "type": "uint256"
            },
            {
              "internalType": "uint256",
              "name": "apartment_id",
              "type": "uint256"
            },
            {
              "internalType": "string",
              "name": "reviewText",
              "type": "string"
            },
            {
              "internalType": "uint256",
              "name": "timestamp",
              "type": "uint256"
            },
            {
              "internalType": "address",
              "name": "owner",
              "type": "address"
            }
          ],
          "internalType": "struct TravelnCrypto.Review[]",
          "name": "",
          "type": "tuple[]"
        }
      ],
      "stateMutability": "view",
      "type": "function"
    },
    {
      "inputs": [
        {
          "internalType": "uint256",
          "name": "apartment_id",
          "type": "uint256"
        }
      ],
      "name": "getUnavailableDates",
      "outputs": [
        {
          "internalType": "uint256[]",
          "name": "",
          "type": "uint256[]"
        }
      ],
      "stateMutability": "view",
      "type": "function"
    },
    {
      "inputs": [],
      "name": "owner",
      "outputs": [
        {
          "internalType": "address",
          "name": "",
          "type": "address"
        }
      ],
      "stateMutability": "view",
      "type": "function"
    },
    {
      "inputs": [
        {
          "internalType": "uint256",
          "name": "apartment_id",
          "type": "uint256"
        },
        {
          "internalType": "uint256",
          "name": "booking_id",
          "type": "uint256"
        }
      ],
      "name": "refundBooking",
      "outputs": [],
      "stateMutability": "nonpayable",
      "type": "function"
    },
    {
      "inputs": [],
      "name": "renounceOwnership",
      "outputs": [],
      "stateMutability": "nonpayable",
      "type": "function"
    },
    {
      "inputs": [
        {
          "internalType": "uint256",
          "name": "",
          "type": "uint256"
        }
      ],
      "name": "resoldBookingIds",
      "outputs": [
        {
          "internalType": "uint256",
          "name": "",
          "type": "uint256"
        }
      ],
      "stateMutability": "view",
      "type": "function"
    },
    {
      "inputs": [],
      "name": "securityFee",
      "outputs": [
        {
          "internalType": "uint256",
          "name": "",
          "type": "uint256"
        }
      ],
      "stateMutability": "view",
      "type": "function"
    },
    {
      "inputs": [],
      "name": "taxPercent",
      "outputs": [
        {
          "internalType": "uint256",
          "name": "",
          "type": "uint256"
        }
      ],
      "stateMutability": "view",
      "type": "function"
    },
    {
      "inputs": [
        {
          "internalType": "uint256",
          "name": "apartment_id",
          "type": "uint256"
        }
      ],
      "name": "tenantBooked",
      "outputs": [
        {
          "internalType": "bool",
          "name": "",
          "type": "bool"
        }
      ],
      "stateMutability": "view",
      "type": "function"
    },
    {
      "inputs": [
        {
          "internalType": "address",
          "name": "newOwner",
          "type": "address"
        }
      ],
      "name": "transferOwnership",
      "outputs": [],
      "stateMutability": "nonpayable",
      "type": "function"
    },
    {
      "inputs": [
        {
          "internalType": "uint256",
          "name": "id",
          "type": "uint256"
        },
        {
          "internalType": "string",
          "name": "name",
          "type": "string"
        },
        {
          "internalType": "string",
          "name": "description",
          "type": "string"
        },
        {
          "internalType": "string",
          "name": "location",
          "type": "string"
        },
        {
          "internalType": "string",
          "name": "images",
          "type": "string"
        },
        {
          "internalType": "uint256",
          "name": "rooms",
          "type": "uint256"
        },
        {
          "internalType": "uint256",
          "name": "price",
          "type": "uint256"
        }
      ],
      "name": "updateApartment",
      "outputs": [],
      "stateMutability": "nonpayable",
      "type": "function"
    },
    {
      "inputs": [
        {
          "internalType": "uint256",
          "name": "id",
          "type": "uint256"
        },
        {
          "internalType": "uint256",
          "name": "usdprice",
          "type": "uint256"
        }
      ],
      "name": "updatePrice",
      "outputs": [],
      "stateMutability": "nonpayable",
      "type": "function"
    }
  ],
  "bytecode": "0x6080604052600380546001600160a01b03191673694aa1769357215de4fac081bf1f309adc3253061790553480156200003757600080fd5b5060405162004453380380620044538339810160408190526200005a91620000c8565b620000653362000078565b60018055600591909155600455620000ed565b600080546001600160a01b038381166001600160a01b0319831681178455604051919092169283917f8be0079c531659141344cd1fd0a4f28419497f9722a3daafe3b4186f6b6457e09190a35050565b60008060408385031215620000dc57600080fd5b505080516020909101519092909150565b61435680620000fd6000396000f3fe6080604052600436106101b75760003560e01c8063870cb308116100ec578063c4452e061161008a578063db2f80b711610064578063db2f80b714610524578063df6e022214610551578063f2fde38b14610564578063f516f88e1461058457600080fd5b8063c4452e06146104c1578063c788d6de146104ee578063d68e13021461050e57600080fd5b80639d4a2255116100c65780639d4a2255146103fc5780639f31a2be14610429578063b5efcf0414610474578063c2aaccfc146104a157600080fd5b8063870cb308146103b65780638da5cb5b146103c957806398d5fdca146103e757600080fd5b806355c3fbfb11610159578063715018a611610133578063715018a6146103495780637541f41c1461035e5780637fd8984e1461037457806382367b2d1461039657600080fd5b806355c3fbfb146102e95780635bb0c5d61461030957806367626e5d1461032957600080fd5b80631c32f071116101955780631c32f0711461023657806327c71c731461026457806342f6fb2914610284578063455b3070146102bc57600080fd5b8063010b58ee146101bc5780630397eee0146101de5780630bb9ce3314610209575b600080fd5b3480156101c857600080fd5b506101dc6101d7366004613819565b6105a4565b005b3480156101ea57600080fd5b506101f36108ea565b604051610200919061394e565b60405180910390f35b34801561021557600080fd5b506102296102243660046139b0565b610cc5565b60405161020091906139c9565b34801561024257600080fd5b506102566102513660046139b0565b610e6e565b604051908152602001610200565b34801561027057600080fd5b506101dc61027f366004613acd565b610e8f565b34801561029057600080fd5b506003546102a4906001600160a01b031681565b6040516001600160a01b039091168152602001610200565b3480156102c857600080fd5b506102dc6102d7366004613819565b6114fc565b6040516102009190613c0e565b3480156102f557600080fd5b506101dc6103043660046139b0565b6115c0565b34801561031557600080fd5b506101dc610324366004613c1d565b611688565b34801561033557600080fd5b506101dc610344366004613819565b6118b0565b34801561035557600080fd5b506101dc611cfa565b34801561036a57600080fd5b5061025660055481565b34801561038057600080fd5b50610389611d0e565b6040516102009190613c64565b3480156103a257600080fd5b506101dc6103b1366004613819565b611e2b565b6101dc6103c4366004613d61565b611e8c565b3480156103d557600080fd5b506000546001600160a01b03166102a4565b3480156103f357600080fd5b506102566122b7565b34801561040857600080fd5b5061041c6104173660046139b0565b61234e565b6040516102009190613dce565b34801561043557600080fd5b506104646104443660046139b0565b336000908152600b60209081526040808320938352929052205460ff1690565b6040519015158152602001610200565b34801561048057600080fd5b5061049461048f3660046139b0565b612489565b6040516102009190613e6c565b3480156104ad57600080fd5b506101dc6104bc366004613eaf565b612563565b3480156104cd57600080fd5b506104e16104dc3660046139b0565b612830565b6040516102009190613edb565b3480156104fa57600080fd5b506101dc610509366004613ef5565b612b04565b34801561051a57600080fd5b5061025660045481565b34801561053057600080fd5b5061054461053f3660046139b0565b612e29565b6040516102009190613fb4565b6101dc61055f366004613fec565b612e8b565b34801561057057600080fd5b506101dc61057f366004614029565b6131f9565b34801561059057600080fd5b506101dc61059f366004613819565b613272565b60008281526007602052604081208054839081106105c4576105c4614052565b60009182526020808320604080516101208101825260079485029092018054835260018101548385015260028101546001600160a01b039081168484015260038201548116606085015260048201546080850152600582015460a085015260069182015460ff808216151560c08701526101008083048216151560e088015262010000909204161515908501528987529352909320909101549192501633148061067857506000546001600160a01b031633145b61070e5760405162461bcd60e51b815260206004820152605660248201527f4572726f723a20596f7520617265206e6f7420617574686f72697a656420746f60448201527f20636c61696d20616e792066756e64732e20496620746869732069732061206d6064820152751a5cdd185ad94818dbdb9d1858dd081cdd5c1c1bdc9d60521b608482015260a4015b60405180910390fd5b600083815260076020526040902080548390811061072e5761072e614052565b600091825260209091206006600790920201015460ff16156107c45760405162461bcd60e51b815260206004820152604360248201527f41706172746d656e7420697320616c726561647920636865636b656420496e2060448201527f6f6e20746869732064617465206e6f206e65656420746f20636c61696d2066756064820152626e647360e81b608482015260a401610705565b6107cc6134ff565b81608001511061083b5760405162461bcd60e51b815260206004820152603460248201527f4e6f7420616c6c6f77656420746f20636c61696d2066756e6473206265666f72604482015273652074686520626f6f6b696e672064617465212160601b6064820152608401610705565b600083815260076020526040812080548490811061085b5761085b614052565b90600052602060002090600702016005015490506000606460055483610881919061407e565b61088b9190614095565b6000868152600660205260409020600701549091506108bc906001600160a01b03166108b783856140b7565b61351e565b6108d76108d16000546001600160a01b031690565b8261351e565b6108e33360045461351e565b5050505050565b6060600060015b600254811161093a57600081815260066020526040902060070154600160a81b900460ff166109285781610924816140ca565b9250505b80610932816140ca565b9150506108f1565b508067ffffffffffffffff81111561095457610954613a16565b60405190808252806020026020018201604052801561098d57816020015b61097a613725565b8152602001906001900390816109725790505b509150600060015b6002548111610cbf57600081815260066020526040902060070154600160a81b900460ff16610cad576006600082815260200190815260200160002060405180610160016040529081600082015481526020016001820180546109f7906140e3565b80601f0160208091040260200160405190810160405280929190818152602001828054610a23906140e3565b8015610a705780601f10610a4557610100808354040283529160200191610a70565b820191906000526020600020905b815481529060010190602001808311610a5357829003601f168201915b50505050508152602001600282018054610a89906140e3565b80601f0160208091040260200160405190810160405280929190818152602001828054610ab5906140e3565b8015610b025780601f10610ad757610100808354040283529160200191610b02565b820191906000526020600020905b815481529060010190602001808311610ae557829003601f168201915b50505050508152602001600382018054610b1b906140e3565b80601f0160208091040260200160405190810160405280929190818152602001828054610b47906140e3565b8015610b945780601f10610b6957610100808354040283529160200191610b94565b820191906000526020600020905b815481529060010190602001808311610b7757829003601f168201915b50505050508152602001600482018054610bad906140e3565b80601f0160208091040260200160405190810160405280929190818152602001828054610bd9906140e3565b8015610c265780601f10610bfb57610100808354040283529160200191610c26565b820191906000526020600020905b815481529060010190602001808311610c0957829003601f168201915b5050509183525050600582015460208201526006820154604082015260078201546001600160a01b038116606083015260ff600160a01b8204811615156080840152600160a81b90910416151560a082015260089091015460c0909101528483610c8f816140ca565b945081518110610ca157610ca1614052565b60200260200101819052505b80610cb7816140ca565b915050610995565b50505090565b60606000805b600084815260076020526040902054811015610d3d576000848152600760205260409020805482908110610d0157610d01614052565b600091825260209091206006600790920201015460ff1615610d2b5781610d27816140ca565b9250505b80610d35816140ca565b915050610ccb565b508067ffffffffffffffff811115610d5757610d57613a16565b604051908082528060200260200182016040528015610d80578160200160208202803683370190505b5091506000805b600085815260076020526040902054811015610e66576000858152600760205260409020805482908110610dbd57610dbd614052565b600091825260209091206006600790920201015460ff1615610e54576000858152600760205260409020805482908110610df957610df9614052565b60009182526020909120600260079092020101546001600160a01b03168483610e21816140ca565b945081518110610e3357610e33614052565b60200260200101906001600160a01b031690816001600160a01b0316815250505b80610e5e816140ca565b915050610d87565b505050919050565b600f8181548110610e7e57600080fd5b600091825260209091200154905081565b6000878152600c602052604090205460ff161515600114610ee95760405162461bcd60e51b8152602060048201526014602482015273105c1c185c9d1b595b9d081b9bdd08199bdd5b9960621b6044820152606401610705565b6000878152600660205260409020600701546001600160a01b03163314610f5d5760405162461bcd60e51b815260206004820152602260248201527f556e617574686f72697a656420706572736f6e6e656c2c206f776e6572206f6e6044820152616c7960f01b6064820152608401610705565b6000865111610fa55760405162461bcd60e51b81526020600482015260146024820152734e616d652063616e6e6f7420626520656d70747960601b6044820152606401610705565b6000855111610ff65760405162461bcd60e51b815260206004820152601b60248201527f4465736372697074696f6e2063616e6e6f7420626520656d70747900000000006044820152606401610705565b60008451116110425760405162461bcd60e51b81526020600482015260186024820152774c6f636174696f6e2063616e6e6f7420626520656d70747960401b6044820152606401610705565b600083511161108c5760405162461bcd60e51b8152602060048201526016602482015275496d616765732063616e6e6f7420626520656d70747960501b6044820152606401610705565b600082116110d35760405162461bcd60e51b8152602060048201526014602482015273526f6f6d732063616e6e6f74206265207a65726f60601b6044820152606401610705565b6000811161111a5760405162461bcd60e51b815260206004820152601460248201527350726963652063616e6e6f74206265207a65726f60601b6044820152606401610705565b6000600660008981526020019081526020016000206040518061016001604052908160008201548152602001600182018054611155906140e3565b80601f0160208091040260200160405190810160405280929190818152602001828054611181906140e3565b80156111ce5780601f106111a3576101008083540402835291602001916111ce565b820191906000526020600020905b8154815290600101906020018083116111b157829003601f168201915b505050505081526020016002820180546111e7906140e3565b80601f0160208091040260200160405190810160405280929190818152602001828054611213906140e3565b80156112605780601f1061123557610100808354040283529160200191611260565b820191906000526020600020905b81548152906001019060200180831161124357829003601f168201915b50505050508152602001600382018054611279906140e3565b80601f01602080910402602001604051908101604052809291908181526020018280546112a5906140e3565b80156112f25780601f106112c7576101008083540402835291602001916112f2565b820191906000526020600020905b8154815290600101906020018083116112d557829003601f168201915b5050505050815260200160048201805461130b906140e3565b80601f0160208091040260200160405190810160405280929190818152602001828054611337906140e3565b80156113845780601f1061135957610100808354040283529160200191611384565b820191906000526020600020905b81548152906001019060200180831161136757829003601f168201915b5050509183525050600582015460208083019190915260068084015460408085019190915260078501546001600160a01b03811660608087019190915260ff600160a01b830481161515608080890191909152600160a81b90930416151560a08088019190915260089097015460c0968701528785018f81528884018f90529088018d90529087018b905294860189905292850187905260008d81529152208251815590519192508291600182019061143d908261416b565b5060408201516002820190611452908261416b565b5060608201516003820190611467908261416b565b506080820151600482019061147c908261416b565b5060a0820151600582015560c0820151600682015560e08201516007820180546101008501516101208601511515600160a81b0260ff60a81b19911515600160a01b026001600160a81b03199093166001600160a01b03909516949094179190911716919091179055610140909101516008909101555050505050505050565b61150461378c565b600083815260076020526040902080548390811061152457611524614052565b6000918252602091829020604080516101208101825260079093029091018054835260018101549383019390935260028301546001600160a01b0390811691830191909152600383015416606082015260048201546080820152600582015460a082015260069091015460ff808216151560c08401526101008083048216151560e0850152620100009092041615159082015290505b92915050565b6000818152600c602052604090205460ff1615156001146115f35760405162461bcd60e51b81526004016107059061422b565b6000818152600660205260409020600701546001600160a01b031633146116525760405162461bcd60e51b8152602060048201526013602482015272556e617574686f72697a656420656e7469747960681b6044820152606401610705565b6000908152600c60209081526040808320805460ff1916905560069091529020600701805460ff60a81b1916600160a81b179055565b6000828152600c602052604090205460ff166116e65760405162461bcd60e51b815260206004820152601a60248201527f41706172746d656e74206973206e6f7420617661696c61626c650000000000006044820152606401610705565b336000908152600b6020908152604080832085845290915290205460ff166117625760405162461bcd60e51b815260206004820152602960248201527f4d75737420626f6f6b2061706172746d656e74206265666f726520796f752063604482015268616e2072657669657760b81b6064820152608401610705565b60008151116117be5760405162461bcd60e51b815260206004820152602260248201527f596f752063616e6e6f74206c6561766520616e20656d70747920726576696577604482015261212160f01b6064820152608401610705565b6117f96040518060a001604052806000815260200160008152602001606081526020016000815260200160006001600160a01b031681525090565b60208082018490526000848152600890915260409081902054825281018290526118216134ff565b6060820152336080820152600083815260086020908152604080832080546001818101835591855293839020855160059095020193845591840151918301919091558201518291906002820190611878908261416b565b5060608201516003820155608090910151600490910180546001600160a01b0319166001600160a01b03909216919091179055505050565b6118b861357e565b60008281526007602052604081208054839081106118d8576118d8614052565b6000918252602091829020604080516101208101825260079093029091018054835260018101549383019390935260028301546001600160a01b0390811691830191909152600383015416606082015260048201546080820152600582015460a082015260069091015460ff80821615801560c08501526101008084048316151560e0860152620100009093049091161515918301919091529091506119d05760405162461bcd60e51b815260206004820152602760248201527f43616e6e6f7420726566756e64206166746572206265696e6720636865636b656044820152666420494e21212160c81b6064820152608401610705565b6000838152600a602090815260408083206080850151845290915290205460ff16611a3d5760405162461bcd60e51b815260206004820181905260248201527f596f7520646964206e6f7420626f6f6b20666f722074686973206461746521216044820152606401610705565b6000546001600160a01b03163314611b485780604001516001600160a01b0316336001600160a01b031614611ac85760405162461bcd60e51b815260206004820152602b60248201527f4572726f723a20596f7520617265206e6f742061737369676e656420746f207460448201526a68697320626f6f6b696e6760a81b6064820152608401610705565b611ad06134ff565b816080015111611b485760405162461bcd60e51b815260206004820152603e60248201527f4572726f723a2054686520626f6f6b696e6720646174652068617320616c726560448201527f616479207061737365642c20796f752063616e6e6f7420726566756e642e00006064820152608401610705565b600083815260076020526040902080546001919084908110611b6c57611b6c614052565b6000918252602080832060066007909302019190910180549315156101000261ff001990941693909317909255848152600a82526040808220608085015183528352808220805460ff19169055858252600990925290812054611bd1906001906140b7565b60008581526009602052604081208054929350909183908110611bf657611bf6614052565b9060005260206000200154905080600960008781526020019081526020016000208581548110611c2857611c28614052565b906000526020600020018190555060096000868152602001908152602001600020805480611c5857611c58614258565b60019003818190600052602060002001600090559055600060646004548560a00151611c84919061407e565b611c8e9190614095565b90506000611c9d600283614095565b600088815260066020526040902060070154909150611cc5906001600160a01b03168261351e565b611cda6108d16000546001600160a01b031690565b611ce8338660a0015161351e565b5050505050611cf660018055565b5050565b611d026135d7565b611d0c6000613631565b565b600f5460609060008167ffffffffffffffff811115611d2f57611d2f613a16565b604051908082528060200260200182016040528015611d6857816020015b611d556137d8565b815260200190600190039081611d4d5790505b50905060005b82811015611e24576000600f8281548110611d8b57611d8b614052565b6000918252602080832090910154808352600e8252604092839020835160a0810185528154815260018201549381019390935260028101549383019390935260038301546001600160a01b0390811660608401526004909301549092166080820152845191925090849084908110611e0557611e05614052565b6020026020010181905250508080611e1c906140ca565b915050611d6e565b5092915050565b6000828152600c602052604090205460ff161515600114611e5e5760405162461bcd60e51b81526004016107059061422b565b80611e676122b7565b611e71919061407e565b60009283526006602081905260409093209092019190915550565b6000838152600c602052604090205460ff16611eea5760405162461bcd60e51b815260206004820181905260248201527f4572726f723a2041706172746d656e742063616e6e6f7420626520666f756e646044820152606401610705565b60005b82518110156122b157600d6000838381518110611f0c57611f0c614052565b60209081029190910181015182528101919091526040016000205460ff16611f765760405162461bcd60e51b815260206004820152601e60248201527f4572726f723a20426f6f6b696e672063616e6e6f7420626520666f756e6400006044820152606401610705565b60008481526007602052604081208351849084908110611f9857611f98614052565b602002602001015181548110611fb057611fb0614052565b6000918252602091829020604080516101208101825260079093029091018054835260018101549383019390935260028301546001600160a01b0390811691830191909152600383015416606082015260048201546080820152600582015460a082015260069091015460ff808216151560c08401526101008083048216151560e08501526201000090920416158015918301919091529091506120965760405162461bcd60e51b815260206004820152601960248201527f596f752063616e6e6f7420626f6f6b20746869732064617465000000000000006044820152606401610705565b60646004548551601060008787815181106120b3576120b3614052565b60200260200101518152602001908152602001600020546120d4919061407e565b6120de919061407e565b6120e89190614095565b84516010600086868151811061210057612100614052565b6020026020010151815260200190815260200160002054612121919061407e565b61212b919061426e565b34101561216f5760405162461bcd60e51b8152602060048201526012602482015271496e73756666696369656e742066756e642160701b6044820152606401610705565b33606082015261217d6137d8565b6010600085858151811061219357612193614052565b60200260200101518152602001908152602001600020548160000181815250508383815181106121c5576121c5614052565b60200260200101518160200181815250508483815181106121e8576121e8614052565b60209081029190910101516040808301919091528201516001600160a01b0316606082015233608082015283518190600e9060009087908790811061222f5761222f614052565b602090810291909101810151825281810192909252604090810160002083518155918301516001830155820151600282015560608201516003820180546001600160a01b03199081166001600160a01b0393841617909155608090930151600490920180549093169116179055508190506122a9816140ca565b915050611eed565b50505050565b600080600360009054906101000a90046001600160a01b03166001600160a01b031663feaf968c6040518163ffffffff1660e01b815260040160a060405180830381865afa15801561230d573d6000803e3d6000fd5b505050506040513d601f19601f8201168201806040525081019061233191906142a0565b505050915050806402540be40061234891906142f0565b91505090565b606060086000838152602001908152602001600020805480602002602001604051908101604052809291908181526020016000905b8282101561247e57838290600052602060002090600502016040518060a001604052908160008201548152602001600182015481526020016002820180546123ca906140e3565b80601f01602080910402602001604051908101604052809291908181526020018280546123f6906140e3565b80156124435780601f1061241857610100808354040283529160200191612443565b820191906000526020600020905b81548152906001019060200180831161242657829003601f168201915b505050918352505060038201546020808301919091526004909201546001600160a01b03166040909101529082526001929092019101612383565b505050509050919050565b606060076000838152602001908152602001600020805480602002602001604051908101604052809291908181526020016000905b8282101561247e576000848152602090819020604080516101208101825260078602909201805483526001808201548486015260028201546001600160a01b03908116938501939093526003820154909216606084015260048101546080840152600581015460a08401526006015460ff808216151560c08501526101008083048216151560e0860152620100009092041615159083015290835290920191016124be565b6000838152600c602052604090205460ff1615156001146125965760405162461bcd60e51b81526004016107059061422b565b60008381526009602052604090205461260a5760405162461bcd60e51b815260206004820152603060248201527f41706172746d656e742073686f756c6420626520626f6f6b656420696e206f7260448201526f19195c881d1bc81899481c995cdbdb1960821b6064820152608401610705565b600061261684836114fc565b905080604001516001600160a01b0316336001600160a01b03161461267d5760405162461bcd60e51b815260206004820152601c60248201527f4572726f723a20556e617574686f72697a65642074656e616e742121000000006044820152606401610705565b8060c001511561271b5760405162461bcd60e51b815260206004820152605d60248201527f4572726f723a20596f752063616e6e6f74207075742061706172746d656e742060448201527f757020666f7220726573656c6c207768656e20796f75206861766520616c726560648201527f61647920636865636b6564496e20666f72207468697320646174652121000000608482015260a401610705565b600061272884606461407e565b6000868152600660208190526040822001549192509061274990606461407e565b9050606461275882607861407e565b6127629190614095565b8211156127cc5760405162461bcd60e51b815260206004820152603260248201527f4e65772070726963652063616e6e6f74206578636565642031323025206f6620604482015271746865206f726967696e616c20707269636560701b6064820152608401610705565b6000848152601060209081526040808320889055888352600790915290208054600191908690811061280057612800614052565b906000526020600020906007020160060160026101000a81548160ff021916908315150217905550505050505050565b612838613725565b600660008381526020019081526020016000206040518061016001604052908160008201548152602001600182018054612871906140e3565b80601f016020809104026020016040519081016040528092919081815260200182805461289d906140e3565b80156128ea5780601f106128bf576101008083540402835291602001916128ea565b820191906000526020600020905b8154815290600101906020018083116128cd57829003601f168201915b50505050508152602001600282018054612903906140e3565b80601f016020809104026020016040519081016040528092919081815260200182805461292f906140e3565b801561297c5780601f106129515761010080835404028352916020019161297c565b820191906000526020600020905b81548152906001019060200180831161295f57829003601f168201915b50505050508152602001600382018054612995906140e3565b80601f01602080910402602001604051908101604052809291908181526020018280546129c1906140e3565b8015612a0e5780601f106129e357610100808354040283529160200191612a0e565b820191906000526020600020905b8154815290600101906020018083116129f157829003601f168201915b50505050508152602001600482018054612a27906140e3565b80601f0160208091040260200160405190810160405280929190818152602001828054612a53906140e3565b8015612aa05780601f10612a7557610100808354040283529160200191612aa0565b820191906000526020600020905b815481529060010190602001808311612a8357829003601f168201915b5050509183525050600582015460208201526006820154604082015260078201546001600160a01b038116606083015260ff600160a01b8204811615156080840152600160a81b90910416151560a082015260089091015460c09091015292915050565b6000865111612b4c5760405162461bcd60e51b81526020600482015260146024820152734e616d652063616e6e6f7420626520656d70747960601b6044820152606401610705565b6000855111612b9d5760405162461bcd60e51b815260206004820152601b60248201527f4465736372697074696f6e2063616e6e6f7420626520656d70747900000000006044820152606401610705565b6000845111612be95760405162461bcd60e51b81526020600482015260186024820152774c6f636174696f6e2063616e6e6f7420626520656d70747960401b6044820152606401610705565b6000835111612c335760405162461bcd60e51b8152602060048201526016602482015275496d616765732063616e6e6f7420626520656d70747960501b6044820152606401610705565b60008211612c7a5760405162461bcd60e51b8152602060048201526014602482015273526f6f6d732063616e6e6f74206265207a65726f60601b6044820152606401610705565b60008111612cc15760405162461bcd60e51b815260206004820152601460248201527350726963652063616e6e6f74206265207a65726f60601b6044820152606401610705565b612ccf600280546001019055565b612cd7613725565b60025481526020810187905260408101869052606081018590526080810184905260a0810183905260c081018290523360e0820152612d146134ff565b61014082015280516000908152600c60205260408120805460ff191660011790558190600690612d4360025490565b815260208082019290925260400160002082518155908201516001820190612d6b908261416b565b5060408201516002820190612d80908261416b565b5060608201516003820190612d95908261416b565b5060808201516004820190612daa908261416b565b5060a0820151600582015560c0820151600682015560e08201516007820180546101008501516101208601511515600160a81b0260ff60a81b19911515600160a01b026001600160a81b03199093166001600160a01b039095169490941791909117169190911790556101409091015160089091015550505050505050565b600081815260096020908152604091829020805483518184028101840190945280845260609392830182828015612e7f57602002820191906000526020600020905b815481526020019060010190808311612e6b575b50505050509050919050565b6000828152600c602052604090205460ff16612ee95760405162461bcd60e51b815260206004820181905260248201527f4572726f723a2041706172746d656e742063616e6e6f7420626520666f756e646044820152606401610705565b60045481516000848152600660208190526040909120015460649291612f0e9161407e565b612f18919061407e565b612f229190614095565b815160008481526006602081905260409091200154612f41919061407e565b612f4b919061426e565b341015612f8f5760405162461bcd60e51b8152602060048201526012602482015271496e73756666696369656e742066756e642160701b6044820152606401610705565b612f998282613681565b612ff35760405162461bcd60e51b815260206004820152602560248201527f4572726f723a2054686973204461746520697320616c726561647920626f6f6b604482015264032b21090960dd1b6064820152608401610705565b60005b81518110156131f45761300761378c565b602080820185905260008581526007909152604090819020548252339082018190526060820152825183908390811061304257613042614052565b6020908102919091018101516080830190815260008681526006808452604080832082015460a0870190815289845260078087528285208054600181810183559187528887208a51919093029092019182558888015182820155838901516002830180546001600160a01b039283166001600160a01b03199182161790915560608b0151600385018054919093169116179055955160048201559051600582015560c08701519201805460e0880151610100808a01511515620100000262ff00001992151590910261ff00199615159690961661ffff1990931692909217949094179390931692909217909155878252600a90935291822085519192909186908690811061315257613152614052565b60209081029190910181015182528181019290925260409081016000908120805460ff19169415159490941790935561010084018390528683526009909152902083518490849081106131a7576131a7614052565b60209081029190910181015182546001818101855560009485528385209091019190915592518252600d905260409020805460ff19169091179055806131ec816140ca565b915050612ff6565b505050565b6132016135d7565b6001600160a01b0381166132665760405162461bcd60e51b815260206004820152602660248201527f4f776e61626c653a206e6577206f776e657220697320746865207a65726f206160448201526564647265737360d01b6064820152608401610705565b61326f81613631565b50565b600082815260076020526040812080548390811061329257613292614052565b6000918252602091829020604080516101208101825260079093029091018054835260018101549383019390935260028301546001600160a01b03908116918301829052600384015416606083015260048301546080830152600583015460a083015260069092015460ff808216151560c08401526101008083048216151560e08501526201000090920416151590820152915033146133745760405162461bcd60e51b815260206004820152601c60248201527f4572726f723a20556e617574686f72697a65642074656e616e742121000000006044820152606401610705565b8060c00151156133ff5760405162461bcd60e51b815260206004820152604a60248201527f41706172746d656e7420616c726561647920636865636b656420666f7220746860448201527f6973206461746520446f75626c6520636865636b696e67206973206e6f74207060648201526972656d6974746564212160b01b608482015260a401610705565b60008381526007602052604090208054600191908490811061342357613423614052565b60009182526020822060079190910201600601805460ff19169215159290921790915560055460a083015160649161345a9161407e565b6134649190614095565b9050600060646004548460a0015161347c919061407e565b6134869190614095565b336000908152600b602090815260408083208984528252808320805460ff19166001179055600690915290206007015460a08501519192506134da916001600160a01b0391909116906108b79085906140b7565b6134f56134ef6000546001600160a01b031690565b8361351e565b6108e3338261351e565b600061350d426103e861407e565b613519906103e861426e565b905090565b6000826001600160a01b03168260405160006040518083038185875af1925050503d806000811461356b576040519150601f19603f3d011682016040523d82523d6000602084013e613570565b606091505b50509050806131f457600080fd5b6002600154036135d05760405162461bcd60e51b815260206004820152601f60248201527f5265656e7472616e637947756172643a207265656e7472616e742063616c6c006044820152606401610705565b6002600155565b6000546001600160a01b03163314611d0c5760405162461bcd60e51b815260206004820181905260248201527f4f776e61626c653a2063616c6c6572206973206e6f7420746865206f776e65726044820152606401610705565b600080546001600160a01b038381166001600160a01b0319831681178455604051919092169283917f8be0079c531659141344cd1fd0a4f28419497f9722a3daafe3b4186f6b6457e09190a35050565b60006001815b835181101561371d5760005b60008681526009602052604090205481101561370a5760008681526009602052604090208054829081106136c9576136c9614052565b90600052602060002001548583815181106136e6576136e6614052565b6020026020010151036136f857600092505b80613702816140ca565b915050613693565b5080613715816140ca565b915050613687565b509392505050565b6040518061016001604052806000815260200160608152602001606081526020016060815260200160608152602001600081526020016000815260200160006001600160a01b03168152602001600015158152602001600015158152602001600081525090565b6040805161012081018252600080825260208201819052918101829052606081018290526080810182905260a0810182905260c0810182905260e0810182905261010081019190915290565b6040518060a0016040528060008152602001600081526020016000815260200160006001600160a01b0316815260200160006001600160a01b031681525090565b6000806040838503121561382c57600080fd5b50508035926020909101359150565b6000815180845260005b8181101561386157602081850181015186830182015201613845565b506000602082860101526020601f19601f83011685010191505092915050565b60006101608251845260208301518160208601526138a18286018261383b565b915050604083015184820360408601526138bb828261383b565b915050606083015184820360608601526138d5828261383b565b915050608083015184820360808601526138ef828261383b565b91505060a083015160a085015260c083015160c085015260e083015161392060e08601826001600160a01b03169052565b5061010083810151151590850152610120808401511515908501526101409283015192909301919091525090565b6000602080830181845280855180835260408601915060408160051b870101925083870160005b828110156139a357603f19888603018452613991858351613881565b94509285019290850190600101613975565b5092979650505050505050565b6000602082840312156139c257600080fd5b5035919050565b6020808252825182820181905260009190848201906040850190845b81811015613a0a5783516001600160a01b0316835292840192918401916001016139e5565b50909695505050505050565b634e487b7160e01b600052604160045260246000fd5b604051601f8201601f1916810167ffffffffffffffff81118282101715613a5557613a55613a16565b604052919050565b600082601f830112613a6e57600080fd5b813567ffffffffffffffff811115613a8857613a88613a16565b613a9b601f8201601f1916602001613a2c565b818152846020838601011115613ab057600080fd5b816020850160208301376000918101602001919091529392505050565b600080600080600080600060e0888a031215613ae857600080fd5b87359650602088013567ffffffffffffffff80821115613b0757600080fd5b613b138b838c01613a5d565b975060408a0135915080821115613b2957600080fd5b613b358b838c01613a5d565b965060608a0135915080821115613b4b57600080fd5b613b578b838c01613a5d565b955060808a0135915080821115613b6d57600080fd5b50613b7a8a828b01613a5d565b93505060a0880135915060c0880135905092959891949750929550565b8051825260208101516020830152604081015160018060a01b03808216604085015280606084015116606085015250506080810151608083015260a081015160a083015260c0810151151560c083015260e0810151613bfa60e084018215159052565b5061010081810151801515848301526122b1565b61012081016115ba8284613b97565b60008060408385031215613c3057600080fd5b82359150602083013567ffffffffffffffff811115613c4e57600080fd5b613c5a85828601613a5d565b9150509250929050565b602080825282518282018190526000919060409081850190868401855b82811015613cd457815180518552868101518786015285810151868601526060808201516001600160a01b0390811691870191909152608091820151169085015260a09093019290850190600101613c81565b5091979650505050505050565b600082601f830112613cf257600080fd5b8135602067ffffffffffffffff821115613d0e57613d0e613a16565b8160051b613d1d828201613a2c565b9283528481018201928281019087851115613d3757600080fd5b83870192505b84831015613d5657823582529183019190830190613d3d565b979650505050505050565b600080600060608486031215613d7657600080fd5b83359250602084013567ffffffffffffffff80821115613d9557600080fd5b613da187838801613ce1565b93506040860135915080821115613db757600080fd5b50613dc486828701613ce1565b9150509250925092565b60006020808301818452808551808352604092508286019150828160051b87010184880160005b83811015613e5e57603f19898403018552815160a0815185528882015189860152878201518189870152613e2b8287018261383b565b606084810151908801526080938401516001600160a01b0316939096019290925250509386019390860190600101613df5565b509098975050505050505050565b6020808252825182820181905260009190848201906040850190845b81811015613a0a57613e9b838551613b97565b928401926101209290920191600101613e88565b600080600060608486031215613ec457600080fd5b505081359360208301359350604090920135919050565b602081526000613eee6020830184613881565b9392505050565b60008060008060008060c08789031215613f0e57600080fd5b863567ffffffffffffffff80821115613f2657600080fd5b613f328a838b01613a5d565b97506020890135915080821115613f4857600080fd5b613f548a838b01613a5d565b96506040890135915080821115613f6a57600080fd5b613f768a838b01613a5d565b95506060890135915080821115613f8c57600080fd5b50613f9989828a01613a5d565b9350506080870135915060a087013590509295509295509295565b6020808252825182820181905260009190848201906040850190845b81811015613a0a57835183529284019291840191600101613fd0565b60008060408385031215613fff57600080fd5b82359150602083013567ffffffffffffffff81111561401d57600080fd5b613c5a85828601613ce1565b60006020828403121561403b57600080fd5b81356001600160a01b0381168114613eee57600080fd5b634e487b7160e01b600052603260045260246000fd5b634e487b7160e01b600052601160045260246000fd5b80820281158282048414176115ba576115ba614068565b6000826140b257634e487b7160e01b600052601260045260246000fd5b500490565b818103818111156115ba576115ba614068565b6000600182016140dc576140dc614068565b5060010190565b600181811c908216806140f757607f821691505b60208210810361411757634e487b7160e01b600052602260045260246000fd5b50919050565b601f8211156131f457600081815260208120601f850160051c810160208610156141445750805b601f850160051c820191505b8181101561416357828155600101614150565b505050505050565b815167ffffffffffffffff81111561418557614185613a16565b6141998161419384546140e3565b8461411d565b602080601f8311600181146141ce57600084156141b65750858301515b600019600386901b1c1916600185901b178555614163565b600085815260208120601f198616915b828110156141fd578886015182559484019460019091019084016141de565b508582101561421b5787850151600019600388901b60f8161c191681555b5050505050600190811b01905550565b602080825260139082015272105c185c9d1b595b9d081b9bdd08199bdd5b99606a1b604082015260600190565b634e487b7160e01b600052603160045260246000fd5b808201808211156115ba576115ba614068565b805169ffffffffffffffffffff8116811461429b57600080fd5b919050565b600080600080600060a086880312156142b857600080fd5b6142c186614281565b94506020860151935060408601519250606086015191506142e460808701614281565b90509295509295909350565b80820260008212600160ff1b8414161561430c5761430c614068565b81810583148215176115ba576115ba61406856fea2646970667358221220113d8249d8299fed0c694daaf331522f68e116c44652c25564dd00e438a49e0264736f6c63430008130033",
  "linkReferences": {},
  "deployedLinkReferences": {}
}