{
  "_format": "hh-sol-artifact-1",
  "contractName": "TravelnCrypto",
  "sourceName": "contracts/TravelnCrypto.sol",
  "abi": [
    {
      "inputs": [
        {
          "internalType": "uint256",
          "name": "_taxPercent",
          "type": "uint256"
        },
        {
          "internalType": "uint256",
          "name": "_securityFee",
          "type": "uint256"
        }
      ],
      "stateMutability": "nonpayable",
      "type": "constructor"
    },
    {
      "anonymous": false,
      "inputs": [
        {
          "indexed": true,
          "internalType": "address",
          "name": "previousOwner",
          "type": "address"
        },
        {
          "indexed": true,
          "internalType": "address",
          "name": "newOwner",
          "type": "address"
        }
      ],
      "name": "OwnershipTransferred",
      "type": "event"
    },
    {
      "inputs": [
        {
          "internalType": "uint256",
          "name": "apartment_id",
          "type": "uint256"
        },
        {
          "internalType": "string",
          "name": "message",
          "type": "string"
        }
      ],
      "name": "addReview",
      "outputs": [],
      "stateMutability": "nonpayable",
      "type": "function"
    },
    {
      "inputs": [
        {
          "internalType": "uint256",
          "name": "apartment_id",
          "type": "uint256"
        },
        {
          "internalType": "uint256[]",
          "name": "dates",
          "type": "uint256[]"
        }
      ],
      "name": "bookApartment",
      "outputs": [],
      "stateMutability": "payable",
      "type": "function"
    },
    {
      "inputs": [
        {
          "internalType": "uint256",
          "name": "apartment_id",
          "type": "uint256"
        },
        {
          "internalType": "uint256",
          "name": "booking_id",
          "type": "uint256"
        }
      ],
      "name": "checkIn",
      "outputs": [],
      "stateMutability": "nonpayable",
      "type": "function"
    },
    {
      "inputs": [
        {
          "internalType": "uint256",
          "name": "apartment_id",
          "type": "uint256"
        },
        {
          "internalType": "uint256",
          "name": "booking_id",
          "type": "uint256"
        }
      ],
      "name": "claimFunds",
      "outputs": [],
      "stateMutability": "nonpayable",
      "type": "function"
    },
    {
      "inputs": [
        {
          "internalType": "string",
          "name": "name",
          "type": "string"
        },
        {
          "internalType": "string",
          "name": "description",
          "type": "string"
        },
        {
          "internalType": "string",
          "name": "location",
          "type": "string"
        },
        {
          "internalType": "string",
          "name": "images",
          "type": "string"
        },
        {
          "internalType": "uint256",
          "name": "rooms",
          "type": "uint256"
        },
        {
          "internalType": "uint256",
          "name": "price",
          "type": "uint256"
        }
      ],
      "name": "createApartment",
      "outputs": [],
      "stateMutability": "nonpayable",
      "type": "function"
    },
    {
      "inputs": [
        {
          "internalType": "uint256",
          "name": "id",
          "type": "uint256"
        }
      ],
      "name": "deleteApartment",
      "outputs": [],
      "stateMutability": "nonpayable",
      "type": "function"
    },
    {
      "inputs": [],
      "name": "getAllApartments",
      "outputs": [
        {
          "components": [
            {
              "internalType": "uint256",
              "name": "id",
              "type": "uint256"
            },
            {
              "internalType": "string",
              "name": "name",
              "type": "string"
            },
            {
              "internalType": "string",
              "name": "description",
              "type": "string"
            },
            {
              "internalType": "string",
              "name": "location",
              "type": "string"
            },
            {
              "internalType": "string",
              "name": "images",
              "type": "string"
            },
            {
              "internalType": "uint256",
              "name": "rooms",
              "type": "uint256"
            },
            {
              "internalType": "uint256",
              "name": "price",
              "type": "uint256"
            },
            {
              "internalType": "address",
              "name": "owner",
              "type": "address"
            },
            {
              "internalType": "bool",
              "name": "booked",
              "type": "bool"
            },
            {
              "internalType": "bool",
              "name": "deleted",
              "type": "bool"
            },
            {
              "internalType": "uint256",
              "name": "timestamp",
              "type": "uint256"
            }
          ],
          "internalType": "struct TravelnCrypto.Apartment[]",
          "name": "Apartments",
          "type": "tuple[]"
        }
      ],
      "stateMutability": "view",
      "type": "function"
    },
    {
      "inputs": [
        {
          "internalType": "uint256",
          "name": "apartment_id",
          "type": "uint256"
        }
      ],
      "name": "getAllBookings",
      "outputs": [
        {
          "components": [
            {
              "internalType": "uint256",
              "name": "id",
              "type": "uint256"
            },
            {
              "internalType": "uint256",
              "name": "apartment_id",
              "type": "uint256"
            },
            {
              "internalType": "address",
              "name": "tenant",
              "type": "address"
            },
            {
              "internalType": "uint256",
              "name": "date",
              "type": "uint256"
            },
            {
              "internalType": "uint256",
              "name": "price",
              "type": "uint256"
            },
            {
              "internalType": "bool",
              "name": "checked",
              "type": "bool"
            },
            {
              "internalType": "bool",
              "name": "cancelled",
              "type": "bool"
            }
          ],
          "internalType": "struct TravelnCrypto.Booking[]",
          "name": "",
          "type": "tuple[]"
        }
      ],
      "stateMutability": "view",
      "type": "function"
    },
    {
      "inputs": [
        {
          "internalType": "uint256",
          "name": "id",
          "type": "uint256"
        }
      ],
      "name": "getApartment",
      "outputs": [
        {
          "components": [
            {
              "internalType": "uint256",
              "name": "id",
              "type": "uint256"
            },
            {
              "internalType": "string",
              "name": "name",
              "type": "string"
            },
            {
              "internalType": "string",
              "name": "description",
              "type": "string"
            },
            {
              "internalType": "string",
              "name": "location",
              "type": "string"
            },
            {
              "internalType": "string",
              "name": "images",
              "type": "string"
            },
            {
              "internalType": "uint256",
              "name": "rooms",
              "type": "uint256"
            },
            {
              "internalType": "uint256",
              "name": "price",
              "type": "uint256"
            },
            {
              "internalType": "address",
              "name": "owner",
              "type": "address"
            },
            {
              "internalType": "bool",
              "name": "booked",
              "type": "bool"
            },
            {
              "internalType": "bool",
              "name": "deleted",
              "type": "bool"
            },
            {
              "internalType": "uint256",
              "name": "timestamp",
              "type": "uint256"
            }
          ],
          "internalType": "struct TravelnCrypto.Apartment",
          "name": "",
          "type": "tuple"
        }
      ],
      "stateMutability": "view",
      "type": "function"
    },
    {
      "inputs": [
        {
          "internalType": "uint256",
          "name": "apartment_id",
          "type": "uint256"
        },
        {
          "internalType": "uint256",
          "name": "booking_id",
          "type": "uint256"
        }
      ],
      "name": "getBooking",
      "outputs": [
        {
          "components": [
            {
              "internalType": "uint256",
              "name": "id",
              "type": "uint256"
            },
            {
              "internalType": "uint256",
              "name": "apartment_id",
              "type": "uint256"
            },
            {
              "internalType": "address",
              "name": "tenant",
              "type": "address"
            },
            {
              "internalType": "uint256",
              "name": "date",
              "type": "uint256"
            },
            {
              "internalType": "uint256",
              "name": "price",
              "type": "uint256"
            },
            {
              "internalType": "bool",
              "name": "checked",
              "type": "bool"
            },
            {
              "internalType": "bool",
              "name": "cancelled",
              "type": "bool"
            }
          ],
          "internalType": "struct TravelnCrypto.Booking",
          "name": "",
          "type": "tuple"
        }
      ],
      "stateMutability": "view",
      "type": "function"
    },
    {
      "inputs": [
        {
          "internalType": "uint256",
          "name": "apartment_id",
          "type": "uint256"
        }
      ],
      "name": "getQualifiedReviewers",
      "outputs": [
        {
          "internalType": "address[]",
          "name": "Tenants",
          "type": "address[]"
        }
      ],
      "stateMutability": "view",
      "type": "function"
    },
    {
      "inputs": [
        {
          "internalType": "uint256",
          "name": "apartment_id",
          "type": "uint256"
        }
      ],
      "name": "getReviews",
      "outputs": [
        {
          "components": [
            {
              "internalType": "uint256",
              "name": "id",
              "type": "uint256"
            },
            {
              "internalType": "uint256",
              "name": "apartment_id",
              "type": "uint256"
            },
            {
              "internalType": "string",
              "name": "reviewText",
              "type": "string"
            },
            {
              "internalType": "uint256",
              "name": "timestamp",
              "type": "uint256"
            },
            {
              "internalType": "address",
              "name": "owner",
              "type": "address"
            }
          ],
          "internalType": "struct TravelnCrypto.Review[]",
          "name": "",
          "type": "tuple[]"
        }
      ],
      "stateMutability": "view",
      "type": "function"
    },
    {
      "inputs": [
        {
          "internalType": "uint256",
          "name": "apartment_id",
          "type": "uint256"
        }
      ],
      "name": "getUnavailableDates",
      "outputs": [
        {
          "internalType": "uint256[]",
          "name": "",
          "type": "uint256[]"
        }
      ],
      "stateMutability": "view",
      "type": "function"
    },
    {
      "inputs": [],
      "name": "owner",
      "outputs": [
        {
          "internalType": "address",
          "name": "",
          "type": "address"
        }
      ],
      "stateMutability": "view",
      "type": "function"
    },
    {
      "inputs": [
        {
          "internalType": "uint256",
          "name": "apartment_id",
          "type": "uint256"
        },
        {
          "internalType": "uint256",
          "name": "booking_id",
          "type": "uint256"
        }
      ],
      "name": "refundBooking",
      "outputs": [],
      "stateMutability": "nonpayable",
      "type": "function"
    },
    {
      "inputs": [],
      "name": "renounceOwnership",
      "outputs": [],
      "stateMutability": "nonpayable",
      "type": "function"
    },
    {
      "inputs": [],
      "name": "securityFee",
      "outputs": [
        {
          "internalType": "uint256",
          "name": "",
          "type": "uint256"
        }
      ],
      "stateMutability": "view",
      "type": "function"
    },
    {
      "inputs": [],
      "name": "taxPercent",
      "outputs": [
        {
          "internalType": "uint256",
          "name": "",
          "type": "uint256"
        }
      ],
      "stateMutability": "view",
      "type": "function"
    },
    {
      "inputs": [
        {
          "internalType": "uint256",
          "name": "apartment_id",
          "type": "uint256"
        }
      ],
      "name": "tenantBooked",
      "outputs": [
        {
          "internalType": "bool",
          "name": "",
          "type": "bool"
        }
      ],
      "stateMutability": "view",
      "type": "function"
    },
    {
      "inputs": [
        {
          "internalType": "address",
          "name": "newOwner",
          "type": "address"
        }
      ],
      "name": "transferOwnership",
      "outputs": [],
      "stateMutability": "nonpayable",
      "type": "function"
    },
    {
      "inputs": [
        {
          "internalType": "uint256",
          "name": "id",
          "type": "uint256"
        },
        {
          "internalType": "string",
          "name": "name",
          "type": "string"
        },
        {
          "internalType": "string",
          "name": "description",
          "type": "string"
        },
        {
          "internalType": "string",
          "name": "location",
          "type": "string"
        },
        {
          "internalType": "string",
          "name": "images",
          "type": "string"
        },
        {
          "internalType": "uint256",
          "name": "rooms",
          "type": "uint256"
        },
        {
          "internalType": "uint256",
          "name": "price",
          "type": "uint256"
        }
      ],
      "name": "updateApartment",
      "outputs": [],
      "stateMutability": "nonpayable",
      "type": "function"
    }
  ],
  "bytecode": "0x60806040523480156200001157600080fd5b5060405162003672380380620036728339810160408190526200003491620000a2565b6200003f3362000052565b60018055600491909155600355620000c7565b600080546001600160a01b038381166001600160a01b0319831681178455604051919092169283917f8be0079c531659141344cd1fd0a4f28419497f9722a3daafe3b4186f6b6457e09190a35050565b60008060408385031215620000b657600080fd5b505080516020909101519092909150565b61359b80620000d76000396000f3fe60806040526004361061012a5760003560e01c80638da5cb5b116100ab578063c788d6de1161006f578063c788d6de14610389578063d68e1302146103a9578063db2f80b7146103bf578063df6e0222146103ec578063f2fde38b146103ff578063f516f88e1461041f57600080fd5b80638da5cb5b1461028f5780639d4a2255146102b75780639f31a2be146102e4578063b5efcf041461032f578063c4452e061461035c57600080fd5b806355c3fbfb116100f257806355c3fbfb146101f65780635bb0c5d61461021657806367626e5d14610236578063715018a6146102565780637541f41c1461026b57600080fd5b8063010b58ee1461012f5780630397eee0146101515780630bb9ce331461017c57806327c71c73146101a9578063455b3070146101c9575b600080fd5b34801561013b57600080fd5b5061014f61014a366004612c76565b61043f565b005b34801561015d57600080fd5b5061016661076a565b6040516101739190612dab565b60405180910390f35b34801561018857600080fd5b5061019c610197366004612e0d565b610b45565b6040516101739190612e26565b3480156101b557600080fd5b5061014f6101c4366004612f2a565b610cee565b3480156101d557600080fd5b506101e96101e4366004612c76565b61135c565b6040516101739190613042565b34801561020257600080fd5b5061014f610211366004612e0d565b611400565b34801561022257600080fd5b5061014f610231366004613050565b6114ee565b34801561024257600080fd5b5061014f610251366004612c76565b611716565b34801561026257600080fd5b5061014f611b3b565b34801561027757600080fd5b5061028160045481565b604051908152602001610173565b34801561029b57600080fd5b506000546040516001600160a01b039091168152602001610173565b3480156102c357600080fd5b506102d76102d2366004612e0d565b611b4f565b6040516101739190613097565b3480156102f057600080fd5b5061031f6102ff366004612e0d565b336000908152600a60209081526040808320938352929052205460ff1690565b6040519015158152602001610173565b34801561033b57600080fd5b5061034f61034a366004612e0d565b611c8a565b6040516101739190613135565b34801561036857600080fd5b5061037c610377366004612e0d565b611d45565b6040516101739190613177565b34801561039557600080fd5b5061014f6103a4366004613191565b612019565b3480156103b557600080fd5b5061028160035481565b3480156103cb57600080fd5b506103df6103da366004612e0d565b61233e565b6040516101739190613250565b61014f6103fa366004613288565b6123a0565b34801561040b57600080fd5b5061014f61041a36600461333a565b6126b6565b34801561042b57600080fd5b5061014f61043a366004612c76565b61272f565b600082815260066020526040812080548390811061045f5761045f613363565b600091825260208083206040805160e08101825260069094029091018054845260018101548484015260028101546001600160a01b0390811685840152600382015460608601526004820154608086015260059182015460ff808216151560a088015261010090910416151560c086015288865292529092206007015490925033911614806104f857506000546001600160a01b031633145b61058e5760405162461bcd60e51b815260206004820152605660248201527f4572726f723a20596f7520617265206e6f7420617574686f72697a656420746f60448201527f20636c61696d20616e792066756e64732e20496620746869732069732061206d6064820152751a5cdd185ad94818dbdb9d1858dd081cdd5c1c1bdc9d60521b608482015260a4015b60405180910390fd5b60008381526006602052604090208054839081106105ae576105ae613363565b600091825260209091206005600690920201015460ff16156106445760405162461bcd60e51b815260206004820152604360248201527f41706172746d656e7420697320616c726561647920636865636b656420496e2060448201527f6f6e20746869732064617465206e6f206e65656420746f20636c61696d2066756064820152626e647360e81b608482015260a401610585565b61064c61299f565b8160600151106106bb5760405162461bcd60e51b815260206004820152603460248201527f4e6f7420616c6c6f77656420746f20636c61696d2066756e6473206265666f72604482015273652074686520626f6f6b696e672064617465212160601b6064820152608401610585565b60008381526006602052604081208054849081106106db576106db613363565b90600052602060002090600602016004015490506000606460045483610701919061338f565b61070b91906133a6565b60008681526005602052604090206007015490915061073c906001600160a01b031661073783856133c8565b6129be565b6107576107516000546001600160a01b031690565b826129be565b610763336003546129be565b5050505050565b6060600060015b60025481116107ba57600081815260056020526040902060070154600160a81b900460ff166107a857816107a4816133db565b9250505b806107b2816133db565b915050610771565b508067ffffffffffffffff8111156107d4576107d4612e73565b60405190808252806020026020018201604052801561080d57816020015b6107fa612bc5565b8152602001906001900390816107f25790505b509150600060015b6002548111610b3f57600081815260056020526040902060070154600160a81b900460ff16610b2d57600560008281526020019081526020016000206040518061016001604052908160008201548152602001600182018054610877906133f4565b80601f01602080910402602001604051908101604052809291908181526020018280546108a3906133f4565b80156108f05780601f106108c5576101008083540402835291602001916108f0565b820191906000526020600020905b8154815290600101906020018083116108d357829003601f168201915b50505050508152602001600282018054610909906133f4565b80601f0160208091040260200160405190810160405280929190818152602001828054610935906133f4565b80156109825780601f1061095757610100808354040283529160200191610982565b820191906000526020600020905b81548152906001019060200180831161096557829003601f168201915b5050505050815260200160038201805461099b906133f4565b80601f01602080910402602001604051908101604052809291908181526020018280546109c7906133f4565b8015610a145780601f106109e957610100808354040283529160200191610a14565b820191906000526020600020905b8154815290600101906020018083116109f757829003601f168201915b50505050508152602001600482018054610a2d906133f4565b80601f0160208091040260200160405190810160405280929190818152602001828054610a59906133f4565b8015610aa65780601f10610a7b57610100808354040283529160200191610aa6565b820191906000526020600020905b815481529060010190602001808311610a8957829003601f168201915b5050509183525050600582015460208201526006820154604082015260078201546001600160a01b038116606083015260ff600160a01b8204811615156080840152600160a81b90910416151560a082015260089091015460c0909101528483610b0f816133db565b945081518110610b2157610b21613363565b60200260200101819052505b80610b37816133db565b915050610815565b50505090565b60606000805b600084815260066020526040902054811015610bbd576000848152600660205260409020805482908110610b8157610b81613363565b600091825260209091206005600690920201015460ff1615610bab5781610ba7816133db565b9250505b80610bb5816133db565b915050610b4b565b508067ffffffffffffffff811115610bd757610bd7612e73565b604051908082528060200260200182016040528015610c00578160200160208202803683370190505b5091506000805b600085815260066020526040902054811015610ce6576000858152600660205260409020805482908110610c3d57610c3d613363565b600091825260209091206005600690920201015460ff1615610cd4576000858152600660205260409020805482908110610c7957610c79613363565b60009182526020909120600260069092020101546001600160a01b03168483610ca1816133db565b945081518110610cb357610cb3613363565b60200260200101906001600160a01b031690816001600160a01b0316815250505b80610cde816133db565b915050610c07565b505050919050565b6000878152600b602052604090205460ff161515600114610d485760405162461bcd60e51b8152602060048201526014602482015273105c1c185c9d1b595b9d081b9bdd08199bdd5b9960621b6044820152606401610585565b6000878152600560205260409020600701546001600160a01b03163314610dbc5760405162461bcd60e51b815260206004820152602260248201527f556e617574686f72697a656420706572736f6e6e656c2c206f776e6572206f6e6044820152616c7960f01b6064820152608401610585565b6000865111610e045760405162461bcd60e51b81526020600482015260146024820152734e616d652063616e6e6f7420626520656d70747960601b6044820152606401610585565b6000855111610e555760405162461bcd60e51b815260206004820152601b60248201527f4465736372697074696f6e2063616e6e6f7420626520656d70747900000000006044820152606401610585565b6000845111610ea15760405162461bcd60e51b81526020600482015260186024820152774c6f636174696f6e2063616e6e6f7420626520656d70747960401b6044820152606401610585565b6000835111610eeb5760405162461bcd60e51b8152602060048201526016602482015275496d616765732063616e6e6f7420626520656d70747960501b6044820152606401610585565b60008211610f325760405162461bcd60e51b8152602060048201526014602482015273526f6f6d732063616e6e6f74206265207a65726f60601b6044820152606401610585565b60008111610f795760405162461bcd60e51b815260206004820152601460248201527350726963652063616e6e6f74206265207a65726f60601b6044820152606401610585565b6000600560008981526020019081526020016000206040518061016001604052908160008201548152602001600182018054610fb4906133f4565b80601f0160208091040260200160405190810160405280929190818152602001828054610fe0906133f4565b801561102d5780601f106110025761010080835404028352916020019161102d565b820191906000526020600020905b81548152906001019060200180831161101057829003601f168201915b50505050508152602001600282018054611046906133f4565b80601f0160208091040260200160405190810160405280929190818152602001828054611072906133f4565b80156110bf5780601f10611094576101008083540402835291602001916110bf565b820191906000526020600020905b8154815290600101906020018083116110a257829003601f168201915b505050505081526020016003820180546110d8906133f4565b80601f0160208091040260200160405190810160405280929190818152602001828054611104906133f4565b80156111515780601f1061112657610100808354040283529160200191611151565b820191906000526020600020905b81548152906001019060200180831161113457829003601f168201915b5050505050815260200160048201805461116a906133f4565b80601f0160208091040260200160405190810160405280929190818152602001828054611196906133f4565b80156111e35780601f106111b8576101008083540402835291602001916111e3565b820191906000526020600020905b8154815290600101906020018083116111c657829003601f168201915b5050509183525050600582810154602080840191909152600684015460408085019190915260078501546001600160a01b03811660608087019190915260ff600160a01b830481161515608080890191909152600160a81b90930416151560a08088019190915260089097015460c0968701528784018f81528884018f90529088018d90529087018b905294860189905292850187905260008d8152919052208251815590519192508291600182019061129d908261347c565b50604082015160028201906112b2908261347c565b50606082015160038201906112c7908261347c565b50608082015160048201906112dc908261347c565b5060a0820151600582015560c0820151600682015560e08201516007820180546101008501516101208601511515600160a81b0260ff60a81b19911515600160a01b026001600160a81b03199093166001600160a01b03909516949094179190911716919091179055610140909101516008909101555050505050505050565b611364612c2c565b600083815260066020526040902080548390811061138457611384613363565b60009182526020918290206040805160e08101825260069093029091018054835260018101549383019390935260028301546001600160a01b031690820152600382015460608201526004820154608082015260059091015460ff808216151560a084015261010090910416151560c082015290505b92915050565b6000818152600b602052604090205460ff1615156001146114595760405162461bcd60e51b8152602060048201526013602482015272105c185c9d1b595b9d081b9bdd08199bdd5b99606a1b6044820152606401610585565b6000818152600560205260409020600701546001600160a01b031633146114b85760405162461bcd60e51b8152602060048201526013602482015272556e617574686f72697a656420656e7469747960681b6044820152606401610585565b6000908152600b60209081526040808320805460ff1916905560059091529020600701805460ff60a81b1916600160a81b179055565b6000828152600b602052604090205460ff1661154c5760405162461bcd60e51b815260206004820152601a60248201527f41706172746d656e74206973206e6f7420617661696c61626c650000000000006044820152606401610585565b336000908152600a6020908152604080832085845290915290205460ff166115c85760405162461bcd60e51b815260206004820152602960248201527f4d75737420626f6f6b2061706172746d656e74206265666f726520796f752063604482015268616e2072657669657760b81b6064820152608401610585565b60008151116116245760405162461bcd60e51b815260206004820152602260248201527f596f752063616e6e6f74206c6561766520616e20656d70747920726576696577604482015261212160f01b6064820152608401610585565b61165f6040518060a001604052806000815260200160008152602001606081526020016000815260200160006001600160a01b031681525090565b602080820184905260008481526007909152604090819020548252810182905261168761299f565b60608201523360808201526000838152600760209081526040808320805460018181018355918552938390208551600590950201938455918401519183019190915582015182919060028201906116de908261347c565b5060608201516003820155608090910151600490910180546001600160a01b0319166001600160a01b03909216919091179055505050565b61171e612a1e565b600082815260066020526040812080548390811061173e5761173e613363565b60009182526020918290206040805160e08101825260069093029091018054835260018101549383019390935260028301546001600160a01b031690820152600382015460608201526004820154608082015260059091015460ff80821615801560a085015261010090920416151560c08301529091506118115760405162461bcd60e51b815260206004820152602760248201527f43616e6e6f7420726566756e64206166746572206265696e6720636865636b656044820152666420494e21212160c81b6064820152608401610585565b60008381526009602090815260408083206060850151845290915290205460ff1661187e5760405162461bcd60e51b815260206004820181905260248201527f596f7520646964206e6f7420626f6f6b20666f722074686973206461746521216044820152606401610585565b6000546001600160a01b031633146119895780604001516001600160a01b0316336001600160a01b0316146119095760405162461bcd60e51b815260206004820152602b60248201527f4572726f723a20596f7520617265206e6f742061737369676e656420746f207460448201526a68697320626f6f6b696e6760a81b6064820152608401610585565b61191161299f565b8160600151116119895760405162461bcd60e51b815260206004820152603e60248201527f4572726f723a2054686520626f6f6b696e6720646174652068617320616c726560448201527f616479207061737365642c20796f752063616e6e6f7420726566756e642e00006064820152608401610585565b6000838152600660205260409020805460019190849081106119ad576119ad613363565b6000918252602080832060056006909302019190910180549315156101000261ff001990941693909317909255848152600982526040808220606085015183528352808220805460ff19169055858252600890925290812054611a12906001906133c8565b60008581526008602052604081208054929350909183908110611a3757611a37613363565b9060005260206000200154905080600860008781526020019081526020016000208581548110611a6957611a69613363565b906000526020600020018190555060086000868152602001908152602001600020805480611a9957611a9961353c565b60019003818190600052602060002001600090559055600060646003548560800151611ac5919061338f565b611acf91906133a6565b90506000611ade6002836133a6565b600088815260056020526040902060070154909150611b06906001600160a01b0316826129be565b611b1b6107516000546001600160a01b031690565b611b293386608001516129be565b5050505050611b3760018055565b5050565b611b43612a77565b611b4d6000612ad1565b565b606060076000838152602001908152602001600020805480602002602001604051908101604052809291908181526020016000905b82821015611c7f57838290600052602060002090600502016040518060a00160405290816000820154815260200160018201548152602001600282018054611bcb906133f4565b80601f0160208091040260200160405190810160405280929190818152602001828054611bf7906133f4565b8015611c445780601f10611c1957610100808354040283529160200191611c44565b820191906000526020600020905b815481529060010190602001808311611c2757829003601f168201915b505050918352505060038201546020808301919091526004909201546001600160a01b03166040909101529082526001929092019101611b84565b505050509050919050565b606060066000838152602001908152602001600020805480602002602001604051908101604052809291908181526020016000905b82821015611c7f5760008481526020908190206040805160e08101825260068602909201805483526001808201548486015260028201546001600160a01b03169284019290925260038101546060840152600481015460808401526005015460ff808216151560a085015261010090910416151560c08301529083529092019101611cbf565b611d4d612bc5565b600560008381526020019081526020016000206040518061016001604052908160008201548152602001600182018054611d86906133f4565b80601f0160208091040260200160405190810160405280929190818152602001828054611db2906133f4565b8015611dff5780601f10611dd457610100808354040283529160200191611dff565b820191906000526020600020905b815481529060010190602001808311611de257829003601f168201915b50505050508152602001600282018054611e18906133f4565b80601f0160208091040260200160405190810160405280929190818152602001828054611e44906133f4565b8015611e915780601f10611e6657610100808354040283529160200191611e91565b820191906000526020600020905b815481529060010190602001808311611e7457829003601f168201915b50505050508152602001600382018054611eaa906133f4565b80601f0160208091040260200160405190810160405280929190818152602001828054611ed6906133f4565b8015611f235780601f10611ef857610100808354040283529160200191611f23565b820191906000526020600020905b815481529060010190602001808311611f0657829003601f168201915b50505050508152602001600482018054611f3c906133f4565b80601f0160208091040260200160405190810160405280929190818152602001828054611f68906133f4565b8015611fb55780601f10611f8a57610100808354040283529160200191611fb5565b820191906000526020600020905b815481529060010190602001808311611f9857829003601f168201915b5050509183525050600582015460208201526006820154604082015260078201546001600160a01b038116606083015260ff600160a01b8204811615156080840152600160a81b90910416151560a082015260089091015460c09091015292915050565b60008651116120615760405162461bcd60e51b81526020600482015260146024820152734e616d652063616e6e6f7420626520656d70747960601b6044820152606401610585565b60008551116120b25760405162461bcd60e51b815260206004820152601b60248201527f4465736372697074696f6e2063616e6e6f7420626520656d70747900000000006044820152606401610585565b60008451116120fe5760405162461bcd60e51b81526020600482015260186024820152774c6f636174696f6e2063616e6e6f7420626520656d70747960401b6044820152606401610585565b60008351116121485760405162461bcd60e51b8152602060048201526016602482015275496d616765732063616e6e6f7420626520656d70747960501b6044820152606401610585565b6000821161218f5760405162461bcd60e51b8152602060048201526014602482015273526f6f6d732063616e6e6f74206265207a65726f60601b6044820152606401610585565b600081116121d65760405162461bcd60e51b815260206004820152601460248201527350726963652063616e6e6f74206265207a65726f60601b6044820152606401610585565b6121e4600280546001019055565b6121ec612bc5565b60025481526020810187905260408101869052606081018590526080810184905260a0810183905260c081018290523360e082015261222961299f565b61014082015280516000908152600b60205260408120805460ff19166001179055819060059061225860025490565b815260208082019290925260400160002082518155908201516001820190612280908261347c565b5060408201516002820190612295908261347c565b50606082015160038201906122aa908261347c565b50608082015160048201906122bf908261347c565b5060a0820151600582015560c0820151600682015560e08201516007820180546101008501516101208601511515600160a81b0260ff60a81b19911515600160a01b026001600160a81b03199093166001600160a01b039095169490941791909117169190911790556101409091015160089091015550505050505050565b60008181526008602090815260409182902080548351818402810184019094528084526060939283018282801561239457602002820191906000526020600020905b815481526020019060010190808311612380575b50505050509050919050565b6000828152600b602052604090205460ff166123fe5760405162461bcd60e51b815260206004820181905260248201527f4572726f723a2041706172746d656e742063616e6e6f7420626520666f756e646044820152606401610585565b6003548151600084815260056020526040902060060154606492916124229161338f565b61242c919061338f565b61243691906133a6565b8151600084815260056020526040902060060154612454919061338f565b61245e9190613552565b3410156124a15760405162461bcd60e51b8152602060048201526011602482015270496e737566666963656e742066756e642160781b6044820152606401610585565b6124ab8282612b21565b6125055760405162461bcd60e51b815260206004820152602560248201527f4572726f723a2054686973204461746520697320616c726561647920626f6f6b604482015264032b21090960dd1b6064820152608401610585565b60005b81518110156126b157612519612c2c565b6020808201859052600085815260069091526040908190205482523390820152825183908390811061254d5761254d613363565b60209081029190910181015160608301908152600086815260058084526040808320600690810154608088019081528a85528187528285208054600181810183559187528887208a51919094029093019283558888015183820155838901516002840180546001600160a01b039092166001600160a01b03199092169190911790559551600383015551600482015560a08701519201805460c088015115156101000261ff00199415159490941661ffff199091161792909217909155878252600990935291822085519192909186908690811061262d5761262d613363565b6020026020010151815260200190815260200160002060006101000a81548160ff0219169083151502179055506008600085815260200190815260200160002083838151811061267f5761267f613363565b6020908102919091018101518254600181018455600093845291909220015550806126a9816133db565b915050612508565b505050565b6126be612a77565b6001600160a01b0381166127235760405162461bcd60e51b815260206004820152602660248201527f4f776e61626c653a206e6577206f776e657220697320746865207a65726f206160448201526564647265737360d01b6064820152608401610585565b61272c81612ad1565b50565b600082815260066020526040812080548390811061274f5761274f613363565b60009182526020918290206040805160e08101825260069093029091018054835260018101549383019390935260028301546001600160a01b0316908201819052600383015460608301526004830154608083015260059092015460ff808216151560a084015261010090910416151560c0820152915033146128145760405162461bcd60e51b815260206004820152601c60248201527f4572726f723a20556e617574686f72697a65642074656e616e742121000000006044820152606401610585565b8060a001511561289f5760405162461bcd60e51b815260206004820152604a60248201527f41706172746d656e7420616c726561647920636865636b656420666f7220746860448201527f6973206461746520446f75626c6520636865636b696e67206973206e6f74207060648201526972656d6974746564212160b01b608482015260a401610585565b6000838152600660205260409020805460019190849081106128c3576128c3613363565b60009182526020822060069190910201600501805460ff19169215159290921790915560045460808301516064916128fa9161338f565b61290491906133a6565b905060006064600354846080015161291c919061338f565b61292691906133a6565b336000908152600a602090815260408083208984528252808320805460ff191660011790556005909152902060070154608085015191925061297a916001600160a01b0391909116906107379085906133c8565b61299561298f6000546001600160a01b031690565b836129be565b61076333826129be565b60006129ad426103e861338f565b6129b9906103e8613552565b905090565b6000826001600160a01b03168260405160006040518083038185875af1925050503d8060008114612a0b576040519150601f19603f3d011682016040523d82523d6000602084013e612a10565b606091505b50509050806126b157600080fd5b600260015403612a705760405162461bcd60e51b815260206004820152601f60248201527f5265656e7472616e637947756172643a207265656e7472616e742063616c6c006044820152606401610585565b6002600155565b6000546001600160a01b03163314611b4d5760405162461bcd60e51b815260206004820181905260248201527f4f776e61626c653a2063616c6c6572206973206e6f7420746865206f776e65726044820152606401610585565b600080546001600160a01b038381166001600160a01b0319831681178455604051919092169283917f8be0079c531659141344cd1fd0a4f28419497f9722a3daafe3b4186f6b6457e09190a35050565b60006001815b8351811015612bbd5760005b600086815260086020526040902054811015612baa576000868152600860205260409020805482908110612b6957612b69613363565b9060005260206000200154858381518110612b8657612b86613363565b602002602001015103612b9857600092505b80612ba2816133db565b915050612b33565b5080612bb5816133db565b915050612b27565b509392505050565b6040518061016001604052806000815260200160608152602001606081526020016060815260200160608152602001600081526020016000815260200160006001600160a01b03168152602001600015158152602001600015158152602001600081525090565b6040518060e00160405280600081526020016000815260200160006001600160a01b0316815260200160008152602001600081526020016000151581526020016000151581525090565b60008060408385031215612c8957600080fd5b50508035926020909101359150565b6000815180845260005b81811015612cbe57602081850181015186830182015201612ca2565b506000602082860101526020601f19601f83011685010191505092915050565b6000610160825184526020830151816020860152612cfe82860182612c98565b91505060408301518482036040860152612d188282612c98565b91505060608301518482036060860152612d328282612c98565b91505060808301518482036080860152612d4c8282612c98565b91505060a083015160a085015260c083015160c085015260e0830151612d7d60e08601826001600160a01b03169052565b5061010083810151151590850152610120808401511515908501526101409283015192909301919091525090565b6000602080830181845280855180835260408601915060408160051b870101925083870160005b82811015612e0057603f19888603018452612dee858351612cde565b94509285019290850190600101612dd2565b5092979650505050505050565b600060208284031215612e1f57600080fd5b5035919050565b6020808252825182820181905260009190848201906040850190845b81811015612e675783516001600160a01b031683529284019291840191600101612e42565b50909695505050505050565b634e487b7160e01b600052604160045260246000fd5b604051601f8201601f1916810167ffffffffffffffff81118282101715612eb257612eb2612e73565b604052919050565b600082601f830112612ecb57600080fd5b813567ffffffffffffffff811115612ee557612ee5612e73565b612ef8601f8201601f1916602001612e89565b818152846020838601011115612f0d57600080fd5b816020850160208301376000918101602001919091529392505050565b600080600080600080600060e0888a031215612f4557600080fd5b87359650602088013567ffffffffffffffff80821115612f6457600080fd5b612f708b838c01612eba565b975060408a0135915080821115612f8657600080fd5b612f928b838c01612eba565b965060608a0135915080821115612fa857600080fd5b612fb48b838c01612eba565b955060808a0135915080821115612fca57600080fd5b50612fd78a828b01612eba565b93505060a0880135915060c0880135905092959891949750929550565b80518252602080820151908301526040808201516001600160a01b031690830152606080820151908301526080808201519083015260a08082015115159083015260c0908101511515910152565b60e081016113fa8284612ff4565b6000806040838503121561306357600080fd5b82359150602083013567ffffffffffffffff81111561308157600080fd5b61308d85828601612eba565b9150509250929050565b60006020808301818452808551808352604092508286019150828160051b87010184880160005b8381101561312757603f19898403018552815160a08151855288820151898601528782015181898701526130f482870182612c98565b606084810151908801526080938401516001600160a01b03169390960192909252505093860193908601906001016130be565b509098975050505050505050565b6020808252825182820181905260009190848201906040850190845b81811015612e6757613164838551612ff4565b9284019260e09290920191600101613151565b60208152600061318a6020830184612cde565b9392505050565b60008060008060008060c087890312156131aa57600080fd5b863567ffffffffffffffff808211156131c257600080fd5b6131ce8a838b01612eba565b975060208901359150808211156131e457600080fd5b6131f08a838b01612eba565b9650604089013591508082111561320657600080fd5b6132128a838b01612eba565b9550606089013591508082111561322857600080fd5b5061323589828a01612eba565b9350506080870135915060a087013590509295509295509295565b6020808252825182820181905260009190848201906040850190845b81811015612e675783518352928401929184019160010161326c565b6000806040838503121561329b57600080fd5b8235915060208084013567ffffffffffffffff808211156132bb57600080fd5b818601915086601f8301126132cf57600080fd5b8135818111156132e1576132e1612e73565b8060051b91506132f2848301612e89565b818152918301840191848101908984111561330c57600080fd5b938501935b8385101561332a57843582529385019390850190613311565b8096505050505050509250929050565b60006020828403121561334c57600080fd5b81356001600160a01b038116811461318a57600080fd5b634e487b7160e01b600052603260045260246000fd5b634e487b7160e01b600052601160045260246000fd5b80820281158282048414176113fa576113fa613379565b6000826133c357634e487b7160e01b600052601260045260246000fd5b500490565b818103818111156113fa576113fa613379565b6000600182016133ed576133ed613379565b5060010190565b600181811c9082168061340857607f821691505b60208210810361342857634e487b7160e01b600052602260045260246000fd5b50919050565b601f8211156126b157600081815260208120601f850160051c810160208610156134555750805b601f850160051c820191505b8181101561347457828155600101613461565b505050505050565b815167ffffffffffffffff81111561349657613496612e73565b6134aa816134a484546133f4565b8461342e565b602080601f8311600181146134df57600084156134c75750858301515b600019600386901b1c1916600185901b178555613474565b600085815260208120601f198616915b8281101561350e578886015182559484019460019091019084016134ef565b508582101561352c5787850151600019600388901b60f8161c191681555b5050505050600190811b01905550565b634e487b7160e01b600052603160045260246000fd5b808201808211156113fa576113fa61337956fea264697066735822122083d6fdfcc49ddbf88d89b0dde5df160238be33ff427bf6cc13758c0569f28ef364736f6c63430008130033",
  "linkReferences": {},
  "deployedLinkReferences": {}
}