{
  "_format": "hh-sol-artifact-1",
  "contractName": "TravelnCrypto",
  "sourceName": "contracts/TravelnCrypto.sol",
  "abi": [
    {
      "inputs": [
        {
          "internalType": "uint256",
          "name": "_taxPercent",
          "type": "uint256"
        },
        {
          "internalType": "uint256",
          "name": "_securityFee",
          "type": "uint256"
        }
      ],
      "stateMutability": "nonpayable",
      "type": "constructor"
    },
    {
      "anonymous": false,
      "inputs": [
        {
          "indexed": true,
          "internalType": "address",
          "name": "previousOwner",
          "type": "address"
        },
        {
          "indexed": true,
          "internalType": "address",
          "name": "newOwner",
          "type": "address"
        }
      ],
      "name": "OwnershipTransferred",
      "type": "event"
    },
    {
      "inputs": [
        {
          "internalType": "uint256",
          "name": "apartment_id",
          "type": "uint256"
        },
        {
          "internalType": "string",
          "name": "message",
          "type": "string"
        }
      ],
      "name": "addReview",
      "outputs": [],
      "stateMutability": "nonpayable",
      "type": "function"
    },
    {
      "inputs": [
        {
          "internalType": "uint256",
          "name": "apartment_id",
          "type": "uint256"
        },
        {
          "internalType": "uint256[]",
          "name": "dates",
          "type": "uint256[]"
        },
        {
          "internalType": "uint256[]",
          "name": "resale_dates",
          "type": "uint256[]"
        }
      ],
      "name": "bookApartment",
      "outputs": [],
      "stateMutability": "payable",
      "type": "function"
    },
    {
      "inputs": [
        {
          "internalType": "uint256",
          "name": "apartment_id",
          "type": "uint256"
        },
        {
          "internalType": "uint256",
          "name": "booking_id",
          "type": "uint256"
        }
      ],
      "name": "checkIn",
      "outputs": [],
      "stateMutability": "nonpayable",
      "type": "function"
    },
    {
      "inputs": [
        {
          "internalType": "uint256",
          "name": "apartment_id",
          "type": "uint256"
        },
        {
          "internalType": "uint256",
          "name": "booking_id",
          "type": "uint256"
        }
      ],
      "name": "claimFunds",
      "outputs": [],
      "stateMutability": "nonpayable",
      "type": "function"
    },
    {
      "inputs": [
        {
          "internalType": "string",
          "name": "name",
          "type": "string"
        },
        {
          "internalType": "string",
          "name": "description",
          "type": "string"
        },
        {
          "internalType": "string",
          "name": "location",
          "type": "string"
        },
        {
          "internalType": "string",
          "name": "images",
          "type": "string"
        },
        {
          "internalType": "uint256",
          "name": "rooms",
          "type": "uint256"
        },
        {
          "internalType": "uint256",
          "name": "price",
          "type": "uint256"
        }
      ],
      "name": "createApartment",
      "outputs": [],
      "stateMutability": "nonpayable",
      "type": "function"
    },
    {
      "inputs": [
        {
          "internalType": "uint256",
          "name": "apartment_id",
          "type": "uint256"
        },
        {
          "internalType": "uint256",
          "name": "newPrice",
          "type": "uint256"
        },
        {
          "internalType": "uint256",
          "name": "booking_id",
          "type": "uint256"
        }
      ],
      "name": "createResale",
      "outputs": [],
      "stateMutability": "nonpayable",
      "type": "function"
    },
    {
      "inputs": [
        {
          "internalType": "uint256",
          "name": "id",
          "type": "uint256"
        }
      ],
      "name": "deleteApartment",
      "outputs": [],
      "stateMutability": "nonpayable",
      "type": "function"
    },
    {
      "inputs": [],
      "name": "ethUsdPriceFeed",
      "outputs": [
        {
          "internalType": "contract AggregatorV3Interface",
          "name": "",
          "type": "address"
        }
      ],
      "stateMutability": "view",
      "type": "function"
    },
    {
      "inputs": [],
      "name": "getAllApartments",
      "outputs": [
        {
          "components": [
            {
              "internalType": "uint256",
              "name": "id",
              "type": "uint256"
            },
            {
              "internalType": "string",
              "name": "name",
              "type": "string"
            },
            {
              "internalType": "string",
              "name": "description",
              "type": "string"
            },
            {
              "internalType": "string",
              "name": "location",
              "type": "string"
            },
            {
              "internalType": "string",
              "name": "images",
              "type": "string"
            },
            {
              "internalType": "uint256",
              "name": "rooms",
              "type": "uint256"
            },
            {
              "internalType": "uint256",
              "name": "price",
              "type": "uint256"
            },
            {
              "internalType": "address",
              "name": "owner",
              "type": "address"
            },
            {
              "internalType": "bool",
              "name": "booked",
              "type": "bool"
            },
            {
              "internalType": "bool",
              "name": "deleted",
              "type": "bool"
            },
            {
              "internalType": "uint256",
              "name": "timestamp",
              "type": "uint256"
            }
          ],
          "internalType": "struct TravelnCrypto.Apartment[]",
          "name": "Apartments",
          "type": "tuple[]"
        }
      ],
      "stateMutability": "view",
      "type": "function"
    },
    {
      "inputs": [
        {
          "internalType": "uint256",
          "name": "apartment_id",
          "type": "uint256"
        }
      ],
      "name": "getAllBookings",
      "outputs": [
        {
          "components": [
            {
              "internalType": "uint256",
              "name": "id",
              "type": "uint256"
            },
            {
              "internalType": "uint256",
              "name": "apartment_id",
              "type": "uint256"
            },
            {
              "internalType": "address",
              "name": "tenant",
              "type": "address"
            },
            {
              "internalType": "address",
              "name": "resale_tenant",
              "type": "address"
            },
            {
              "internalType": "uint256",
              "name": "date",
              "type": "uint256"
            },
            {
              "internalType": "uint256",
              "name": "price",
              "type": "uint256"
            },
            {
              "internalType": "bool",
              "name": "checked",
              "type": "bool"
            },
            {
              "internalType": "bool",
              "name": "cancelled",
              "type": "bool"
            },
            {
              "internalType": "bool",
              "name": "resale",
              "type": "bool"
            },
            {
              "internalType": "bool",
              "name": "booked",
              "type": "bool"
            },
            {
              "internalType": "bool",
              "name": "dateRebooked",
              "type": "bool"
            }
          ],
          "internalType": "struct TravelnCrypto.Booking[]",
          "name": "",
          "type": "tuple[]"
        }
      ],
      "stateMutability": "view",
      "type": "function"
    },
    {
      "inputs": [],
      "name": "getAllResales",
      "outputs": [
        {
          "components": [
            {
              "internalType": "uint256",
              "name": "price",
              "type": "uint256"
            },
            {
              "internalType": "uint256",
              "name": "booking_id",
              "type": "uint256"
            },
            {
              "internalType": "uint256",
              "name": "date",
              "type": "uint256"
            },
            {
              "internalType": "address",
              "name": "reseller",
              "type": "address"
            },
            {
              "internalType": "address",
              "name": "new_tenant",
              "type": "address"
            }
          ],
          "internalType": "struct TravelnCrypto.Resale[]",
          "name": "",
          "type": "tuple[]"
        }
      ],
      "stateMutability": "view",
      "type": "function"
    },
    {
      "inputs": [
        {
          "internalType": "uint256",
          "name": "id",
          "type": "uint256"
        }
      ],
      "name": "getApartment",
      "outputs": [
        {
          "components": [
            {
              "internalType": "uint256",
              "name": "id",
              "type": "uint256"
            },
            {
              "internalType": "string",
              "name": "name",
              "type": "string"
            },
            {
              "internalType": "string",
              "name": "description",
              "type": "string"
            },
            {
              "internalType": "string",
              "name": "location",
              "type": "string"
            },
            {
              "internalType": "string",
              "name": "images",
              "type": "string"
            },
            {
              "internalType": "uint256",
              "name": "rooms",
              "type": "uint256"
            },
            {
              "internalType": "uint256",
              "name": "price",
              "type": "uint256"
            },
            {
              "internalType": "address",
              "name": "owner",
              "type": "address"
            },
            {
              "internalType": "bool",
              "name": "booked",
              "type": "bool"
            },
            {
              "internalType": "bool",
              "name": "deleted",
              "type": "bool"
            },
            {
              "internalType": "uint256",
              "name": "timestamp",
              "type": "uint256"
            }
          ],
          "internalType": "struct TravelnCrypto.Apartment",
          "name": "",
          "type": "tuple"
        }
      ],
      "stateMutability": "view",
      "type": "function"
    },
    {
      "inputs": [
        {
          "internalType": "uint256",
          "name": "apartment_id",
          "type": "uint256"
        },
        {
          "internalType": "uint256",
          "name": "booking_id",
          "type": "uint256"
        }
      ],
      "name": "getBooking",
      "outputs": [
        {
          "components": [
            {
              "internalType": "uint256",
              "name": "id",
              "type": "uint256"
            },
            {
              "internalType": "uint256",
              "name": "apartment_id",
              "type": "uint256"
            },
            {
              "internalType": "address",
              "name": "tenant",
              "type": "address"
            },
            {
              "internalType": "address",
              "name": "resale_tenant",
              "type": "address"
            },
            {
              "internalType": "uint256",
              "name": "date",
              "type": "uint256"
            },
            {
              "internalType": "uint256",
              "name": "price",
              "type": "uint256"
            },
            {
              "internalType": "bool",
              "name": "checked",
              "type": "bool"
            },
            {
              "internalType": "bool",
              "name": "cancelled",
              "type": "bool"
            },
            {
              "internalType": "bool",
              "name": "resale",
              "type": "bool"
            },
            {
              "internalType": "bool",
              "name": "booked",
              "type": "bool"
            },
            {
              "internalType": "bool",
              "name": "dateRebooked",
              "type": "bool"
            }
          ],
          "internalType": "struct TravelnCrypto.Booking",
          "name": "",
          "type": "tuple"
        }
      ],
      "stateMutability": "view",
      "type": "function"
    },
    {
      "inputs": [
        {
          "internalType": "uint256",
          "name": "apartment_id",
          "type": "uint256"
        },
        {
          "internalType": "uint256",
          "name": "date",
          "type": "uint256"
        }
      ],
      "name": "getDisplayPrice",
      "outputs": [
        {
          "internalType": "uint256",
          "name": "",
          "type": "uint256"
        }
      ],
      "stateMutability": "view",
      "type": "function"
    },
    {
      "inputs": [],
      "name": "getPrice",
      "outputs": [
        {
          "internalType": "uint256",
          "name": "",
          "type": "uint256"
        }
      ],
      "stateMutability": "view",
      "type": "function"
    },
    {
      "inputs": [
        {
          "internalType": "uint256",
          "name": "apartment_id",
          "type": "uint256"
        }
      ],
      "name": "getQualifiedReviewers",
      "outputs": [
        {
          "internalType": "address[]",
          "name": "Tenants",
          "type": "address[]"
        }
      ],
      "stateMutability": "view",
      "type": "function"
    },
    {
      "inputs": [
        {
          "internalType": "uint256",
          "name": "apartment_id",
          "type": "uint256"
        }
      ],
      "name": "getReviews",
      "outputs": [
        {
          "components": [
            {
              "internalType": "uint256",
              "name": "id",
              "type": "uint256"
            },
            {
              "internalType": "uint256",
              "name": "apartment_id",
              "type": "uint256"
            },
            {
              "internalType": "string",
              "name": "reviewText",
              "type": "string"
            },
            {
              "internalType": "uint256",
              "name": "timestamp",
              "type": "uint256"
            },
            {
              "internalType": "address",
              "name": "owner",
              "type": "address"
            }
          ],
          "internalType": "struct TravelnCrypto.Review[]",
          "name": "",
          "type": "tuple[]"
        }
      ],
      "stateMutability": "view",
      "type": "function"
    },
    {
      "inputs": [
        {
          "internalType": "uint256",
          "name": "apartment_id",
          "type": "uint256"
        }
      ],
      "name": "getUnavailableDates",
      "outputs": [
        {
          "internalType": "uint256[]",
          "name": "",
          "type": "uint256[]"
        }
      ],
      "stateMutability": "view",
      "type": "function"
    },
    {
      "inputs": [],
      "name": "owner",
      "outputs": [
        {
          "internalType": "address",
          "name": "",
          "type": "address"
        }
      ],
      "stateMutability": "view",
      "type": "function"
    },
    {
      "inputs": [
        {
          "internalType": "uint256",
          "name": "apartment_id",
          "type": "uint256"
        },
        {
          "internalType": "uint256",
          "name": "booking_id",
          "type": "uint256"
        }
      ],
      "name": "refundBooking",
      "outputs": [],
      "stateMutability": "nonpayable",
      "type": "function"
    },
    {
      "inputs": [],
      "name": "renounceOwnership",
      "outputs": [],
      "stateMutability": "nonpayable",
      "type": "function"
    },
    {
      "inputs": [
        {
          "internalType": "uint256",
          "name": "",
          "type": "uint256"
        }
      ],
      "name": "resoldBookingIds",
      "outputs": [
        {
          "internalType": "uint256",
          "name": "",
          "type": "uint256"
        }
      ],
      "stateMutability": "view",
      "type": "function"
    },
    {
      "inputs": [],
      "name": "securityFee",
      "outputs": [
        {
          "internalType": "uint256",
          "name": "",
          "type": "uint256"
        }
      ],
      "stateMutability": "view",
      "type": "function"
    },
    {
      "inputs": [],
      "name": "taxPercent",
      "outputs": [
        {
          "internalType": "uint256",
          "name": "",
          "type": "uint256"
        }
      ],
      "stateMutability": "view",
      "type": "function"
    },
    {
      "inputs": [
        {
          "internalType": "uint256",
          "name": "apartment_id",
          "type": "uint256"
        }
      ],
      "name": "tenantBooked",
      "outputs": [
        {
          "internalType": "bool",
          "name": "",
          "type": "bool"
        }
      ],
      "stateMutability": "view",
      "type": "function"
    },
    {
      "inputs": [
        {
          "internalType": "address",
          "name": "newOwner",
          "type": "address"
        }
      ],
      "name": "transferOwnership",
      "outputs": [],
      "stateMutability": "nonpayable",
      "type": "function"
    },
    {
      "inputs": [
        {
          "internalType": "uint256",
          "name": "id",
          "type": "uint256"
        },
        {
          "internalType": "string",
          "name": "name",
          "type": "string"
        },
        {
          "internalType": "string",
          "name": "description",
          "type": "string"
        },
        {
          "internalType": "string",
          "name": "location",
          "type": "string"
        },
        {
          "internalType": "string",
          "name": "images",
          "type": "string"
        },
        {
          "internalType": "uint256",
          "name": "rooms",
          "type": "uint256"
        },
        {
          "internalType": "uint256",
          "name": "price",
          "type": "uint256"
        }
      ],
      "name": "updateApartment",
      "outputs": [],
      "stateMutability": "nonpayable",
      "type": "function"
    },
    {
      "inputs": [
        {
          "internalType": "uint256",
          "name": "id",
          "type": "uint256"
        },
        {
          "internalType": "uint256",
          "name": "usdprice",
          "type": "uint256"
        }
      ],
      "name": "updatePrice",
      "outputs": [],
      "stateMutability": "nonpayable",
      "type": "function"
    }
  ],
  "bytecode": "0x6080604052600380546001600160a01b03191673694aa1769357215de4fac081bf1f309adc3253061790553480156200003757600080fd5b5060405162004b0838038062004b088339810160408190526200005a91620000c8565b620000653362000078565b60018055600591909155600455620000ed565b600080546001600160a01b038381166001600160a01b0319831681178455604051919092169283917f8be0079c531659141344cd1fd0a4f28419497f9722a3daafe3b4186f6b6457e09190a35050565b60008060408385031215620000dc57600080fd5b505080516020909101519092909150565b614a0b80620000fd6000396000f3fe6080604052600436106101b75760003560e01c80637fd8984e116100ec578063c2aaccfc1161008a578063d68e130211610064578063d68e13021461052e578063db2f80b714610544578063f2fde38b14610571578063f516f88e1461059157600080fd5b8063c2aaccfc146104c1578063c4452e06146104e1578063c788d6de1461050e57600080fd5b806398d5fdca116100c657806398d5fdca146104075780639d4a22551461041c5780639f31a2be14610449578063b5efcf041461049457600080fd5b80637fd8984e146103a757806382367b2d146103c95780638da5cb5b146103e957600080fd5b806342f6fb29116101595780635bb0c5d6116101335780635bb0c5d61461033c57806367626e5d1461035c578063715018a61461037c5780637541f41c1461039157600080fd5b806342f6fb29146102b7578063455b3070146102ef57806355c3fbfb1461031c57600080fd5b80630f8685c4116101955780630f8685c41461023657806317dd3e14146102645780631c32f0711461027757806327c71c731461029757600080fd5b8063010b58ee146101bc5780630397eee0146101de5780630bb9ce3314610209575b600080fd5b3480156101c857600080fd5b506101dc6101d7366004613ef8565b6105b1565b005b3480156101ea57600080fd5b506101f3610919565b604051610200919061402d565b60405180910390f35b34801561021557600080fd5b5061022961022436600461408f565b610cf4565b60405161020091906140a8565b34801561024257600080fd5b50610256610251366004613ef8565b610e9d565b604051908152602001610200565b6101dc6102723660046141bc565b610fe4565b34801561028357600080fd5b5061025661029236600461408f565b611831565b3480156102a357600080fd5b506101dc6102b2366004614299565b611852565b3480156102c357600080fd5b506003546102d7906001600160a01b031681565b6040516001600160a01b039091168152602001610200565b3480156102fb57600080fd5b5061030f61030a366004613ef8565b611ebf565b604051610200919061440b565b34801561032857600080fd5b506101dc61033736600461408f565b611fa4565b34801561034857600080fd5b506101dc61035736600461441a565b61206c565b34801561036857600080fd5b506101dc610377366004613ef8565b612294565b34801561038857600080fd5b506101dc61279b565b34801561039d57600080fd5b5061025660055481565b3480156103b357600080fd5b506103bc6127af565b6040516102009190614461565b3480156103d557600080fd5b506101dc6103e4366004613ef8565b6128cc565b3480156103f557600080fd5b506000546001600160a01b03166102d7565b34801561041357600080fd5b5061025661292d565b34801561042857600080fd5b5061043c61043736600461408f565b6129c4565b60405161020091906144de565b34801561045557600080fd5b5061048461046436600461408f565b336000908152600a60209081526040808320938352929052205460ff1690565b6040519015158152602001610200565b3480156104a057600080fd5b506104b46104af36600461408f565b612aff565b604051610200919061457c565b3480156104cd57600080fd5b506101dc6104dc3660046145bf565b612bfb565b3480156104ed57600080fd5b506105016104fc36600461408f565b612fe2565b60405161020091906145eb565b34801561051a57600080fd5b506101dc610529366004614605565b6132b6565b34801561053a57600080fd5b5061025660045481565b34801561055057600080fd5b5061056461055f36600461408f565b6135db565b60405161020091906146c4565b34801561057d57600080fd5b506101dc61058c3660046146fc565b613780565b34801561059d57600080fd5b506101dc6105ac366004613ef8565b6137f9565b60008281526007602052604081208054839081106105d1576105d1614725565b60009182526020808320604080516101608101825260079485029092018054835260018101548385015260028101546001600160a01b039081168484015260038201548116606085015260048201546080850152600582015460a085015260069182015460ff808216151560c08701526101008083048216151560e088015262010000830482161515908701526301000000820481161515610120870152600160201b909104161515610140850152898752935290932090910154919250163314806106a757506000546001600160a01b031633145b61073d5760405162461bcd60e51b815260206004820152605660248201527f4572726f723a20596f7520617265206e6f7420617574686f72697a656420746f60448201527f20636c61696d20616e792066756e64732e20496620746869732069732061206d6064820152751a5cdd185ad94818dbdb9d1858dd081cdd5c1c1bdc9d60521b608482015260a4015b60405180910390fd5b600083815260076020526040902080548390811061075d5761075d614725565b600091825260209091206006600790920201015460ff16156107f35760405162461bcd60e51b815260206004820152604360248201527f41706172746d656e7420697320616c726561647920636865636b656420496e2060448201527f6f6e20746869732064617465206e6f206e65656420746f20636c61696d2066756064820152626e647360e81b608482015260a401610734565b6107fb613be2565b81608001511061086a5760405162461bcd60e51b815260206004820152603460248201527f4e6f7420616c6c6f77656420746f20636c61696d2066756e6473206265666f72604482015273652074686520626f6f6b696e672064617465212160601b6064820152608401610734565b600083815260076020526040812080548490811061088a5761088a614725565b906000526020600020906007020160050154905060006064600554836108b09190614751565b6108ba9190614768565b6000868152600660205260409020600701549091506108eb906001600160a01b03166108e6838561478a565b613c01565b6109066109006000546001600160a01b031690565b82613c01565b61091233600454613c01565b5050505050565b6060600060015b600254811161096957600081815260066020526040902060070154600160a81b900460ff1661095757816109538161479d565b9250505b806109618161479d565b915050610920565b508067ffffffffffffffff811115610983576109836140f5565b6040519080825280602002602001820160405280156109bc57816020015b6109a9613df4565b8152602001906001900390816109a15790505b509150600060015b6002548111610cee57600081815260066020526040902060070154600160a81b900460ff16610cdc57600660008281526020019081526020016000206040518061016001604052908160008201548152602001600182018054610a26906147b6565b80601f0160208091040260200160405190810160405280929190818152602001828054610a52906147b6565b8015610a9f5780601f10610a7457610100808354040283529160200191610a9f565b820191906000526020600020905b815481529060010190602001808311610a8257829003601f168201915b50505050508152602001600282018054610ab8906147b6565b80601f0160208091040260200160405190810160405280929190818152602001828054610ae4906147b6565b8015610b315780601f10610b0657610100808354040283529160200191610b31565b820191906000526020600020905b815481529060010190602001808311610b1457829003601f168201915b50505050508152602001600382018054610b4a906147b6565b80601f0160208091040260200160405190810160405280929190818152602001828054610b76906147b6565b8015610bc35780601f10610b9857610100808354040283529160200191610bc3565b820191906000526020600020905b815481529060010190602001808311610ba657829003601f168201915b50505050508152602001600482018054610bdc906147b6565b80601f0160208091040260200160405190810160405280929190818152602001828054610c08906147b6565b8015610c555780601f10610c2a57610100808354040283529160200191610c55565b820191906000526020600020905b815481529060010190602001808311610c3857829003601f168201915b5050509183525050600582015460208201526006820154604082015260078201546001600160a01b038116606083015260ff600160a01b8204811615156080840152600160a81b90910416151560a082015260089091015460c0909101528483610cbe8161479d565b945081518110610cd057610cd0614725565b60200260200101819052505b80610ce68161479d565b9150506109c4565b50505090565b60606000805b600084815260076020526040902054811015610d6c576000848152600760205260409020805482908110610d3057610d30614725565b600091825260209091206006600790920201015460ff1615610d5a5781610d568161479d565b9250505b80610d648161479d565b915050610cfa565b508067ffffffffffffffff811115610d8657610d866140f5565b604051908082528060200260200182016040528015610daf578160200160208202803683370190505b5091506000805b600085815260076020526040902054811015610e95576000858152600760205260409020805482908110610dec57610dec614725565b600091825260209091206006600790920201015460ff1615610e83576000858152600760205260409020805482908110610e2857610e28614725565b60009182526020909120600260079092020101546001600160a01b03168483610e508161479d565b945081518110610e6257610e62614725565b60200260200101906001600160a01b031690816001600160a01b0316815250505b80610e8d8161479d565b915050610db6565b505050919050565b6000828152600b602052604081205460ff16610efb5760405162461bcd60e51b815260206004820181905260248201527f4572726f723a2041706172746d656e742063616e6e6f7420626520666f756e646044820152606401610734565b600083815260106020908152604080832080548251818502810185019093528083529192909190830182828015610f5157602002820191906000526020600020905b815481526020019060010190808311610f3d575b5050505050905060005b8151811015610fd75783828281518110610f7757610f77614725565b602002602001015103610fc557600085815260116020908152604080832087845290915281205490610fa98783611ebf565b516000908152600f60205260409020549450610fde9350505050565b80610fcf8161479d565b915050610f5b565b5060009150505b92915050565b6000838152600b602052604090205460ff166110425760405162461bcd60e51b815260206004820181905260248201527f4572726f723a2041706172746d656e742063616e6e6f7420626520666f756e646044820152606401610734565b600060646004548451600660008881526020019081526020016000206006015461106c9190614751565b6110769190614751565b6110809190614768565b83516000868152600660208190526040909120015461109f9190614751565b6110a991906147f0565b90506000805b835181101561112a576000868152601160205260408120855182908790859081106110dc576110dc614725565b60200260200101518152602001908152602001600020549050600f6000828152602001908152602001600020548361111491906147f0565b92505080806111229061479d565b9150506110af565b5060045460649061113b83856147f0565b6111459190614751565b61114f9190614768565b3410156111935760405162461bcd60e51b8152602060048201526012602482015271496e73756666696369656e742066756e642160701b6044820152606401610734565b61119d8585613c66565b6111f75760405162461bcd60e51b815260206004820152602560248201527f4572726f723a2054686973204461746520697320616c726561647920626f6f6b604482015264032b21090960dd1b6064820152608401610734565b60005b84518110156113f75761120b613e5b565b602080820188905260008881526007909152604090819020548252339082018190526060820152855186908390811061124657611246614725565b60209081029190910181015160808301526000888152600680835260408083209091015460a0850152898252600990925290812087516001929089908690811061129257611292614725565b60209081029190910181015182528181019290925260409081016000908120805494151560ff1995861617905561010085810182815260016101208801818152610140890185815289518652600c8852868620805490991683179098558e8552600780885286862080548085018255908752958890208a5196909102019485559588015190840155928601516002830180546001600160a01b039283166001600160a01b03199182161790915560608801516003850180549190931691161790556080860151600483015560a0860151600583015560c08601516006909201805460e0909701519351945195511515600160201b0264ff000000001996151563010000000263ff0000001996151562010000029690961663ffff00001995151590930261ff00199415159490941661ffff19909816979097179290921792909216919091179190911791909116919091179055806113ef8161479d565b9150506111fa565b5060005b83518110156118295760008681526011602052604081208551829087908590811061142857611428614725565b6020908102919091018101518252818101929092526040908101600090812054808252600c909352205490915060ff166114a45760405162461bcd60e51b815260206004820152601e60248201527f4572726f723a20426f6f6b696e672063616e6e6f7420626520666f756e6400006044820152606401610734565b60008781526007602052604081208054839081106114c4576114c4614725565b600091825260209182902060408051610160810182526007909302909101805483526001808201549484019490945260028101546001600160a01b03908116928401929092526003810154909116606083015260048101546080830152600581015460a08301526006015460ff808216151560c08401526101008083048216151560e0850152620100008304821615159084018190526301000000830482161515610120850152600160201b909204161515610140830152909250146115cc5760405162461bcd60e51b815260206004820152601960248201527f596f752063616e6e6f7420626f6f6b20746869732064617465000000000000006044820152606401610734565b3360608201526115da613eb7565b6000838152600f602090815260409091205482528101839052865187908590811061160757611607614725565b6020908102919091018101516040808401918252848101516001600160a01b039081166060860190815233608087019081526000898152600d875284812088518155888801516001808301919091559651600282015592516003840180549186166001600160a01b03199283161790559151600490930180549390941692909116919091179091558c815260079093529091208054859081106116ac576116ac614725565b906000526020600020906007020160060160046101000a81548160ff0219169083151502179055506001600760008b815260200190815260200160002084815481106116fa576116fa614725565b906000526020600020906007020160060160036101000a81548160ff02191690831515021790555033600760008b8152602001908152602001600020848154811061174757611747614725565b6000918252602080832060079283020160030180546001600160a01b0319166001600160a01b0395909516949094179093558b82529091526040812080548590811061179557611795614725565b906000526020600020906007020160060160026101000a81548160ff0219169083151502179055506001600960008b815260200190815260200160002060008987815181106117e6576117e6614725565b6020026020010151815260200190815260200160002060006101000a81548160ff02191690831515021790555050505080806118219061479d565b9150506113fb565b505050505050565b600e818154811061184157600080fd5b600091825260209091200154905081565b6000878152600b602052604090205460ff1615156001146118ac5760405162461bcd60e51b8152602060048201526014602482015273105c1c185c9d1b595b9d081b9bdd08199bdd5b9960621b6044820152606401610734565b6000878152600660205260409020600701546001600160a01b031633146119205760405162461bcd60e51b815260206004820152602260248201527f556e617574686f72697a656420706572736f6e6e656c2c206f776e6572206f6e6044820152616c7960f01b6064820152608401610734565b60008651116119685760405162461bcd60e51b81526020600482015260146024820152734e616d652063616e6e6f7420626520656d70747960601b6044820152606401610734565b60008551116119b95760405162461bcd60e51b815260206004820152601b60248201527f4465736372697074696f6e2063616e6e6f7420626520656d70747900000000006044820152606401610734565b6000845111611a055760405162461bcd60e51b81526020600482015260186024820152774c6f636174696f6e2063616e6e6f7420626520656d70747960401b6044820152606401610734565b6000835111611a4f5760405162461bcd60e51b8152602060048201526016602482015275496d616765732063616e6e6f7420626520656d70747960501b6044820152606401610734565b60008211611a965760405162461bcd60e51b8152602060048201526014602482015273526f6f6d732063616e6e6f74206265207a65726f60601b6044820152606401610734565b60008111611add5760405162461bcd60e51b815260206004820152601460248201527350726963652063616e6e6f74206265207a65726f60601b6044820152606401610734565b6000600660008981526020019081526020016000206040518061016001604052908160008201548152602001600182018054611b18906147b6565b80601f0160208091040260200160405190810160405280929190818152602001828054611b44906147b6565b8015611b915780601f10611b6657610100808354040283529160200191611b91565b820191906000526020600020905b815481529060010190602001808311611b7457829003601f168201915b50505050508152602001600282018054611baa906147b6565b80601f0160208091040260200160405190810160405280929190818152602001828054611bd6906147b6565b8015611c235780601f10611bf857610100808354040283529160200191611c23565b820191906000526020600020905b815481529060010190602001808311611c0657829003601f168201915b50505050508152602001600382018054611c3c906147b6565b80601f0160208091040260200160405190810160405280929190818152602001828054611c68906147b6565b8015611cb55780601f10611c8a57610100808354040283529160200191611cb5565b820191906000526020600020905b815481529060010190602001808311611c9857829003601f168201915b50505050508152602001600482018054611cce906147b6565b80601f0160208091040260200160405190810160405280929190818152602001828054611cfa906147b6565b8015611d475780601f10611d1c57610100808354040283529160200191611d47565b820191906000526020600020905b815481529060010190602001808311611d2a57829003601f168201915b5050509183525050600582015460208083019190915260068084015460408085019190915260078501546001600160a01b03811660608087019190915260ff600160a01b830481161515608080890191909152600160a81b90930416151560a08088019190915260089097015460c0968701528785018f81528884018f90529088018d90529087018b905294860189905292850187905260008d815291522082518155905191925082916001820190611e009082614849565b5060408201516002820190611e159082614849565b5060608201516003820190611e2a9082614849565b5060808201516004820190611e3f9082614849565b5060a0820151600582015560c0820151600682015560e08201516007820180546101008501516101208601511515600160a81b0260ff60a81b19911515600160a01b026001600160a81b03199093166001600160a01b03909516949094179190911716919091179055610140909101516008909101555050505050505050565b611ec7613e5b565b6000838152600760205260409020805483908110611ee757611ee7614725565b6000918252602091829020604080516101608101825260079093029091018054835260018101549383019390935260028301546001600160a01b0390811691830191909152600383015416606082015260048201546080820152600582015460a082015260069091015460ff808216151560c08401526101008083048216151560e085015262010000830482161515908401526301000000820481161515610120840152600160201b909104161515610140820152905092915050565b6000818152600b602052604090205460ff161515600114611fd75760405162461bcd60e51b815260040161073490614909565b6000818152600660205260409020600701546001600160a01b031633146120365760405162461bcd60e51b8152602060048201526013602482015272556e617574686f72697a656420656e7469747960681b6044820152606401610734565b6000908152600b60209081526040808320805460ff1916905560069091529020600701805460ff60a81b1916600160a81b179055565b6000828152600b602052604090205460ff166120ca5760405162461bcd60e51b815260206004820152601a60248201527f41706172746d656e74206973206e6f7420617661696c61626c650000000000006044820152606401610734565b336000908152600a6020908152604080832085845290915290205460ff166121465760405162461bcd60e51b815260206004820152602960248201527f4d75737420626f6f6b2061706172746d656e74206265666f726520796f752063604482015268616e2072657669657760b81b6064820152608401610734565b60008151116121a25760405162461bcd60e51b815260206004820152602260248201527f596f752063616e6e6f74206c6561766520616e20656d70747920726576696577604482015261212160f01b6064820152608401610734565b6121dd6040518060a001604052806000815260200160008152602001606081526020016000815260200160006001600160a01b031681525090565b6020808201849052600084815260089091526040908190205482528101829052612205613be2565b606082015233608082015260008381526008602090815260408083208054600181810183559185529383902085516005909502019384559184015191830191909155820151829190600282019061225c9082614849565b5060608201516003820155608090910151600490910180546001600160a01b0319166001600160a01b03909216919091179055505050565b61229c613cf1565b60008281526007602052604081208054839081106122bc576122bc614725565b6000918252602091829020604080516101608101825260079093029091018054835260018101549383019390935260028301546001600160a01b0390811691830191909152600383015416606082015260048201546080820152600582015460a082015260069091015460ff80821615801560c08501526101008084048316151560e086015262010000840483161515908501526301000000830482161515610120850152600160201b9092041615156101408301529091506123d15760405162461bcd60e51b815260206004820152602760248201527f43616e6e6f7420726566756e64206166746572206265696e6720636865636b656044820152666420494e21212160c81b6064820152608401610734565b60008381526009602090815260408083206080850151845290915290205460ff1661243e5760405162461bcd60e51b815260206004820181905260248201527f596f7520646964206e6f7420626f6f6b20666f722074686973206461746521216044820152606401610734565b6000546001600160a01b031633146125695780604001516001600160a01b0316336001600160a01b03161480612489575080606001516001600160a01b0316336001600160a01b0316145b6124e95760405162461bcd60e51b815260206004820152602b60248201527f4572726f723a20596f7520617265206e6f742061737369676e656420746f207460448201526a68697320626f6f6b696e6760a81b6064820152608401610734565b6124f1613be2565b8160800151116125695760405162461bcd60e51b815260206004820152603e60248201527f4572726f723a2054686520626f6f6b696e6720646174652068617320616c726560448201527f616479207061737365642c20796f752063616e6e6f7420726566756e642e00006064820152608401610734565b60008381526007602052604090208054600191908490811061258d5761258d614725565b60009182526020808320600792830201600601805461ff0019166101009515159590950294909417909355858252909152604081208054849081106125d4576125d4614725565b60009182526020808320600660079093020191909101805493151563010000000263ff000000199094169390931790925584815260098252604080822060808501518352909252908120805460ff1916905560045460a083015160649161263a91614751565b6126449190614768565b90506000612653600283614768565b61014084015190915015156000036126ad5760008581526006602052604090206007015461268a906001600160a01b031682613c01565b61269f6109006000546001600160a01b031690565b6126ad338460a00151613c01565b610140830151151560010361278b576000848152600d60209081526040808320815160a081018352815480825260018301549482019490945260028201549281019290925260038101546001600160a01b0390811660608401526004918201541660808301525490929160649161272391614751565b61272d9190614768565b9050600061273c600283614768565b600089815260066020526040902060070154909150612764906001600160a01b031685613c01565b6127796109006000546001600160a01b031690565b612787338460000151613c01565b5050505b50505061279760018055565b5050565b6127a3613d4a565b6127ad6000613da4565b565b600e5460609060008167ffffffffffffffff8111156127d0576127d06140f5565b60405190808252806020026020018201604052801561280957816020015b6127f6613eb7565b8152602001906001900390816127ee5790505b50905060005b828110156128c5576000600e828154811061282c5761282c614725565b6000918252602080832090910154808352600d8252604092839020835160a0810185528154815260018201549381019390935260028101549383019390935260038301546001600160a01b03908116606084015260049093015490921660808201528451919250908490849081106128a6576128a6614725565b60200260200101819052505080806128bd9061479d565b91505061280f565b5092915050565b6000828152600b602052604090205460ff1615156001146128ff5760405162461bcd60e51b815260040161073490614909565b8061290861292d565b6129129190614751565b60009283526006602081905260409093209092019190915550565b600080600360009054906101000a90046001600160a01b03166001600160a01b031663feaf968c6040518163ffffffff1660e01b815260040160a060405180830381865afa158015612983573d6000803e3d6000fd5b505050506040513d601f19601f820116820180604052508101906129a79190614955565b505050915050806402540be4006129be91906149a5565b91505090565b606060086000838152602001908152602001600020805480602002602001604051908101604052809291908181526020016000905b82821015612af457838290600052602060002090600502016040518060a00160405290816000820154815260200160018201548152602001600282018054612a40906147b6565b80601f0160208091040260200160405190810160405280929190818152602001828054612a6c906147b6565b8015612ab95780601f10612a8e57610100808354040283529160200191612ab9565b820191906000526020600020905b815481529060010190602001808311612a9c57829003601f168201915b505050918352505060038201546020808301919091526004909201546001600160a01b031660409091015290825260019290920191016129f9565b505050509050919050565b606060076000838152602001908152602001600020805480602002602001604051908101604052809291908181526020016000905b82821015612af4576000848152602090819020604080516101608101825260078602909201805483526001808201548486015260028201546001600160a01b03908116938501939093526003820154909216606084015260048101546080840152600581015460a08401526006015460ff808216151560c08501526101008083048216151560e086015262010000830482161515908501526301000000820481161515610120850152600160201b9091041615156101408301529083529092019101612b34565b6000838152600b602052604090205460ff161515600114612c2e5760405162461bcd60e51b815260040161073490614909565b6000612c3a8483611ebf565b905080610120015115156001151514612cae5760405162461bcd60e51b815260206004820152603060248201527f41706172746d656e742073686f756c6420626520626f6f6b656420696e206f7260448201526f19195c881d1bc81899481c995cdbdb1960821b6064820152608401610734565b80604001516001600160a01b0316336001600160a01b031614612d135760405162461bcd60e51b815260206004820152601c60248201527f4572726f723a20556e617574686f72697a65642074656e616e742121000000006044820152606401610734565b8060c0015115612db15760405162461bcd60e51b815260206004820152605d60248201527f4572726f723a20596f752063616e6e6f74207075742061706172746d656e742060448201527f757020666f7220726573656c6c207768656e20796f75206861766520616c726560648201527f61647920636865636b6564496e20666f72207468697320646174652121000000608482015260a401610734565b60008481526009602090815260408083206080850151845290915290205460ff16612e1e5760405162461bcd60e51b815260206004820181905260248201527f596f7520646964206e6f7420626f6f6b20666f722074686973206461746521216044820152606401610734565b6000612e2b846064614751565b60008681526006602081905260408220015491925090612e4c906064614751565b90506064612e5b826078614751565b612e659190614768565b821115612ecf5760405162461bcd60e51b815260206004820152603260248201527f4e65772070726963652063616e6e6f74206578636565642031323025206f6620604482015271746865206f726967696e616c20707269636560701b6064820152608401610734565b82516000908152600f60209081526040808320889055888352600790915290208351815460019291908110612f0657612f06614725565b60009182526020808320600792830201600601805462ff0000191662010000951515959095029490941790935588825290915260408120845181548110612f4f57612f4f614725565b60009182526020808320600660079093020191909101805493151563010000000263ff00000019909416939093179092558781526009825260408082206080870180518452908452818320805460ff191690558983526010845281832081518154600181018355918552858520909101559551988252601183528082209551825294909152929092209490945550505050565b612fea613df4565b600660008381526020019081526020016000206040518061016001604052908160008201548152602001600182018054613023906147b6565b80601f016020809104026020016040519081016040528092919081815260200182805461304f906147b6565b801561309c5780601f106130715761010080835404028352916020019161309c565b820191906000526020600020905b81548152906001019060200180831161307f57829003601f168201915b505050505081526020016002820180546130b5906147b6565b80601f01602080910402602001604051908101604052809291908181526020018280546130e1906147b6565b801561312e5780601f106131035761010080835404028352916020019161312e565b820191906000526020600020905b81548152906001019060200180831161311157829003601f168201915b50505050508152602001600382018054613147906147b6565b80601f0160208091040260200160405190810160405280929190818152602001828054613173906147b6565b80156131c05780601f10613195576101008083540402835291602001916131c0565b820191906000526020600020905b8154815290600101906020018083116131a357829003601f168201915b505050505081526020016004820180546131d9906147b6565b80601f0160208091040260200160405190810160405280929190818152602001828054613205906147b6565b80156132525780601f1061322757610100808354040283529160200191613252565b820191906000526020600020905b81548152906001019060200180831161323557829003601f168201915b5050509183525050600582015460208201526006820154604082015260078201546001600160a01b038116606083015260ff600160a01b8204811615156080840152600160a81b90910416151560a082015260089091015460c09091015292915050565b60008651116132fe5760405162461bcd60e51b81526020600482015260146024820152734e616d652063616e6e6f7420626520656d70747960601b6044820152606401610734565b600085511161334f5760405162461bcd60e51b815260206004820152601b60248201527f4465736372697074696f6e2063616e6e6f7420626520656d70747900000000006044820152606401610734565b600084511161339b5760405162461bcd60e51b81526020600482015260186024820152774c6f636174696f6e2063616e6e6f7420626520656d70747960401b6044820152606401610734565b60008351116133e55760405162461bcd60e51b8152602060048201526016602482015275496d616765732063616e6e6f7420626520656d70747960501b6044820152606401610734565b6000821161342c5760405162461bcd60e51b8152602060048201526014602482015273526f6f6d732063616e6e6f74206265207a65726f60601b6044820152606401610734565b600081116134735760405162461bcd60e51b815260206004820152601460248201527350726963652063616e6e6f74206265207a65726f60601b6044820152606401610734565b613481600280546001019055565b613489613df4565b60025481526020810187905260408101869052606081018590526080810184905260a0810183905260c081018290523360e08201526134c6613be2565b61014082015280516000908152600b60205260408120805460ff1916600117905581906006906134f560025490565b81526020808201929092526040016000208251815590820151600182019061351d9082614849565b50604082015160028201906135329082614849565b50606082015160038201906135479082614849565b506080820151600482019061355c9082614849565b5060a0820151600582015560c0820151600682015560e08201516007820180546101008501516101208601511515600160a81b0260ff60a81b19911515600160a01b026001600160a81b03199093166001600160a01b039095169490941791909117169190911790556101409091015160089091015550505050505050565b60606000805b60008481526007602052604090205481101561365e57600084815260076020526040902080548290811061361757613617614725565b60009182526020909120600790910201600601546301000000900460ff16151560010361364c57816136488161479d565b9250505b806136568161479d565b9150506135e1565b5060008167ffffffffffffffff81111561367a5761367a6140f5565b6040519080825280602002602001820160405280156136a3578160200160208202803683370190505b5090506000805b6000868152600760205260409020548110156137765760008681526007602052604090208054829081106136e0576136e0614725565b60009182526020909120600790910201600601546301000000900460ff16151560010361376457600086815260076020526040902080548290811061372757613727614725565b90600052602060002090600702016004015483838151811061374b5761374b614725565b6020908102919091010152816137608161479d565b9250505b8061376e8161479d565b9150506136aa565b5090949350505050565b613788613d4a565b6001600160a01b0381166137ed5760405162461bcd60e51b815260206004820152602660248201527f4f776e61626c653a206e6577206f776e657220697320746865207a65726f206160448201526564647265737360d01b6064820152608401610734565b6137f681613da4565b50565b600082815260076020526040812080548390811061381957613819614725565b6000918252602091829020604080516101608101825260079093029091018054835260018101549383019390935260028301546001600160a01b03908116918301829052600384015416606083015260048301546080830152600583015460a083015260069092015460ff808216151560c08401526101008083048216151560e085015262010000830482161515908401526301000000820481161515610120840152600160201b90910416151561014082015291503314806138f1575080606001516001600160a01b0316336001600160a01b0316145b61393d5760405162461bcd60e51b815260206004820152601c60248201527f4572726f723a20556e617574686f72697a65642074656e616e742121000000006044820152606401610734565b8060c00151156139c85760405162461bcd60e51b815260206004820152604a60248201527f41706172746d656e7420616c726561647920636865636b656420666f7220746860448201527f6973206461746520446f75626c6520636865636b696e67206973206e6f74207060648201526972656d6974746564212160b01b608482015260a401610734565b6000838152600760205260409020805460019190849081106139ec576139ec614725565b60009182526020822060079190910201600601805460ff19169215159290921790915560055460a0830151606491613a2391614751565b613a2d9190614768565b9050600060646004548460a00151613a459190614751565b613a4f9190614768565b336000818152600a602090815260408083208a845290915290819020805460ff191660011790558501519192506001600160a01b0391909116148015613a985750610140830151155b15613af25760008581526006602052604090206007015460a0840151613acd916001600160a01b0316906108e690859061478a565b613ae8613ae26000546001600160a01b031690565b83613c01565b613af23382613c01565b60608301516001600160a01b031633148015613b15575061014083015115156001145b15610912576000848152600d60209081526040808320815160a080820184528254825260018301548286015260028301548285015260038301546001600160a01b039081166060840152600490930154831660808301528a865260069094529190932060070154918601519092613b939216906108e690869061478a565b613bab84604001518483600001516108e6919061478a565b613bca613bc06000546001600160a01b031690565b6108e685806147f0565b613bd43383613c01565b611829846040015183613c01565b6000613bf0426103e8614751565b613bfc906103e86147f0565b905090565b6000826001600160a01b03168260405160006040518083038185875af1925050503d8060008114613c4e576040519150601f19603f3d011682016040523d82523d6000602084013e613c53565b606091505b5050905080613c6157600080fd5b505050565b6000600181613c74856135db565b905060005b84518110156137765760005b8251811015613cde57828181518110613ca057613ca0614725565b6020026020010151868381518110613cba57613cba614725565b602002602001015103613ccc57600093505b80613cd68161479d565b915050613c85565b5080613ce98161479d565b915050613c79565b600260015403613d435760405162461bcd60e51b815260206004820152601f60248201527f5265656e7472616e637947756172643a207265656e7472616e742063616c6c006044820152606401610734565b6002600155565b6000546001600160a01b031633146127ad5760405162461bcd60e51b815260206004820181905260248201527f4f776e61626c653a2063616c6c6572206973206e6f7420746865206f776e65726044820152606401610734565b600080546001600160a01b038381166001600160a01b0319831681178455604051919092169283917f8be0079c531659141344cd1fd0a4f28419497f9722a3daafe3b4186f6b6457e09190a35050565b6040518061016001604052806000815260200160608152602001606081526020016060815260200160608152602001600081526020016000815260200160006001600160a01b03168152602001600015158152602001600015158152602001600081525090565b6040805161016081018252600080825260208201819052918101829052606081018290526080810182905260a0810182905260c0810182905260e081018290526101008101829052610120810182905261014081019190915290565b6040518060a0016040528060008152602001600081526020016000815260200160006001600160a01b0316815260200160006001600160a01b031681525090565b60008060408385031215613f0b57600080fd5b50508035926020909101359150565b6000815180845260005b81811015613f4057602081850181015186830182015201613f24565b506000602082860101526020601f19601f83011685010191505092915050565b6000610160825184526020830151816020860152613f8082860182613f1a565b91505060408301518482036040860152613f9a8282613f1a565b91505060608301518482036060860152613fb48282613f1a565b91505060808301518482036080860152613fce8282613f1a565b91505060a083015160a085015260c083015160c085015260e0830151613fff60e08601826001600160a01b03169052565b5061010083810151151590850152610120808401511515908501526101409283015192909301919091525090565b6000602080830181845280855180835260408601915060408160051b870101925083870160005b8281101561408257603f19888603018452614070858351613f60565b94509285019290850190600101614054565b5092979650505050505050565b6000602082840312156140a157600080fd5b5035919050565b6020808252825182820181905260009190848201906040850190845b818110156140e95783516001600160a01b0316835292840192918401916001016140c4565b50909695505050505050565b634e487b7160e01b600052604160045260246000fd5b604051601f8201601f1916810167ffffffffffffffff81118282101715614134576141346140f5565b604052919050565b600082601f83011261414d57600080fd5b8135602067ffffffffffffffff821115614169576141696140f5565b8160051b61417882820161410b565b928352848101820192828101908785111561419257600080fd5b83870192505b848310156141b157823582529183019190830190614198565b979650505050505050565b6000806000606084860312156141d157600080fd5b83359250602084013567ffffffffffffffff808211156141f057600080fd5b6141fc8783880161413c565b9350604086013591508082111561421257600080fd5b5061421f8682870161413c565b9150509250925092565b600082601f83011261423a57600080fd5b813567ffffffffffffffff811115614254576142546140f5565b614267601f8201601f191660200161410b565b81815284602083860101111561427c57600080fd5b816020850160208301376000918101602001919091529392505050565b600080600080600080600060e0888a0312156142b457600080fd5b87359650602088013567ffffffffffffffff808211156142d357600080fd5b6142df8b838c01614229565b975060408a01359150808211156142f557600080fd5b6143018b838c01614229565b965060608a013591508082111561431757600080fd5b6143238b838c01614229565b955060808a013591508082111561433957600080fd5b506143468a828b01614229565b93505060a0880135915060c0880135905092959891949750929550565b8051825260208101516020830152604081015161438b60408401826001600160a01b03169052565b5060608101516143a660608401826001600160a01b03169052565b506080810151608083015260a081015160a083015260c08101516143ce60c084018215159052565b5060e08101516143e260e084018215159052565b506101008181015115159083015261012080820151151590830152610140908101511515910152565b6101608101610fde8284614363565b6000806040838503121561442d57600080fd5b82359150602083013567ffffffffffffffff81111561444b57600080fd5b61445785828601614229565b9150509250929050565b602080825282518282018190526000919060409081850190868401855b828110156144d157815180518552868101518786015285810151868601526060808201516001600160a01b0390811691870191909152608091820151169085015260a0909301929085019060010161447e565b5091979650505050505050565b60006020808301818452808551808352604092508286019150828160051b87010184880160005b8381101561456e57603f19898403018552815160a081518552888201518986015287820151818987015261453b82870182613f1a565b606084810151908801526080938401516001600160a01b0316939096019290925250509386019390860190600101614505565b509098975050505050505050565b6020808252825182820181905260009190848201906040850190845b818110156140e9576145ab838551614363565b928401926101609290920191600101614598565b6000806000606084860312156145d457600080fd5b505081359360208301359350604090920135919050565b6020815260006145fe6020830184613f60565b9392505050565b60008060008060008060c0878903121561461e57600080fd5b863567ffffffffffffffff8082111561463657600080fd5b6146428a838b01614229565b9750602089013591508082111561465857600080fd5b6146648a838b01614229565b9650604089013591508082111561467a57600080fd5b6146868a838b01614229565b9550606089013591508082111561469c57600080fd5b506146a989828a01614229565b9350506080870135915060a087013590509295509295509295565b6020808252825182820181905260009190848201906040850190845b818110156140e9578351835292840192918401916001016146e0565b60006020828403121561470e57600080fd5b81356001600160a01b03811681146145fe57600080fd5b634e487b7160e01b600052603260045260246000fd5b634e487b7160e01b600052601160045260246000fd5b8082028115828204841417610fde57610fde61473b565b60008261478557634e487b7160e01b600052601260045260246000fd5b500490565b81810381811115610fde57610fde61473b565b6000600182016147af576147af61473b565b5060010190565b600181811c908216806147ca57607f821691505b6020821081036147ea57634e487b7160e01b600052602260045260246000fd5b50919050565b80820180821115610fde57610fde61473b565b601f821115613c6157600081815260208120601f850160051c8101602086101561482a5750805b601f850160051c820191505b8181101561182957828155600101614836565b815167ffffffffffffffff811115614863576148636140f5565b6148778161487184546147b6565b84614803565b602080601f8311600181146148ac57600084156148945750858301515b600019600386901b1c1916600185901b178555611829565b600085815260208120601f198616915b828110156148db578886015182559484019460019091019084016148bc565b50858210156148f95787850151600019600388901b60f8161c191681555b5050505050600190811b01905550565b602080825260139082015272105c185c9d1b595b9d081b9bdd08199bdd5b99606a1b604082015260600190565b805169ffffffffffffffffffff8116811461495057600080fd5b919050565b600080600080600060a0868803121561496d57600080fd5b61497686614936565b945060208601519350604086015192506060860151915061499960808701614936565b90509295509295909350565b80820260008212600160ff1b841416156149c1576149c161473b565b8181058314821517610fde57610fde61473b56fea2646970667358221220b8b763e59122c7a767e34ffdbb0a9792e978646ca50cafb9b95f4aa49278da5464736f6c63430008130033",
  "linkReferences": {},
  "deployedLinkReferences": {}
}