{
  "_format": "hh-sol-artifact-1",
  "contractName": "TravelnCrypto",
  "sourceName": "contracts/TravelnCrypto.sol",
  "abi": [
    {
      "inputs": [
        {
          "internalType": "uint256",
          "name": "_taxPercent",
          "type": "uint256"
        },
        {
          "internalType": "uint256",
          "name": "_securityFee",
          "type": "uint256"
        }
      ],
      "stateMutability": "nonpayable",
      "type": "constructor"
    },
    {
      "anonymous": false,
      "inputs": [
        {
          "indexed": true,
          "internalType": "address",
          "name": "previousOwner",
          "type": "address"
        },
        {
          "indexed": true,
          "internalType": "address",
          "name": "newOwner",
          "type": "address"
        }
      ],
      "name": "OwnershipTransferred",
      "type": "event"
    },
    {
      "inputs": [
        {
          "internalType": "uint256",
          "name": "apartment_id",
          "type": "uint256"
        },
        {
          "internalType": "string",
          "name": "message",
          "type": "string"
        }
      ],
      "name": "addReview",
      "outputs": [],
      "stateMutability": "nonpayable",
      "type": "function"
    },
    {
      "inputs": [
        {
          "internalType": "uint256",
          "name": "apartment_id",
          "type": "uint256"
        },
        {
          "internalType": "uint256[]",
          "name": "dates",
          "type": "uint256[]"
        }
      ],
      "name": "bookApartment",
      "outputs": [],
      "stateMutability": "payable",
      "type": "function"
    },
    {
      "inputs": [
        {
          "internalType": "uint256",
          "name": "apartment_id",
          "type": "uint256"
        },
        {
          "internalType": "uint256[]",
          "name": "dates",
          "type": "uint256[]"
        },
        {
          "internalType": "uint256[]",
          "name": "booking_ids",
          "type": "uint256[]"
        }
      ],
      "name": "bookResale",
      "outputs": [],
      "stateMutability": "payable",
      "type": "function"
    },
    {
      "inputs": [
        {
          "internalType": "uint256",
          "name": "apartment_id",
          "type": "uint256"
        },
        {
          "internalType": "uint256",
          "name": "booking_id",
          "type": "uint256"
        }
      ],
      "name": "checkIn",
      "outputs": [],
      "stateMutability": "nonpayable",
      "type": "function"
    },
    {
      "inputs": [
        {
          "internalType": "uint256",
          "name": "apartment_id",
          "type": "uint256"
        },
        {
          "internalType": "uint256",
          "name": "booking_id",
          "type": "uint256"
        }
      ],
      "name": "claimFunds",
      "outputs": [],
      "stateMutability": "nonpayable",
      "type": "function"
    },
    {
      "inputs": [
        {
          "internalType": "string",
          "name": "name",
          "type": "string"
        },
        {
          "internalType": "string",
          "name": "description",
          "type": "string"
        },
        {
          "internalType": "string",
          "name": "location",
          "type": "string"
        },
        {
          "internalType": "string",
          "name": "images",
          "type": "string"
        },
        {
          "internalType": "uint256",
          "name": "rooms",
          "type": "uint256"
        },
        {
          "internalType": "uint256",
          "name": "price",
          "type": "uint256"
        }
      ],
      "name": "createApartment",
      "outputs": [],
      "stateMutability": "nonpayable",
      "type": "function"
    },
    {
      "inputs": [
        {
          "internalType": "uint256",
          "name": "apartment_id",
          "type": "uint256"
        },
        {
          "internalType": "uint256",
          "name": "newPrice",
          "type": "uint256"
        },
        {
          "internalType": "uint256",
          "name": "booking_id",
          "type": "uint256"
        }
      ],
      "name": "createResale",
      "outputs": [],
      "stateMutability": "nonpayable",
      "type": "function"
    },
    {
      "inputs": [
        {
          "internalType": "uint256",
          "name": "id",
          "type": "uint256"
        }
      ],
      "name": "deleteApartment",
      "outputs": [],
      "stateMutability": "nonpayable",
      "type": "function"
    },
    {
      "inputs": [],
      "name": "ethUsdPriceFeed",
      "outputs": [
        {
          "internalType": "contract AggregatorV3Interface",
          "name": "",
          "type": "address"
        }
      ],
      "stateMutability": "view",
      "type": "function"
    },
    {
      "inputs": [],
      "name": "getAllApartments",
      "outputs": [
        {
          "components": [
            {
              "internalType": "uint256",
              "name": "id",
              "type": "uint256"
            },
            {
              "internalType": "string",
              "name": "name",
              "type": "string"
            },
            {
              "internalType": "string",
              "name": "description",
              "type": "string"
            },
            {
              "internalType": "string",
              "name": "location",
              "type": "string"
            },
            {
              "internalType": "string",
              "name": "images",
              "type": "string"
            },
            {
              "internalType": "uint256",
              "name": "rooms",
              "type": "uint256"
            },
            {
              "internalType": "uint256",
              "name": "price",
              "type": "uint256"
            },
            {
              "internalType": "address",
              "name": "owner",
              "type": "address"
            },
            {
              "internalType": "bool",
              "name": "booked",
              "type": "bool"
            },
            {
              "internalType": "bool",
              "name": "deleted",
              "type": "bool"
            },
            {
              "internalType": "uint256",
              "name": "timestamp",
              "type": "uint256"
            }
          ],
          "internalType": "struct TravelnCrypto.Apartment[]",
          "name": "Apartments",
          "type": "tuple[]"
        }
      ],
      "stateMutability": "view",
      "type": "function"
    },
    {
      "inputs": [
        {
          "internalType": "uint256",
          "name": "apartment_id",
          "type": "uint256"
        }
      ],
      "name": "getAllBookings",
      "outputs": [
        {
          "components": [
            {
              "internalType": "uint256",
              "name": "id",
              "type": "uint256"
            },
            {
              "internalType": "uint256",
              "name": "apartment_id",
              "type": "uint256"
            },
            {
              "internalType": "address",
              "name": "tenant",
              "type": "address"
            },
            {
              "internalType": "address",
              "name": "resale_tenant",
              "type": "address"
            },
            {
              "internalType": "uint256",
              "name": "date",
              "type": "uint256"
            },
            {
              "internalType": "uint256",
              "name": "price",
              "type": "uint256"
            },
            {
              "internalType": "bool",
              "name": "checked",
              "type": "bool"
            },
            {
              "internalType": "bool",
              "name": "cancelled",
              "type": "bool"
            },
            {
              "internalType": "bool",
              "name": "resale",
              "type": "bool"
            },
            {
              "internalType": "bool",
              "name": "dateRebooked",
              "type": "bool"
            }
          ],
          "internalType": "struct TravelnCrypto.Booking[]",
          "name": "",
          "type": "tuple[]"
        }
      ],
      "stateMutability": "view",
      "type": "function"
    },
    {
      "inputs": [],
      "name": "getAllResales",
      "outputs": [
        {
          "components": [
            {
              "internalType": "uint256",
              "name": "price",
              "type": "uint256"
            },
            {
              "internalType": "uint256",
              "name": "booking_id",
              "type": "uint256"
            },
            {
              "internalType": "uint256",
              "name": "date",
              "type": "uint256"
            },
            {
              "internalType": "address",
              "name": "reseller",
              "type": "address"
            },
            {
              "internalType": "address",
              "name": "new_tenant",
              "type": "address"
            }
          ],
          "internalType": "struct TravelnCrypto.Resale[]",
          "name": "",
          "type": "tuple[]"
        }
      ],
      "stateMutability": "view",
      "type": "function"
    },
    {
      "inputs": [
        {
          "internalType": "uint256",
          "name": "id",
          "type": "uint256"
        }
      ],
      "name": "getApartment",
      "outputs": [
        {
          "components": [
            {
              "internalType": "uint256",
              "name": "id",
              "type": "uint256"
            },
            {
              "internalType": "string",
              "name": "name",
              "type": "string"
            },
            {
              "internalType": "string",
              "name": "description",
              "type": "string"
            },
            {
              "internalType": "string",
              "name": "location",
              "type": "string"
            },
            {
              "internalType": "string",
              "name": "images",
              "type": "string"
            },
            {
              "internalType": "uint256",
              "name": "rooms",
              "type": "uint256"
            },
            {
              "internalType": "uint256",
              "name": "price",
              "type": "uint256"
            },
            {
              "internalType": "address",
              "name": "owner",
              "type": "address"
            },
            {
              "internalType": "bool",
              "name": "booked",
              "type": "bool"
            },
            {
              "internalType": "bool",
              "name": "deleted",
              "type": "bool"
            },
            {
              "internalType": "uint256",
              "name": "timestamp",
              "type": "uint256"
            }
          ],
          "internalType": "struct TravelnCrypto.Apartment",
          "name": "",
          "type": "tuple"
        }
      ],
      "stateMutability": "view",
      "type": "function"
    },
    {
      "inputs": [
        {
          "internalType": "uint256",
          "name": "apartment_id",
          "type": "uint256"
        },
        {
          "internalType": "uint256",
          "name": "booking_id",
          "type": "uint256"
        }
      ],
      "name": "getBooking",
      "outputs": [
        {
          "components": [
            {
              "internalType": "uint256",
              "name": "id",
              "type": "uint256"
            },
            {
              "internalType": "uint256",
              "name": "apartment_id",
              "type": "uint256"
            },
            {
              "internalType": "address",
              "name": "tenant",
              "type": "address"
            },
            {
              "internalType": "address",
              "name": "resale_tenant",
              "type": "address"
            },
            {
              "internalType": "uint256",
              "name": "date",
              "type": "uint256"
            },
            {
              "internalType": "uint256",
              "name": "price",
              "type": "uint256"
            },
            {
              "internalType": "bool",
              "name": "checked",
              "type": "bool"
            },
            {
              "internalType": "bool",
              "name": "cancelled",
              "type": "bool"
            },
            {
              "internalType": "bool",
              "name": "resale",
              "type": "bool"
            },
            {
              "internalType": "bool",
              "name": "dateRebooked",
              "type": "bool"
            }
          ],
          "internalType": "struct TravelnCrypto.Booking",
          "name": "",
          "type": "tuple"
        }
      ],
      "stateMutability": "view",
      "type": "function"
    },
    {
      "inputs": [
        {
          "internalType": "uint256",
          "name": "apartment_id",
          "type": "uint256"
        },
        {
          "internalType": "uint256",
          "name": "date",
          "type": "uint256"
        }
      ],
      "name": "getDisplayPrice",
      "outputs": [
        {
          "internalType": "uint256",
          "name": "",
          "type": "uint256"
        }
      ],
      "stateMutability": "view",
      "type": "function"
    },
    {
      "inputs": [],
      "name": "getPrice",
      "outputs": [
        {
          "internalType": "uint256",
          "name": "",
          "type": "uint256"
        }
      ],
      "stateMutability": "view",
      "type": "function"
    },
    {
      "inputs": [
        {
          "internalType": "uint256",
          "name": "apartment_id",
          "type": "uint256"
        }
      ],
      "name": "getQualifiedReviewers",
      "outputs": [
        {
          "internalType": "address[]",
          "name": "Tenants",
          "type": "address[]"
        }
      ],
      "stateMutability": "view",
      "type": "function"
    },
    {
      "inputs": [
        {
          "internalType": "uint256",
          "name": "apartment_id",
          "type": "uint256"
        }
      ],
      "name": "getReviews",
      "outputs": [
        {
          "components": [
            {
              "internalType": "uint256",
              "name": "id",
              "type": "uint256"
            },
            {
              "internalType": "uint256",
              "name": "apartment_id",
              "type": "uint256"
            },
            {
              "internalType": "string",
              "name": "reviewText",
              "type": "string"
            },
            {
              "internalType": "uint256",
              "name": "timestamp",
              "type": "uint256"
            },
            {
              "internalType": "address",
              "name": "owner",
              "type": "address"
            }
          ],
          "internalType": "struct TravelnCrypto.Review[]",
          "name": "",
          "type": "tuple[]"
        }
      ],
      "stateMutability": "view",
      "type": "function"
    },
    {
      "inputs": [
        {
          "internalType": "uint256",
          "name": "apartment_id",
          "type": "uint256"
        }
      ],
      "name": "getUnavailableDates",
      "outputs": [
        {
          "internalType": "uint256[]",
          "name": "",
          "type": "uint256[]"
        }
      ],
      "stateMutability": "view",
      "type": "function"
    },
    {
      "inputs": [],
      "name": "owner",
      "outputs": [
        {
          "internalType": "address",
          "name": "",
          "type": "address"
        }
      ],
      "stateMutability": "view",
      "type": "function"
    },
    {
      "inputs": [
        {
          "internalType": "uint256",
          "name": "apartment_id",
          "type": "uint256"
        },
        {
          "internalType": "uint256",
          "name": "booking_id",
          "type": "uint256"
        }
      ],
      "name": "refundBooking",
      "outputs": [],
      "stateMutability": "nonpayable",
      "type": "function"
    },
    {
      "inputs": [],
      "name": "renounceOwnership",
      "outputs": [],
      "stateMutability": "nonpayable",
      "type": "function"
    },
    {
      "inputs": [
        {
          "internalType": "uint256",
          "name": "",
          "type": "uint256"
        }
      ],
      "name": "resoldBookingIds",
      "outputs": [
        {
          "internalType": "uint256",
          "name": "",
          "type": "uint256"
        }
      ],
      "stateMutability": "view",
      "type": "function"
    },
    {
      "inputs": [],
      "name": "securityFee",
      "outputs": [
        {
          "internalType": "uint256",
          "name": "",
          "type": "uint256"
        }
      ],
      "stateMutability": "view",
      "type": "function"
    },
    {
      "inputs": [],
      "name": "taxPercent",
      "outputs": [
        {
          "internalType": "uint256",
          "name": "",
          "type": "uint256"
        }
      ],
      "stateMutability": "view",
      "type": "function"
    },
    {
      "inputs": [
        {
          "internalType": "uint256",
          "name": "apartment_id",
          "type": "uint256"
        }
      ],
      "name": "tenantBooked",
      "outputs": [
        {
          "internalType": "bool",
          "name": "",
          "type": "bool"
        }
      ],
      "stateMutability": "view",
      "type": "function"
    },
    {
      "inputs": [
        {
          "internalType": "address",
          "name": "newOwner",
          "type": "address"
        }
      ],
      "name": "transferOwnership",
      "outputs": [],
      "stateMutability": "nonpayable",
      "type": "function"
    },
    {
      "inputs": [
        {
          "internalType": "uint256",
          "name": "id",
          "type": "uint256"
        },
        {
          "internalType": "string",
          "name": "name",
          "type": "string"
        },
        {
          "internalType": "string",
          "name": "description",
          "type": "string"
        },
        {
          "internalType": "string",
          "name": "location",
          "type": "string"
        },
        {
          "internalType": "string",
          "name": "images",
          "type": "string"
        },
        {
          "internalType": "uint256",
          "name": "rooms",
          "type": "uint256"
        },
        {
          "internalType": "uint256",
          "name": "price",
          "type": "uint256"
        }
      ],
      "name": "updateApartment",
      "outputs": [],
      "stateMutability": "nonpayable",
      "type": "function"
    },
    {
      "inputs": [
        {
          "internalType": "uint256",
          "name": "id",
          "type": "uint256"
        },
        {
          "internalType": "uint256",
          "name": "usdprice",
          "type": "uint256"
        }
      ],
      "name": "updatePrice",
      "outputs": [],
      "stateMutability": "nonpayable",
      "type": "function"
    }
  ],
  "bytecode": "0x6080604052600380546001600160a01b03191673694aa1769357215de4fac081bf1f309adc3253061790553480156200003757600080fd5b506040516200479e3803806200479e8339810160408190526200005a91620000c8565b620000653362000078565b60018055600591909155600455620000ed565b600080546001600160a01b038381166001600160a01b0319831681178455604051919092169283917f8be0079c531659141344cd1fd0a4f28419497f9722a3daafe3b4186f6b6457e09190a35050565b60008060408385031215620000dc57600080fd5b505080516020909101519092909150565b6146a180620000fd6000396000f3fe6080604052600436106101c25760003560e01c806382367b2d116100f7578063c2aaccfc11610095578063db2f80b711610064578063db2f80b71461054f578063df6e02221461057c578063f2fde38b1461058f578063f516f88e146105af57600080fd5b8063c2aaccfc146104cc578063c4452e06146104ec578063c788d6de14610519578063d68e13021461053957600080fd5b806398d5fdca116100d157806398d5fdca146104125780639d4a2255146104275780639f31a2be14610454578063b5efcf041461049f57600080fd5b806382367b2d146103c1578063870cb308146103e15780638da5cb5b146103f457600080fd5b8063455b30701161016457806367626e5d1161013e57806367626e5d14610354578063715018a6146103745780637541f41c146103895780637fd8984e1461039f57600080fd5b8063455b3070146102e757806355c3fbfb146103145780635bb0c5d61461033457600080fd5b80630f8685c4116101a05780630f8685c4146102415780631c32f0711461026f57806327c71c731461028f57806342f6fb29146102af57600080fd5b8063010b58ee146101c75780630397eee0146101e95780630bb9ce3314610214575b600080fd5b3480156101d357600080fd5b506101e76101e2366004613b06565b6105cf565b005b3480156101f557600080fd5b506101fe610926565b60405161020b9190613c3b565b60405180910390f35b34801561022057600080fd5b5061023461022f366004613c9d565b610d01565b60405161020b9190613cb6565b34801561024d57600080fd5b5061026161025c366004613b06565b610eaa565b60405190815260200161020b565b34801561027b57600080fd5b5061026161028a366004613c9d565b610fc1565b34801561029b57600080fd5b506101e76102aa366004613dba565b610fe2565b3480156102bb57600080fd5b506003546102cf906001600160a01b031681565b6040516001600160a01b03909116815260200161020b565b3480156102f357600080fd5b50610307610302366004613b06565b61164f565b60405161020b9190613f24565b34801561032057600080fd5b506101e761032f366004613c9d565b611723565b34801561034057600080fd5b506101e761034f366004613f33565b6117eb565b34801561036057600080fd5b506101e761036f366004613b06565b611a13565b34801561038057600080fd5b506101e7611e69565b34801561039557600080fd5b5061026160055481565b3480156103ab57600080fd5b506103b4611e7d565b60405161020b9190613f7a565b3480156103cd57600080fd5b506101e76103dc366004613b06565b611f9a565b6101e76103ef366004614077565b611ffb565b34801561040057600080fd5b506000546001600160a01b03166102cf565b34801561041e57600080fd5b50610261612407565b34801561043357600080fd5b50610447610442366004613c9d565b61249e565b60405161020b91906140e4565b34801561046057600080fd5b5061048f61046f366004613c9d565b336000908152600b60209081526040808320938352929052205460ff1690565b604051901515815260200161020b565b3480156104ab57600080fd5b506104bf6104ba366004613c9d565b6125d9565b60405161020b9190614182565b3480156104d857600080fd5b506101e76104e73660046141c5565b6126c4565b3480156104f857600080fd5b5061050c610507366004613c9d565b612b13565b60405161020b91906141f1565b34801561052557600080fd5b506101e761053436600461420b565b612de7565b34801561054557600080fd5b5061026160045481565b34801561055b57600080fd5b5061056f61056a366004613c9d565b61310c565b60405161020b91906142ca565b6101e761058a366004614302565b61316e565b34801561059b57600080fd5b506101e76105aa36600461433f565b6134cd565b3480156105bb57600080fd5b506101e76105ca366004613b06565b613546565b60008281526007602052604081208054839081106105ef576105ef614368565b60009182526020808320604080516101408101825260079485029092018054835260018101548385015260028101546001600160a01b039081168484015260038201548116606085015260048201546080850152600582015460a085015260069182015460ff808216151560c08701526101008083048216151560e088015262010000830482161515908701526301000000909104161515610120850152898752935290932090910154919250163314806106b457506000546001600160a01b031633145b61074a5760405162461bcd60e51b815260206004820152605660248201527f4572726f723a20596f7520617265206e6f7420617574686f72697a656420746f60448201527f20636c61696d20616e792066756e64732e20496620746869732069732061206d6064820152751a5cdd185ad94818dbdb9d1858dd081cdd5c1c1bdc9d60521b608482015260a4015b60405180910390fd5b600083815260076020526040902080548390811061076a5761076a614368565b600091825260209091206006600790920201015460ff16156108005760405162461bcd60e51b815260206004820152604360248201527f41706172746d656e7420697320616c726561647920636865636b656420496e2060448201527f6f6e20746869732064617465206e6f206e65656420746f20636c61696d2066756064820152626e647360e81b608482015260a401610741565b6108086137e4565b8160800151106108775760405162461bcd60e51b815260206004820152603460248201527f4e6f7420616c6c6f77656420746f20636c61696d2066756e6473206265666f72604482015273652074686520626f6f6b696e672064617465212160601b6064820152608401610741565b600083815260076020526040812080548490811061089757610897614368565b906000526020600020906007020160050154905060006064600554836108bd9190614394565b6108c791906143ab565b6000868152600660205260409020600701549091506108f8906001600160a01b03166108f383856143cd565b613803565b61091361090d6000546001600160a01b031690565b82613803565b61091f33600454613803565b5050505050565b6060600060015b600254811161097657600081815260066020526040902060070154600160a81b900460ff166109645781610960816143e0565b9250505b8061096e816143e0565b91505061092d565b508067ffffffffffffffff81111561099057610990613d03565b6040519080825280602002602001820160405280156109c957816020015b6109b6613a0a565b8152602001906001900390816109ae5790505b509150600060015b6002548111610cfb57600081815260066020526040902060070154600160a81b900460ff16610ce957600660008281526020019081526020016000206040518061016001604052908160008201548152602001600182018054610a33906143f9565b80601f0160208091040260200160405190810160405280929190818152602001828054610a5f906143f9565b8015610aac5780601f10610a8157610100808354040283529160200191610aac565b820191906000526020600020905b815481529060010190602001808311610a8f57829003601f168201915b50505050508152602001600282018054610ac5906143f9565b80601f0160208091040260200160405190810160405280929190818152602001828054610af1906143f9565b8015610b3e5780601f10610b1357610100808354040283529160200191610b3e565b820191906000526020600020905b815481529060010190602001808311610b2157829003601f168201915b50505050508152602001600382018054610b57906143f9565b80601f0160208091040260200160405190810160405280929190818152602001828054610b83906143f9565b8015610bd05780601f10610ba557610100808354040283529160200191610bd0565b820191906000526020600020905b815481529060010190602001808311610bb357829003601f168201915b50505050508152602001600482018054610be9906143f9565b80601f0160208091040260200160405190810160405280929190818152602001828054610c15906143f9565b8015610c625780601f10610c3757610100808354040283529160200191610c62565b820191906000526020600020905b815481529060010190602001808311610c4557829003601f168201915b5050509183525050600582015460208201526006820154604082015260078201546001600160a01b038116606083015260ff600160a01b8204811615156080840152600160a81b90910416151560a082015260089091015460c0909101528483610ccb816143e0565b945081518110610cdd57610cdd614368565b60200260200101819052505b80610cf3816143e0565b9150506109d1565b50505090565b60606000805b600084815260076020526040902054811015610d79576000848152600760205260409020805482908110610d3d57610d3d614368565b600091825260209091206006600790920201015460ff1615610d675781610d63816143e0565b9250505b80610d71816143e0565b915050610d07565b508067ffffffffffffffff811115610d9357610d93613d03565b604051908082528060200260200182016040528015610dbc578160200160208202803683370190505b5091506000805b600085815260076020526040902054811015610ea2576000858152600760205260409020805482908110610df957610df9614368565b600091825260209091206006600790920201015460ff1615610e90576000858152600760205260409020805482908110610e3557610e35614368565b60009182526020909120600260079092020101546001600160a01b03168483610e5d816143e0565b945081518110610e6f57610e6f614368565b60200260200101906001600160a01b031690816001600160a01b0316815250505b80610e9a816143e0565b915050610dc3565b505050919050565b6000828152600c602052604081205460ff16610ed85760405162461bcd60e51b815260040161074190614433565b600083815260116020908152604080832080548251818502810185019093528083529192909190830182828015610f2e57602002820191906000526020600020905b815481526020019060010190808311610f1a575b5050505050905060005b8151811015610fb45783828281518110610f5457610f54614368565b602002602001015103610fa257600085815260126020908152604080832087845290915281205490610f86878361164f565b516000908152601060205260409020549450610fbb9350505050565b80610fac816143e0565b915050610f38565b5060009150505b92915050565b600f8181548110610fd157600080fd5b600091825260209091200154905081565b6000878152600c602052604090205460ff16151560011461103c5760405162461bcd60e51b8152602060048201526014602482015273105c1c185c9d1b595b9d081b9bdd08199bdd5b9960621b6044820152606401610741565b6000878152600660205260409020600701546001600160a01b031633146110b05760405162461bcd60e51b815260206004820152602260248201527f556e617574686f72697a656420706572736f6e6e656c2c206f776e6572206f6e6044820152616c7960f01b6064820152608401610741565b60008651116110f85760405162461bcd60e51b81526020600482015260146024820152734e616d652063616e6e6f7420626520656d70747960601b6044820152606401610741565b60008551116111495760405162461bcd60e51b815260206004820152601b60248201527f4465736372697074696f6e2063616e6e6f7420626520656d70747900000000006044820152606401610741565b60008451116111955760405162461bcd60e51b81526020600482015260186024820152774c6f636174696f6e2063616e6e6f7420626520656d70747960401b6044820152606401610741565b60008351116111df5760405162461bcd60e51b8152602060048201526016602482015275496d616765732063616e6e6f7420626520656d70747960501b6044820152606401610741565b600082116112265760405162461bcd60e51b8152602060048201526014602482015273526f6f6d732063616e6e6f74206265207a65726f60601b6044820152606401610741565b6000811161126d5760405162461bcd60e51b815260206004820152601460248201527350726963652063616e6e6f74206265207a65726f60601b6044820152606401610741565b60006006600089815260200190815260200160002060405180610160016040529081600082015481526020016001820180546112a8906143f9565b80601f01602080910402602001604051908101604052809291908181526020018280546112d4906143f9565b80156113215780601f106112f657610100808354040283529160200191611321565b820191906000526020600020905b81548152906001019060200180831161130457829003601f168201915b5050505050815260200160028201805461133a906143f9565b80601f0160208091040260200160405190810160405280929190818152602001828054611366906143f9565b80156113b35780601f10611388576101008083540402835291602001916113b3565b820191906000526020600020905b81548152906001019060200180831161139657829003601f168201915b505050505081526020016003820180546113cc906143f9565b80601f01602080910402602001604051908101604052809291908181526020018280546113f8906143f9565b80156114455780601f1061141a57610100808354040283529160200191611445565b820191906000526020600020905b81548152906001019060200180831161142857829003601f168201915b5050505050815260200160048201805461145e906143f9565b80601f016020809104026020016040519081016040528092919081815260200182805461148a906143f9565b80156114d75780601f106114ac576101008083540402835291602001916114d7565b820191906000526020600020905b8154815290600101906020018083116114ba57829003601f168201915b5050509183525050600582015460208083019190915260068084015460408085019190915260078501546001600160a01b03811660608087019190915260ff600160a01b830481161515608080890191909152600160a81b90930416151560a08088019190915260089097015460c0968701528785018f81528884018f90529088018d90529087018b905294860189905292850187905260008d81529152208251815590519192508291600182019061159090826144b6565b50604082015160028201906115a590826144b6565b50606082015160038201906115ba90826144b6565b50608082015160048201906115cf90826144b6565b5060a0820151600582015560c0820151600682015560e08201516007820180546101008501516101208601511515600160a81b0260ff60a81b19911515600160a01b026001600160a81b03199093166001600160a01b03909516949094179190911716919091179055610140909101516008909101555050505050505050565b611657613a71565b600083815260076020526040902080548390811061167757611677614368565b6000918252602091829020604080516101408101825260079093029091018054835260018101549383019390935260028301546001600160a01b0390811691830191909152600383015416606082015260048201546080820152600582015460a082015260069091015460ff808216151560c08401526101008083048216151560e085015262010000830482161515908401526301000000909104161515610120820152905092915050565b6000818152600c602052604090205460ff1615156001146117565760405162461bcd60e51b815260040161074190614576565b6000818152600660205260409020600701546001600160a01b031633146117b55760405162461bcd60e51b8152602060048201526013602482015272556e617574686f72697a656420656e7469747960681b6044820152606401610741565b6000908152600c60209081526040808320805460ff1916905560069091529020600701805460ff60a81b1916600160a81b179055565b6000828152600c602052604090205460ff166118495760405162461bcd60e51b815260206004820152601a60248201527f41706172746d656e74206973206e6f7420617661696c61626c650000000000006044820152606401610741565b336000908152600b6020908152604080832085845290915290205460ff166118c55760405162461bcd60e51b815260206004820152602960248201527f4d75737420626f6f6b2061706172746d656e74206265666f726520796f752063604482015268616e2072657669657760b81b6064820152608401610741565b60008151116119215760405162461bcd60e51b815260206004820152602260248201527f596f752063616e6e6f74206c6561766520616e20656d70747920726576696577604482015261212160f01b6064820152608401610741565b61195c6040518060a001604052806000815260200160008152602001606081526020016000815260200160006001600160a01b031681525090565b60208082018490526000848152600890915260409081902054825281018290526119846137e4565b60608201523360808201526000838152600860209081526040808320805460018181018355918552938390208551600590950201938455918401519183019190915582015182919060028201906119db90826144b6565b5060608201516003820155608090910151600490910180546001600160a01b0319166001600160a01b03909216919091179055505050565b611a1b613863565b6000828152600760205260408120805483908110611a3b57611a3b614368565b6000918252602091829020604080516101408101825260079093029091018054835260018101549383019390935260028301546001600160a01b0390811691830191909152600383015416606082015260048201546080820152600582015460a082015260069091015460ff80821615801560c08501526101008084048316151560e086015262010000840483161515908501526301000000909204161515610120830152909150611b3f5760405162461bcd60e51b815260206004820152602760248201527f43616e6e6f7420726566756e64206166746572206265696e6720636865636b656044820152666420494e21212160c81b6064820152608401610741565b6000838152600a602090815260408083206080850151845290915290205460ff16611bac5760405162461bcd60e51b815260206004820181905260248201527f596f7520646964206e6f7420626f6f6b20666f722074686973206461746521216044820152606401610741565b6000546001600160a01b03163314611cb75780604001516001600160a01b0316336001600160a01b031614611c375760405162461bcd60e51b815260206004820152602b60248201527f4572726f723a20596f7520617265206e6f742061737369676e656420746f207460448201526a68697320626f6f6b696e6760a81b6064820152608401610741565b611c3f6137e4565b816080015111611cb75760405162461bcd60e51b815260206004820152603e60248201527f4572726f723a2054686520626f6f6b696e6720646174652068617320616c726560448201527f616479207061737365642c20796f752063616e6e6f7420726566756e642e00006064820152608401610741565b600083815260076020526040902080546001919084908110611cdb57611cdb614368565b6000918252602080832060066007909302019190910180549315156101000261ff001990941693909317909255848152600a82526040808220608085015183528352808220805460ff19169055858252600990925290812054611d40906001906143cd565b60008581526009602052604081208054929350909183908110611d6557611d65614368565b9060005260206000200154905080600960008781526020019081526020016000208581548110611d9757611d97614368565b906000526020600020018190555060096000868152602001908152602001600020805480611dc757611dc76145a3565b60019003818190600052602060002001600090559055600060646004548560a00151611df39190614394565b611dfd91906143ab565b90506000611e0c6002836143ab565b600088815260066020526040902060070154909150611e34906001600160a01b031682613803565b611e4961090d6000546001600160a01b031690565b611e57338660a00151613803565b5050505050611e6560018055565b5050565b611e716138bc565b611e7b6000613916565b565b600f5460609060008167ffffffffffffffff811115611e9e57611e9e613d03565b604051908082528060200260200182016040528015611ed757816020015b611ec4613ac5565b815260200190600190039081611ebc5790505b50905060005b82811015611f93576000600f8281548110611efa57611efa614368565b6000918252602080832090910154808352600e8252604092839020835160a0810185528154815260018201549381019390935260028101549383019390935260038301546001600160a01b0390811660608401526004909301549092166080820152845191925090849084908110611f7457611f74614368565b6020026020010181905250508080611f8b906143e0565b915050611edd565b5092915050565b6000828152600c602052604090205460ff161515600114611fcd5760405162461bcd60e51b815260040161074190614576565b80611fd6612407565b611fe09190614394565b60009283526006602081905260409093209092019190915550565b6000838152600c602052604090205460ff166120295760405162461bcd60e51b815260040161074190614433565b60005b825181101561240157600d600083838151811061204b5761204b614368565b60209081029190910181015182528101919091526040016000205460ff166120b55760405162461bcd60e51b815260206004820152601e60248201527f4572726f723a20426f6f6b696e672063616e6e6f7420626520666f756e6400006044820152606401610741565b600084815260076020526040812083518490849081106120d7576120d7614368565b6020026020010151815481106120ef576120ef614368565b6000918252602091829020604080516101408101825260079093029091018054835260018101549383019390935260028301546001600160a01b0390811691830191909152600383015416606082015260048201546080820152600582015460a082015260069091015460ff808216151560c08401526101008083048216151560e085015262010000830482161580159185019190915263010000009092041615156101208301529091506121e65760405162461bcd60e51b815260206004820152601960248201527f596f752063616e6e6f7420626f6f6b20746869732064617465000000000000006044820152606401610741565b606460045485516010600087878151811061220357612203614368565b60200260200101518152602001908152602001600020546122249190614394565b61222e9190614394565b61223891906143ab565b84516010600086868151811061225057612250614368565b60200260200101518152602001908152602001600020546122719190614394565b61227b91906145b9565b3410156122bf5760405162461bcd60e51b8152602060048201526012602482015271496e73756666696369656e742066756e642160701b6044820152606401610741565b3360608201526122cd613ac5565b601060008585815181106122e3576122e3614368565b602002602001015181526020019081526020016000205481600001818152505083838151811061231557612315614368565b602002602001015181602001818152505084838151811061233857612338614368565b60209081029190910101516040808301919091528201516001600160a01b0316606082015233608082015283518190600e9060009087908790811061237f5761237f614368565b602090810291909101810151825281810192909252604090810160002083518155918301516001830155820151600282015560608201516003820180546001600160a01b03199081166001600160a01b0393841617909155608090930151600490920180549093169116179055508190506123f9816143e0565b91505061202c565b50505050565b600080600360009054906101000a90046001600160a01b03166001600160a01b031663feaf968c6040518163ffffffff1660e01b815260040160a060405180830381865afa15801561245d573d6000803e3d6000fd5b505050506040513d601f19601f8201168201806040525081019061248191906145eb565b505050915050806402540be400612498919061463b565b91505090565b606060086000838152602001908152602001600020805480602002602001604051908101604052809291908181526020016000905b828210156125ce57838290600052602060002090600502016040518060a0016040529081600082015481526020016001820154815260200160028201805461251a906143f9565b80601f0160208091040260200160405190810160405280929190818152602001828054612546906143f9565b80156125935780601f1061256857610100808354040283529160200191612593565b820191906000526020600020905b81548152906001019060200180831161257657829003601f168201915b505050918352505060038201546020808301919091526004909201546001600160a01b031660409091015290825260019290920191016124d3565b505050509050919050565b606060076000838152602001908152602001600020805480602002602001604051908101604052809291908181526020016000905b828210156125ce576000848152602090819020604080516101408101825260078602909201805483526001808201548486015260028201546001600160a01b03908116938501939093526003820154909216606084015260048101546080840152600581015460a08401526006015460ff808216151560c08501526101008083048216151560e086015262010000830482161515908501526301000000909104161515610120830152908352909201910161260e565b6000838152600c602052604090205460ff1615156001146126f75760405162461bcd60e51b815260040161074190614576565b60008381526009602052604090205461276b5760405162461bcd60e51b815260206004820152603060248201527f41706172746d656e742073686f756c6420626520626f6f6b656420696e206f7260448201526f19195c881d1bc81899481c995cdbdb1960821b6064820152608401610741565b6000612777848361164f565b905080604001516001600160a01b0316336001600160a01b0316146127de5760405162461bcd60e51b815260206004820152601c60248201527f4572726f723a20556e617574686f72697a65642074656e616e742121000000006044820152606401610741565b8060c001511561287c5760405162461bcd60e51b815260206004820152605d60248201527f4572726f723a20596f752063616e6e6f74207075742061706172746d656e742060448201527f757020666f7220726573656c6c207768656e20796f75206861766520616c726560648201527f61647920636865636b6564496e20666f72207468697320646174652121000000608482015260a401610741565b6000848152600a602090815260408083206080850151845290915290205460ff166128e95760405162461bcd60e51b815260206004820181905260248201527f596f7520646964206e6f7420626f6f6b20666f722074686973206461746521216044820152606401610741565b60006128f6846064614394565b60008681526006602081905260408220015491925090612917906064614394565b90506064612926826078614394565b61293091906143ab565b82111561299a5760405162461bcd60e51b815260206004820152603260248201527f4e65772070726963652063616e6e6f74206578636565642031323025206f6620604482015271746865206f726967696e616c20707269636560701b6064820152608401610741565b600084815260106020908152604080832088905588835260079091529020805460019190869081106129ce576129ce614368565b600091825260208083206006600790930201919091018054931515620100000262ff00001990941693909317909255878152600a825260408082206080870180518452908452818320805460ff19169055898352601184528183208151815460018181018455928652868620015587518b855260128652838520925185529185528284209190915589835260099093528120549091612a6c916143cd565b60008881526009602052604081208054929350909183908110612a9157612a91614368565b9060005260206000200154905080600960008a81526020019081526020016000208781548110612ac357612ac3614368565b906000526020600020018190555060096000898152602001908152602001600020805480612af357612af36145a3565b600190038181906000526020600020016000905590555050505050505050565b612b1b613a0a565b600660008381526020019081526020016000206040518061016001604052908160008201548152602001600182018054612b54906143f9565b80601f0160208091040260200160405190810160405280929190818152602001828054612b80906143f9565b8015612bcd5780601f10612ba257610100808354040283529160200191612bcd565b820191906000526020600020905b815481529060010190602001808311612bb057829003601f168201915b50505050508152602001600282018054612be6906143f9565b80601f0160208091040260200160405190810160405280929190818152602001828054612c12906143f9565b8015612c5f5780601f10612c3457610100808354040283529160200191612c5f565b820191906000526020600020905b815481529060010190602001808311612c4257829003601f168201915b50505050508152602001600382018054612c78906143f9565b80601f0160208091040260200160405190810160405280929190818152602001828054612ca4906143f9565b8015612cf15780601f10612cc657610100808354040283529160200191612cf1565b820191906000526020600020905b815481529060010190602001808311612cd457829003601f168201915b50505050508152602001600482018054612d0a906143f9565b80601f0160208091040260200160405190810160405280929190818152602001828054612d36906143f9565b8015612d835780601f10612d5857610100808354040283529160200191612d83565b820191906000526020600020905b815481529060010190602001808311612d6657829003601f168201915b5050509183525050600582015460208201526006820154604082015260078201546001600160a01b038116606083015260ff600160a01b8204811615156080840152600160a81b90910416151560a082015260089091015460c09091015292915050565b6000865111612e2f5760405162461bcd60e51b81526020600482015260146024820152734e616d652063616e6e6f7420626520656d70747960601b6044820152606401610741565b6000855111612e805760405162461bcd60e51b815260206004820152601b60248201527f4465736372697074696f6e2063616e6e6f7420626520656d70747900000000006044820152606401610741565b6000845111612ecc5760405162461bcd60e51b81526020600482015260186024820152774c6f636174696f6e2063616e6e6f7420626520656d70747960401b6044820152606401610741565b6000835111612f165760405162461bcd60e51b8152602060048201526016602482015275496d616765732063616e6e6f7420626520656d70747960501b6044820152606401610741565b60008211612f5d5760405162461bcd60e51b8152602060048201526014602482015273526f6f6d732063616e6e6f74206265207a65726f60601b6044820152606401610741565b60008111612fa45760405162461bcd60e51b815260206004820152601460248201527350726963652063616e6e6f74206265207a65726f60601b6044820152606401610741565b612fb2600280546001019055565b612fba613a0a565b60025481526020810187905260408101869052606081018590526080810184905260a0810183905260c081018290523360e0820152612ff76137e4565b61014082015280516000908152600c60205260408120805460ff19166001179055819060069061302660025490565b81526020808201929092526040016000208251815590820151600182019061304e90826144b6565b506040820151600282019061306390826144b6565b506060820151600382019061307890826144b6565b506080820151600482019061308d90826144b6565b5060a0820151600582015560c0820151600682015560e08201516007820180546101008501516101208601511515600160a81b0260ff60a81b19911515600160a01b026001600160a81b03199093166001600160a01b039095169490941791909117169190911790556101409091015160089091015550505050505050565b60008181526009602090815260409182902080548351818402810184019094528084526060939283018282801561316257602002820191906000526020600020905b81548152602001906001019080831161314e575b50505050509050919050565b6000828152600c602052604090205460ff1661319c5760405162461bcd60e51b815260040161074190614433565b600454815160008481526006602081905260409091200154606492916131c191614394565b6131cb9190614394565b6131d591906143ab565b8151600084815260066020819052604090912001546131f49190614394565b6131fe91906145b9565b3410156132425760405162461bcd60e51b8152602060048201526012602482015271496e73756666696369656e742066756e642160701b6044820152606401610741565b61324c8282613966565b6132a65760405162461bcd60e51b815260206004820152602560248201527f4572726f723a2054686973204461746520697320616c726561647920626f6f6b604482015264032b21090960dd1b6064820152608401610741565b60005b81518110156134c8576132ba613a71565b60208082018590526000858152600790915260409081902054825233908201819052606082015282518390839081106132f5576132f5614368565b6020908102919091018101516080830190815260008681526006808452604080832082015460a0870190815289845260078087528285208054600180820183559187528887208a51919093029092019182558888015182820155838901516002830180546001600160a01b03199081166001600160a01b039384161790915560608b01516003850180549092169216919091179055955160048201559051600582015560c08701519201805460e0880151610100808a01516101208b015161ffff1990941696151561ff00191696909617911515021763ffff00001916620100009415159490940263ff00000019169390931763010000009315159390930292909217909155878252600a90935291822085519192909186908690811061341e5761341e614368565b60209081029190910181015182528181019290925260409081016000908120805460ff1916941515949094179093556101008401839052610120840183905286835260099091529020835184908490811061347b5761347b614368565b60209081029190910181015182546001818101855560009485528385209091019190915592518252600d905260409020805460ff19169091179055806134c0816143e0565b9150506132a9565b505050565b6134d56138bc565b6001600160a01b03811661353a5760405162461bcd60e51b815260206004820152602660248201527f4f776e61626c653a206e6577206f776e657220697320746865207a65726f206160448201526564647265737360d01b6064820152608401610741565b61354381613916565b50565b600082815260076020526040812080548390811061356657613566614368565b6000918252602091829020604080516101408101825260079093029091018054835260018101549383019390935260028301546001600160a01b03908116918301829052600384015416606083015260048301546080830152600583015460a083015260069092015460ff808216151560c08401526101008083048216151560e085015262010000830482161515908401526301000000909104161515610120820152915033146136595760405162461bcd60e51b815260206004820152601c60248201527f4572726f723a20556e617574686f72697a65642074656e616e742121000000006044820152606401610741565b8060c00151156136e45760405162461bcd60e51b815260206004820152604a60248201527f41706172746d656e7420616c726561647920636865636b656420666f7220746860448201527f6973206461746520446f75626c6520636865636b696e67206973206e6f74207060648201526972656d6974746564212160b01b608482015260a401610741565b60008381526007602052604090208054600191908490811061370857613708614368565b60009182526020822060079190910201600601805460ff19169215159290921790915560055460a083015160649161373f91614394565b61374991906143ab565b9050600060646004548460a001516137619190614394565b61376b91906143ab565b336000908152600b602090815260408083208984528252808320805460ff19166001179055600690915290206007015460a08501519192506137bf916001600160a01b0391909116906108f39085906143cd565b6137da6137d46000546001600160a01b031690565b83613803565b61091f3382613803565b60006137f2426103e8614394565b6137fe906103e86145b9565b905090565b6000826001600160a01b03168260405160006040518083038185875af1925050503d8060008114613850576040519150601f19603f3d011682016040523d82523d6000602084013e613855565b606091505b50509050806134c857600080fd5b6002600154036138b55760405162461bcd60e51b815260206004820152601f60248201527f5265656e7472616e637947756172643a207265656e7472616e742063616c6c006044820152606401610741565b6002600155565b6000546001600160a01b03163314611e7b5760405162461bcd60e51b815260206004820181905260248201527f4f776e61626c653a2063616c6c6572206973206e6f7420746865206f776e65726044820152606401610741565b600080546001600160a01b038381166001600160a01b0319831681178455604051919092169283917f8be0079c531659141344cd1fd0a4f28419497f9722a3daafe3b4186f6b6457e09190a35050565b60006001815b8351811015613a025760005b6000868152600960205260409020548110156139ef5760008681526009602052604090208054829081106139ae576139ae614368565b90600052602060002001548583815181106139cb576139cb614368565b6020026020010151036139dd57600092505b806139e7816143e0565b915050613978565b50806139fa816143e0565b91505061396c565b509392505050565b6040518061016001604052806000815260200160608152602001606081526020016060815260200160608152602001600081526020016000815260200160006001600160a01b03168152602001600015158152602001600015158152602001600081525090565b6040805161014081018252600080825260208201819052918101829052606081018290526080810182905260a0810182905260c0810182905260e08101829052610100810182905261012081019190915290565b6040518060a0016040528060008152602001600081526020016000815260200160006001600160a01b0316815260200160006001600160a01b031681525090565b60008060408385031215613b1957600080fd5b50508035926020909101359150565b6000815180845260005b81811015613b4e57602081850181015186830182015201613b32565b506000602082860101526020601f19601f83011685010191505092915050565b6000610160825184526020830151816020860152613b8e82860182613b28565b91505060408301518482036040860152613ba88282613b28565b91505060608301518482036060860152613bc28282613b28565b91505060808301518482036080860152613bdc8282613b28565b91505060a083015160a085015260c083015160c085015260e0830151613c0d60e08601826001600160a01b03169052565b5061010083810151151590850152610120808401511515908501526101409283015192909301919091525090565b6000602080830181845280855180835260408601915060408160051b870101925083870160005b82811015613c9057603f19888603018452613c7e858351613b6e565b94509285019290850190600101613c62565b5092979650505050505050565b600060208284031215613caf57600080fd5b5035919050565b6020808252825182820181905260009190848201906040850190845b81811015613cf75783516001600160a01b031683529284019291840191600101613cd2565b50909695505050505050565b634e487b7160e01b600052604160045260246000fd5b604051601f8201601f1916810167ffffffffffffffff81118282101715613d4257613d42613d03565b604052919050565b600082601f830112613d5b57600080fd5b813567ffffffffffffffff811115613d7557613d75613d03565b613d88601f8201601f1916602001613d19565b818152846020838601011115613d9d57600080fd5b816020850160208301376000918101602001919091529392505050565b600080600080600080600060e0888a031215613dd557600080fd5b87359650602088013567ffffffffffffffff80821115613df457600080fd5b613e008b838c01613d4a565b975060408a0135915080821115613e1657600080fd5b613e228b838c01613d4a565b965060608a0135915080821115613e3857600080fd5b613e448b838c01613d4a565b955060808a0135915080821115613e5a57600080fd5b50613e678a828b01613d4a565b93505060a0880135915060c0880135905092959891949750929550565b80518252602081015160208301526040810151613eac60408401826001600160a01b03169052565b506060810151613ec760608401826001600160a01b03169052565b506080810151608083015260a081015160a083015260c0810151613eef60c084018215159052565b5060e0810151613f0360e084018215159052565b50610100818101511515908301526101208082015180151582850152612401565b6101408101610fbb8284613e84565b60008060408385031215613f4657600080fd5b82359150602083013567ffffffffffffffff811115613f6457600080fd5b613f7085828601613d4a565b9150509250929050565b602080825282518282018190526000919060409081850190868401855b82811015613fea57815180518552868101518786015285810151868601526060808201516001600160a01b0390811691870191909152608091820151169085015260a09093019290850190600101613f97565b5091979650505050505050565b600082601f83011261400857600080fd5b8135602067ffffffffffffffff82111561402457614024613d03565b8160051b614033828201613d19565b928352848101820192828101908785111561404d57600080fd5b83870192505b8483101561406c57823582529183019190830190614053565b979650505050505050565b60008060006060848603121561408c57600080fd5b83359250602084013567ffffffffffffffff808211156140ab57600080fd5b6140b787838801613ff7565b935060408601359150808211156140cd57600080fd5b506140da86828701613ff7565b9150509250925092565b60006020808301818452808551808352604092508286019150828160051b87010184880160005b8381101561417457603f19898403018552815160a081518552888201518986015287820151818987015261414182870182613b28565b606084810151908801526080938401516001600160a01b031693909601929092525050938601939086019060010161410b565b509098975050505050505050565b6020808252825182820181905260009190848201906040850190845b81811015613cf7576141b1838551613e84565b92840192610140929092019160010161419e565b6000806000606084860312156141da57600080fd5b505081359360208301359350604090920135919050565b6020815260006142046020830184613b6e565b9392505050565b60008060008060008060c0878903121561422457600080fd5b863567ffffffffffffffff8082111561423c57600080fd5b6142488a838b01613d4a565b9750602089013591508082111561425e57600080fd5b61426a8a838b01613d4a565b9650604089013591508082111561428057600080fd5b61428c8a838b01613d4a565b955060608901359150808211156142a257600080fd5b506142af89828a01613d4a565b9350506080870135915060a087013590509295509295509295565b6020808252825182820181905260009190848201906040850190845b81811015613cf7578351835292840192918401916001016142e6565b6000806040838503121561431557600080fd5b82359150602083013567ffffffffffffffff81111561433357600080fd5b613f7085828601613ff7565b60006020828403121561435157600080fd5b81356001600160a01b038116811461420457600080fd5b634e487b7160e01b600052603260045260246000fd5b634e487b7160e01b600052601160045260246000fd5b8082028115828204841417610fbb57610fbb61437e565b6000826143c857634e487b7160e01b600052601260045260246000fd5b500490565b81810381811115610fbb57610fbb61437e565b6000600182016143f2576143f261437e565b5060010190565b600181811c9082168061440d57607f821691505b60208210810361442d57634e487b7160e01b600052602260045260246000fd5b50919050565b6020808252818101527f4572726f723a2041706172746d656e742063616e6e6f7420626520666f756e64604082015260600190565b601f8211156134c857600081815260208120601f850160051c8101602086101561448f5750805b601f850160051c820191505b818110156144ae5782815560010161449b565b505050505050565b815167ffffffffffffffff8111156144d0576144d0613d03565b6144e4816144de84546143f9565b84614468565b602080601f83116001811461451957600084156145015750858301515b600019600386901b1c1916600185901b1785556144ae565b600085815260208120601f198616915b8281101561454857888601518255948401946001909101908401614529565b50858210156145665787850151600019600388901b60f8161c191681555b5050505050600190811b01905550565b602080825260139082015272105c185c9d1b595b9d081b9bdd08199bdd5b99606a1b604082015260600190565b634e487b7160e01b600052603160045260246000fd5b80820180821115610fbb57610fbb61437e565b805169ffffffffffffffffffff811681146145e657600080fd5b919050565b600080600080600060a0868803121561460357600080fd5b61460c866145cc565b945060208601519350604086015192506060860151915061462f608087016145cc565b90509295509295909350565b80820260008212600160ff1b841416156146575761465761437e565b8181058314821517610fbb57610fbb61437e56fea264697066735822122073dd3678e330021d697a62d69609c4a67c9c541ed38f01b5439617708b1536c064736f6c63430008130033",
  "linkReferences": {},
  "deployedLinkReferences": {}
}