{
  "_format": "hh-sol-artifact-1",
  "contractName": "TravelnCrypto",
  "sourceName": "contracts/TravelnCrypto.sol",
  "abi": [
    {
      "inputs": [
        {
          "internalType": "uint256",
          "name": "_taxPercent",
          "type": "uint256"
        },
        {
          "internalType": "uint256",
          "name": "_securityFee",
          "type": "uint256"
        }
      ],
      "stateMutability": "nonpayable",
      "type": "constructor"
    },
    {
      "anonymous": false,
      "inputs": [
        {
          "indexed": true,
          "internalType": "address",
          "name": "previousOwner",
          "type": "address"
        },
        {
          "indexed": true,
          "internalType": "address",
          "name": "newOwner",
          "type": "address"
        }
      ],
      "name": "OwnershipTransferred",
      "type": "event"
    },
    {
      "inputs": [
        {
          "internalType": "uint256",
          "name": "apartment_id",
          "type": "uint256"
        },
        {
          "internalType": "string",
          "name": "message",
          "type": "string"
        }
      ],
      "name": "addReview",
      "outputs": [],
      "stateMutability": "nonpayable",
      "type": "function"
    },
    {
      "inputs": [
        {
          "internalType": "uint256",
          "name": "apartment_id",
          "type": "uint256"
        },
        {
          "internalType": "uint256[]",
          "name": "dates",
          "type": "uint256[]"
        }
      ],
      "name": "bookApartment",
      "outputs": [],
      "stateMutability": "payable",
      "type": "function"
    },
    {
      "inputs": [
        {
          "internalType": "uint256",
          "name": "apartment_id",
          "type": "uint256"
        },
        {
          "internalType": "uint256",
          "name": "booking_id",
          "type": "uint256"
        }
      ],
      "name": "checkIn",
      "outputs": [],
      "stateMutability": "nonpayable",
      "type": "function"
    },
    {
      "inputs": [
        {
          "internalType": "uint256",
          "name": "apartment_id",
          "type": "uint256"
        },
        {
          "internalType": "uint256",
          "name": "booking_id",
          "type": "uint256"
        }
      ],
      "name": "claimFunds",
      "outputs": [],
      "stateMutability": "nonpayable",
      "type": "function"
    },
    {
      "inputs": [
        {
          "internalType": "string",
          "name": "name",
          "type": "string"
        },
        {
          "internalType": "string",
          "name": "description",
          "type": "string"
        },
        {
          "internalType": "string",
          "name": "location",
          "type": "string"
        },
        {
          "internalType": "string",
          "name": "images",
          "type": "string"
        },
        {
          "internalType": "uint256",
          "name": "rooms",
          "type": "uint256"
        },
        {
          "internalType": "uint256",
          "name": "price",
          "type": "uint256"
        }
      ],
      "name": "createApartment",
      "outputs": [],
      "stateMutability": "nonpayable",
      "type": "function"
    },
    {
      "inputs": [
        {
          "internalType": "uint256",
          "name": "id",
          "type": "uint256"
        }
      ],
      "name": "deleteApartment",
      "outputs": [],
      "stateMutability": "nonpayable",
      "type": "function"
    },
    {
      "inputs": [],
      "name": "ethUsdPriceFeed",
      "outputs": [
        {
          "internalType": "contract AggregatorV3Interface",
          "name": "",
          "type": "address"
        }
      ],
      "stateMutability": "view",
      "type": "function"
    },
    {
      "inputs": [],
      "name": "getAllApartments",
      "outputs": [
        {
          "components": [
            {
              "internalType": "uint256",
              "name": "id",
              "type": "uint256"
            },
            {
              "internalType": "string",
              "name": "name",
              "type": "string"
            },
            {
              "internalType": "string",
              "name": "description",
              "type": "string"
            },
            {
              "internalType": "string",
              "name": "location",
              "type": "string"
            },
            {
              "internalType": "string",
              "name": "images",
              "type": "string"
            },
            {
              "internalType": "uint256",
              "name": "rooms",
              "type": "uint256"
            },
            {
              "internalType": "uint256",
              "name": "price",
              "type": "uint256"
            },
            {
              "internalType": "address",
              "name": "owner",
              "type": "address"
            },
            {
              "internalType": "bool",
              "name": "booked",
              "type": "bool"
            },
            {
              "internalType": "bool",
              "name": "deleted",
              "type": "bool"
            },
            {
              "internalType": "uint256",
              "name": "timestamp",
              "type": "uint256"
            }
          ],
          "internalType": "struct TravelnCrypto.Apartment[]",
          "name": "Apartments",
          "type": "tuple[]"
        }
      ],
      "stateMutability": "view",
      "type": "function"
    },
    {
      "inputs": [
        {
          "internalType": "uint256",
          "name": "apartment_id",
          "type": "uint256"
        }
      ],
      "name": "getAllBookings",
      "outputs": [
        {
          "components": [
            {
              "internalType": "uint256",
              "name": "id",
              "type": "uint256"
            },
            {
              "internalType": "uint256",
              "name": "apartment_id",
              "type": "uint256"
            },
            {
              "internalType": "address",
              "name": "tenant",
              "type": "address"
            },
            {
              "internalType": "uint256",
              "name": "date",
              "type": "uint256"
            },
            {
              "internalType": "uint256",
              "name": "price",
              "type": "uint256"
            },
            {
              "internalType": "bool",
              "name": "checked",
              "type": "bool"
            },
            {
              "internalType": "bool",
              "name": "cancelled",
              "type": "bool"
            }
          ],
          "internalType": "struct TravelnCrypto.Booking[]",
          "name": "",
          "type": "tuple[]"
        }
      ],
      "stateMutability": "view",
      "type": "function"
    },
    {
      "inputs": [
        {
          "internalType": "uint256",
          "name": "id",
          "type": "uint256"
        }
      ],
      "name": "getApartment",
      "outputs": [
        {
          "components": [
            {
              "internalType": "uint256",
              "name": "id",
              "type": "uint256"
            },
            {
              "internalType": "string",
              "name": "name",
              "type": "string"
            },
            {
              "internalType": "string",
              "name": "description",
              "type": "string"
            },
            {
              "internalType": "string",
              "name": "location",
              "type": "string"
            },
            {
              "internalType": "string",
              "name": "images",
              "type": "string"
            },
            {
              "internalType": "uint256",
              "name": "rooms",
              "type": "uint256"
            },
            {
              "internalType": "uint256",
              "name": "price",
              "type": "uint256"
            },
            {
              "internalType": "address",
              "name": "owner",
              "type": "address"
            },
            {
              "internalType": "bool",
              "name": "booked",
              "type": "bool"
            },
            {
              "internalType": "bool",
              "name": "deleted",
              "type": "bool"
            },
            {
              "internalType": "uint256",
              "name": "timestamp",
              "type": "uint256"
            }
          ],
          "internalType": "struct TravelnCrypto.Apartment",
          "name": "",
          "type": "tuple"
        }
      ],
      "stateMutability": "view",
      "type": "function"
    },
    {
      "inputs": [
        {
          "internalType": "uint256",
          "name": "apartment_id",
          "type": "uint256"
        },
        {
          "internalType": "uint256",
          "name": "booking_id",
          "type": "uint256"
        }
      ],
      "name": "getBooking",
      "outputs": [
        {
          "components": [
            {
              "internalType": "uint256",
              "name": "id",
              "type": "uint256"
            },
            {
              "internalType": "uint256",
              "name": "apartment_id",
              "type": "uint256"
            },
            {
              "internalType": "address",
              "name": "tenant",
              "type": "address"
            },
            {
              "internalType": "uint256",
              "name": "date",
              "type": "uint256"
            },
            {
              "internalType": "uint256",
              "name": "price",
              "type": "uint256"
            },
            {
              "internalType": "bool",
              "name": "checked",
              "type": "bool"
            },
            {
              "internalType": "bool",
              "name": "cancelled",
              "type": "bool"
            }
          ],
          "internalType": "struct TravelnCrypto.Booking",
          "name": "",
          "type": "tuple"
        }
      ],
      "stateMutability": "view",
      "type": "function"
    },
    {
      "inputs": [],
      "name": "getPrice",
      "outputs": [
        {
          "internalType": "uint256",
          "name": "",
          "type": "uint256"
        }
      ],
      "stateMutability": "view",
      "type": "function"
    },
    {
      "inputs": [
        {
          "internalType": "uint256",
          "name": "apartment_id",
          "type": "uint256"
        }
      ],
      "name": "getQualifiedReviewers",
      "outputs": [
        {
          "internalType": "address[]",
          "name": "Tenants",
          "type": "address[]"
        }
      ],
      "stateMutability": "view",
      "type": "function"
    },
    {
      "inputs": [
        {
          "internalType": "uint256",
          "name": "apartment_id",
          "type": "uint256"
        }
      ],
      "name": "getReviews",
      "outputs": [
        {
          "components": [
            {
              "internalType": "uint256",
              "name": "id",
              "type": "uint256"
            },
            {
              "internalType": "uint256",
              "name": "apartment_id",
              "type": "uint256"
            },
            {
              "internalType": "string",
              "name": "reviewText",
              "type": "string"
            },
            {
              "internalType": "uint256",
              "name": "timestamp",
              "type": "uint256"
            },
            {
              "internalType": "address",
              "name": "owner",
              "type": "address"
            }
          ],
          "internalType": "struct TravelnCrypto.Review[]",
          "name": "",
          "type": "tuple[]"
        }
      ],
      "stateMutability": "view",
      "type": "function"
    },
    {
      "inputs": [
        {
          "internalType": "uint256",
          "name": "apartment_id",
          "type": "uint256"
        }
      ],
      "name": "getUnavailableDates",
      "outputs": [
        {
          "internalType": "uint256[]",
          "name": "",
          "type": "uint256[]"
        }
      ],
      "stateMutability": "view",
      "type": "function"
    },
    {
      "inputs": [],
      "name": "owner",
      "outputs": [
        {
          "internalType": "address",
          "name": "",
          "type": "address"
        }
      ],
      "stateMutability": "view",
      "type": "function"
    },
    {
      "inputs": [
        {
          "internalType": "uint256",
          "name": "apartment_id",
          "type": "uint256"
        },
        {
          "internalType": "uint256",
          "name": "booking_id",
          "type": "uint256"
        }
      ],
      "name": "refundBooking",
      "outputs": [],
      "stateMutability": "nonpayable",
      "type": "function"
    },
    {
      "inputs": [],
      "name": "renounceOwnership",
      "outputs": [],
      "stateMutability": "nonpayable",
      "type": "function"
    },
    {
      "inputs": [],
      "name": "securityFee",
      "outputs": [
        {
          "internalType": "uint256",
          "name": "",
          "type": "uint256"
        }
      ],
      "stateMutability": "view",
      "type": "function"
    },
    {
      "inputs": [
        {
          "internalType": "uint256",
          "name": "id",
          "type": "uint256"
        },
        {
          "internalType": "uint256",
          "name": "newPrice",
          "type": "uint256"
        }
      ],
      "name": "sublet",
      "outputs": [],
      "stateMutability": "nonpayable",
      "type": "function"
    },
    {
      "inputs": [],
      "name": "taxPercent",
      "outputs": [
        {
          "internalType": "uint256",
          "name": "",
          "type": "uint256"
        }
      ],
      "stateMutability": "view",
      "type": "function"
    },
    {
      "inputs": [
        {
          "internalType": "uint256",
          "name": "apartment_id",
          "type": "uint256"
        }
      ],
      "name": "tenantBooked",
      "outputs": [
        {
          "internalType": "bool",
          "name": "",
          "type": "bool"
        }
      ],
      "stateMutability": "view",
      "type": "function"
    },
    {
      "inputs": [
        {
          "internalType": "address",
          "name": "newOwner",
          "type": "address"
        }
      ],
      "name": "transferOwnership",
      "outputs": [],
      "stateMutability": "nonpayable",
      "type": "function"
    },
    {
      "inputs": [
        {
          "internalType": "uint256",
          "name": "id",
          "type": "uint256"
        },
        {
          "internalType": "string",
          "name": "name",
          "type": "string"
        },
        {
          "internalType": "string",
          "name": "description",
          "type": "string"
        },
        {
          "internalType": "string",
          "name": "location",
          "type": "string"
        },
        {
          "internalType": "string",
          "name": "images",
          "type": "string"
        },
        {
          "internalType": "uint256",
          "name": "rooms",
          "type": "uint256"
        },
        {
          "internalType": "uint256",
          "name": "price",
          "type": "uint256"
        }
      ],
      "name": "updateApartment",
      "outputs": [],
      "stateMutability": "nonpayable",
      "type": "function"
    },
    {
      "inputs": [
        {
          "internalType": "uint256",
          "name": "id",
          "type": "uint256"
        },
        {
          "internalType": "uint256",
          "name": "usdprice",
          "type": "uint256"
        }
      ],
      "name": "updatePrice",
      "outputs": [],
      "stateMutability": "nonpayable",
      "type": "function"
    }
  ],
  "bytecode": "0x6080604052600380546001600160a01b03191673694aa1769357215de4fac081bf1f309adc3253061790553480156200003757600080fd5b50604051620039f6380380620039f68339810160408190526200005a91620000c8565b620000653362000078565b60018055600591909155600455620000ed565b600080546001600160a01b038381166001600160a01b0319831681178455604051919092169283917f8be0079c531659141344cd1fd0a4f28419497f9722a3daafe3b4186f6b6457e09190a35050565b60008060408385031215620000dc57600080fd5b505080516020909101519092909150565b6138f980620000fd6000396000f3fe6080604052600436106101665760003560e01c806382367b2d116100d1578063c4452e061161008a578063db2f80b711610064578063db2f80b71461047e578063df6e0222146104ab578063f2fde38b146104be578063f516f88e146104de57600080fd5b8063c4452e061461041b578063c788d6de14610448578063d68e13021461046857600080fd5b806382367b2d146103235780638da5cb5b1461034357806398d5fdca146103615780639d4a2255146103765780639f31a2be146103a3578063b5efcf04146103ee57600080fd5b8063455b307011610123578063455b30701461025d57806355c3fbfb1461028a5780635bb0c5d6146102aa57806367626e5d146102ca578063715018a6146102ea5780637541f41c146102ff57600080fd5b8063010b58ee1461016b5780630397eee01461018d5780630bb9ce33146101b857806327c71c73146101e55780632db02d381461020557806342f6fb2914610225575b600080fd5b34801561017757600080fd5b5061018b610186366004612f07565b6104fe565b005b34801561019957600080fd5b506101a2610829565b6040516101af919061303c565b60405180910390f35b3480156101c457600080fd5b506101d86101d336600461309e565b610c04565b6040516101af91906130b7565b3480156101f157600080fd5b5061018b6102003660046131bb565b610dad565b34801561021157600080fd5b5061018b610220366004612f07565b6113f3565b34801561023157600080fd5b50600354610245906001600160a01b031681565b6040516001600160a01b0390911681526020016101af565b34801561026957600080fd5b5061027d610278366004612f07565b6114f0565b6040516101af91906132d3565b34801561029657600080fd5b5061018b6102a536600461309e565b611594565b3480156102b657600080fd5b5061018b6102c53660046132e1565b611682565b3480156102d657600080fd5b5061018b6102e5366004612f07565b6118aa565b3480156102f657600080fd5b5061018b611ccf565b34801561030b57600080fd5b5061031560055481565b6040519081526020016101af565b34801561032f57600080fd5b5061018b61033e366004612f07565b611ce3565b34801561034f57600080fd5b506000546001600160a01b0316610245565b34801561036d57600080fd5b50610315611d44565b34801561038257600080fd5b5061039661039136600461309e565b611ddb565b6040516101af9190613328565b3480156103af57600080fd5b506103de6103be36600461309e565b336000908152600b60209081526040808320938352929052205460ff1690565b60405190151581526020016101af565b3480156103fa57600080fd5b5061040e61040936600461309e565b611f16565b6040516101af91906133c6565b34801561042757600080fd5b5061043b61043636600461309e565b611fd1565b6040516101af9190613408565b34801561045457600080fd5b5061018b610463366004613422565b6122a5565b34801561047457600080fd5b5061031560045481565b34801561048a57600080fd5b5061049e61049936600461309e565b6125ca565b6040516101af91906134e1565b61018b6104b9366004613519565b61262c565b3480156104ca57600080fd5b5061018b6104d93660046135cb565b612946565b3480156104ea57600080fd5b5061018b6104f9366004612f07565b6129bf565b600082815260076020526040812080548390811061051e5761051e6135f4565b600091825260208083206040805160e08101825260069485029092018054835260018101548385015260028101546001600160a01b0390811684840152600382015460608501526004820154608085015260059091015460ff808216151560a086015261010090910416151560c084015288865293909252922060070154919250163314806105b757506000546001600160a01b031633145b61064d5760405162461bcd60e51b815260206004820152605660248201527f4572726f723a20596f7520617265206e6f7420617574686f72697a656420746f60448201527f20636c61696d20616e792066756e64732e20496620746869732069732061206d6064820152751a5cdd185ad94818dbdb9d1858dd081cdd5c1c1bdc9d60521b608482015260a4015b60405180910390fd5b600083815260076020526040902080548390811061066d5761066d6135f4565b600091825260209091206005600690920201015460ff16156107035760405162461bcd60e51b815260206004820152604360248201527f41706172746d656e7420697320616c726561647920636865636b656420496e2060448201527f6f6e20746869732064617465206e6f206e65656420746f20636c61696d2066756064820152626e647360e81b608482015260a401610644565b61070b612c30565b81606001511061077a5760405162461bcd60e51b815260206004820152603460248201527f4e6f7420616c6c6f77656420746f20636c61696d2066756e6473206265666f72604482015273652074686520626f6f6b696e672064617465212160601b6064820152608401610644565b600083815260076020526040812080548490811061079a5761079a6135f4565b906000526020600020906006020160040154905060006064600554836107c09190613620565b6107ca9190613637565b6000868152600660205260409020600701549091506107fb906001600160a01b03166107f68385613659565b612c4f565b6108166108106000546001600160a01b031690565b82612c4f565b61082233600454612c4f565b5050505050565b6060600060015b600254811161087957600081815260066020526040902060070154600160a81b900460ff1661086757816108638161366c565b9250505b806108718161366c565b915050610830565b508067ffffffffffffffff81111561089357610893613104565b6040519080825280602002602001820160405280156108cc57816020015b6108b9612e56565b8152602001906001900390816108b15790505b509150600060015b6002548111610bfe57600081815260066020526040902060070154600160a81b900460ff16610bec5760066000828152602001908152602001600020604051806101600160405290816000820154815260200160018201805461093690613685565b80601f016020809104026020016040519081016040528092919081815260200182805461096290613685565b80156109af5780601f10610984576101008083540402835291602001916109af565b820191906000526020600020905b81548152906001019060200180831161099257829003601f168201915b505050505081526020016002820180546109c890613685565b80601f01602080910402602001604051908101604052809291908181526020018280546109f490613685565b8015610a415780601f10610a1657610100808354040283529160200191610a41565b820191906000526020600020905b815481529060010190602001808311610a2457829003601f168201915b50505050508152602001600382018054610a5a90613685565b80601f0160208091040260200160405190810160405280929190818152602001828054610a8690613685565b8015610ad35780601f10610aa857610100808354040283529160200191610ad3565b820191906000526020600020905b815481529060010190602001808311610ab657829003601f168201915b50505050508152602001600482018054610aec90613685565b80601f0160208091040260200160405190810160405280929190818152602001828054610b1890613685565b8015610b655780601f10610b3a57610100808354040283529160200191610b65565b820191906000526020600020905b815481529060010190602001808311610b4857829003601f168201915b5050509183525050600582015460208201526006820154604082015260078201546001600160a01b038116606083015260ff600160a01b8204811615156080840152600160a81b90910416151560a082015260089091015460c0909101528483610bce8161366c565b945081518110610be057610be06135f4565b60200260200101819052505b80610bf68161366c565b9150506108d4565b50505090565b60606000805b600084815260076020526040902054811015610c7c576000848152600760205260409020805482908110610c4057610c406135f4565b600091825260209091206005600690920201015460ff1615610c6a5781610c668161366c565b9250505b80610c748161366c565b915050610c0a565b508067ffffffffffffffff811115610c9657610c96613104565b604051908082528060200260200182016040528015610cbf578160200160208202803683370190505b5091506000805b600085815260076020526040902054811015610da5576000858152600760205260409020805482908110610cfc57610cfc6135f4565b600091825260209091206005600690920201015460ff1615610d93576000858152600760205260409020805482908110610d3857610d386135f4565b60009182526020909120600260069092020101546001600160a01b03168483610d608161366c565b945081518110610d7257610d726135f4565b60200260200101906001600160a01b031690816001600160a01b0316815250505b80610d9d8161366c565b915050610cc6565b505050919050565b6000878152600c602052604090205460ff161515600114610de05760405162461bcd60e51b8152600401610644906136bf565b6000878152600660205260409020600701546001600160a01b03163314610e545760405162461bcd60e51b815260206004820152602260248201527f556e617574686f72697a656420706572736f6e6e656c2c206f776e6572206f6e6044820152616c7960f01b6064820152608401610644565b6000865111610e9c5760405162461bcd60e51b81526020600482015260146024820152734e616d652063616e6e6f7420626520656d70747960601b6044820152606401610644565b6000855111610eed5760405162461bcd60e51b815260206004820152601b60248201527f4465736372697074696f6e2063616e6e6f7420626520656d70747900000000006044820152606401610644565b6000845111610f395760405162461bcd60e51b81526020600482015260186024820152774c6f636174696f6e2063616e6e6f7420626520656d70747960401b6044820152606401610644565b6000835111610f835760405162461bcd60e51b8152602060048201526016602482015275496d616765732063616e6e6f7420626520656d70747960501b6044820152606401610644565b60008211610fca5760405162461bcd60e51b8152602060048201526014602482015273526f6f6d732063616e6e6f74206265207a65726f60601b6044820152606401610644565b600081116110115760405162461bcd60e51b815260206004820152601460248201527350726963652063616e6e6f74206265207a65726f60601b6044820152606401610644565b600060066000898152602001908152602001600020604051806101600160405290816000820154815260200160018201805461104c90613685565b80601f016020809104026020016040519081016040528092919081815260200182805461107890613685565b80156110c55780601f1061109a576101008083540402835291602001916110c5565b820191906000526020600020905b8154815290600101906020018083116110a857829003601f168201915b505050505081526020016002820180546110de90613685565b80601f016020809104026020016040519081016040528092919081815260200182805461110a90613685565b80156111575780601f1061112c57610100808354040283529160200191611157565b820191906000526020600020905b81548152906001019060200180831161113a57829003601f168201915b5050505050815260200160038201805461117090613685565b80601f016020809104026020016040519081016040528092919081815260200182805461119c90613685565b80156111e95780601f106111be576101008083540402835291602001916111e9565b820191906000526020600020905b8154815290600101906020018083116111cc57829003601f168201915b5050505050815260200160048201805461120290613685565b80601f016020809104026020016040519081016040528092919081815260200182805461122e90613685565b801561127b5780601f106112505761010080835404028352916020019161127b565b820191906000526020600020905b81548152906001019060200180831161125e57829003601f168201915b5050509183525050600582015460208083019190915260068084015460408085019190915260078501546001600160a01b03811660608087019190915260ff600160a01b830481161515608080890191909152600160a81b90930416151560a08088019190915260089097015460c0968701528785018f81528884018f90529088018d90529087018b905294860189905292850187905260008d815291522082518155905191925082916001820190611334908261373b565b5060408201516002820190611349908261373b565b506060820151600382019061135e908261373b565b5060808201516004820190611373908261373b565b5060a0820151600582015560c0820151600682015560e08201516007820180546101008501516101208601511515600160a81b0260ff60a81b19911515600160a01b026001600160a81b03199093166001600160a01b03909516949094179190911716919091179055610140909101516008909101555050505050505050565b6000828152600c602052604090205460ff1615156001146114265760405162461bcd60e51b8152600401610644906136bf565b6000611433826064613620565b60008481526006602081905260408220015491925090611454906064613620565b90506064611463826078613620565b61146d9190613637565b8211156114d75760405162461bcd60e51b815260206004820152603260248201527f4e65772070726963652063616e6e6f74206578636565642031323025206f6620604482015271746865206f726967696e616c20707269636560701b6064820152608401610644565b5050600091825260066020819052604090922090910155565b6114f8612ebd565b6000838152600760205260409020805483908110611518576115186135f4565b60009182526020918290206040805160e08101825260069093029091018054835260018101549383019390935260028301546001600160a01b031690820152600382015460608201526004820154608082015260059091015460ff808216151560a084015261010090910416151560c082015290505b92915050565b6000818152600c602052604090205460ff1615156001146115ed5760405162461bcd60e51b8152602060048201526013602482015272105c185c9d1b595b9d081b9bdd08199bdd5b99606a1b6044820152606401610644565b6000818152600660205260409020600701546001600160a01b0316331461164c5760405162461bcd60e51b8152602060048201526013602482015272556e617574686f72697a656420656e7469747960681b6044820152606401610644565b6000908152600c60209081526040808320805460ff1916905560069091529020600701805460ff60a81b1916600160a81b179055565b6000828152600c602052604090205460ff166116e05760405162461bcd60e51b815260206004820152601a60248201527f41706172746d656e74206973206e6f7420617661696c61626c650000000000006044820152606401610644565b336000908152600b6020908152604080832085845290915290205460ff1661175c5760405162461bcd60e51b815260206004820152602960248201527f4d75737420626f6f6b2061706172746d656e74206265666f726520796f752063604482015268616e2072657669657760b81b6064820152608401610644565b60008151116117b85760405162461bcd60e51b815260206004820152602260248201527f596f752063616e6e6f74206c6561766520616e20656d70747920726576696577604482015261212160f01b6064820152608401610644565b6117f36040518060a001604052806000815260200160008152602001606081526020016000815260200160006001600160a01b031681525090565b602080820184905260008481526008909152604090819020548252810182905261181b612c30565b6060820152336080820152600083815260086020908152604080832080546001818101835591855293839020855160059095020193845591840151918301919091558201518291906002820190611872908261373b565b5060608201516003820155608090910151600490910180546001600160a01b0319166001600160a01b03909216919091179055505050565b6118b2612caf565b60008281526007602052604081208054839081106118d2576118d26135f4565b60009182526020918290206040805160e08101825260069093029091018054835260018101549383019390935260028301546001600160a01b031690820152600382015460608201526004820154608082015260059091015460ff80821615801560a085015261010090920416151560c08301529091506119a55760405162461bcd60e51b815260206004820152602760248201527f43616e6e6f7420726566756e64206166746572206265696e6720636865636b656044820152666420494e21212160c81b6064820152608401610644565b6000838152600a602090815260408083206060850151845290915290205460ff16611a125760405162461bcd60e51b815260206004820181905260248201527f596f7520646964206e6f7420626f6f6b20666f722074686973206461746521216044820152606401610644565b6000546001600160a01b03163314611b1d5780604001516001600160a01b0316336001600160a01b031614611a9d5760405162461bcd60e51b815260206004820152602b60248201527f4572726f723a20596f7520617265206e6f742061737369676e656420746f207460448201526a68697320626f6f6b696e6760a81b6064820152608401610644565b611aa5612c30565b816060015111611b1d5760405162461bcd60e51b815260206004820152603e60248201527f4572726f723a2054686520626f6f6b696e6720646174652068617320616c726560448201527f616479207061737365642c20796f752063616e6e6f7420726566756e642e00006064820152608401610644565b600083815260076020526040902080546001919084908110611b4157611b416135f4565b6000918252602080832060056006909302019190910180549315156101000261ff001990941693909317909255848152600a82526040808220606085015183528352808220805460ff19169055858252600990925290812054611ba690600190613659565b60008581526009602052604081208054929350909183908110611bcb57611bcb6135f4565b9060005260206000200154905080600960008781526020019081526020016000208581548110611bfd57611bfd6135f4565b906000526020600020018190555060096000868152602001908152602001600020805480611c2d57611c2d6137fb565b60019003818190600052602060002001600090559055600060646004548560800151611c599190613620565b611c639190613637565b90506000611c72600283613637565b600088815260066020526040902060070154909150611c9a906001600160a01b031682612c4f565b611caf6108106000546001600160a01b031690565b611cbd338660800151612c4f565b5050505050611ccb60018055565b5050565b611cd7612d08565b611ce16000612d62565b565b6000828152600c602052604090205460ff161515600114611d165760405162461bcd60e51b8152600401610644906136bf565b80611d1f611d44565b611d299190613620565b60009283526006602081905260409093209092019190915550565b600080600360009054906101000a90046001600160a01b03166001600160a01b031663feaf968c6040518163ffffffff1660e01b815260040160a060405180830381865afa158015611d9a573d6000803e3d6000fd5b505050506040513d601f19601f82011682018060405250810190611dbe9190613830565b505050915050806402540be400611dd59190613880565b91505090565b606060086000838152602001908152602001600020805480602002602001604051908101604052809291908181526020016000905b82821015611f0b57838290600052602060002090600502016040518060a00160405290816000820154815260200160018201548152602001600282018054611e5790613685565b80601f0160208091040260200160405190810160405280929190818152602001828054611e8390613685565b8015611ed05780601f10611ea557610100808354040283529160200191611ed0565b820191906000526020600020905b815481529060010190602001808311611eb357829003601f168201915b505050918352505060038201546020808301919091526004909201546001600160a01b03166040909101529082526001929092019101611e10565b505050509050919050565b606060076000838152602001908152602001600020805480602002602001604051908101604052809291908181526020016000905b82821015611f0b5760008481526020908190206040805160e08101825260068602909201805483526001808201548486015260028201546001600160a01b03169284019290925260038101546060840152600481015460808401526005015460ff808216151560a085015261010090910416151560c08301529083529092019101611f4b565b611fd9612e56565b60066000838152602001908152602001600020604051806101600160405290816000820154815260200160018201805461201290613685565b80601f016020809104026020016040519081016040528092919081815260200182805461203e90613685565b801561208b5780601f106120605761010080835404028352916020019161208b565b820191906000526020600020905b81548152906001019060200180831161206e57829003601f168201915b505050505081526020016002820180546120a490613685565b80601f01602080910402602001604051908101604052809291908181526020018280546120d090613685565b801561211d5780601f106120f25761010080835404028352916020019161211d565b820191906000526020600020905b81548152906001019060200180831161210057829003601f168201915b5050505050815260200160038201805461213690613685565b80601f016020809104026020016040519081016040528092919081815260200182805461216290613685565b80156121af5780601f10612184576101008083540402835291602001916121af565b820191906000526020600020905b81548152906001019060200180831161219257829003601f168201915b505050505081526020016004820180546121c890613685565b80601f01602080910402602001604051908101604052809291908181526020018280546121f490613685565b80156122415780601f1061221657610100808354040283529160200191612241565b820191906000526020600020905b81548152906001019060200180831161222457829003601f168201915b5050509183525050600582015460208201526006820154604082015260078201546001600160a01b038116606083015260ff600160a01b8204811615156080840152600160a81b90910416151560a082015260089091015460c09091015292915050565b60008651116122ed5760405162461bcd60e51b81526020600482015260146024820152734e616d652063616e6e6f7420626520656d70747960601b6044820152606401610644565b600085511161233e5760405162461bcd60e51b815260206004820152601b60248201527f4465736372697074696f6e2063616e6e6f7420626520656d70747900000000006044820152606401610644565b600084511161238a5760405162461bcd60e51b81526020600482015260186024820152774c6f636174696f6e2063616e6e6f7420626520656d70747960401b6044820152606401610644565b60008351116123d45760405162461bcd60e51b8152602060048201526016602482015275496d616765732063616e6e6f7420626520656d70747960501b6044820152606401610644565b6000821161241b5760405162461bcd60e51b8152602060048201526014602482015273526f6f6d732063616e6e6f74206265207a65726f60601b6044820152606401610644565b600081116124625760405162461bcd60e51b815260206004820152601460248201527350726963652063616e6e6f74206265207a65726f60601b6044820152606401610644565b612470600280546001019055565b612478612e56565b60025481526020810187905260408101869052606081018590526080810184905260a0810183905260c081018290523360e08201526124b5612c30565b61014082015280516000908152600c60205260408120805460ff1916600117905581906006906124e460025490565b81526020808201929092526040016000208251815590820151600182019061250c908261373b565b5060408201516002820190612521908261373b565b5060608201516003820190612536908261373b565b506080820151600482019061254b908261373b565b5060a0820151600582015560c0820151600682015560e08201516007820180546101008501516101208601511515600160a81b0260ff60a81b19911515600160a01b026001600160a81b03199093166001600160a01b039095169490941791909117169190911790556101409091015160089091015550505050505050565b60008181526009602090815260409182902080548351818402810184019094528084526060939283018282801561262057602002820191906000526020600020905b81548152602001906001019080831161260c575b50505050509050919050565b6000828152600c602052604090205460ff1661268a5760405162461bcd60e51b815260206004820181905260248201527f4572726f723a2041706172746d656e742063616e6e6f7420626520666f756e646044820152606401610644565b600454815160008481526006602081905260409091200154606492916126af91613620565b6126b99190613620565b6126c39190613637565b8151600084815260066020819052604090912001546126e29190613620565b6126ec91906138b0565b3410156127305760405162461bcd60e51b8152602060048201526012602482015271496e73756666696369656e742066756e642160701b6044820152606401610644565b61273a8282612db2565b6127945760405162461bcd60e51b815260206004820152602560248201527f4572726f723a2054686973204461746520697320616c726561647920626f6f6b604482015264032b21090960dd1b6064820152608401610644565b60005b8151811015612941576127a8612ebd565b602080820185905260008581526007909152604090819020548252339082015282518390839081106127dc576127dc6135f4565b6020908102919091018101516060830190815260008681526006808452604080832082015460808701908152898452600786528184208054600181810183559186528786208951919095029094019384558787015184820155828801516002850180546001600160a01b039092166001600160a01b03199092169190911790559451600384015551600483015560a08601516005909201805460c088015115156101000261ff00199415159490941661ffff199091161792909217909155878252600a9093529182208551919290918690869081106128bd576128bd6135f4565b6020026020010151815260200190815260200160002060006101000a81548160ff0219169083151502179055506009600085815260200190815260200160002083838151811061290f5761290f6135f4565b6020908102919091018101518254600181018455600093845291909220015550806129398161366c565b915050612797565b505050565b61294e612d08565b6001600160a01b0381166129b35760405162461bcd60e51b815260206004820152602660248201527f4f776e61626c653a206e6577206f776e657220697320746865207a65726f206160448201526564647265737360d01b6064820152608401610644565b6129bc81612d62565b50565b60008281526007602052604081208054839081106129df576129df6135f4565b60009182526020918290206040805160e08101825260069093029091018054835260018101549383019390935260028301546001600160a01b0316908201819052600383015460608301526004830154608083015260059092015460ff808216151560a084015261010090910416151560c082015291503314612aa45760405162461bcd60e51b815260206004820152601c60248201527f4572726f723a20556e617574686f72697a65642074656e616e742121000000006044820152606401610644565b8060a0015115612b2f5760405162461bcd60e51b815260206004820152604a60248201527f41706172746d656e7420616c726561647920636865636b656420666f7220746860448201527f6973206461746520446f75626c6520636865636b696e67206973206e6f74207060648201526972656d6974746564212160b01b608482015260a401610644565b600083815260076020526040902080546001919084908110612b5357612b536135f4565b60009182526020822060056006909202018101805493151560ff199094169390931790925590546080830151606491612b8b91613620565b612b959190613637565b9050600060646004548460800151612bad9190613620565b612bb79190613637565b336000908152600b602090815260408083208984528252808320805460ff1916600117905560069091529020600701546080850151919250612c0b916001600160a01b0391909116906107f6908590613659565b612c26612c206000546001600160a01b031690565b83612c4f565b6108223382612c4f565b6000612c3e426103e8613620565b612c4a906103e86138b0565b905090565b6000826001600160a01b03168260405160006040518083038185875af1925050503d8060008114612c9c576040519150601f19603f3d011682016040523d82523d6000602084013e612ca1565b606091505b505090508061294157600080fd5b600260015403612d015760405162461bcd60e51b815260206004820152601f60248201527f5265656e7472616e637947756172643a207265656e7472616e742063616c6c006044820152606401610644565b6002600155565b6000546001600160a01b03163314611ce15760405162461bcd60e51b815260206004820181905260248201527f4f776e61626c653a2063616c6c6572206973206e6f7420746865206f776e65726044820152606401610644565b600080546001600160a01b038381166001600160a01b0319831681178455604051919092169283917f8be0079c531659141344cd1fd0a4f28419497f9722a3daafe3b4186f6b6457e09190a35050565b60006001815b8351811015612e4e5760005b600086815260096020526040902054811015612e3b576000868152600960205260409020805482908110612dfa57612dfa6135f4565b9060005260206000200154858381518110612e1757612e176135f4565b602002602001015103612e2957600092505b80612e338161366c565b915050612dc4565b5080612e468161366c565b915050612db8565b509392505050565b6040518061016001604052806000815260200160608152602001606081526020016060815260200160608152602001600081526020016000815260200160006001600160a01b03168152602001600015158152602001600015158152602001600081525090565b6040518060e00160405280600081526020016000815260200160006001600160a01b0316815260200160008152602001600081526020016000151581526020016000151581525090565b60008060408385031215612f1a57600080fd5b50508035926020909101359150565b6000815180845260005b81811015612f4f57602081850181015186830182015201612f33565b506000602082860101526020601f19601f83011685010191505092915050565b6000610160825184526020830151816020860152612f8f82860182612f29565b91505060408301518482036040860152612fa98282612f29565b91505060608301518482036060860152612fc38282612f29565b91505060808301518482036080860152612fdd8282612f29565b91505060a083015160a085015260c083015160c085015260e083015161300e60e08601826001600160a01b03169052565b5061010083810151151590850152610120808401511515908501526101409283015192909301919091525090565b6000602080830181845280855180835260408601915060408160051b870101925083870160005b8281101561309157603f1988860301845261307f858351612f6f565b94509285019290850190600101613063565b5092979650505050505050565b6000602082840312156130b057600080fd5b5035919050565b6020808252825182820181905260009190848201906040850190845b818110156130f85783516001600160a01b0316835292840192918401916001016130d3565b50909695505050505050565b634e487b7160e01b600052604160045260246000fd5b604051601f8201601f1916810167ffffffffffffffff8111828210171561314357613143613104565b604052919050565b600082601f83011261315c57600080fd5b813567ffffffffffffffff81111561317657613176613104565b613189601f8201601f191660200161311a565b81815284602083860101111561319e57600080fd5b816020850160208301376000918101602001919091529392505050565b600080600080600080600060e0888a0312156131d657600080fd5b87359650602088013567ffffffffffffffff808211156131f557600080fd5b6132018b838c0161314b565b975060408a013591508082111561321757600080fd5b6132238b838c0161314b565b965060608a013591508082111561323957600080fd5b6132458b838c0161314b565b955060808a013591508082111561325b57600080fd5b506132688a828b0161314b565b93505060a0880135915060c0880135905092959891949750929550565b80518252602080820151908301526040808201516001600160a01b031690830152606080820151908301526080808201519083015260a08082015115159083015260c0908101511515910152565b60e0810161158e8284613285565b600080604083850312156132f457600080fd5b82359150602083013567ffffffffffffffff81111561331257600080fd5b61331e8582860161314b565b9150509250929050565b60006020808301818452808551808352604092508286019150828160051b87010184880160005b838110156133b857603f19898403018552815160a081518552888201518986015287820151818987015261338582870182612f29565b606084810151908801526080938401516001600160a01b031693909601929092525050938601939086019060010161334f565b509098975050505050505050565b6020808252825182820181905260009190848201906040850190845b818110156130f8576133f5838551613285565b9284019260e092909201916001016133e2565b60208152600061341b6020830184612f6f565b9392505050565b60008060008060008060c0878903121561343b57600080fd5b863567ffffffffffffffff8082111561345357600080fd5b61345f8a838b0161314b565b9750602089013591508082111561347557600080fd5b6134818a838b0161314b565b9650604089013591508082111561349757600080fd5b6134a38a838b0161314b565b955060608901359150808211156134b957600080fd5b506134c689828a0161314b565b9350506080870135915060a087013590509295509295509295565b6020808252825182820181905260009190848201906040850190845b818110156130f8578351835292840192918401916001016134fd565b6000806040838503121561352c57600080fd5b8235915060208084013567ffffffffffffffff8082111561354c57600080fd5b818601915086601f83011261356057600080fd5b81358181111561357257613572613104565b8060051b915061358384830161311a565b818152918301840191848101908984111561359d57600080fd5b938501935b838510156135bb578435825293850193908501906135a2565b8096505050505050509250929050565b6000602082840312156135dd57600080fd5b81356001600160a01b038116811461341b57600080fd5b634e487b7160e01b600052603260045260246000fd5b634e487b7160e01b600052601160045260246000fd5b808202811582820484141761158e5761158e61360a565b60008261365457634e487b7160e01b600052601260045260246000fd5b500490565b8181038181111561158e5761158e61360a565b60006001820161367e5761367e61360a565b5060010190565b600181811c9082168061369957607f821691505b6020821081036136b957634e487b7160e01b600052602260045260246000fd5b50919050565b602080825260149082015273105c1c185c9d1b595b9d081b9bdd08199bdd5b9960621b604082015260600190565b601f82111561294157600081815260208120601f850160051c810160208610156137145750805b601f850160051c820191505b8181101561373357828155600101613720565b505050505050565b815167ffffffffffffffff81111561375557613755613104565b613769816137638454613685565b846136ed565b602080601f83116001811461379e57600084156137865750858301515b600019600386901b1c1916600185901b178555613733565b600085815260208120601f198616915b828110156137cd578886015182559484019460019091019084016137ae565b50858210156137eb5787850151600019600388901b60f8161c191681555b5050505050600190811b01905550565b634e487b7160e01b600052603160045260246000fd5b805169ffffffffffffffffffff8116811461382b57600080fd5b919050565b600080600080600060a0868803121561384857600080fd5b61385186613811565b945060208601519350604086015192506060860151915061387460808701613811565b90509295509295909350565b80820260008212600160ff1b8414161561389c5761389c61360a565b818105831482151761158e5761158e61360a565b8082018082111561158e5761158e61360a56fea26469706673582212204aafc7120dbcd11a1a87ca0372038606c42e9b7c7b44cccc0d2d4b674d3f394664736f6c63430008130033",
  "linkReferences": {},
  "deployedLinkReferences": {}
}