{
  "_format": "hh-sol-artifact-1",
  "contractName": "TravelnCrypto",
  "sourceName": "contracts/TravelnCrypto.sol",
  "abi": [
    {
      "inputs": [
        {
          "internalType": "uint256",
          "name": "_taxPercent",
          "type": "uint256"
        },
        {
          "internalType": "uint256",
          "name": "_securityFee",
          "type": "uint256"
        }
      ],
      "stateMutability": "nonpayable",
      "type": "constructor"
    },
    {
      "anonymous": false,
      "inputs": [
        {
          "indexed": true,
          "internalType": "address",
          "name": "previousOwner",
          "type": "address"
        },
        {
          "indexed": true,
          "internalType": "address",
          "name": "newOwner",
          "type": "address"
        }
      ],
      "name": "OwnershipTransferred",
      "type": "event"
    },
    {
      "inputs": [
        {
          "internalType": "uint256",
          "name": "apartment_id",
          "type": "uint256"
        },
        {
          "internalType": "string",
          "name": "message",
          "type": "string"
        }
      ],
      "name": "addReview",
      "outputs": [],
      "stateMutability": "nonpayable",
      "type": "function"
    },
    {
      "inputs": [
        {
          "internalType": "uint256",
          "name": "apartment_id",
          "type": "uint256"
        },
        {
          "internalType": "uint256[]",
          "name": "dates",
          "type": "uint256[]"
        }
      ],
      "name": "bookApartment",
      "outputs": [],
      "stateMutability": "payable",
      "type": "function"
    },
    {
      "inputs": [
        {
          "internalType": "uint256",
          "name": "apartment_id",
          "type": "uint256"
        },
        {
          "internalType": "uint256",
          "name": "booking_id",
          "type": "uint256"
        }
      ],
      "name": "checkIn",
      "outputs": [],
      "stateMutability": "nonpayable",
      "type": "function"
    },
    {
      "inputs": [
        {
          "internalType": "uint256",
          "name": "apartment_id",
          "type": "uint256"
        },
        {
          "internalType": "uint256",
          "name": "booking_id",
          "type": "uint256"
        }
      ],
      "name": "claimFunds",
      "outputs": [],
      "stateMutability": "nonpayable",
      "type": "function"
    },
    {
      "inputs": [
        {
          "internalType": "string",
          "name": "name",
          "type": "string"
        },
        {
          "internalType": "string",
          "name": "description",
          "type": "string"
        },
        {
          "internalType": "string",
          "name": "location",
          "type": "string"
        },
        {
          "internalType": "string",
          "name": "images",
          "type": "string"
        },
        {
          "internalType": "uint256",
          "name": "rooms",
          "type": "uint256"
        },
        {
          "internalType": "uint256",
          "name": "price",
          "type": "uint256"
        }
      ],
      "name": "createApartment",
      "outputs": [],
      "stateMutability": "nonpayable",
      "type": "function"
    },
    {
      "inputs": [
        {
          "internalType": "uint256",
          "name": "apartment_id",
          "type": "uint256"
        },
        {
          "internalType": "uint256",
          "name": "newPrice",
          "type": "uint256"
        },
        {
          "internalType": "uint256",
          "name": "booking_id",
          "type": "uint256"
        }
      ],
      "name": "createResale",
      "outputs": [],
      "stateMutability": "nonpayable",
      "type": "function"
    },
    {
      "inputs": [
        {
          "internalType": "uint256",
          "name": "id",
          "type": "uint256"
        }
      ],
      "name": "deleteApartment",
      "outputs": [],
      "stateMutability": "nonpayable",
      "type": "function"
    },
    {
      "inputs": [],
      "name": "ethUsdPriceFeed",
      "outputs": [
        {
          "internalType": "contract AggregatorV3Interface",
          "name": "",
          "type": "address"
        }
      ],
      "stateMutability": "view",
      "type": "function"
    },
    {
      "inputs": [],
      "name": "getAllApartments",
      "outputs": [
        {
          "components": [
            {
              "internalType": "uint256",
              "name": "id",
              "type": "uint256"
            },
            {
              "internalType": "string",
              "name": "name",
              "type": "string"
            },
            {
              "internalType": "string",
              "name": "description",
              "type": "string"
            },
            {
              "internalType": "string",
              "name": "location",
              "type": "string"
            },
            {
              "internalType": "string",
              "name": "images",
              "type": "string"
            },
            {
              "internalType": "uint256",
              "name": "rooms",
              "type": "uint256"
            },
            {
              "internalType": "uint256",
              "name": "price",
              "type": "uint256"
            },
            {
              "internalType": "address",
              "name": "owner",
              "type": "address"
            },
            {
              "internalType": "bool",
              "name": "booked",
              "type": "bool"
            },
            {
              "internalType": "bool",
              "name": "deleted",
              "type": "bool"
            },
            {
              "internalType": "uint256",
              "name": "timestamp",
              "type": "uint256"
            }
          ],
          "internalType": "struct TravelnCrypto.Apartment[]",
          "name": "Apartments",
          "type": "tuple[]"
        }
      ],
      "stateMutability": "view",
      "type": "function"
    },
    {
      "inputs": [
        {
          "internalType": "uint256",
          "name": "apartment_id",
          "type": "uint256"
        }
      ],
      "name": "getAllBookings",
      "outputs": [
        {
          "components": [
            {
              "internalType": "uint256",
              "name": "id",
              "type": "uint256"
            },
            {
              "internalType": "uint256",
              "name": "apartment_id",
              "type": "uint256"
            },
            {
              "internalType": "address",
              "name": "tenant",
              "type": "address"
            },
            {
              "internalType": "uint256",
              "name": "date",
              "type": "uint256"
            },
            {
              "internalType": "uint256",
              "name": "price",
              "type": "uint256"
            },
            {
              "internalType": "bool",
              "name": "checked",
              "type": "bool"
            },
            {
              "internalType": "bool",
              "name": "cancelled",
              "type": "bool"
            }
          ],
          "internalType": "struct TravelnCrypto.Booking[]",
          "name": "",
          "type": "tuple[]"
        }
      ],
      "stateMutability": "view",
      "type": "function"
    },
    {
      "inputs": [],
      "name": "getAllResales",
      "outputs": [
        {
          "components": [
            {
              "internalType": "uint256",
              "name": "price",
              "type": "uint256"
            },
            {
              "internalType": "uint256",
              "name": "date",
              "type": "uint256"
            },
            {
              "internalType": "address",
              "name": "resller",
              "type": "address"
            }
          ],
          "internalType": "struct TravelnCrypto.Resale[]",
          "name": "",
          "type": "tuple[]"
        }
      ],
      "stateMutability": "view",
      "type": "function"
    },
    {
      "inputs": [
        {
          "internalType": "uint256",
          "name": "id",
          "type": "uint256"
        }
      ],
      "name": "getApartment",
      "outputs": [
        {
          "components": [
            {
              "internalType": "uint256",
              "name": "id",
              "type": "uint256"
            },
            {
              "internalType": "string",
              "name": "name",
              "type": "string"
            },
            {
              "internalType": "string",
              "name": "description",
              "type": "string"
            },
            {
              "internalType": "string",
              "name": "location",
              "type": "string"
            },
            {
              "internalType": "string",
              "name": "images",
              "type": "string"
            },
            {
              "internalType": "uint256",
              "name": "rooms",
              "type": "uint256"
            },
            {
              "internalType": "uint256",
              "name": "price",
              "type": "uint256"
            },
            {
              "internalType": "address",
              "name": "owner",
              "type": "address"
            },
            {
              "internalType": "bool",
              "name": "booked",
              "type": "bool"
            },
            {
              "internalType": "bool",
              "name": "deleted",
              "type": "bool"
            },
            {
              "internalType": "uint256",
              "name": "timestamp",
              "type": "uint256"
            }
          ],
          "internalType": "struct TravelnCrypto.Apartment",
          "name": "",
          "type": "tuple"
        }
      ],
      "stateMutability": "view",
      "type": "function"
    },
    {
      "inputs": [
        {
          "internalType": "uint256",
          "name": "apartment_id",
          "type": "uint256"
        },
        {
          "internalType": "uint256",
          "name": "booking_id",
          "type": "uint256"
        }
      ],
      "name": "getBooking",
      "outputs": [
        {
          "components": [
            {
              "internalType": "uint256",
              "name": "id",
              "type": "uint256"
            },
            {
              "internalType": "uint256",
              "name": "apartment_id",
              "type": "uint256"
            },
            {
              "internalType": "address",
              "name": "tenant",
              "type": "address"
            },
            {
              "internalType": "uint256",
              "name": "date",
              "type": "uint256"
            },
            {
              "internalType": "uint256",
              "name": "price",
              "type": "uint256"
            },
            {
              "internalType": "bool",
              "name": "checked",
              "type": "bool"
            },
            {
              "internalType": "bool",
              "name": "cancelled",
              "type": "bool"
            }
          ],
          "internalType": "struct TravelnCrypto.Booking",
          "name": "",
          "type": "tuple"
        }
      ],
      "stateMutability": "view",
      "type": "function"
    },
    {
      "inputs": [],
      "name": "getPrice",
      "outputs": [
        {
          "internalType": "uint256",
          "name": "",
          "type": "uint256"
        }
      ],
      "stateMutability": "view",
      "type": "function"
    },
    {
      "inputs": [
        {
          "internalType": "uint256",
          "name": "apartment_id",
          "type": "uint256"
        }
      ],
      "name": "getQualifiedReviewers",
      "outputs": [
        {
          "internalType": "address[]",
          "name": "Tenants",
          "type": "address[]"
        }
      ],
      "stateMutability": "view",
      "type": "function"
    },
    {
      "inputs": [
        {
          "internalType": "uint256",
          "name": "apartment_id",
          "type": "uint256"
        }
      ],
      "name": "getReviews",
      "outputs": [
        {
          "components": [
            {
              "internalType": "uint256",
              "name": "id",
              "type": "uint256"
            },
            {
              "internalType": "uint256",
              "name": "apartment_id",
              "type": "uint256"
            },
            {
              "internalType": "string",
              "name": "reviewText",
              "type": "string"
            },
            {
              "internalType": "uint256",
              "name": "timestamp",
              "type": "uint256"
            },
            {
              "internalType": "address",
              "name": "owner",
              "type": "address"
            }
          ],
          "internalType": "struct TravelnCrypto.Review[]",
          "name": "",
          "type": "tuple[]"
        }
      ],
      "stateMutability": "view",
      "type": "function"
    },
    {
      "inputs": [
        {
          "internalType": "uint256",
          "name": "apartment_id",
          "type": "uint256"
        }
      ],
      "name": "getUnavailableDates",
      "outputs": [
        {
          "internalType": "uint256[]",
          "name": "",
          "type": "uint256[]"
        }
      ],
      "stateMutability": "view",
      "type": "function"
    },
    {
      "inputs": [],
      "name": "owner",
      "outputs": [
        {
          "internalType": "address",
          "name": "",
          "type": "address"
        }
      ],
      "stateMutability": "view",
      "type": "function"
    },
    {
      "inputs": [
        {
          "internalType": "uint256",
          "name": "apartment_id",
          "type": "uint256"
        },
        {
          "internalType": "uint256",
          "name": "booking_id",
          "type": "uint256"
        }
      ],
      "name": "refundBooking",
      "outputs": [],
      "stateMutability": "nonpayable",
      "type": "function"
    },
    {
      "inputs": [],
      "name": "renounceOwnership",
      "outputs": [],
      "stateMutability": "nonpayable",
      "type": "function"
    },
    {
      "inputs": [
        {
          "internalType": "uint256",
          "name": "",
          "type": "uint256"
        }
      ],
      "name": "resales",
      "outputs": [
        {
          "internalType": "uint256",
          "name": "price",
          "type": "uint256"
        },
        {
          "internalType": "uint256",
          "name": "date",
          "type": "uint256"
        },
        {
          "internalType": "address",
          "name": "resller",
          "type": "address"
        }
      ],
      "stateMutability": "view",
      "type": "function"
    },
    {
      "inputs": [
        {
          "internalType": "uint256",
          "name": "",
          "type": "uint256"
        }
      ],
      "name": "resoldBookingIds",
      "outputs": [
        {
          "internalType": "uint256",
          "name": "",
          "type": "uint256"
        }
      ],
      "stateMutability": "view",
      "type": "function"
    },
    {
      "inputs": [],
      "name": "securityFee",
      "outputs": [
        {
          "internalType": "uint256",
          "name": "",
          "type": "uint256"
        }
      ],
      "stateMutability": "view",
      "type": "function"
    },
    {
      "inputs": [],
      "name": "taxPercent",
      "outputs": [
        {
          "internalType": "uint256",
          "name": "",
          "type": "uint256"
        }
      ],
      "stateMutability": "view",
      "type": "function"
    },
    {
      "inputs": [
        {
          "internalType": "uint256",
          "name": "apartment_id",
          "type": "uint256"
        }
      ],
      "name": "tenantBooked",
      "outputs": [
        {
          "internalType": "bool",
          "name": "",
          "type": "bool"
        }
      ],
      "stateMutability": "view",
      "type": "function"
    },
    {
      "inputs": [
        {
          "internalType": "address",
          "name": "newOwner",
          "type": "address"
        }
      ],
      "name": "transferOwnership",
      "outputs": [],
      "stateMutability": "nonpayable",
      "type": "function"
    },
    {
      "inputs": [
        {
          "internalType": "uint256",
          "name": "id",
          "type": "uint256"
        },
        {
          "internalType": "string",
          "name": "name",
          "type": "string"
        },
        {
          "internalType": "string",
          "name": "description",
          "type": "string"
        },
        {
          "internalType": "string",
          "name": "location",
          "type": "string"
        },
        {
          "internalType": "string",
          "name": "images",
          "type": "string"
        },
        {
          "internalType": "uint256",
          "name": "rooms",
          "type": "uint256"
        },
        {
          "internalType": "uint256",
          "name": "price",
          "type": "uint256"
        }
      ],
      "name": "updateApartment",
      "outputs": [],
      "stateMutability": "nonpayable",
      "type": "function"
    },
    {
      "inputs": [
        {
          "internalType": "uint256",
          "name": "id",
          "type": "uint256"
        },
        {
          "internalType": "uint256",
          "name": "usdprice",
          "type": "uint256"
        }
      ],
      "name": "updatePrice",
      "outputs": [],
      "stateMutability": "nonpayable",
      "type": "function"
    }
  ],
  "bytecode": "0x6080604052600380546001600160a01b03191673694aa1769357215de4fac081bf1f309adc3253061790553480156200003757600080fd5b5060405162003f6938038062003f698339810160408190526200005a91620000c8565b620000653362000078565b60018055600591909155600455620000ed565b600080546001600160a01b038381166001600160a01b0319831681178455604051919092169283917f8be0079c531659141344cd1fd0a4f28419497f9722a3daafe3b4186f6b6457e09190a35050565b60008060408385031215620000dc57600080fd5b505080516020909101519092909150565b613e6c80620000fd6000396000f3fe6080604052600436106101b75760003560e01c806382367b2d116100ec578063c4452e061161008a578063db2f80b711610064578063db2f80b71461057a578063df6e0222146105a7578063f2fde38b146105ba578063f516f88e146105da57600080fd5b8063c4452e0614610517578063c788d6de14610544578063d68e13021461056457600080fd5b80639d4a2255116100c65780639d4a2255146104525780639f31a2be1461047f578063b5efcf04146104ca578063c2aaccfc146104f757600080fd5b806382367b2d146103ff5780638da5cb5b1461041f57806398d5fdca1461043d57600080fd5b806355c3fbfb1161015957806367626e5d1161013357806367626e5d14610392578063715018a6146103b25780637541f41c146103c75780637fd8984e146103dd57600080fd5b806355c3fbfb146102e95780635b9d4340146103095780635bb0c5d61461037257600080fd5b80631c32f071116101955780631c32f0711461023657806327c71c731461026457806342f6fb2914610284578063455b3070146102bc57600080fd5b8063010b58ee146101bc5780630397eee0146101de5780630bb9ce3314610209575b600080fd5b3480156101c857600080fd5b506101dc6101d73660046133ed565b6105fa565b005b3480156101ea57600080fd5b506101f3610925565b6040516102009190613522565b60405180910390f35b34801561021557600080fd5b50610229610224366004613584565b610d00565b604051610200919061359d565b34801561024257600080fd5b50610256610251366004613584565b610ea9565b604051908152602001610200565b34801561027057600080fd5b506101dc61027f3660046136a1565b610eca565b34801561029057600080fd5b506003546102a4906001600160a01b031681565b6040516001600160a01b039091168152602001610200565b3480156102c857600080fd5b506102dc6102d73660046133ed565b611537565b60405161020091906137b9565b3480156102f557600080fd5b506101dc610304366004613584565b6115db565b34801561031557600080fd5b5061034e610324366004613584565b600d602052600090815260409020805460018201546002909201549091906001600160a01b031683565b6040805193845260208401929092526001600160a01b031690820152606001610200565b34801561037e57600080fd5b506101dc61038d3660046137c7565b6116a3565b34801561039e57600080fd5b506101dc6103ad3660046133ed565b6118cb565b3480156103be57600080fd5b506101dc611cf0565b3480156103d357600080fd5b5061025660055481565b3480156103e957600080fd5b506103f2611d04565b604051610200919061380e565b34801561040b57600080fd5b506101dc61041a3660046133ed565b611e2b565b34801561042b57600080fd5b506000546001600160a01b03166102a4565b34801561044957600080fd5b50610256611e8c565b34801561045e57600080fd5b5061047261046d366004613584565b611f23565b6040516102009190613870565b34801561048b57600080fd5b506104ba61049a366004613584565b336000908152600b60209081526040808320938352929052205460ff1690565b6040519015158152602001610200565b3480156104d657600080fd5b506104ea6104e5366004613584565b61205e565b604051610200919061390e565b34801561050357600080fd5b506101dc610512366004613950565b612119565b34801561052357600080fd5b50610537610532366004613584565b6124b7565b604051610200919061397c565b34801561055057600080fd5b506101dc61055f366004613996565b61278b565b34801561057057600080fd5b5061025660045481565b34801561058657600080fd5b5061059a610595366004613584565b612ab0565b6040516102009190613a55565b6101dc6105b5366004613a8d565b612b12565b3480156105c657600080fd5b506101dc6105d5366004613b3f565b612e2c565b3480156105e657600080fd5b506101dc6105f53660046133ed565b612ea5565b600082815260076020526040812080548390811061061a5761061a613b68565b600091825260208083206040805160e08101825260069485029092018054835260018101548385015260028101546001600160a01b0390811684840152600382015460608501526004820154608085015260059091015460ff808216151560a086015261010090910416151560c084015288865293909252922060070154919250163314806106b357506000546001600160a01b031633145b6107495760405162461bcd60e51b815260206004820152605660248201527f4572726f723a20596f7520617265206e6f7420617574686f72697a656420746f60448201527f20636c61696d20616e792066756e64732e20496620746869732069732061206d6064820152751a5cdd185ad94818dbdb9d1858dd081cdd5c1c1bdc9d60521b608482015260a4015b60405180910390fd5b600083815260076020526040902080548390811061076957610769613b68565b600091825260209091206005600690920201015460ff16156107ff5760405162461bcd60e51b815260206004820152604360248201527f41706172746d656e7420697320616c726561647920636865636b656420496e2060448201527f6f6e20746869732064617465206e6f206e65656420746f20636c61696d2066756064820152626e647360e81b608482015260a401610740565b610807613116565b8160600151106108765760405162461bcd60e51b815260206004820152603460248201527f4e6f7420616c6c6f77656420746f20636c61696d2066756e6473206265666f72604482015273652074686520626f6f6b696e672064617465212160601b6064820152608401610740565b600083815260076020526040812080548490811061089657610896613b68565b906000526020600020906006020160040154905060006064600554836108bc9190613b94565b6108c69190613bab565b6000868152600660205260409020600701549091506108f7906001600160a01b03166108f28385613bcd565b613135565b61091261090c6000546001600160a01b031690565b82613135565b61091e33600454613135565b5050505050565b6060600060015b600254811161097557600081815260066020526040902060070154600160a81b900460ff16610963578161095f81613be0565b9250505b8061096d81613be0565b91505061092c565b508067ffffffffffffffff81111561098f5761098f6135ea565b6040519080825280602002602001820160405280156109c857816020015b6109b561333c565b8152602001906001900390816109ad5790505b509150600060015b6002548111610cfa57600081815260066020526040902060070154600160a81b900460ff16610ce857600660008281526020019081526020016000206040518061016001604052908160008201548152602001600182018054610a3290613bf9565b80601f0160208091040260200160405190810160405280929190818152602001828054610a5e90613bf9565b8015610aab5780601f10610a8057610100808354040283529160200191610aab565b820191906000526020600020905b815481529060010190602001808311610a8e57829003601f168201915b50505050508152602001600282018054610ac490613bf9565b80601f0160208091040260200160405190810160405280929190818152602001828054610af090613bf9565b8015610b3d5780601f10610b1257610100808354040283529160200191610b3d565b820191906000526020600020905b815481529060010190602001808311610b2057829003601f168201915b50505050508152602001600382018054610b5690613bf9565b80601f0160208091040260200160405190810160405280929190818152602001828054610b8290613bf9565b8015610bcf5780601f10610ba457610100808354040283529160200191610bcf565b820191906000526020600020905b815481529060010190602001808311610bb257829003601f168201915b50505050508152602001600482018054610be890613bf9565b80601f0160208091040260200160405190810160405280929190818152602001828054610c1490613bf9565b8015610c615780601f10610c3657610100808354040283529160200191610c61565b820191906000526020600020905b815481529060010190602001808311610c4457829003601f168201915b5050509183525050600582015460208201526006820154604082015260078201546001600160a01b038116606083015260ff600160a01b8204811615156080840152600160a81b90910416151560a082015260089091015460c0909101528483610cca81613be0565b945081518110610cdc57610cdc613b68565b60200260200101819052505b80610cf281613be0565b9150506109d0565b50505090565b60606000805b600084815260076020526040902054811015610d78576000848152600760205260409020805482908110610d3c57610d3c613b68565b600091825260209091206005600690920201015460ff1615610d665781610d6281613be0565b9250505b80610d7081613be0565b915050610d06565b508067ffffffffffffffff811115610d9257610d926135ea565b604051908082528060200260200182016040528015610dbb578160200160208202803683370190505b5091506000805b600085815260076020526040902054811015610ea1576000858152600760205260409020805482908110610df857610df8613b68565b600091825260209091206005600690920201015460ff1615610e8f576000858152600760205260409020805482908110610e3457610e34613b68565b60009182526020909120600260069092020101546001600160a01b03168483610e5c81613be0565b945081518110610e6e57610e6e613b68565b60200260200101906001600160a01b031690816001600160a01b0316815250505b80610e9981613be0565b915050610dc2565b505050919050565b600e8181548110610eb957600080fd5b600091825260209091200154905081565b6000878152600c602052604090205460ff161515600114610f245760405162461bcd60e51b8152602060048201526014602482015273105c1c185c9d1b595b9d081b9bdd08199bdd5b9960621b6044820152606401610740565b6000878152600660205260409020600701546001600160a01b03163314610f985760405162461bcd60e51b815260206004820152602260248201527f556e617574686f72697a656420706572736f6e6e656c2c206f776e6572206f6e6044820152616c7960f01b6064820152608401610740565b6000865111610fe05760405162461bcd60e51b81526020600482015260146024820152734e616d652063616e6e6f7420626520656d70747960601b6044820152606401610740565b60008551116110315760405162461bcd60e51b815260206004820152601b60248201527f4465736372697074696f6e2063616e6e6f7420626520656d70747900000000006044820152606401610740565b600084511161107d5760405162461bcd60e51b81526020600482015260186024820152774c6f636174696f6e2063616e6e6f7420626520656d70747960401b6044820152606401610740565b60008351116110c75760405162461bcd60e51b8152602060048201526016602482015275496d616765732063616e6e6f7420626520656d70747960501b6044820152606401610740565b6000821161110e5760405162461bcd60e51b8152602060048201526014602482015273526f6f6d732063616e6e6f74206265207a65726f60601b6044820152606401610740565b600081116111555760405162461bcd60e51b815260206004820152601460248201527350726963652063616e6e6f74206265207a65726f60601b6044820152606401610740565b600060066000898152602001908152602001600020604051806101600160405290816000820154815260200160018201805461119090613bf9565b80601f01602080910402602001604051908101604052809291908181526020018280546111bc90613bf9565b80156112095780601f106111de57610100808354040283529160200191611209565b820191906000526020600020905b8154815290600101906020018083116111ec57829003601f168201915b5050505050815260200160028201805461122290613bf9565b80601f016020809104026020016040519081016040528092919081815260200182805461124e90613bf9565b801561129b5780601f106112705761010080835404028352916020019161129b565b820191906000526020600020905b81548152906001019060200180831161127e57829003601f168201915b505050505081526020016003820180546112b490613bf9565b80601f01602080910402602001604051908101604052809291908181526020018280546112e090613bf9565b801561132d5780601f106113025761010080835404028352916020019161132d565b820191906000526020600020905b81548152906001019060200180831161131057829003601f168201915b5050505050815260200160048201805461134690613bf9565b80601f016020809104026020016040519081016040528092919081815260200182805461137290613bf9565b80156113bf5780601f10611394576101008083540402835291602001916113bf565b820191906000526020600020905b8154815290600101906020018083116113a257829003601f168201915b5050509183525050600582015460208083019190915260068084015460408085019190915260078501546001600160a01b03811660608087019190915260ff600160a01b830481161515608080890191909152600160a81b90930416151560a08088019190915260089097015460c0968701528785018f81528884018f90529088018d90529087018b905294860189905292850187905260008d8152915220825181559051919250829160018201906114789082613c81565b506040820151600282019061148d9082613c81565b50606082015160038201906114a29082613c81565b50608082015160048201906114b79082613c81565b5060a0820151600582015560c0820151600682015560e08201516007820180546101008501516101208601511515600160a81b0260ff60a81b19911515600160a01b026001600160a81b03199093166001600160a01b03909516949094179190911716919091179055610140909101516008909101555050505050505050565b61153f6133a3565b600083815260076020526040902080548390811061155f5761155f613b68565b60009182526020918290206040805160e08101825260069093029091018054835260018101549383019390935260028301546001600160a01b031690820152600382015460608201526004820154608082015260059091015460ff808216151560a084015261010090910416151560c082015290505b92915050565b6000818152600c602052604090205460ff16151560011461160e5760405162461bcd60e51b815260040161074090613d41565b6000818152600660205260409020600701546001600160a01b0316331461166d5760405162461bcd60e51b8152602060048201526013602482015272556e617574686f72697a656420656e7469747960681b6044820152606401610740565b6000908152600c60209081526040808320805460ff1916905560069091529020600701805460ff60a81b1916600160a81b179055565b6000828152600c602052604090205460ff166117015760405162461bcd60e51b815260206004820152601a60248201527f41706172746d656e74206973206e6f7420617661696c61626c650000000000006044820152606401610740565b336000908152600b6020908152604080832085845290915290205460ff1661177d5760405162461bcd60e51b815260206004820152602960248201527f4d75737420626f6f6b2061706172746d656e74206265666f726520796f752063604482015268616e2072657669657760b81b6064820152608401610740565b60008151116117d95760405162461bcd60e51b815260206004820152602260248201527f596f752063616e6e6f74206c6561766520616e20656d70747920726576696577604482015261212160f01b6064820152608401610740565b6118146040518060a001604052806000815260200160008152602001606081526020016000815260200160006001600160a01b031681525090565b602080820184905260008481526008909152604090819020548252810182905261183c613116565b60608201523360808201526000838152600860209081526040808320805460018181018355918552938390208551600590950201938455918401519183019190915582015182919060028201906118939082613c81565b5060608201516003820155608090910151600490910180546001600160a01b0319166001600160a01b03909216919091179055505050565b6118d3613195565b60008281526007602052604081208054839081106118f3576118f3613b68565b60009182526020918290206040805160e08101825260069093029091018054835260018101549383019390935260028301546001600160a01b031690820152600382015460608201526004820154608082015260059091015460ff80821615801560a085015261010090920416151560c08301529091506119c65760405162461bcd60e51b815260206004820152602760248201527f43616e6e6f7420726566756e64206166746572206265696e6720636865636b656044820152666420494e21212160c81b6064820152608401610740565b6000838152600a602090815260408083206060850151845290915290205460ff16611a335760405162461bcd60e51b815260206004820181905260248201527f596f7520646964206e6f7420626f6f6b20666f722074686973206461746521216044820152606401610740565b6000546001600160a01b03163314611b3e5780604001516001600160a01b0316336001600160a01b031614611abe5760405162461bcd60e51b815260206004820152602b60248201527f4572726f723a20596f7520617265206e6f742061737369676e656420746f207460448201526a68697320626f6f6b696e6760a81b6064820152608401610740565b611ac6613116565b816060015111611b3e5760405162461bcd60e51b815260206004820152603e60248201527f4572726f723a2054686520626f6f6b696e6720646174652068617320616c726560448201527f616479207061737365642c20796f752063616e6e6f7420726566756e642e00006064820152608401610740565b600083815260076020526040902080546001919084908110611b6257611b62613b68565b6000918252602080832060056006909302019190910180549315156101000261ff001990941693909317909255848152600a82526040808220606085015183528352808220805460ff19169055858252600990925290812054611bc790600190613bcd565b60008581526009602052604081208054929350909183908110611bec57611bec613b68565b9060005260206000200154905080600960008781526020019081526020016000208581548110611c1e57611c1e613b68565b906000526020600020018190555060096000868152602001908152602001600020805480611c4e57611c4e613d6e565b60019003818190600052602060002001600090559055600060646004548560800151611c7a9190613b94565b611c849190613bab565b90506000611c93600283613bab565b600088815260066020526040902060070154909150611cbb906001600160a01b031682613135565b611cd061090c6000546001600160a01b031690565b611cde338660800151613135565b5050505050611cec60018055565b5050565b611cf86131ee565b611d026000613248565b565b600e5460609060008167ffffffffffffffff811115611d2557611d256135ea565b604051908082528060200260200182016040528015611d8357816020015b611d706040518060600160405280600081526020016000815260200160006001600160a01b031681525090565b815260200190600190039081611d435790505b50905060005b82811015611e24576000600e8281548110611da657611da6613b68565b6000918252602080832090910154808352600d8252604092839020835160608101855281548152600182015493810193909352600201546001600160a01b031692820192909252845191925090849084908110611e0557611e05613b68565b6020026020010181905250508080611e1c90613be0565b915050611d89565b5092915050565b6000828152600c602052604090205460ff161515600114611e5e5760405162461bcd60e51b815260040161074090613d41565b80611e67611e8c565b611e719190613b94565b60009283526006602081905260409093209092019190915550565b600080600360009054906101000a90046001600160a01b03166001600160a01b031663feaf968c6040518163ffffffff1660e01b815260040160a060405180830381865afa158015611ee2573d6000803e3d6000fd5b505050506040513d601f19601f82011682018060405250810190611f069190613da3565b505050915050806402540be400611f1d9190613df3565b91505090565b606060086000838152602001908152602001600020805480602002602001604051908101604052809291908181526020016000905b8282101561205357838290600052602060002090600502016040518060a00160405290816000820154815260200160018201548152602001600282018054611f9f90613bf9565b80601f0160208091040260200160405190810160405280929190818152602001828054611fcb90613bf9565b80156120185780601f10611fed57610100808354040283529160200191612018565b820191906000526020600020905b815481529060010190602001808311611ffb57829003601f168201915b505050918352505060038201546020808301919091526004909201546001600160a01b03166040909101529082526001929092019101611f58565b505050509050919050565b606060076000838152602001908152602001600020805480602002602001604051908101604052809291908181526020016000905b828210156120535760008481526020908190206040805160e08101825260068602909201805483526001808201548486015260028201546001600160a01b03169284019290925260038101546060840152600481015460808401526005015460ff808216151560a085015261010090910416151560c08301529083529092019101612093565b6000838152600c602052604090205460ff16151560011461214c5760405162461bcd60e51b815260040161074090613d41565b6000838152600960205260409020546121c05760405162461bcd60e51b815260206004820152603060248201527f41706172746d656e742073686f756c6420626520626f6f6b656420696e206f7260448201526f19195c881d1bc81899481c995cdbdb1960821b6064820152608401610740565b60008381526007602052604081208054839081106121e0576121e0613b68565b60009182526020918290206040805160e08101825260069093029091018054835260018101549383019390935260028301546001600160a01b0316908201819052600383015460608301526004830154608083015260059092015460ff808216151560a084015261010090910416151560c0820152915033146122a55760405162461bcd60e51b815260206004820152601c60248201527f4572726f723a20556e617574686f72697a65642074656e616e742121000000006044820152606401610740565b8060a00151156123435760405162461bcd60e51b815260206004820152605d60248201527f4572726f723a20596f752063616e6e6f74207075742061706172746d656e742060448201527f757020666f7220726573656c6c207768656e20796f75206861766520616c726560648201527f61647920636865636b6564496e20666f72207468697320646174652121000000608482015260a401610740565b6000612350846064613b94565b60008681526006602081905260408220015491925090612371906064613b94565b90506064612380826078613b94565b61238a9190613bab565b8211156123f45760405162461bcd60e51b815260206004820152603260248201527f4e65772070726963652063616e6e6f74206578636565642031323025206f6620604482015271746865206f726967696e616c20707269636560701b6064820152608401610740565b6124216040518060600160405280600081526020016000815260200160006001600160a01b031681525090565b9485525050606081015160208085019182526040928301516001600160a01b039081168487019081526000868152600d9093529382209551865591516001808701919091559251600290950180546001600160a01b03191695909216949094179055600e805491820181559092527fbb7b4a454dc3493923482f07822329ed19e8244eff582cc204f8554c3620c3fd9091015550565b6124bf61333c565b6006600083815260200190815260200160002060405180610160016040529081600082015481526020016001820180546124f890613bf9565b80601f016020809104026020016040519081016040528092919081815260200182805461252490613bf9565b80156125715780601f1061254657610100808354040283529160200191612571565b820191906000526020600020905b81548152906001019060200180831161255457829003601f168201915b5050505050815260200160028201805461258a90613bf9565b80601f01602080910402602001604051908101604052809291908181526020018280546125b690613bf9565b80156126035780601f106125d857610100808354040283529160200191612603565b820191906000526020600020905b8154815290600101906020018083116125e657829003601f168201915b5050505050815260200160038201805461261c90613bf9565b80601f016020809104026020016040519081016040528092919081815260200182805461264890613bf9565b80156126955780601f1061266a57610100808354040283529160200191612695565b820191906000526020600020905b81548152906001019060200180831161267857829003601f168201915b505050505081526020016004820180546126ae90613bf9565b80601f01602080910402602001604051908101604052809291908181526020018280546126da90613bf9565b80156127275780601f106126fc57610100808354040283529160200191612727565b820191906000526020600020905b81548152906001019060200180831161270a57829003601f168201915b5050509183525050600582015460208201526006820154604082015260078201546001600160a01b038116606083015260ff600160a01b8204811615156080840152600160a81b90910416151560a082015260089091015460c09091015292915050565b60008651116127d35760405162461bcd60e51b81526020600482015260146024820152734e616d652063616e6e6f7420626520656d70747960601b6044820152606401610740565b60008551116128245760405162461bcd60e51b815260206004820152601b60248201527f4465736372697074696f6e2063616e6e6f7420626520656d70747900000000006044820152606401610740565b60008451116128705760405162461bcd60e51b81526020600482015260186024820152774c6f636174696f6e2063616e6e6f7420626520656d70747960401b6044820152606401610740565b60008351116128ba5760405162461bcd60e51b8152602060048201526016602482015275496d616765732063616e6e6f7420626520656d70747960501b6044820152606401610740565b600082116129015760405162461bcd60e51b8152602060048201526014602482015273526f6f6d732063616e6e6f74206265207a65726f60601b6044820152606401610740565b600081116129485760405162461bcd60e51b815260206004820152601460248201527350726963652063616e6e6f74206265207a65726f60601b6044820152606401610740565b612956600280546001019055565b61295e61333c565b60025481526020810187905260408101869052606081018590526080810184905260a0810183905260c081018290523360e082015261299b613116565b61014082015280516000908152600c60205260408120805460ff1916600117905581906006906129ca60025490565b8152602080820192909252604001600020825181559082015160018201906129f29082613c81565b5060408201516002820190612a079082613c81565b5060608201516003820190612a1c9082613c81565b5060808201516004820190612a319082613c81565b5060a0820151600582015560c0820151600682015560e08201516007820180546101008501516101208601511515600160a81b0260ff60a81b19911515600160a01b026001600160a81b03199093166001600160a01b039095169490941791909117169190911790556101409091015160089091015550505050505050565b600081815260096020908152604091829020805483518184028101840190945280845260609392830182828015612b0657602002820191906000526020600020905b815481526020019060010190808311612af2575b50505050509050919050565b6000828152600c602052604090205460ff16612b705760405162461bcd60e51b815260206004820181905260248201527f4572726f723a2041706172746d656e742063616e6e6f7420626520666f756e646044820152606401610740565b60045481516000848152600660208190526040909120015460649291612b9591613b94565b612b9f9190613b94565b612ba99190613bab565b815160008481526006602081905260409091200154612bc89190613b94565b612bd29190613e23565b341015612c165760405162461bcd60e51b8152602060048201526012602482015271496e73756666696369656e742066756e642160701b6044820152606401610740565b612c208282613298565b612c7a5760405162461bcd60e51b815260206004820152602560248201527f4572726f723a2054686973204461746520697320616c726561647920626f6f6b604482015264032b21090960dd1b6064820152608401610740565b60005b8151811015612e2757612c8e6133a3565b60208082018590526000858152600790915260409081902054825233908201528251839083908110612cc257612cc2613b68565b6020908102919091018101516060830190815260008681526006808452604080832082015460808701908152898452600786528184208054600181810183559186528786208951919095029094019384558787015184820155828801516002850180546001600160a01b039092166001600160a01b03199092169190911790559451600384015551600483015560a08601516005909201805460c088015115156101000261ff00199415159490941661ffff199091161792909217909155878252600a909352918220855191929091869086908110612da357612da3613b68565b6020026020010151815260200190815260200160002060006101000a81548160ff02191690831515021790555060096000858152602001908152602001600020838381518110612df557612df5613b68565b602090810291909101810151825460018101845560009384529190922001555080612e1f81613be0565b915050612c7d565b505050565b612e346131ee565b6001600160a01b038116612e995760405162461bcd60e51b815260206004820152602660248201527f4f776e61626c653a206e6577206f776e657220697320746865207a65726f206160448201526564647265737360d01b6064820152608401610740565b612ea281613248565b50565b6000828152600760205260408120805483908110612ec557612ec5613b68565b60009182526020918290206040805160e08101825260069093029091018054835260018101549383019390935260028301546001600160a01b0316908201819052600383015460608301526004830154608083015260059092015460ff808216151560a084015261010090910416151560c082015291503314612f8a5760405162461bcd60e51b815260206004820152601c60248201527f4572726f723a20556e617574686f72697a65642074656e616e742121000000006044820152606401610740565b8060a00151156130155760405162461bcd60e51b815260206004820152604a60248201527f41706172746d656e7420616c726561647920636865636b656420666f7220746860448201527f6973206461746520446f75626c6520636865636b696e67206973206e6f74207060648201526972656d6974746564212160b01b608482015260a401610740565b60008381526007602052604090208054600191908490811061303957613039613b68565b60009182526020822060056006909202018101805493151560ff19909416939093179092559054608083015160649161307191613b94565b61307b9190613bab565b90506000606460045484608001516130939190613b94565b61309d9190613bab565b336000908152600b602090815260408083208984528252808320805460ff19166001179055600690915290206007015460808501519192506130f1916001600160a01b0391909116906108f2908590613bcd565b61310c6131066000546001600160a01b031690565b83613135565b61091e3382613135565b6000613124426103e8613b94565b613130906103e8613e23565b905090565b6000826001600160a01b03168260405160006040518083038185875af1925050503d8060008114613182576040519150601f19603f3d011682016040523d82523d6000602084013e613187565b606091505b5050905080612e2757600080fd5b6002600154036131e75760405162461bcd60e51b815260206004820152601f60248201527f5265656e7472616e637947756172643a207265656e7472616e742063616c6c006044820152606401610740565b6002600155565b6000546001600160a01b03163314611d025760405162461bcd60e51b815260206004820181905260248201527f4f776e61626c653a2063616c6c6572206973206e6f7420746865206f776e65726044820152606401610740565b600080546001600160a01b038381166001600160a01b0319831681178455604051919092169283917f8be0079c531659141344cd1fd0a4f28419497f9722a3daafe3b4186f6b6457e09190a35050565b60006001815b83518110156133345760005b6000868152600960205260409020548110156133215760008681526009602052604090208054829081106132e0576132e0613b68565b90600052602060002001548583815181106132fd576132fd613b68565b60200260200101510361330f57600092505b8061331981613be0565b9150506132aa565b508061332c81613be0565b91505061329e565b509392505050565b6040518061016001604052806000815260200160608152602001606081526020016060815260200160608152602001600081526020016000815260200160006001600160a01b03168152602001600015158152602001600015158152602001600081525090565b6040518060e00160405280600081526020016000815260200160006001600160a01b0316815260200160008152602001600081526020016000151581526020016000151581525090565b6000806040838503121561340057600080fd5b50508035926020909101359150565b6000815180845260005b8181101561343557602081850181015186830182015201613419565b506000602082860101526020601f19601f83011685010191505092915050565b60006101608251845260208301518160208601526134758286018261340f565b9150506040830151848203604086015261348f828261340f565b915050606083015184820360608601526134a9828261340f565b915050608083015184820360808601526134c3828261340f565b91505060a083015160a085015260c083015160c085015260e08301516134f460e08601826001600160a01b03169052565b5061010083810151151590850152610120808401511515908501526101409283015192909301919091525090565b6000602080830181845280855180835260408601915060408160051b870101925083870160005b8281101561357757603f19888603018452613565858351613455565b94509285019290850190600101613549565b5092979650505050505050565b60006020828403121561359657600080fd5b5035919050565b6020808252825182820181905260009190848201906040850190845b818110156135de5783516001600160a01b0316835292840192918401916001016135b9565b50909695505050505050565b634e487b7160e01b600052604160045260246000fd5b604051601f8201601f1916810167ffffffffffffffff81118282101715613629576136296135ea565b604052919050565b600082601f83011261364257600080fd5b813567ffffffffffffffff81111561365c5761365c6135ea565b61366f601f8201601f1916602001613600565b81815284602083860101111561368457600080fd5b816020850160208301376000918101602001919091529392505050565b600080600080600080600060e0888a0312156136bc57600080fd5b87359650602088013567ffffffffffffffff808211156136db57600080fd5b6136e78b838c01613631565b975060408a01359150808211156136fd57600080fd5b6137098b838c01613631565b965060608a013591508082111561371f57600080fd5b61372b8b838c01613631565b955060808a013591508082111561374157600080fd5b5061374e8a828b01613631565b93505060a0880135915060c0880135905092959891949750929550565b80518252602080820151908301526040808201516001600160a01b031690830152606080820151908301526080808201519083015260a08082015115159083015260c0908101511515910152565b60e081016115d5828461376b565b600080604083850312156137da57600080fd5b82359150602083013567ffffffffffffffff8111156137f857600080fd5b61380485828601613631565b9150509250929050565b602080825282518282018190526000919060409081850190868401855b828110156138635781518051855286810151878601528501516001600160a01b0316858501526060909301929085019060010161382b565b5091979650505050505050565b60006020808301818452808551808352604092508286019150828160051b87010184880160005b8381101561390057603f19898403018552815160a08151855288820151898601528782015181898701526138cd8287018261340f565b606084810151908801526080938401516001600160a01b0316939096019290925250509386019390860190600101613897565b509098975050505050505050565b6020808252825182820181905260009190848201906040850190845b818110156135de5761393d83855161376b565b9284019260e0929092019160010161392a565b60008060006060848603121561396557600080fd5b505081359360208301359350604090920135919050565b60208152600061398f6020830184613455565b9392505050565b60008060008060008060c087890312156139af57600080fd5b863567ffffffffffffffff808211156139c757600080fd5b6139d38a838b01613631565b975060208901359150808211156139e957600080fd5b6139f58a838b01613631565b96506040890135915080821115613a0b57600080fd5b613a178a838b01613631565b95506060890135915080821115613a2d57600080fd5b50613a3a89828a01613631565b9350506080870135915060a087013590509295509295509295565b6020808252825182820181905260009190848201906040850190845b818110156135de57835183529284019291840191600101613a71565b60008060408385031215613aa057600080fd5b8235915060208084013567ffffffffffffffff80821115613ac057600080fd5b818601915086601f830112613ad457600080fd5b813581811115613ae657613ae66135ea565b8060051b9150613af7848301613600565b8181529183018401918481019089841115613b1157600080fd5b938501935b83851015613b2f57843582529385019390850190613b16565b8096505050505050509250929050565b600060208284031215613b5157600080fd5b81356001600160a01b038116811461398f57600080fd5b634e487b7160e01b600052603260045260246000fd5b634e487b7160e01b600052601160045260246000fd5b80820281158282048414176115d5576115d5613b7e565b600082613bc857634e487b7160e01b600052601260045260246000fd5b500490565b818103818111156115d5576115d5613b7e565b600060018201613bf257613bf2613b7e565b5060010190565b600181811c90821680613c0d57607f821691505b602082108103613c2d57634e487b7160e01b600052602260045260246000fd5b50919050565b601f821115612e2757600081815260208120601f850160051c81016020861015613c5a5750805b601f850160051c820191505b81811015613c7957828155600101613c66565b505050505050565b815167ffffffffffffffff811115613c9b57613c9b6135ea565b613caf81613ca98454613bf9565b84613c33565b602080601f831160018114613ce45760008415613ccc5750858301515b600019600386901b1c1916600185901b178555613c79565b600085815260208120601f198616915b82811015613d1357888601518255948401946001909101908401613cf4565b5085821015613d315787850151600019600388901b60f8161c191681555b5050505050600190811b01905550565b602080825260139082015272105c185c9d1b595b9d081b9bdd08199bdd5b99606a1b604082015260600190565b634e487b7160e01b600052603160045260246000fd5b805169ffffffffffffffffffff81168114613d9e57600080fd5b919050565b600080600080600060a08688031215613dbb57600080fd5b613dc486613d84565b9450602086015193506040860151925060608601519150613de760808701613d84565b90509295509295909350565b80820260008212600160ff1b84141615613e0f57613e0f613b7e565b81810583148215176115d5576115d5613b7e565b808201808211156115d5576115d5613b7e56fea2646970667358221220978e4a873e754699a5c45378ce5babc3e747479dd067675b8bc1cb2b03a6335964736f6c63430008130033",
  "linkReferences": {},
  "deployedLinkReferences": {}
}